:10000000F8C0000027C1000025C1000023C1000086
:1000100021C100001FC100001DC100001BC1000064
:1000200019C1000017C1000015C1000013C1000074
:1000300011C100000FC100000DC100000BC1000084
:1000400009C1000007C1000005C1000003C1000094
:1000500001C10000FFC00000FDC000000C94002A98
:10006000F9C000000C94F72D0C942D2EF3C0000065
:10007000F1C00000EFC00000EDC00000EBC00000C8
:10008000E9C00000E7C00000E5C00000E3C00000D8
:100090000C94832E0C94B92EDDC00000DBC0000050
:1000A000D9C00000D7C00000D5C00000D3C00000F8
:1000B000D1C00000CFC00000CDC00000CBC0000008
:1000C000C9C00000C7C000000C9429260C940F2F53
:1000D0000C94452FBFC000000C949B2F0C94D12F83
:1000E000B9C0000000000A0B02090C0D0E0807033E
:1000F00004010000000000000000000000000000FB
:1001000000000000000000000000000000000000EF
:1001100012111000000000000000000000000000AC
:100120000000000000000000000001021020200874
:100130000810204010204080020102010804020142
:1001400001020408102040808040201008040201B1
:10015000800402018040201008040201080402010A
:100160000102040810204080010204081020408091
:1001700005050505070508080808020202020A0A23
:100180000808040404040101010101010101030341
:10019000030303030303040707070C0C0C0C0C0CEC
:1001A0000C0C0202020206060606060606060B0BE9
:1001B0000B0B0B0B0B0B00002200250028002B0063
:1001C0002E003100340002010000050108010B017E
:1001D00000002100240027002A002D0030003300F9
:1001E00001010000040107010A01562EE22E6E2FC4
:1001F000FA2F11241FBECFEFD1E2DEBFCDBF00E04A
:100200000CBF12E0A0E0B2E0ECE7F1E600E00BBFCB
:1002100002C007900D92A43EB107D9F729E0A4EEE1
:10022000B2E001C01D92AB3CB207E1F710E0C9EFAC
:10023000D0E000E006C021970109802FFE010E9456
:100240008B30C53FD10780E00807A9F70E94BD2782
:100250000C94BC30D5CECF93DF93882349F0EB01CB
:1002600081500E94072B99838883DF91CF91089555
:10027000FB0111821082F9CF0F931F938B019C0118
:1002800083E036952795179507958A95D1F7035101
:100290001D4F462F477021E030E0F90102C0EE0FFC
:1002A000FF1F4A95E2F7AF01F80120812423CB011B
:1002B0000196211102C090E080E01F910F910895F6
:1002C0000F931F938B019C0183E03695279517951B
:1002D00007958A95D1F7677081E090E001C0880F9B
:1002E0006A95EAF7F801E351FD4F2081452B31F47F
:1002F0008095822380831F910F910895822BFACFDE
:10030000CF92DF92EF92FF92CF93DF936B017C014C
:1003100060E086E3C816D104E104F10490F486E3BA
:100320008C0D0E94642CE6012196AE01C701B60136
:10033000C7DFCE01DF91CF91FF90EF90DF90CF909C
:1003400008958C2DEECF882341F08150682F70E006
:1003500090E080E050E040E0B3CF0895CF92DF928C
:10036000EF92FF92CF93882351F16A017B01CFEF87
:10037000C80F20E030E0A901CB01B6010E94B228ED
:1003800018168CF0C701B60190580E94BB289B013B
:10039000AC016C2F70E090E080E0CF91FF90EF9087
:1003A000DF90CF90B2C0C701B6010E94B6288C2F53
:1003B000CF91FF90EF90DF90CF900C942A2BCF91AC
:1003C000FF90EF90DF90CF9008950F931F938B01D4
:1003D0009C0183E036952795179507958A95D1F767
:1003E0000C511D4F462F477021E030E0F90102C04B
:1003F000EE0FFF1F4A95E2F7AF01F8012081242399
:10040000CB010196211102C090E080E01F910F9175
:1004100008950F931F938B019C0183E036952795D8
:10042000179507958A95D1F7677081E090E001C034
:10043000880F6A95EAF7F801EC51FD4F2081452BB2
:1004400031F48095822380831F910F910895822B30
:10045000FACF2F923F924F925F926F927F928F923C
:100460009F92AF92BF92CF92DF92EF92FF920F9343
:100470001F93CF93DF93D62EC72E782E692E490176
:100480005A01280161E08D2D0E94642CCD2DDC2DB8
:100490008E010F5F1F4FA8016D2D7C2D872D962D8E
:1004A000B8DF20E030E0A901C201B7010E9499291C
:1004B000181664F4C201B7010E94BB282B01C501C4
:1004C000B4010E94BB28A201CE0123D0C801DF9154
:1004D000CF911F910F91FF90EF90DF90CF90BF9041
:1004E000AF909F908F907F906F905F904F903F90D4
:1004F0002F900895882341F08150682F70E090E09C
:1005000080E050E040E085CF0895862FB9010C943B
:100510002A2B9C01FC01EC51FF4FE491E150E231A8
:10052000E0F4F0E08827E856FD4F8F4F0C948B30B5
:10053000AA02B102B402CB02E002AD02F50201034D
:1005400005031C03310346035D037203AD028703F9
:100550009E03B30384B5806884BD60E0822F0C9451
:10056000A02C84B58062F8CF809180008C7F82605F
:100570008093800080918100807E8061682B6093F1
:1005800081005093870040938600809180008068AE
:1005900080938000E2CF809180008C7F8260809386
:1005A000800080918100807E8061682B6093810053
:1005B0005093870040938600809180008062E8CF4E
:1005C000809180008C7F8260809380008091810088
:1005D000807E8061682B60938100509387004093F8
:1005E0008600809180008860D3CF8091B0008068C1
:1005F0008093B0008091B100887F682B6093B10038
:10060000ACCF8091B0008062F3CF809190008C7F5E
:1006100082608093900080919100807E8061682B41
:1006200060939100509397004093960080919000C2
:1006300080688093900091CF809190008C7F826041
:100640008093900080919100807E8061682B609300
:1006500091005093970040939600809190008062A3
:10066000E8CF809190008C7F826080939000809191
:100670009100807E8061682B609391005093970079
:1006800040939600809190008860D3CF8091A00025
:100690008C7F82608093A0008091A100807E806129
:1006A000682B6093A1005093A7004093A60080910F
:1006B000A00080688093A00050CF8091A0008C7F24
:1006C00082608093A0008091A100807E8061682B71
:1006D0006093A1005093A7004093A6008091A000D2
:1006E0008062E8CF8091A0008C7F82608093A00020
:1006F0008091A100807E8061682B6093A10050935F
:10070000A7004093A6008091A0008860D3CF80917D
:1007100020018C7F82608093200180912101807E66
:100720008061682B6093210150932701409326013B
:10073000809120018068809320010FCF809120015B
:100740008C7F82608093200180912101807E806176
:10075000682B6093210150932701409326018091DB
:1007600020018062E8CF809120018C7F826080939D
:10077000200180912101807E8061682B609321019E
:100780005093270140932601809120018860D3CFA8
:1007900090E080E008950F931F93009709F48BC0B9
:1007A0006115710509F487C00091140210911502BA
:1007B00020911602309117020E3F1F4F2F4F3F4FCF
:1007C00009F06AC04FEF5FEFBA01409314025093F3
:1007D0001502609316027093170240911402509113
:1007E00015026091160270911702DC011296ED91CC
:1007F000FC9180819181A281B381809309049093BF
:100800000A04A0930B04B0930C0484819581A68103
:10081000B7818093050490930604A0930704B093D6
:10082000080480859185A285B38580930104909307
:100830000204A0930304B093040484859585A685DF
:10084000B7858093FD039093FE03A093FF03B093BD
:1008500000041092F9031092FA031092FB03109215
:10086000FC03FFD586E59AE09093F7028093F602A9
:100870009093F9028093F8029093FB028093FA021E
:10088000DFD4009731F421E030E030930E04209360
:100890000D041F910F9108950091140210911502FB
:1008A0002091160230911702DB010D931D932D93B9
:1008B0003C93139792CF8FEF9FEFEBCF8F929F9246
:1008C000AF92BF92CF92DF92EF92FF921F93CF939E
:1008D000DF934B015C011091100482E090E0909353
:1008E0000E0480930D0481149104A104B10441F419
:1008F00080911004811104C080910F04C1E0811126
:10090000C0E0C12CD12C760180911004811106C069
:1009100080910F04811102C0CC23D9F083E090E0D4
:1009200090930E0480930D04CC2379F1CCE9DFEF92
:10093000111102C00E94BB0DCE01DF91CF911F911A
:10094000FF90EF90DF90CF90BF90AF909F908F90EF
:1009500008956AE070E080E090E00E946F2A80E1F4
:10096000C80E87E2D81EE11CF11C8FEF881698068E
:10097000A806B80631F0C1E08C149D04AE04BF0493
:1009800008F0C0E080E090D4BFCFD0E0C0E0D0CF8E
:10099000CF92DF92EF92FF920F931F93CF93DF934B
:1009A0008F3F910511F008F050C020910D04309157
:1009B0000E042330310539F020910D0430910E04DE
:1009C0002130310531F424E030E030930E042093DF
:1009D0000D046A017B01EC0183309105A0F011E068
:1009E000AE01C701B6012BD4AB01BC01CE0111236E
:1009F000F9F0DF91CF911F910F91FF90EF90DF9071
:100A0000CF900C94E40F8C01000F111F0A501D4F62
:100A1000D8018D919C91892B11F30E94EE0F0297C2
:100A2000F1F6D801ED91FC91CE011995182FD8CF90
:100A30000E94061090E080E0DF91CF911F910F910E
:100A4000FF90EF90DF90CF9008958FEF9FEFF4CF5E
:100A500080E02AC4CF93DF9386E090E090930E0469
:100A600080930D047AD4EC01E6EFF2E086E0DF013A
:100A70001D928A95E9F70E94530D10920E04109270
:100A80000D04CE01DF91CF91089580910F04089558
:100A90008091F80308956093140270931502809377
:100AA00016029093170290E080E00895FC0191E017
:100AB0008091C603811190E0928308954F925F92D6
:100AC0006F927F928F929F92AF92BF92CF92DF925E
:100AD000EF92FF92CF93DF938091C6038F5F8A30AE
:100AE00008F0EDC08093C603E091CE03F091CF03F0
:100AF00020910402309105024091060250910702B4
:100B000060817181828193810E94B22887FFDAC05F
:100B10008091080290910902A0910A02B0910B0203
:100B20008093A5099093A609A093A709B093A8095B
:100B30006AE070E080E090E048DC5C019093C209DC
:100B40008093C109C090A509D090A609E090A7099B
:100B5000F090A80920E030E04FE753E4C701B60168
:100B60000E94B22818160CF4B6C020E030E0A901AB
:100B7000C701B6010E94992987FF03C0C12CD12C5F
:100B80007601B701A601C501E9DBC090A803D090AA
:100B9000A903E090AA03F090AB038FEFC81AD80A1C
:100BA000E80AF80AC092A803D092A903E092AA0327
:100BB000F092AB03C114D104E104F10499F48091E3
:100BC000AC039091AD03A091AE03B091AF03019639
:100BD000A11DB11D8093AC039093AD03A093AE0310
:100BE000B093AF038090B0039090B103A090B20394
:100BF000B090B303C091CE03D091CF036091AC030A
:100C00007091AD038091AE039091AF030E94E728ED
:100C1000A50194010E949D2920E030E040E85FE4B6
:100C20000E949D292B013C01C701B6010E94E728C3
:100C3000A50194010E949D299B01AC01C301B20151
:100C40000E944E28688379838A839B838091B403B2
:100C50009091B503A091B603B091B7030196A11D81
:100C6000B11D8093B4039093B503A093B603B093E2
:100C7000B703892B8A2B8B2B99F48091B803909121
:100C8000B903A091BA03B091BB030196A11DB11D98
:100C90008093B8039093B903A093BA03B093BB03B6
:100CA000DF91CF91FF90EF90DF90CF90BF90AF900A
:100CB0009F908F907F906F905F904F9008951092CB
:100CC000C60312CF80910C0290910D02A0910E02EA
:100CD000B0910F0225CFC12CD12C8FE7E82E83E4F1
:100CE000F82E4FCFCF92DF92EF92FF92C09000028A
:100CF000D0900102E0900202F0900302A701960159
:100D00006091B7097091B8098091B9099091BA09B9
:100D10000E94B228882341F0C092B709D092B80946
:100D2000E092B909F092BA0966E370E080E090E0E1
:100D3000A3DA9093B6098093B50943E050E06DEAD9
:100D400079E089DA6091AD097091AE0990E080E0B8
:100D50000E94E72820911002309111024091120266
:100D6000509113020E949D296093A9097093AA09CA
:100D70008093AB099093AC098091BC039091BD0323
:100D8000A091BE03B091BF030196A11DB11D809338
:100D9000BC039093BD03A093BE03B093BF03892B04
:100DA0008A2B8B2B99F48091C0039091C103A09161
:100DB000C203B091C3030196A11DB11D8093C0036E
:100DC0009093C103A093C203B093C303FF90EF902D
:100DD000DF90CF9008958F929F92AF92BF92DF9253
:100DE000EF92FF920F931F93CF93DF93EEE0F3E028
:100DF0008EECDF011D928A95E9F78BEC93E09783E7
:100E00008683CEECD3E0D0934F03C0934E0300EB28
:100E100013E0158B048BF0937903E0937803F5834B
:100E2000E48321E030E0DC012D933C938EE392E0FB
:100E30009387828720ED33E03983288340E050E0B8
:100E400060E87FEB4093C7035093C8036093C903E6
:100E50007093CA034AE057ED63E27CE3D8014D93F7
:100E60005D936D937C931397C6E9D3E085EC94E88A
:100E7000A5E7BFE188839983AA83BB838BE994E2CA
:100E8000A0EDBFEE80939A0390939B03A0939C03E5
:100E9000B0939D038BEA93EBACE6B1EB80939E039A
:100EA00090939F03A093A003B093A10384EC99EEC9
:100EB000A5E5B4EB8093A2039093A303A093A403AE
:100EC000B093A503A2E0B3E0B383A283ECEFF2E01A
:100ED0001196FC93EE9380E592E091838083938357
:100EE00082839583848386EA93E015969C938E9300
:100EF00014971396DC93CE93129717963C932E93E8
:100F00001697E5EAF9E08AE0DF011D928A95E9F794
:100F1000CFEAD9E08AE1FE0111928A95E9F7DD2452
:100F2000D394D88E812C912C540183948D869E86E7
:100F3000AF86B88AE12CF12C8701A80197016AE0FD
:100F400070E080E090E085DA9B8B8A8BD98A1882EA
:100F5000D98E8091000290910102A0910202B0917D
:100F6000030288879987AA87BB8789829A82AB8286
:100F7000BC8266E370E080E090E0C2D99F838E83FC
:100F8000DD82DF91CF911F910F91FF90EF90DF9065
:100F9000BF90AF909F908F9008958091BB09811171
:100FA0002AC081E08093BB098091BC099091BD0962
:100FB000A091BE09B091BF090197A105B105D9F46F
:100FC0008091C0098823B9F06AE070E080E090E089
:100FD000FCD99093C2098093C10940E050E0BA0166
:100FE000BDD96AE070E080E090E0EFD99093C2094B
:100FF0008093C1097FDA8091AF0981111DC081E022
:101000008093AF098091B0099091B109A091B20984
:10101000B091B3090197A105B10571F48091B409AC
:10102000882351F066E370E080E090E025D990934A
:10103000B6098093B50987C908954F925F926F9260
:101040007F928F929F92AF92BF92CF92DF92EF9258
:10105000FF920F931F93F8944090E8035090E90398
:101060006090EA037090EB03C090DC03D090DD0346
:10107000E090DE03F090DF034130510509F0A4C099
:101080009B01AC01241935094609570929013A0188
:101090000091E4031091E5032091E6033091E7030A
:1010A00048015901840C951CA61CB71C801691069A
:1010B000A206B306A0F40091E0031091E103209191
:1010C000E2033091E3030F5F1F4F2F4F3F4F009319
:1010D000E0031093E1032093E2033093E303809253
:1010E000E4039092E503A092E603B092E703009137
:1010F000E0031091E1032091E2033091E303809239
:10110000EC039092ED03A092EE03B092EF030093F4
:10111000F0031093F1032093F2033093F3036093F1
:10112000E8037093E9038093EA039093EB03A0E153
:10113000B7E2A30192010E9493306C0D7D1D8E1DBC
:101140009F1D6093DC037093DD038093DE03909317
:10115000DF030091140210911502209116023091C4
:1011600017020F3F1F4F2F4F3F4FF1F00091140216
:101170001091150220911602309117020E3F1F4F59
:101180002F4F3F4F89F0C0901402D0901502E0908D
:101190001602F090170221E08C149D04AE04BF04E7
:1011A00008F420E02093F80378941F910F91FF90AA
:1011B000EF90DF90CF90BF90AF909F908F907F90F7
:1011C0006F905F904F9008954B015C0184189508D3
:1011D000A608B708A3019201261B370B480B590B31
:1011E0006415750586059705D0F082169306A4064A
:1011F000B50640F420E030E0A90181149104A10477
:10120000B10491F4A0E1B7E20E949330A7019601E6
:10121000261B370B480B590BCA01B901C5CF8216E3
:101220009306A406B50670F7A0E1B7E2A501940104
:101230000E9493306C0D7D1D8E1D9F1DB5CFFDCE80
:10124000CF93DF9300D01F92CDB7DEB71C821B82F5
:101250001A8219821092F4031092F5031092F60389
:101260001092F703BE016F5F7F4FCE0103960E947D
:10127000FA2569817A818B819C810E941D1F0097CC
:1012800061F4BE016F5F7F4FCE0103960E94062678
:1012900069817A818B819C812FD50F900F900F905F
:1012A0000F90DF91CF910895FF920F931F93CF93EB
:1012B000DF93082F60E070E0CB010E946F2AFF24CB
:1012C000F3940E94061EEC01892B89F010E0CE3FBA
:1012D0008FEFD80769F0002361F160E070E0CB0187
:1012E0000E946F2A81E090E0892B59F322C011E01F
:1012F00026D5EC01892B21F0CE3F8FEFD80759F787
:1013000011111EC011E0229609F410E00E94B61DD2
:10131000EC01892B21F0CE3F8FEFD807E1F61111B8
:1013200011C011E0CE3F8FEFD80709F410E0011192
:101330000BC0CE01DF91CF911F910F91FF900895C7
:1013400011E0E4CF11E0F3CF60E070E0CB010E9448
:101350006F2A1F25812F90E0C7CFCF93DF93809115
:10136000F803882321F060E070E0CB014DD636D63B
:10137000D0E0C0E0892B71F06AE070E080E090E09E
:101380000E946F2A81E090DF29D62196C03D27E098
:10139000D20781F728D60E94711F10921004109274
:1013A0000F041092090410920A0410920B04109278
:1013B0000C04109205041092060410920704109277
:1013C0000804109201041092020410920304109277
:1013D00004041092FD031092FE031092FF0310927A
:1013E00000041092F9031092FA031092FB0310927A
:1013F000FC034EEF5FEF6FEF7FEF409314025093CB
:10140000150260931602709317021092F803ECEE27
:10141000F3E028E0DF011D922A95E9F71092E80336
:101420001092E9031092EA031092EB031092E40386
:101430001092E5031092E6031092E7031092E00386
:101440001092E1031092E2031092E3031092DC0386
:101450001092DD031092DE031092DF03DF91CF9133
:10146000089510921C0410921D0410921E041092F4
:101470001F0410921B0480912404909125049093E2
:101480001A048093190410921804109217041092F1
:101490001304109214041092150410921604109262
:1014A00021041092200490E080E00895CF92DF9212
:1014B000EF92FF920F931F93CF938C01019709F046
:1014C00055C02091240430912504809119049091F5
:1014D0001A04409124045091250450931A04409317
:1014E00019042817390781F0109218041092170474
:1014F0001092130410921404109215041092160402
:1015000010922104109220048091240490912504CB
:10151000019761F58091200490912104892B21F499
:1015200080911802811112C08091200490912104B1
:101530000197E1F48091130490911404A091150493
:10154000B09116040197A105B10581F4109213041E
:10155000109214041092150410921604109218029E
:1015600082E090E0909321048093200480912404F1
:1015700090912504019709F01CC180913A04909143
:101580003B048017910709F014C1809136049091B3
:101590003704A0913804B0913904009709F409C1C7
:1015A0002091350421110DC040913604509137042B
:1015B0006091380470913904452B462B472B09F470
:1015C000F8C020912004309121042230310509F027
:1015D000F0C0209117042111ECC0FC01C080D18023
:1015E000E280F38080911B04882309F4D3C08091AA
:1015F000270490912804892B09F4FEC02091270428
:101600003091280481E02230310509F080E02091FA
:10161000270430912804C1E02130310549F02091A0
:10162000270430912804C1E02230310509F0C0E0E0
:10163000882309F456C0209131043091320440913E
:10164000330450913404C701B6010E94992987FDE3
:1016500014C02091310430913204409133045091F0
:10166000340460911C0470911D0480911E049091BB
:101670001F040E94B22887FD22C0209131043091BE
:1016800032044091330450913404C701B6010E94E2
:101690009929181634F52091310430913204409183
:1016A00033045091340460911C0470911D048091A6
:1016B0001E0490911F040E94B228811112C08091D3
:1016C000290490912A04A0912B04B0912C04892B19
:1016D0008A2B8B2B19F481E08093180481E080938E
:1016E0001704CC2309F456C0209131043091320400
:1016F0004091330450913404C701B6010E94B228CE
:1017000087FF14C02091310430913204409133049A
:101710005091340460911C0470911D0480911E044A
:1017200090911F040E94992987FF22C020913104C3
:10173000309132044091330450913404C701B60112
:101740000E94B228811126C02091310430913204C8
:10175000409133045091340460911C0470911D0435
:1017600080911E0490911F040E949929181694F4E8
:101770008091290490912A04A0912B04B0912C040B
:10178000892B8A2B8B2B19F481E08093180481E03C
:101790008093170481E090911704911180E0809369
:1017A0001B04C0921C04D0921D04E0921E04F0920F
:1017B0001F040130110509F067C180912004909148
:1017C0002104892BD9F410922604109217048091D9
:1017D0001802882379F082E090E0909321048093AE
:1017E000200410921802209124043091250481E0F5
:1017F000232BE9F080E01BC081E009CF1092180292
:1018000080912604882349F0109218041092210434
:101810001092200410922604EDCF80912404909120
:101820002504892BE1F08091170410921704209170
:101830002004309121042230310509F45EC088F47F
:101840002115310509F448C02130310509F4F3C0F0
:1018500010921804109217041092260438C081E0E8
:10186000E6CF2330310509F4B1C02430310581F7CA
:101870004091130450911404609115047091160462
:10188000411551056105710561F04150510961092A
:1018900071094093130450931404609315047093DA
:1018A0001604409113045091140460911504709132
:1018B0001604452B462B472BD9F420912204309156
:1018C00023042130310509F046C01092180410920B
:1018D0002104109220040CC080911802882341F04A
:1018E00082E090E0909321048093200410921802EB
:1018F0001092110480911804CEC08823C9F38091FE
:10190000290490912A04A0912B04B0912C0418165C
:1019100019061A061B060CF07DC0809124049091D4
:101920002504019709F076C08091290490912A043A
:10193000A0912B04B0912C04809313049093140471
:10194000A0931504B093160483E090E090932104D3
:1019500080932004CDCF40912D0450912E046091AE
:101960002F0470913004452B462B472BA9F0109281
:10197000180480912D0490912E04A0912F04B09111
:1019800030048093130490931404A0931504B0932F
:10199000160481E090E0DACF882399F08091190253
:1019A00090911A02A0911B02B0911C028093130423
:1019B00090931404A0931504B093160484E090E06F
:1019C000C5CF1092180482E090E0C0CF809113043C
:1019D00090911404A0911504B09116040097A105EC
:1019E000B10559F00197A109B109809313049093AF
:1019F0001404A0931504B0931604809113049091DD
:101A00001404A0911504B0911604892B8A2B8B2BFA
:101A100009F06ECF8091190290911A02A0911B02D9
:101A2000B0911C02892B8A2B8B2B09F44ECF81E0BD
:101A300080931804B3CF4091130450911404609123
:101A4000150470911604411551056105710561F089
:101A500041505109610971094093130450931404D2
:101A6000609315047093160440911304509114046C
:101A70006091150470911604452B462B472B09F0F5
:101A800037CF8111C7CF9FCF80911104882309F4EC
:101A900031CF80911204CF911F910F91FF90EF9061
:101AA000DF90CF90089510921C0410921D041092A4
:101AB0001E0410921F0410921B0410922104109215
:101AC000200410921A041092190410923B041092F0
:101AD0003A041092180410921704109213041092F2
:101AE000140410921504109216041092120410920D
:101AF0001104109236041092370410923804109298
:101B0000390410923504109231041092320410926C
:101B100033041092340488EE93E0A0E0B0E08093A8
:101B2000190290931A02A0931B02B0931C02109208
:101B30002D0410922E0410922F0410923004109253
:101B4000290410922A0410922B0410922C04109253
:101B500028041092270481E0809318021092260432
:101B6000109225041092240410922304109222044F
:101B700090E080E008958091240490912504892BC1
:101B800019F580911802882351F080912604811163
:101B900006C081E08093120480931104089520917F
:101BA00026043091180281E090E0332311F090E098
:101BB00080E030E082239323892B21F010921204DD
:101BC00081E0EACF10921104089582E090E0FA01DA
:101BD000918380838FEF9FEF0895CF93DF93EA0186
:101BE000009711F00E948B201982188290E080E00B
:101BF000DF91CF910895DB01009719F48FEF8C935B
:101C000008952EEF2C93FC013F96EF30F10508F07C
:101C100034C08827E15FF14F8F4F0C948B303B0E1F
:101C2000390E370E350E330E2F0E310E2D0E2B0EB4
:101C3000290E260E220E1E0E240E3D0E80E3119656
:101C40008C93089589E2FBCF82E2F9CF11961C9222
:101C5000089583E2F4CF81E2F2CF81E1F0CF87E211
:101C6000EECF8AE2ECCF80E1EACF84E2E8CF88E2EF
:101C7000E6CF86E2E4CF81E3E2CF80E2E0CF80915D
:101C8000480490914904089590934904809348042E
:101C9000089580914704089590914704892B80937B
:101CA00047040895982F9095809147048923809345
:101CB00047040895809146040895809144049091CA
:101CC000450408956115710559F0FB0130E020E0ED
:101CD00070E060E02417350719F06115710511F007
:101CE000CB010895A081B181A817B90709F4BF01FC
:101CF0002F5F3F4F3696EECF80914A0481111CC072
:101D000060D266D290933D0480933C040E948D186B
:101D10000E949F1890934104809340040E941E1DCE
:101D20000E94251D90933F0480933E0481E08093A0
:101D30004A0490E080E0089584EF9FEF08958F9229
:101D40009F92AF92BF92CF92DF92EF92FF920F934A
:101D50001F93CF93DF9300D000D000D01F92CDB758
:101D6000DEB71A86198618861F821E821D821C8283
:101D70001B821A82198280914A0407EF1FEF882381
:101D800009F49CC08E010D5F1F4F9E012B5F3F4FDA
:101D9000AE01495F5F4FBE01675F7F4F90E080E01B
:101DA0000E94A21E8C01009721F00596029708F070
:101DB000DBC029853A852115310509F402C1ED8082
:101DC000FE804B815C81B701640F751F8F81988500
:101DD0008617970708F4F5C0E20EF31ED7019C9111
:101DE000903C09F07FC04230510508F47BC0119649
:101DF0008C914091480450914904452B09F49CC0B2
:101E0000913F08F071C02CE1290F2D3008F48BC0F0
:101E10002DE2290F203108F489C0903C21F4815033
:101E2000823008F483C088E3890F8B3008F481C0C6
:101E30009BEFC92E9DE0D92EE5EEFDE06D817E8100
:101E4000AE014F5F5F4F89859A8519955C01C1147A
:101E5000D104A1F189809A808114910479F18B8158
:101E60009C818815990508F487C010E000E04B813B
:101E70005C8170E060E0C7010E94B530011511057A
:101E8000E9F449815A8169857A858D819E81680F3F
:101E9000791FC501F6011995E980FA800D811E812F
:101EA0002F81388549855A856FEF7FEF81E090E07B
:101EB0000E943D1E8C01892B09F056C0C8012A964C
:101EC0000FB6F894DEBF0FBECDBFDF91CF911F914B
:101ED0000F91FF90EF90DF90CF90BF90AF909F90C9
:101EE0008F90089580E085CF30E020E0220F331FEF
:101EF000F901E45CFB4F0190F081E02D309709F48B
:101F000097CF892F90E01995009709F491CFDC01C4
:101F10001296ED91FC9113971496CD90DC9030972A
:101F200009F08CCF1FC021E030E0E0CF22E030E0AC
:101F3000DDCF23E030E0DACFD12CC12CEDEEFDE097
:101F40009F3F09F07BCFE0913C04F0913D04309736
:101F500021F4C90104EF1FEF0CC08FEF90E0199539
:101F60000097A9F604EF1FEF89859A85009709F479
:101F7000A5CF0E948B20A2CF0E946C1F8C01898567
:101F80009A850E948B2070E060E0C4010E94051FCA
:101F900098878F830E943A1E9E838D836F817885F8
:101FA0006115710559F0C8010E94EA219A87898755
:101FB00006EF1FEF892B09F058CF59CF08EF1FEF1D
:101FC00056CF08EF1FEFD0CF20914A04222319F0FB
:101FD00020E00C94A41887EF9FEF089580914804A7
:101FE0009091490408950E942A1D0E94841CF5D0F6
:101FF000ECE3F4E088E0DF011D928A95E9F71092A6
:102000004A0490E080E008950C94E11A21E040E059
:1020100050E0BA010C94A41886E090E0FA01918394
:10202000808390E080E0089547E050E063E572E04F
:1020300049CEDF92EF92FF920F931F93CF93DF93DE
:102040008A01EC01C60FD71FE0904E04F0904F04B8
:10205000D9800E94541FD816190678F082E090E0CB
:10206000F801918380838EEF9FEFDF91CF911F91D5
:102070000F91FF90EF90DF900895EF2841F482E0F8
:1020800090E0F8019183808384EF9FEFEECF898108
:1020900080934D0490E00196F8019183808390E055
:1020A00080E0E3CFCF93DF93EA010E94921B882365
:1020B00021F00E94611F0E94931B82E090E09983AF
:1020C00088838BEF9FEFDF91CF910895CF93DF93BC
:1020D000EB0186E0FB0111928A95E9F78FEF888387
:1020E000D8DD8983E7DD8A83E8DD9D838C83DF91FA
:1020F000CF910895CF93DF93EA010E94951B811140
:1021000009C082E090E09983888385EF9FEFDF919B
:10211000CF91089590E080E0B7DD81E090E0998371
:10212000888390E080E0F3CF0F931F93CF93DF93EA
:10213000EA018C01060F171F0E94951B81110BC02D
:1021400082E090E09983888385EF9FEFDF91CF91C4
:102150001F910F910895F8018181823038F082E05B
:1021600090E0998388838EEF9FEFF0CF81E090E03D
:102170008BDD88E090E09983888390E080E0E6CF73
:10218000CF93DF930097D1F4EB01FB01329686E009
:10219000DF011D928A95E9F78FEF888385E08983B7
:1021A0001A820E94541F8B830E94531F9D838C832D
:1021B00081E08E838F83DF91CF910895DF91CF915E
:1021C0001ACD84E190E190934C0480934B040895E0
:1021D00080914B0490914C04089510924C041092FD
:1021E0004B04089580914E0490914F04089541113D
:1021F00005C0611571058105910561F060934E047C
:1022000070934F0480935004909351044093520470
:1022100081E0089580E00895FF920F931F93CF937C
:10222000DF938A01EC01C60FD71FF9800E94541F6B
:10223000F816190668F082E090E0F8019183808337
:102240008EEF9FEFDF91CF911F910F91FF90089537
:102250006C817D818E819F814B81C9DF811108C096
:1022600082E090E0F8019183808384EF9FEFEACFD2
:10227000898180934D0490E00196F80191838083D9
:1022800090E080E0DFCFCF93DF93EA01FC01E60F1F
:10229000F71F64817581868197814381A8DF811151
:1022A00009C082E090E09983888384EF9FEFDF91FB
:1022B000CF91089581E090E09983888390E080E059
:1022C000F6CFEEE4F4E04081518162817381480FE2
:1022D000511D611D711D4083518362837383089575
:1022E000CF93C0914D044C2F50E060914E047091FB
:1022F0004F0401960E94AC308C2FE3DF10924D0406
:10230000CF910895009799F480914E0490914F04D5
:102310002FEFFB012083892B59F020914D0430E0F1
:102320002F5F3F4F2417350719F4CB01D9CF63CC6A
:102330000895009799F480914E0490914F042FEFE7
:10234000FB012083892B59F020914D0430E02F5F51
:102350003F4F2417350719F4CB01C2CF4CCC089559
:1023600023E1AC01249FC001259F900D1124E09131
:102370005704F0915804E80FF91F2381348122504B
:10238000310981E02230310508F080E008950F9393
:102390001F93CF93DF930091590410915A04D0E01A
:1023A000C0E080E00C171D0749F491E0811190E036
:1023B000892FDF91CF911F910F9108958111F5CF52
:1023C000CE01CEDF2196EECFA0915704B0915804F4
:1023D000109729F12091590430915A0482179307DC
:1023E000F0F453E1589F9001599F300D1124A20F32
:1023F000B31FED91FC911197309789F012968C9153
:10240000681768F48DE0689FE00DF11D112480814C
:102410009181892B21F081E09281491708F080E0B9
:1024200008959C0143E1429FC001439F900D1124F8
:10243000E0915704F0915804E80FF91F838582302A
:1024400099F481E090E06581768140911D02509180
:102450001E026417750711F490E080E0892B21F0CB
:1024600081E02230310508F080E00895FC01A08170
:10247000B1818DE0689FA00DB11D112413964D917F
:102480005C9185859685489F9001499F300D589FA6
:10249000300D1124C9010196611103C0478144FD2B
:1024A00004960895EF92FF920F931F93CF93DF93BB
:1024B000EA01FC01E60FF71F02811381E480F58039
:1024C0004F2D6E2DC80180DF81110DC082E090E09C
:1024D000998388838EEF9FEFDF91CF911F910F91AA
:1024E000FF90EF900895C8013BDF882339F082E028
:1024F00090E09983888388EF9FEFEECF10932402BA
:1025000000932302E0922502F092260281E090E0FF
:102510009983888390E080E0DFCFCF92DF92EF92C3
:10252000FF920F931F93CF93DF937A01EC01C60FB5
:10253000D71FC0902302D090240200912502109151
:102540002602412F602FC6013FDF811110C082E0BB
:1025500090E0F701918380838AEF9FEFDF91CF9125
:102560001F910F91FF90EF90DF90CF900895C601DB
:10257000F7DE882341F082E090E0F70191838083C9
:1025800088EF9FEFEBCF4C815D816E817F819A81D7
:1025900089818F3F41F082E090E0F7019183808351
:1025A0008EEF9FEFDBCFE3E1EC9D9001ED9D300DD1
:1025B0001124E0915704F0915804E20FF31F0190A9
:1025C000F081E02D2DE0029FE00DF11D112401901E
:1025D000F081E02D27E0129FE00DF11D1124808392
:1025E00091838B81828343835483658376831F5FCA
:1025F0001093260281E090E0F7019183808390E0C0
:1026000080E0ACCFEF92FF920F931F93CF93DF93B5
:102610007A018C01060F171FC0915704D0915804FE
:10262000209781F021E030E0F80182819381409190
:10263000590450915A048417950710F030E020E0B7
:10264000232B71F482E090E0F701918380838EEF79
:102650009FEFDF91CF911F910F91FF90EF90089521
:1026600043E1489F9001499F300D1124C20FD31FB1
:1026700077DE882341F082E090E0F7019183808348
:1026800088EF9FEFE6CFF8012481358120383105AE
:10269000C8F687818111D6CF4181842F90E08F7E4B
:1026A000009741F082E090E0F7019183808386EF0C
:1026B0009FEFCFCF4F833E832D83268128871986B6
:1026C000223010F421E0288721E030E0F701318347
:1026D0002083BFCF88E090E0FA019183808390E06F
:1026E00080E00895FB018FEF808381E181838FEF8C
:1026F0009FEF9383828380E890E0958384831682A2
:1027000017820895FB018FEF808391E0918382838C
:102710009383848384E3858381E090E09783868339
:102720000895BF92CF92DF92EF92FF920F931F9383
:10273000CF93DF93DA01FC01E60FF71F818181302F
:1027400081F082E090E08D939C938FEF9FEFDF917B
:10275000CF911F910F91FF90EF90DF90CF90BF909E
:102760000895C281D381B480858106811781E0906C
:102770005704F0905804E114F10439F482E090E039
:102780008D939C938CEF9FEFE2CF20915904309171
:102790005A04C217D30738F082E090E08D939C93DF
:1027A0008EEF9FEFD4CFC230D10538F082E090E0B9
:1027B0008D939C9386EF9FEFCACF9B2D9D7FB1F7A2
:1027C0008130A1F7B11005C00130110531F080E072
:1027D00004C081E002301105D0F3882339F36D0184
:1027E000CE01BEDD882341F082E090E0F6019183C6
:1027F000808388EF9FEFABCF83E18C9FF0018D9FAB
:10280000F00D1124EE0DFF1DB38681E0848716873D
:102810000587108A178681E090E0F6019183808316
:1028200090E080E094CF4CE050E06DE772E04ACA5F
:102830008F929F92BF92CF92DF92EF92FF920F936F
:102840001F93CF93DF93EA01FC01E60FF71F82810C
:1028500093810481B580E0915704F091580430973A
:1028600091F482E090E0998388838CEF9FEFDF9171
:10287000CF911F910F91FF90EF90DF90CF90BF907D
:102880009F908F9008952091590430915A04821797
:10289000930738F082E090E0998388838EEF9FEF72
:1028A000E6CF23E1289F6001299FD00C1124EC0D75
:1028B000FD1DE080F180E114F10499F28281081796
:1028C00048F78DE0089F80011124E00EF11EF7010A
:1028D00080819181892B29F6BB20E1F2F7E0BF9E30
:1028E00040011124C4010E945220F701918380838A
:1028F000E0915704F0915804EC0DFD1D0190F0811A
:10290000E02DE00FF11F80819181009739F482E082
:1029100090E0998388838DEF9FEFA9CFA40170E0A9
:1029200060E00E94B5308091570490915804C80E21
:10293000D91EF60180819181080F191FF801B2821A
:1029400081E090E09983888390E080E090CFAF921F
:10295000BF92CF92DF92FF920F931F93CF93DF939B
:10296000EA01FC01E60FF71F82819381F480009158
:102970005704109158040115110581F482E090E08C
:10298000998388838CEF9FEFDF91CF911F910F91F7
:10299000FF90DF90CF90BF90AF90089520915904A1
:1029A00030915A048217930738F082E090E09983BF
:1029B00088838EEF9FEFE8CF2FEF2F0D2C3FA8F7E6
:1029C00023E1289F6001299FD00C11240C0D1D1DAF
:1029D000F80180819181892B89F6FDE0FF9E5001ED
:1029E0001124C5010E945220F80191838083E09157
:1029F0005704F0915804EC0DFD1D808191810097E2
:102A000039F482E090E0998388838DEF9FEFBCCF0B
:102A1000A50170E060E00E94B530E0915704F091AC
:102A20005804EC0DFD1DF28281E090E099838883CB
:102A300090E080E0A9CFCF92DF92EF92FF920F93C8
:102A40001F93CF93DF93860F971FFC0102811381A1
:102A50008091570490915804892B81F082E090E096
:102A6000FA01918380838CEF9FEFDF91CF911F91CB
:102A70000F91FF90EF90DF90CF900895C801B0E0E4
:102A8000A0E00197A109B1098F3F9F4FA105B105B2
:102A900040F082E090E0FA01918380838EEF9FEF17
:102AA000E4CF7A0183E1809F6001819FD00C1124E3
:102AB000C6010E945220EC01009741F482E090E0B0
:102AC000F701918380838DEF9FEFCFCFA60170E058
:102AD00060E00E94B530D0935804C093570410931F
:102AE0005A040093590490E080E02FEF3FEF41E05B
:102AF00061E070E08017910741F481E090E0F70118
:102B00009183808390E080E0B0CF3A8B298B1B8645
:102B10004C877E876D87188A1F8601966396EACF59
:102B2000EF92FF921F93CF93DF93EC0110E0F12C13
:102B3000E12C6A811617B0F083E0689FB001112480
:102B4000AE014F5E5F4FC7010E94B720009721F092
:102B50002FEF3FEF3A8B298BDF91CF911F91FF90A1
:102B6000EF900895612FCE0181DC61E070E00E945A
:102B7000051FE816F90608F47C011F5FDACFF89408
:102B8000209155043091560481E02115310509F05A
:102B900080E0232B09F0789408952F923F924F9272
:102BA0005F926F927F928F929F92AF92BF92CF92DD
:102BB000DF92EF92FF920F931F93CF93DF933C012D
:102BC000660E771EF301828193814C01B12CA12CFA
:102BD000C0915704D0915804209769F021E030E06B
:102BE0006091590470915A048617970710F030E0ED
:102BF00020E0232BD1F482E090E0FA0191838083DE
:102C00008EEF9FEFDF91CF911F910F91FF90EF908B
:102C1000DF90CF90BF90AF909F908F907F906F90FC
:102C20005F904F903F902F9008958092270290924E
:102C30002802A0922902B0922A0263E1689F9001C3
:102C4000699F300D1124C20FD31FF301818183309E
:102C500040F082E090E0FA019183808386EF9FEF5D
:102C6000D1CF2A012B813C81232BF1F4288139819A
:102C70009F8191FF2EC0232B09F46FC020915C042B
:102C80009A81422F490F5527551FBA0141E050E064
:102C90006138710514F050E040E0452B09F45DC047
:102CA0002A87920F90935C048150823008F481C08F
:102CB00066DF882309F4DAC0F3018181813009F4E9
:102CC0008DC008F47BC0823009F4C8C090E080E079
:102CD000ADC0232B09F441C020915B049A81E22FFF
:102CE000E90FFF27FF1F41E050E0ED3FF10514F031
:102CF00050E040E0452B89F12A87920F90935B04C6
:102D0000D3CFA081B181A20FB31F11966C91060F92
:102D1000111D0196295F3F4F8417950794F38D8508
:102D20009E85089F1001099F300C189F300C1124BC
:102D3000C114D104D1F48F8184FF17C00E94531FA6
:102D4000F5E02F0E311C21E08215930508F420E0F8
:102D5000A701435F5F4F21110EC082E090E0F201B6
:102D60009183808387EF9FEF4DCF0E94531F2FEFFA
:102D7000221A320AE8CF88819981E80EF91EF701FC
:102D800014830383FFEFCF1ADF0A7A018A818C153F
:102D90001D0409F00CF48CCFE881F981EE0DFF1DC4
:102DA000428150E030E020E010E000E090E080E080
:102DB000B3CFF12CE12CD12CC12CE8CF81E090E0F5
:102DC0009C838B83E4DA882309F480CF81E090E050
:102DD0000E94440E80E40E94520E78CF89899A891D
:102DE000019661F083E090E09C838B8382E090E029
:102DF0000E94440E80E40E944C0E68CF8D819E811B
:102E000020911D0230911E0282179307D1F4609128
:102E1000210270912202AE014F5E5F4F80911F022E
:102E2000909120020E94A9210097E1F2789422E07B
:102E300030E0F20131832083892BA9F08DEF9FEFE1
:102E4000E1CE22E082169104A104B1045CF603975E
:102E500048F6CE0165DE188A1F86E6CF82E090E054
:102E60009C838B8333CF90E080E0CCCE82E090E0F7
:102E7000F2019183808385EF9FEFC4CE8F929F9262
:102E8000AF92BF92CF92DF92EF92FF920F931F9378
:102E9000CF93DF93EA018C01060F171FF8018181A0
:102EA000833098F082E090E09983888386EF9FEFEB
:102EB000DF91CF911F910F91FF90EF90DF90CF9016
:102EC000BF90AF909F908F900895809157049091FC
:102ED0005804892B61F081E090E0209159043091F1
:102EE0005A04232B11F490E080E0892B39F482E01E
:102EF00090E0998388838EEF9FEFDACF40DE8823BE
:102F000009F4E1C0F8018181813009F497C0E8F04B
:102F1000823099F42091590430915A04E091570479
:102F2000F091580490E080E041E050E02817390724
:102F300009F0BFC02CDA811117C0789481E090E0CD
:102F40009983888390E080E0B3CF20915904309139
:102F50005A04E0915704F091580490E080E041E079
:102F600050E02817390741F481E090E00E94440EB8
:102F700080E40E94520EE1CF63817481672B11F0CF
:102F80005483438301967396ECCFE0915704F091FC
:102F90005804E00FF11F2381348122303105D9F428
:102FA000218932892F3F3F4FB1F4258136814091ED
:102FB0001D0250911E022417350761F5AF014F5EC7
:102FC0005F4F609121027091220280911F029091C7
:102FD00020020E94A921EFEFCE1ADE0AEE0AFE0AB5
:102FE0000D5E1F4F4091590450915A0470E060E00B
:102FF000C416D506E606F7064CF5009731F278942C
:10300000892B09F49BCF82E090E0998388838DEF30
:103010009FEF4ECF42E0C416D104E104F104DCF688
:1030200023303105C0F6CF017BDDE0915704F091EC
:103030005804E00FF11F108A1786CDCF10E000E092
:1030400090E080E0C12CD12C7601CCCF0097B9F66E
:1030500010E000E0812C912C540183E0E82EF12C4B
:103060001AC0E0915704F0915804E00FF11F8381DA
:103070009481029749F4F482E38282E090E00E9416
:10308000440E80E40E944C0EFFEF8F1A9F0AAF0A95
:10309000BF0A0D5E1F4F8091590490915A04B0E011
:1030A000A0E088169906AA06BB06DCF290E080E054
:1030B000A6CF638174816230710511F45483438318
:1030C0000196739633CF82E090E09983888385EFF1
:1030D0009FEFEECE0097B9F48FEFFB018083209134
:1030E00027023091280243E1429FC001439F900D87
:1030F0001124E0915704F0915804E80FF91F8285DC
:10310000FB01818308950C94FB0D88E090E0FA01A7
:103110009183808390E080E008951092560410928D
:103120005504E7E5F4E086E0DF011D928A95E9F7B2
:1031300083E194E190935404809353040895809123
:1031400053049091540408952F923F924F925F92AE
:103150006F927F928F929F92AF92BF92CF92DF92A7
:10316000EF92FF920F931F93CF93DF93CDB7DEB70C
:103170002F970FB6F894DEBF0FBECDBFF894E09145
:103180005504F09156043196F0935604E09355049B
:10319000789440905704509058044114510409F415
:1031A0000DC2E0915904F0915A04EF2B09F406C2C4
:1031B0002D8749875A876B877C8798878F83120171
:1031C000B12CA12C10E000E08091590490915A0498
:1031D000A816B90618F40115110529F1F894809183
:1031E000550490915604019790935604809355048A
:1031F0007894C8012F960FB6F894DEBF0FBECDBFEE
:10320000DF91CF911F910F91FF90EF90DF90CF90C2
:10321000BF90AF909F908F907F906F905F904F90F6
:103220003F902F9008957101E418F508D101179689
:103230008C91179781FD54C013968D919C91149792
:10324000039709F04DC015968D919C91EF81F885FB
:103250008E179F0709F044C0B50190E080E081D44B
:103260008A8320915704309158043D832C833D85F7
:10327000332309F44CC04C815D81452B09F49BC17B
:103280008091590490915A04A816B90608F093C188
:10329000C501C7D88823E9F06C817D816E0D7F1D43
:1032A0007D836C83DB011F968D919C91892B89F026
:1032B000D12CC12CF12CE12CAC81BD8112968C91CA
:1032C00012978E151F0409F094F450961C921E92CA
:1032D0001F972A81222321F0B50190E080E043D49A
:1032E0003FEFA31AB30A43E1240E311C6DCFAC812A
:1032F000BD81ED91FC91EC0DFD1D858196810BD773
:10330000BFEFEB1AFB0AEDE0CE0ED11CD5CFEC815E
:10331000FD81309709F44FC18091590490915A046E
:10332000A816B90608F047C1EE0DFF1DFF87EE870E
:10333000C50177D88B83882339F1AE85BF851F9669
:103340008D919C915097019621E01D964D915C9135
:103350008417950709F020E02E831982712C10E064
:1033600000E0AE85BF8512968C91781608F45DC09A
:10337000EE85FF85878590890196658576850E9413
:103380005530908B8787A5CFB1E0BE83E6CF9924D7
:1033900093946BC087D6F6019683858383C0D6014C
:1033A000ED90FC90B7E06B9EE00CF11C1124F7014E
:1033B0006381748180818F3F61F121E030E002C040
:1033C000220F331F8A95E2F7C901092E000CAA0BC0
:1033D000BB0BFB0140815181628173818423952362
:1033E000A623B72321E0892B8A2B8B2B09F420E01D
:1033F000D4012C93D70111968C91F6012385348545
:10340000820F932F911D880E991E14861386639444
:103410009CC0418150E0C4010E94AC30EBCF998246
:1034200006EF1FEFC6C01982C4C0F981F111A0CF09
:10343000EDE07E9E70011124AE85BF85CD90DC90BD
:10344000CE0CDF1C17D49D838C83BB81BB2309F476
:103450009ECF81E0EE85FF8527853089232B09F0FB
:1034600080E0982E882309F459C0672D8E859F85AA
:103470000E943612D60118969C938E93179761E09E
:1034800070E0C3D4EE85FF85218932892F3F320752
:1034900009F480CFBC01C9019DD7D60116969C9333
:1034A0008E931597D60115968D919C91169700973E
:1034B00009F4B5CFEC81FD818E0F9F1F1A969C9366
:1034C0008E931997AE85BF85ED91FC911197EE0E05
:1034D000FF1EF70121853285148613861A968C917A
:1034E000870DD9018D93711016C0EE85FF858781F8
:1034F00084FF11C049855A856B857C85F90141831C
:10350000528363837483F701838594850496A80F9F
:10351000B91F14861386F701B287A187D6011596C5
:103520008D919C911697892B09F443C0EE85FF85F8
:103530002581368180911D0290911E02281739073E
:1035400079F019968D909C90612CD60112968C91F1
:103550001297681608F423CF1A969C928E921997A8
:10356000BE81BB2309F45FCF61E070E0F601878183
:1035700090854BD4D6011796ED90FC901897159630
:103580004D915C91E1E0F0E0BA81BB2311F0F0E0F5
:10359000E0E00C811D819C01B501882799278E1BD5
:1035A0009F0B6BD38C01892B21F0F60185819681CD
:1035B000B2D57394D6CE0FEF1FEF8BCE10E000E0A4
:1035C0000DCE2F923F924F925F926F927F928F9289
:1035D0009F92AF92BF92CF92DF92EF92FF920F93A2
:1035E0001F93CF93DF93809157049091580410E07C
:1035F00000E0892BA9F0C3DA0AEF1FEF882381F0DE
:103600002090590430905A04C0915704D091580426
:10361000D12CC12C10E000E02C143D04A9F47894C6
:10362000C801DF91CF911F910F91FF90EF90DF9034
:10363000CF90BF90AF909F908F907F906F905F9052
:103640004F903F902F900895C6010E941112882339
:1036500009F18B819C810397E9F48F859889892BE7
:10366000C9F0B60190E080E07CD221E030E0882310
:1036700011F030E020E044245524421A530AB12CC2
:10368000A12C912C812C8A818815190409F038F419
:10369000188A1F864FEFC41AD40A6396BDCFE881FB
:1036A000F981EA0DFB1D85819681892BA1F161E0ED
:1036B00070E087819085A9D33C01DCD28C01E88140
:1036C000F981EA0DFB1D8185928525813681200FC8
:1036D000311FAC01421B530B9A0147815085421B9D
:1036E000530B70E060E00E94B530E881F981EA0D8B
:1036F000FB1DE780F084458156819301B601C2012C
:10370000BCD28C01892B39F0E881F981EA0DFB1DCF
:103710008581968100D55FEF851A950A8DE0A80E08
:10372000B11CB1CF2CCA789408952F923F924F923A
:103730005F926F927F929F92AF92BF92CF92DF92F1
:10374000EF92FF920F931F93CF93DF9300D000D09F
:10375000CDB7DEB700915704109158049924939483
:103760000115110509F43EC0A0905904B0905A0407
:1037700006DA982E8823B1F110925804109257045B
:1037800010925A041092590410925B0410925C0437
:103790008FEF9FEFDC018093270290932802A09384
:1037A0002902B0932A02789480D31E830D83C12C02
:1037B000D12C7601C501B0E0A0E089839A83AB8368
:1037C000BC8322242A94322C89819A81AB81BC81CA
:1037D000C816D906EA06FB06F4F0C8019CD480E4BA
:1037E0000E94520E892D26960FB6F894DEBF0FBEAA
:1037F000CDBFDF91CF911F910F91FF90EF90DF90A0
:10380000CF90BF90AF909F907F906F905F904F90C0
:103810003F902F900895AD81BE8115968D919C911A
:10382000169720911D0230911E0282179307D1F442
:1038300051968D919C91BCD5ED81FE8180819181C5
:10384000B12CA12C412C512C3201892B91F5BFEFC9
:10385000CB1ADB0AEB0AFB0AED81FE817396FE832D
:10386000ED83B2CFB2E0CB16D104E104F10424F72A
:10387000039710F7ED81FE81818992898F3F980728
:1038800009F011D5AD81BE8152963C922E9251978E
:10389000D3CF8A0D9B1DDC018D919C91009709F07F
:1038A0003AD4BFEF4B1A5B0A6B0A7B0AEDE0AE0E0F
:1038B000B11CAD81BE818D919C91119712964C9156
:1038C00050E070E060E044165506660677060CF39B
:1038D00022D4BDCFCF93DF93EA0127DF811109C046
:1038E00082E090E09983888385EF9FEFDF91CF910D
:1038F000089581E090E00E94440E81E090E0998379
:10390000888390E080E0F2CF10DF10925404109290
:103910005304089542E050E065EC72E00C94620EAE
:10392000FF920F931F93CF93DF938A01EC01C60F91
:10393000D71FF980B9D20897F816190671F068F008
:1039400082E090E0F801918380838EEF9FEFDF911A
:10395000CF911F910F91FF9008956C817D818E8191
:103960009F814B810E94F710811108C082E090E096
:10397000F8019183808384EF9FEFE9CFF9800E9463
:10398000F2104F2D50E0BE01685F7F4F0E94AC30B7
:1039900089810E94611181E090E0F8019183808328
:1039A00090E080E0D4CFDF92EF92FF920F931F93CD
:1039B000CF93DF938A01EC01C60FD71F0E94F2104C
:1039C0007C01D98071D2DD2059F0029721E030E0EE
:1039D000D816190619F010F030E020E0232B79F406
:1039E00082E090E0F801918380838EEF9FEFDF917A
:1039F000CF911F910F91FF90EF90DF900895EF28E6
:103A000041F482E090E0F8019183808384EF9FEF9E
:103A1000EECFF9800E94F2104F2D50E0BE016E5F94
:103A20007F4F0E94AC3089810E94611181E090E05B
:103A3000F8019183808390E080E0D9CF8AE89CE10F
:103A400090935E0480935D04089580915D0490914D
:103A50005E0408950895FC0111821082938382838D
:103A60000895DB011D921C92DC011296ED91FC91F0
:103A700013977183608313967C936E9312970895C6
:103A8000FC0180819181DB018D939C93A081B181A8
:103A9000109741F08D919C9191838083892B11F433
:103AA000F383E2830895FC0180819181DB018D9392
:103AB0009C93892B11F473836283718360830895CF
:103AC000FC0111821082938382830895CF93DF9348
:103AD0001F921F92CDB7DEB71A821982F894BE01E9
:103AE0006F5F7F4F84E694E0CBDF89819A810097F6
:103AF00009F011D389819A81892B89F7BE016F5F03
:103B00007F4F88E694E0BCDF89819A81009709F0B5
:103B100002D389819A81892B89F778940F900F902D
:103B2000DF91CF910895CF93DF931F921F92CDB76E
:103B3000DEB71A821982F894BE016F5F7F4F80E66C
:103B400094E09EDF89819A81009709F0E4D289810F
:103B50009A81892B89F778940F900F90DF91CF91FC
:103B6000089581E0089590E080E00895EF92FF923B
:103B70000F931F93CF93DF931F921F92CDB7DEB7A2
:103B80001A82198280915F0407EF1FEF8823A1F149
:103B9000F894BE016F5F7F4F88E694E071DF789400
:103BA00089819A81EE24E394F12C892B51F4F894C5
:103BB000BE016F5F7F4F84E694E062DF7894F12C62
:103BC000E12C89819A810EEF1FEF0097A9F0FC018B
:103BD0004281538164E070E041D68C01892B61F011
:103BE000F89469817A81C701880F991F880F991FFE
:103BF0008C599B4F58DF7894C8010F900F90DF913C
:103C0000CF911F910F91FF90EF9008950F931F9305
:103C1000CF93DF9300D01F92CDB7DEB71C821B82FB
:103C20001A82198280915F0407EF1FEF8823C1F089
:103C3000AE014D5F5F4F64E070E0CE01019681D62A
:103C40008C01892B69F4E981FA818B819C819383B2
:103C50008283F89469817A8180E694E002DF789427
:103C6000C8010F900F900F900F90DF91CF911F918F
:103C70000F91089586D7049608958F929F92AF92E0
:103C8000BF92CF92DF92EF92FF920F931F93CF9349
:103C9000DF931F921F92CDB7DEB71A821982BC0143
:103CA0006F5F7F4F6330710598F0AA24AA94BA2CF5
:103CB000C5010F900F90DF91CF911F910F91FF9051
:103CC000EF90DF90CF90BF90AF909F908F9008952E
:103CD0004115510551F3480159018A016C01CADFB0
:103CE0008815990511F7E114F104F9F28E0D9F1D65
:103CF000A816B906D0F280915F048823F1F0F894F9
:103D0000B501645071099701AE014F5F5F4FC80163
:103D10000496ACD65C01892B71F489819A81F801F3
:103D200093838283C601880F991F880F991FB8015A
:103D30008C599B4F96DE7894BBCF87EFA82EBB247F
:103D4000BA94B6CFAF92BF92CF92DF92EF92FF922A
:103D50000F931F93CF93DF931F921F92CDB7DEB7C0
:103D60001A821982892B09F047C06115710509F47F
:103D700043C04115510509F43FC02115310509F42F
:103D80003BC001151105C1F180915F048823B9F191
:103D900079016A015B01F894BE016F5F7F4F80E695
:103DA00094E06EDE789489819A81009759F1DC0164
:103DB00012966D917C91A801049671D68C01E981CF
:103DC000FA81D501ED93FC93828193810496F601EB
:103DD000918380834FDFD7018D939C93C8010F900F
:103DE0000F90DF91CF911F910F91FF90EF90DF9097
:103DF000CF90BF90AF9008950FEF1FEFEFCF07EF79
:103E00001FEFECCF0EEF1FEFE9CFCF93DF93EC0165
:103E1000672B71F4BFD68C179D0760F0B2D624963D
:103E2000C80FD91FB1D68C0F9D1FDF91CF91089578
:103E3000AED6F1CF90E080E0F8CF0F931F93CF93F1
:103E4000DF9320915F0421112BC08B01EC0184E6EC
:103E500094E001DE88E694E0FEDD80E694E0FBDDA0
:103E600097D00097C1F496D670E060E0CEDF4BE2C9
:103E700052E062E070E07BD1009769F480912B0200
:103E800090912C0299D6B801CE01CED4009719F4A6
:103E900021E020935F04DF91CF911F910F9108954E
:103EA00084EF9FEFF8CF73C675C6CF93DF9375D6B7
:103EB000EC01892B11F40ADE36DECE01DF91CF91C1
:103EC0000895CF93DF9369D6EC01892B09F4FEDDC9
:103ED000CE01DF91CF91089580912B0290912C0219
:103EE0000895CF93DF9380915F04D0E0C0E08823F2
:103EF000D1F067D6EC01892BB1F4E8DD14DE8091B6
:103F00002B0290912C02CFD1B5D2EC01892B59F420
:103F100084E694E0D5DD88E694E0D2DD80E694E0A6
:103F2000CFDD10925F04CE01DF91CF910895EF9223
:103F3000FF920F931F93CF93DF93EC017A018B01D4
:103F40000F5F1F4F0E9DA0010F9D500D1E9D500D28
:103F5000112470E060E00E94B53090E080E0F0E075
:103F6000E0E02FEFE816F90639F4DF91CF911F91C9
:103F70000F91FF90EF9008951A821982288330974D
:103F800011F0D283C1830196FE01C00FD11FEACF89
:103F9000AF92BF92CF92DF92EF92FF920F931F9357
:103FA000CF93DF9382EF95E07C012CEFE22243E098
:103FB00050E06DE272E083E392E0E3D38DE2C82E3D
:103FC00082E0D82E93E3A92E92E0B92ECBEDD6E075
:103FD0008E01D6014D915D916D01F5016191719157
:103FE0005F01D8011196FC92EE9215965C934E9368
:103FF000149713965C934E93129717967C936E9337
:1040000016979B012F5F3F4F249FC001259F900D66
:10401000349F900D112419969C938E931897E11458
:10402000F10411F0C70183DFF80180859185E80E66
:10403000F91E065F1F4FF3E3CF16F2E0DF0649F6E5
:10404000EEE6F4E081E891E0DF019C011D92215051
:104050003040E1F710926D0410926C041F8E1E8E9A
:104060001BA21AA219A218A21DA21CA21FA21EA264
:104070002A9636E0C93FD30789F71092D8061092E6
:10408000D7061092DA061092D90690E080E0DF9110
:10409000CF911F910F91FF90EF90DF90CF90BF9045
:1040A000AF9008950097F1F0F894A3E3B2E0EBED40
:1040B000F6E030E020E04D915D9148175907A8F0F7
:1040C000428153814115510581F08AE0829FF001C0
:1040D000839FF00D1124E552F94F80819181009763
:1040E00059F4789490E080E008952F5F3F4F3A961E
:1040F0002330310501F7F5CFDC0111966D917C91EC
:10410000718360834150510953834283FC012193A1
:10411000CF0178940895009749F1DC018E918630A3
:1041200041F4E091D906F091DA063097F9F0CD012B
:1041300019948630D8F4282F30E0F8948FEF8C93C0
:104140008AE0829FF001839FF00D1124E552F94F20
:104150008081918112969C938E931197B183A08355
:104160008281938101969383828378940895CF927C
:10417000DF92EF92FF920F931F93CF93DF939C01F7
:1041800081E794E08C7F4115510509F489C0211520
:10419000310509F485C06115710509F481C08A01F2
:1041A000AB01B9016D5F7F4F6C7F9B012F5F3F4F6C
:1041B000249F7001259FF00C349FF00C1124F8947B
:1041C000EBEDF6E023E030E0E901A6A1B7A1C68C53
:1041D000D78CCD2809F058C0109709F03EC0C09088
:1041E0006C04D0906D042EE731E02C193D092E159A
:1041F0003F0530F47894CFEFDFEF86EF9FEF21C0DB
:104200002AE02C9FF0012D9FF00D1124E552F94F6B
:10421000918380835583448353834283778366836A
:10422000F186E086009709F082DEEC0CFD1CF0922E
:104230006D04E0926C047894CF3FDC07F1F290E0DB
:1042400080E0F801D183C083DF91CF911F910F915E
:10425000FF90EF90DF90CF900895AE15BF05A0F0CE
:104260002AE02C9FF0012D9FF00D1124E552F94F0B
:10427000918380835583448353834283778366830A
:104280000097C9F254DED7CF8A0F9B1F2F5F3F4F95
:104290003A962630310509F097CFCFEFDFEFCBCF3D
:1042A0008FEF9FEFD1CF9C010397039708F04EC08B
:1042B000F89485E09AE0482F50E0241735079CF1E8
:1042C00091E08AE0829FF001839FF00D1124E55276
:1042D000F94F118210821582148213821282178282
:1042E00016829923E1F080916C0490916D04EBEDBE
:1042F000F6E0268D378D232B49F426A137A1211511
:10430000310521F0821B930B17A216A23A9626E0E4
:10431000E93FF20771F790936D0480936C047894F1
:1043200090E080E00895949FF001959FF00D112496
:10433000E552F94F40815181452B31F4408551853B
:10434000452B11F48150B7CF90E0BBCF8FEF9FEF9B
:1043500008954115510549F1009739F1611571052D
:1043600021F1F8942091D7063091D806232BB9F487
:104370002091D9063091DA06232B89F49093D80640
:104380008093D7067093DA066093D906789426E076
:1043900030E090E080E0FA01318320830895789442
:1043A0002FEF3FEF86EF9FEFF6CF8FEF9FEF089550
:1043B000069769F4F8941092D8061092D7061092D6
:1043C000DA061092D906789490E080E008958FEF95
:1043D0009FEF08956115710519F4F0E0E0E011C058
:1043E0008630910581F4E091D706F091D806309798
:1043F000A1F3CB0101961995009779F3FC0186E0B2
:104400008193CF0108959C01235031092330310558
:1044100020F72AE0289FD001299FB00D1124A55232
:10442000B94F2D913C911197232BB9F216962D91EE
:104430003C9117972617370780F2F89412962D9122
:104440003C9113972115310529F0ED91FC911197BD
:10445000309711F47894C1CF4181528111965C93C9
:104460004E932150310913963C932E9312978193CA
:104470007894C7CFEFEEF5E088EEDF011D928A95C4
:10448000E9F7EEE6F4E081E891E0DF019C011D929E
:1044900021503040E1F710926D0410926C04EBED66
:1044A000F6E08CE3DF011D928A95E9F7E7EDF6E08F
:1044B00084E0DF011D928A95E9F790E080E008959D
:1044C000CF93DF93C0913902D0913A02CF3FDC07FE
:1044D00059F420D490933A028093390297FF09C08F
:1044E000D0933A02C093390284EF9FEFDF91CF91CE
:1044F000089590E080E0FACF8230910528F480930F
:10450000170790E080E008958FEF9FEF08954F9296
:104510005F926F927F92AF92BF92CF92DF92EF92B3
:10452000FF920F931F93CF93DF931F921F92CDB7EC
:10453000DEB71A821982009709F478C061157105F7
:1045400009F474C02091390230913A0207EF1FEF4D
:104550002F3F3F4F09F444C06B015C01412C512CAB
:104560003201F12CE12C10E000E09E012F5F3F4F63
:10457000A6014E195F09B5016E0D7F1D80913902AC
:1045800090913A0226D4892B09F04AC089819A81F8
:10459000009741F4E114F10429F420911707222334
:1045A00009F441C0E80EF91EEC14FD04C8F480E8DB
:1045B000481684E858068EE16806710418F560E034
:1045C00070E0CB018CD72AE0420E511C611C711C9B
:1045D0000A3F4FEF140721F0043F8FEF1807A1F4B3
:1045E000C8010F900F90DF91CF911F910F91FF9015
:1045F000EF90DF90CF90BF90AF907F906F905F90E3
:104600004F90089501EF1FEF81E090E0013F2FEF01
:10461000120711F090E080E0892B09F4A6CFE0CFDB
:1046200004EF1FEFDDCF0AEF1FEFDACF0FEF1FEF21
:10463000D7CF4F925F926F927F92AF92BF92CF92FD
:10464000DF92EF92FF920F931F93CF93DF931F920E
:104650001F92CDB7DEB71A821982009709F478C08D
:104660006115710509F474C02091390230913A0244
:1046700007EF1FEF2F3F3F4F09F444C06B015C0170
:10468000412C512C3201F12CE12C10E000E09E0174
:104690002F5F3F4FA6014E195F09B5016E0D7F1DBB
:1046A0008091390290913A024AD3892B09F04AC08D
:1046B00089819A81009741F4E114F10429F4209151
:1046C0001707222309F441C0E80EF91EEC14FD047B
:1046D000C8F480E4481682E458068FE06806710446
:1046E00018F560E070E0CB01FAD62AE0420E511CCA
:1046F000611C711C0E3F4FEF140721F0043F8FEF38
:104700001807A1F4C8010F900F90DF91CF911F916E
:104710000F91FF90EF90DF90CF90BF90AF907F9080
:104720006F905F904F90089502EF1FEF81E090E04F
:10473000023F2FEF120711F090E080E0892B09F47F
:10474000A6CFE0CF04EF1FEFDDCF0EEF1FEFDACFE4
:104750000FEF1FEFD7CF8091390290913A028F3F30
:10476000980749F0CFD2892B49F48FEF9FEF9093B0
:104770003A028093390290E080E0089584EF9FEF41
:104780000895CF92DF92EF92FF920F931F93CF93F2
:10479000DF9321E04115510509F020E04150510916
:1047A00021112CC0DC01FB01D12CC12C21E022C045
:1047B0003FEFC31AD30A7D010D911D91E701EA80F5
:1047C000FB80E016F106A8F420813181E280F380BD
:1047D000F182E08233832283ED90FC9011979D015A
:1047E00022503109E901F982E88211961C930E9357
:1047F00020E03296C416D506D8F2D2CFDF91CF9101
:104800001F910F91FF90EF90DF90CF900895FC01E2
:10481000680F791F90E080E0E617F70709F4089524
:104820002191820F911DF8CF20911807211113C0FB
:1048300047DE009791F410921E0710921D07109208
:104840001C0710921B0710921A071092190721E0FB
:1048500020931807089584EF9FEF0895AF92BF92B9
:10486000CF92DF92EF92FF920F931F93CF93DF933C
:10487000009709F460C04630510508F45CC02091EF
:104880001807C7EFDFEF222309F449C08C01060F98
:10489000171FF801C080D180C114D10409F44EC0A3
:1048A00096012A5F3F4F4217530708F447C07C0127
:1048B00080911D0790911E0793838283B6016C5FE0
:1048C0007F4F5801A60EB71EC801A1DFF5019183E5
:1048D000808364E070E0C8011ADEEC01892BF9F4F2
:1048E00081E090E009DEB601C801049610DEEC011B
:1048F000892B91F462E070E0C50109DEEC01892B9F
:1049000059F4C70108DC80911D0790911E0701969C
:1049100090931E0780931D0790E080E0EDDDCE01AF
:10492000DF91CF911F910F91FF90EF90DF90CF908B
:10493000BF90AF900895CFEFDFEFF1CFC9EFDFEF7A
:10494000EECF6F927F928F929F92AF92BF92CF9253
:10495000DF92EF92FF920F931F93CF93DF9300D0DC
:104960001F92CDB7DEB7009709F47AC04115510503
:1049700009F476C02091180707EF1FEF222309F4EE
:104980004DC03A017B015C0164E070E0CE0101960C
:1049900050DE8C01892B09F041C009811A81011573
:1049A000110509F45AC0480186E0880E911CB70130
:1049B000680D791D80913B0290913C020BDD6C01EA
:1049C000009709F450C0A70170E060E00E94B53084
:1049D00089819A81AB81BC81EC0CFD1CF70181932C
:1049E0009193A193B1937F0181E090E085DDB801BF
:1049F000C7011FDE892B31F562E070E0C701800F2F
:104A0000911F17DE8C01892BE9F490E080E074DDC2
:104A1000F501D182C082F30191828082C8010F909A
:104A20000F900F900F90DF91CF911F910F91FF90FA
:104A3000EF90DF90CF90BF90AF909F908F907F903E
:104A40006F90089590E080E057DDF50111821082AB
:104A5000F30111821082C6015EDB09EF1FEFDECF8A
:104A60000FEF1FEFDBCF06EF1FEFD8CF0097A1F0BE
:104A70004115510589F02115310571F0F90136967E
:104A80006E177F0748F0DC012D933C93DA01ED931C
:104A9000FC9390E080E008958FEF9FEF0895AF9230
:104AA000BF92CF92DF92EF92FF920F931F93CF931B
:104AB000DF93009709F45FC04115510509F45BC00D
:104AC0006530710508F457C020911807C7EFDFEF74
:104AD000222391F1DC01CD90DC9011971296ED919B
:104AE000FC9196012A5F3F4FC9EFDFEF261737078A
:104AF00019F5C0911907D0911A07209749F521E0BF
:104B000030E030931A07209319077A018C01F09353
:104B10001C07E0931B075601B4E0AB0EB11CB501B6
:104B200076DE0A0D1B1DF801208131818217930763
:104B300029F5D701CD92DC92CE01DF91CF911F9163
:104B40000F91FF90EF90DF90CF90BF90AF900895BE
:104B500020911B0730911C072F5F3F4FCCEFDFEFF9
:104B6000E217F30790F2CBEFDFEF2E173F0768F263
:104B7000D0E0C0E0CACFCFEFDFEFDECFC3EFDFEF93
:104B8000DBCF84E090E0089582E090E008958CEF20
:104B90009FEF089580E290E0089510921E07109212
:104BA0001D0710921C0710921B0710921A071092F3
:104BB000190790E080E0089590933C0280933B02B7
:104BC000089580911807882391F0C5DD009789F436
:104BD00010921E0710921D0710921C0710921B07BF
:104BE00010921A071092190710921807089590E072
:104BF00080E00895009749F06115710531F0FC01DE
:104C000011821082FB01118210820895F3CF26E0F9
:104C100030E040E855E260E070E090E080E000C005
:104C20008130910569F01CF4892B39F008958230A8
:104C3000910549F0039751F0089581E397E077C714
:104C40008EEC97E0FCCF8BE698E0F9CF88E099E016
:104C5000F6CF1F920F920FB60F9211240BB60F9240
:104C60002F933F934F935F936F937F938F939F9374
:104C7000AF93BF93EF93FF938FE89DEF9093250140
:104C800080932401BAD0FF91EF91BF91AF919F9192
:104C90008F917F916F915F914F913F912F910F90E5
:104CA0000BBE0F900FBE0F901F9018958FE89DEFD1
:104CB0009093250180932401A3E7B0E08C918E7F2F
:104CC0008C93E0E2F1E080818C7F8083E1E2F1E08F
:104CD0008081877E808380818460808380818C7FD7
:104CE00080838C9181608C930895E3E7F0E080816C
:104CF00090819E7F90838170089581E00895109245
:104D00001F07089568EE73E080E090E0E8D390E03C
:104D100080E0089526E030E040E050E16EE070E091
:104D200090E080E07DDF81E397E037D6892B21F0AA
:104D300081E397E04CD6F7CF90E080E00895CF92E2
:104D4000DF92EF92FF920F931F93CF93DF936B014C
:104D50007A01E9011982188281E397E01ED6892B36
:104D600069F18601CC24C39482E0D82E80911F077C
:104D7000811110C081E397E02AD60297B9F7C0925B
:104D80001F07F801D1928F0188819981019699833B
:104D90008883ECCF888199818E159F0578F481E313
:104DA00097E015D68F3F9807A9F3F80181938F01FB
:104DB00088819981019699838883ECCF90E080E087
:104DC000DF91CF911F910F91FF90EF90DF90CF90E7
:104DD00008950F931F93CF93DF93EA01890181E335
:104DE00097E00E942730F801D183C08390E080E0F3
:104DF000DF91CF911F910F910895CF92DF92EF92A3
:104E0000FF920F931F93CF93DF9300D0CDB7DEB700
:104E10008091230791E0980F909323078823A1F0B6
:104E200021E030E030932707209326078093230763
:104E30000F900F900F90DF91CF911F910F91FF90E6
:104E4000EF90DF90CF900895CE0101960E94560515
:104E500078940091510210915202F801E256FF4FEE
:104E60006081718182819381B2D120E030E040E89D
:104E70005FE463D26B017C01F801E656FF4F60816D
:104E8000718182819381A3D19B01AC01C701B601DD
:104E900005D120E030E0A90101D16DD16B017C0189
:104EA0000E945E05B701A60181E090E00E94C8045F
:104EB000F894809123078150809323078B81882366
:104EC00089F08091220791E0980F90932207882320
:104ED00049F021E030E030932707209326078093A4
:104EE0002207A6CF80912207882309F4A1CF8091C1
:104EF000240781119DCF809125078F5F809325071F
:104F00007894F801EE54FF4F608171818281938122
:104F10005ED120E030E040E85FE40FD26B017C011D
:104F2000F801E255FF4F60817181828193814FD1F9
:104F30009B01AC01C701B601B1D020E030E040E2F6
:104F400051E4FBD120E030E0A901A8D014D16B01DD
:104F50007C010E947206B701A60182E090E00E94E7
:104F6000C804F89480912207815080932207809191
:104F700025078150809325075BCF0F931F93CF9315
:104F8000DF931092CA091092C909DFD240DEC091A6
:104F90005102D0915202198218826FEF7FEFCB013C
:104FA0000E944B0570E060E090E080E00E94C80342
:104FB000009709F042C00E94EB06F8947894BE0175
:104FC00067547F4F8A819B810E94CB03892B71F4A8
:104FD0006FEF7FEFCB010E945E040E94450588239E
:104FE00029F081E0FE01E154FF4F8083F8945EDEFA
:104FF0000E944805882311F080E00BC00E944505FF
:105000008111FACF81E0FE01E154FF4F90819111AF
:10501000F3CF8093C90978940E943F0E8C01789455
:10502000C154DF4F8091C90981110CC00E94CD0786
:105030000E942A05F89490E080E0DF91CF911F91C3
:105040000F9108950E9428050E9448058823D9F0F1
:1050500081E08093CA099091CA0981E0911180E0B2
:105060008093C9098091CA0981113FDE0130110581
:1050700029F40E943F0E892B09F441DE0E943F0E65
:105080008C013BDECFCF0E9445058111E1CF81E04D
:1050900098819111DECF80E0DCCF5058BB27AA2742
:1050A0000ED00DC1FED030F003D120F031F49F3F7F
:1050B00011F41EF4F3C00EF4E095E7FBE9C0E92F0C
:1050C0000FD180F3BA17620773078407950718F0AA
:1050D00071F49EF527C10EF4E0950B2EBA2FA02D8A
:1050E0000B01B90190010C01CA01A0011124FF2795
:1050F000591B99F0593F50F4503E68F11A16F04090
:10510000A22F232F342F4427585FF3CF469537958E
:105110002795A795F0405395C9F77EF41F16BA0B53
:10512000620B730B840BBAF09150A1F0FF0FBB1F01
:10513000661F771F881FC2F70EC0BA0F621F731F4A
:10514000841F48F4879577956795B795F7959E3FA7
:1051500008F0B3CF9395880F08F09927EE0F979535
:105160008795089571D008F481E0089504D068947B
:10517000B111D9C00895BCD088F09F5790F0B92FD5
:105180009927B751A0F0D1F0660F771F881F991F9C
:105190001AF0BA95C9F712C0B13081F0C3D0B1E0AE
:1051A0000895C0C0672F782F8827B85F39F0B93FBE
:1051B000CCF3869577956795B395D9F73EF490959E
:1051C0008095709561957F4F8F4F9F4F0895E8941C
:1051D00009C097FB3EF490958095709561957F4F3F
:1051E0008F4F9F4F9923A9F0F92F96E9BB279395ED
:1051F000F695879577956795B795F111F8CFFAF4FD
:10520000BB0F11F460FF1BC06F5F7F4F8F4F9F4F2D
:1052100016C0882311F096E911C0772321F09EE88B
:10522000872F762F05C0662371F096E8862F70E0F1
:1052300060E02AF09A95660F771F881FDAF7880FCB
:105240009695879597F90895990F0008550FAA0B21
:10525000E0E8FEEF16161706E807F907C0F0121689
:105260001306E407F50798F0621B730B840B950B8C
:1052700039F40A2661F0232B242B252B21F40895E1
:105280000A2609F4A140A6958FEF811D811D08957E
:1052900097F99F6780E870E060E008959FEF80ECE9
:1052A000089500240A94161617061806090608958C
:1052B00000240A9412161306140605060895092EF2
:1052C0000394000C11F4882352F0BB0F40F4BF2B61
:1052D00011F460FF04C06F5F7F4F8F4F9F4F0895A1
:1052E00057FD9058440F551F59F05F3F71F0479597
:1052F000880F97FB991F61F09F3F79F0879508957C
:10530000121613061406551FF2CF4695F1DF08C09A
:10531000161617061806991FF1CF869571056105B7
:1053200008940895E894BB2766277727CB0197F95F
:1053300008958ADF08F48FEF08950BD0C0CFB1DF56
:1053400028F0B6DF18F0952309F0A2CFA7CF1124DB
:10535000EACFC6DFA0F3959FD1F3950F50E0551F1C
:10536000629FF001729FBB27F00DB11D639FAA27BA
:10537000F00DB11DAA1F649F6627B00DA11D661F09
:10538000829F2227B00DA11D621F739FB00DA11D2A
:10539000621F839FA00D611D221F749F3327A00DE4
:1053A000611D231F849F600D211D822F762F6A2F80
:1053B00011249F5750408AF0E1F088234AF0EE0F05
:1053C000FF1FBB1F661F771F881F91505040A9F712
:1053D0009E3F510570F05CCFA6CF5F3FECF3983E47
:1053E000DCF3869577956795B795F795E7959F5F79
:1053F000C1F7FE2B880F911D9695879597F9089513
:105400001F920F920FB60F9211242F933F938F93F9
:105410009F93AF93BF938091290790912A07A09102
:105420002B07B0912C073091280723E0230F2D374D
:1054300058F50196A11DB11D2093280780932907D7
:1054400090932A07A0932B07B0932C0780912D07E8
:1054500090912E07A0912F07B09130070196A11DC2
:10546000B11D80932D0790932E07A0932F07B09323
:105470003007BF91AF919F918F913F912F910F90E6
:105480000FBE0F901F90189526E8230F0296A11DBE
:10549000B11DD2CF3FB7F89480912D0790912E0780
:1054A000A0912F07B091300726B5A89B05C02F3FCC
:1054B00019F00196A11DB11D3FBFBA2FA92F982F3A
:1054C0008827BC01CD01620F711D811D911D42E035
:1054D000660F771F881F991F4A95D1F708958F92FD
:1054E0009F92AF92BF92CF92DF92EF92FF926B01A9
:1054F0007C01D0DF4B015C01C114D104E104F10453
:10550000D9F0D2D5C7DF681979098A099B09683EA5
:1055100073408105910580F321E0C21AD108E108AA
:10552000F10888EE880E83E0981EA11CB11CC114FE
:10553000D104E104F10431F7FF90EF90DF90CF90B8
:10554000BF90AF909F908F900895789484B58260BB
:1055500084BD84B5816084BD85B5826085BD85B517
:10556000816085BDEEE6F0E0808181608083E1E8C6
:10557000F0E01082808182608083808181608083FE
:10558000E0E8F0E0808181608083E1EBF0E0808101
:1055900084608083E0EBF0E0808181608083E1E9DA
:1055A000F0E0808182608083808181608083E0E997
:1055B000F0E0808181608083E1EAF0E080818260B8
:1055C0008083808181608083E0EAF0E08081816077
:1055D0008083E1E2F1E0808182608083808181606C
:1055E0008083E0E2F1E0808181608083EAE7F0E09F
:1055F00080818460808380818260808380818160FB
:1056000080838081806880831092C10008958633F2
:1056100008F0865320917B00982F9870277F922B5B
:1056200090937B0020913D0290E4299F90011124EA
:105630008770822B80937C0080917A0080648093B5
:105640007A0080917A0086FDFCCF8091780090915D
:10565000790008951F93CF93DF93182FEB0161E03A
:1056600033D1209731F460E0812FDF91CF911F91EA
:1056700067C1CF3FD10511F461E0F6CFE12FF0E033
:10568000EC51FF4FE491E150E23108F0B2C0F0E09C
:105690008827E35BF44D8F4F3EC55F2B672B6C2B48
:1056A000762B802BF92B8A2B922B9A2BA42BAE2BAB
:1056B000B82BC72BD12BF92BDB2BE52BEF2B84B58C
:1056C000806884BDC7BDDF91CF911F91089584B5D7
:1056D000806284BDC8BDF7CF8091800080688093D0
:1056E0008000D0938900C0938800EDCF8091800026
:1056F000806280938000D0938B00C0938A00E3CFB8
:1057000080918000886080938000D0938D00C0934A
:105710008C00D9CF8091B00080688093B000C09396
:10572000B300D1CF8091B00080628093B000C0936D
:10573000B400C9CF80919000806880939000D0938E
:105740009900C0939800BFCF8091900080628093B1
:105750009000D0939B00C0939A00B5CF80919000A9
:10576000886080939000D0939D00C0939C00ABCF45
:105770008091A00080688093A0008091A0008F7B22
:105780008093A000D093A900C093A8009CCF8091E3
:10579000A00080628093A000D093AB00C093AA00C9
:1057A00092CF8091A00088608093A000D093AD003C
:1057B000C093AC0088CF8091200180688093200145
:1057C000D0932901C09328017ECF8091200180626F
:1057D00080932001D0932B01C0932A0174CF809134
:1057E0002001886080932001D0932D01C0932C016B
:1057F0006ACFC038D1050CF03FCF35CF8150823110
:1058000008F059C0E82FF0E08827E75FF34D8F4F8D
:1058100082C4292C2D2C1B2C212C252C5B2C302CCC
:10582000362C3A2C402C442C482C4E2C522C5B2CE1
:10583000562C5C2C602C809180008F7780938000A8
:105840000895809180008F7DF9CF80918000877FBF
:10585000F5CF84B58F7784BD089584B58F7DFBCF58
:105860008091B0008F778093B00008958091B00050
:105870008F7DF9CF809190008F778093900008956D
:10588000809190008F7DF9CF80919000877FF5CF38
:105890008091A0008F778093A00008958091A00050
:1058A0008F7DF9CF8091A000877FF5CF8091200177
:1058B0008F77809320010895809120018F7DF9CF0B
:1058C00080912001877FF5CFCF93DF9390E0FC019B
:1058D000E65DFE4F249180599E4FFC018491882300
:1058E000C9F090E0880F991FFC01E053FE4FA5918D
:1058F000B491FC01EA54FE4FC591D49161110DC0E1
:105900009FB7F8948C91209582238C9388812823CB
:1059100028839FBFDF91CF910895623051F49FB7E4
:10592000F8943C91822F809583238C93E8812E2BD1
:10593000EFCF8FB7F894EC912E2B2C938FBFEACF3B
:105940001F93CF93DF93282F30E0F901EC51FF4FE5
:105950008491F901E65DFE4FD491F901E059FE4FC3
:10596000C491CC23A1F0162F811148DFEC2FF0E079
:10597000EE0FFF1FEA54FE4FA591B4918FB7F89434
:10598000EC91111108C0D095DE23DC938FBFDF911D
:10599000CF911F910895DE2BF8CFFC01918D228DC0
:1059A000892F90E0805C9F4F821B91098F7399270C
:1059B0000895FC01918D828D981731F0828DE80F4A
:1059C000F11D858D90E008958FEF9FEF0895FC0104
:1059D000918D828D981761F0A28DAE0FBF2FB11DF2
:1059E0005D968C91928D9F5F9F73928F90E008954A
:1059F0008FEF9FEF0895FC01538D448D252F30E0EC
:105A0000842F90E0821B930B541710F0CF960895CB
:105A100001970895FC01A48DA80FB92FB11DA35AB9
:105A2000BF4F2C91848D90E001968F739927848FBE
:105A3000A689B7892C93A089B1898C9183708064E1
:105A40008C93938D848D981306C00288F389E02D82
:105A500080818F7D80830895CF93DF93EC01888DC3
:105A60008823B1F0AA89BB89E889F9898C9185FDE1
:105A700003C0808186FD0CC00FB607FCF7CF8C9168
:105A800085FFF2CF808185FFEDCFCE01C3DFEACF66
:105A9000DF91CF910895EF92FF920F931F93CF93D1
:105AA000DF93EC0181E0888F9B8D8C8D98131AC059
:105AB000E889F989808185FF15C09FB7F894EE8940
:105AC000FF896083E889F98980818370806480839D
:105AD0009FBF81E090E0DF91CF911F910F91FF90E8
