:10000000F8C0000027C1000025C1000023C1000086
:1000100021C100001FC100001DC100001BC1000064
:1000200019C1000017C1000015C1000013C1000074
:1000300011C100000FC100000DC100000BC1000084
:1000400009C1000007C1000005C1000003C1000094
:1000500001C10000FFC00000FDC000000C94062B91
:10006000F9C000000C94FD2E0C94332FF3C0000057
:10007000F1C00000EFC00000EDC00000EBC00000C8
:10008000E9C00000E7C00000E5C00000E3C00000D8
:100090000C94892F0C94BF2FDDC00000DBC0000042
:1000A000D9C00000D7C00000D5C00000D3C00000F8
:1000B000D1C00000CFC00000CDC00000CBC0000008
:1000C000C9C00000C7C000000C942F270C94153045
:1000D0000C944B30BFC000000C94A1300C94D7306E
:1000E000B9C0000000000A0B02090C0D0E0807033E
:1000F00004010000000000000000000000000000FB
:1001000000000000000000000000000000000000EF
:1001100012111000000000000000000000000000AC
:100120000000000000000000000001021020200874
:100130000810204010204080020102010804020142
:1001400001020408102040808040201008040201B1
:10015000800402018040201008040201080402010A
:100160000102040810204080010204081020408091
:1001700005050505070508080808020202020A0A23
:100180000808040404040101010101010101030341
:10019000030303030303040707070C0C0C0C0C0CEC
:1001A0000C0C0202020206060606060606060B0BE9
:1001B0000B0B0B0B0B0B00002200250028002B0063
:1001C0002E003100340002010000050108010B017E
:1001D00000002100240027002A002D0030003300F9
:1001E00001010000040107010A015C2FE82F7430AF
:1001F000003111241FBECFEFD1E2DEBFCDBF00E042
:100200000CBF12E0A0E0B2E0E8E8F3E600E00BBFCC
:1002100002C007900D92A43FB107D9F72AE0A4EFDE
:10022000B2E001C01D92A135B207E1F710E0C9EFBD
:10023000D0E000E006C021970109802FFE010E9456
:100240009131C53FD10780E00807A9F70E94C32874
:100250000C94C231D5CECF93DF93882349F0EB01C4
:1002600081500E940D2C99838883DF91CF9108954E
:10027000FB0111821082F9CF0F931F938B019C0118
:1002800083E036952795179507958A95D1F7035002
:100290001D4F462F477021E030E0F90102C0EE0FFC
:1002A000FF1F4A95E2F7AF01F80120812423CB011B
:1002B0000196211102C090E080E01F910F910895F6
:1002C0000F931F938B019C0183E03695279517951B
:1002D00007958A95D1F7677081E090E001C0880F9B
:1002E0006A95EAF7F801E350FD4F2081452B31F480
:1002F0008095822380831F910F910895822BFACFDE
:10030000CF92DF92EF92FF92CF93DF936B017C014C
:1003100060E086E3C816D104E104F10490F486E3BA
:100320008C0D0E946A2DE6012196AE01C701B6012F
:10033000C7DFCE01DF91CF91FF90EF90DF90CF909C
:1003400008958C2DEECF882341F08150682F70E006
:1003500090E080E050E040E0B3CF0895CF92DF928C
:10036000EF92FF92CF93882351F16A017B01CFEF87
:10037000C80F20E030E0A901CB01B6010E94B829E6
:1003800018168CF0C701B60190580E94C1299B0134
:10039000AC016C2F70E090E080E0CF91FF90EF9087
:1003A000DF90CF90B2C0C701B6010E94BC298C2F4C
:1003B000CF91FF90EF90DF90CF900C94302CCF91A5
:1003C000FF90EF90DF90CF9008950F931F938B01D4
:1003D0009C0183E036952795179507958A95D1F767
:1003E0000C501D4F462F477021E030E0F90102C04C
:1003F000EE0FFF1F4A95E2F7AF01F8012081242399
:10040000CB010196211102C090E080E01F910F9175
:1004100008950F931F938B019C0183E036952795D8
:10042000179507958A95D1F7677081E090E001C034
:10043000880F6A95EAF7F801EC50FD4F2081452BB3
:1004400031F48095822380831F910F910895822B30
:10045000FACF2F923F924F925F926F927F928F923C
:100460009F92AF92BF92CF92DF92EF92FF920F9343
:100470001F93CF93DF93D62EC72E782E692E490176
:100480005A01280161E08D2D0E946A2DCD2DDC2DB1
:100490008E010F5F1F4FA8016D2D7C2D872D962D8E
:1004A000B8DF20E030E0A901C201B7010E949F2A15
:1004B000181664F4C201B7010E94C1292B01C501BD
:1004C000B4010E94C129A201CE0123D0C801DF914D
:1004D000CF911F910F91FF90EF90DF90CF90BF9041
:1004E000AF909F908F907F906F905F904F903F90D4
:1004F0002F900895882341F08150682F70E090E09C
:1005000080E050E040E085CF0895862FB9010C943B
:10051000302C9C01FC01EC51FF4FE491E150E231A1
:10052000E0F4F0E08827E856FD4F8F4F0C949131AE
:10053000AA02B102B402CB02E002AD02F50201034D
:1005400005031C03310346035D037203AD028703F9
:100550009E03B30384B5806884BD60E0822F0C9451
:10056000A62D84B58062F8CF809180008C7F826058
:100570008093800080918100807E8061682B6093F1
:1005800081005093870040938600809180008068AE
:1005900080938000E2CF809180008C7F8260809386
:1005A000800080918100807E8061682B6093810053
:1005B0005093870040938600809180008062E8CF4E
:1005C000809180008C7F8260809380008091810088
:1005D000807E8061682B60938100509387004093F8
:1005E0008600809180008860D3CF8091B0008068C1
:1005F0008093B0008091B100887F682B6093B10038
:10060000ACCF8091B0008062F3CF809190008C7F5E
:1006100082608093900080919100807E8061682B41
:1006200060939100509397004093960080919000C2
:1006300080688093900091CF809190008C7F826041
:100640008093900080919100807E8061682B609300
:1006500091005093970040939600809190008062A3
:10066000E8CF809190008C7F826080939000809191
:100670009100807E8061682B609391005093970079
:1006800040939600809190008860D3CF8091A00025
:100690008C7F82608093A0008091A100807E806129
:1006A000682B6093A1005093A7004093A60080910F
:1006B000A00080688093A00050CF8091A0008C7F24
:1006C00082608093A0008091A100807E8061682B71
:1006D0006093A1005093A7004093A6008091A000D2
:1006E0008062E8CF8091A0008C7F82608093A00020
:1006F0008091A100807E8061682B6093A10050935F
:10070000A7004093A6008091A0008860D3CF80917D
:1007100020018C7F82608093200180912101807E66
:100720008061682B6093210150932701409326013B
:10073000809120018068809320010FCF809120015B
:100740008C7F82608093200180912101807E806176
:10075000682B6093210150932701409326018091DB
:1007600020018062E8CF809120018C7F826080939D
:10077000200180912101807E8061682B609321019E
:100780005093270140932601809120018860D3CFA8
:1007900090E080E008950F931F93009709F48BC0B9
:1007A0006115710509F487C000912402109125029A
:1007B00020912602309127020E3F1F4F2F4F3F4FAF
:1007C00009F06AC04FEF5FEFBA01409324025093E3
:1007D00025026093260270932702409124025091D3
:1007E00025026091260270912702DC011296ED919C
:1007F000FC9180819181A281B38180931D049093AB
:100800001E04A0931F04B093200484819581A681C7
:10081000B7818093190490931A04A0931B04B0939A
:100820001C0480859185A285B385809315049093DF
:100830001604A0931704B093180484859585A685A3
:10084000B7858093110490931204A0931304B0937E
:10085000140410920D0410920E0410920F041092C2
:10086000100402D789E59BE0909307038093060369
:10087000909309038093080390930B0380930A03DA
:10088000E2D5009731F421E030E030932204209348
:1008900021041F910F9108950091240210912502C7
:1008A0002091260230912702DB010D931D932D9399
:1008B0003C93139792CF8FEF9FEFEBCF8F929F9246
:1008C000AF92BF92CF92DF92EF92FF921F93CF939E
:1008D000DF934B015C011091240482E090E090933F
:1008E00022048093210481149104A104B10441F4F1
:1008F00080912404811104C080912304C1E08111FE
:10090000C0E0C12CD12C760180912404811106C055
:1009100080912304811102C0CC23D9F083E090E0C0
:100920009093220480932104CC2379F1CCE9DFEF6A
:10093000111102C00E94BE0ECE01DF91CF911F9116
:10094000FF90EF90DF90CF90BF90AF909F908F90EF
:1009500008956AE070E080E090E00E94752B80E1ED
:10096000C80E87E2D81EE11CF11C8FEF881698068E
:10097000A806B80631F0C1E08C149D04AE04BF0493
:1009800008F0C0E080E093D5BFCFD0E0C0E0D0CF8A
:10099000CF92DF92EF92FF920F931F93CF93DF934B
:1009A0008F3F910511F008F050C020912104309143
:1009B00022042330310539F02091210430912204A2
:1009C0002130310531F424E030E0309322042093CB
:1009D00021046A017B01EC0183309105A0F011E054
:1009E000AE01C701B6012ED5AB01BC01CE0111236A
:1009F000F9F0DF91CF911F910F91FF90EF90DF9071
:100A0000CF900C94E7108C01000F111F0A5F1C4F50
:100A1000D8018D919C91892B11F30E94F1100297BE
:100A2000F1F6D801ED91FC91CE011995182FD8CF90
:100A30000E94091190E080E0DF91CF911F910F910A
:100A4000FF90EF90DF90CF9008958FEF9FEFF4CF5E
:100A500080E02DC5CF93DF9386E090E09093220451
:100A6000809321047DD5EC01E6E0F3E086E0DF0130
:100A70001D928A95E9F70E94560E10922204109258
:100A80002104CE01DF91CF91089580912304089530
:100A900080910C0408956093240270932502809342
:100AA00026029093270290E080E00895FC0191E0F7
:100AB0008091DA03811190E0928308954F925F92C2
:100AC0006F927F928F929F92AF92BF92CF92DF925E
:100AD000EF92FF92CF93DF938091DA038F5F8A309A
:100AE00008F0EDC08093DA03E091E203F091E303B4
:100AF00020910C0230910D0240910E0250910F0294
:100B000060817181828193810E94B82987FFDAC058
:100B10008091100290911102A0911202B0911302E3
:100B200080930D0A90930E0AA0930F0AB093100AB7
:100B30006AE070E080E090E048DC5C0190934A0A53
:100B40008093490AC0900D0AD0900E0AE0900F0AD7
:100B5000F090100A20E030E04FE753E4C701B601FF
:100B60000E94B82918160CF4B6C020E030E0A901A4
:100B7000C701B6010E949F2A87FF03C0C12CD12C58
:100B80007601B701A601C501E9DBC090BC03D09096
:100B9000BD03E090BE03F090BF038FEFC81AD80AE0
:100BA000E80AF80AC092BC03D092BD03E092BE03EB
:100BB000F092BF03C114D104E104F10499F48091CF
:100BC000C0039091C103A091C203B091C3030196E9
:100BD000A11DB11D8093C0039093C103A093C203D4
:100BE000B093C3038090C4039090C503A090C60344
:100BF000B090C703C091E203D091E3036091C003BA
:100C00007091C1038091C2039091C3030E94ED29AA
:100C1000A50194010E94A32A20E030E040E85FE4AF
:100C20000E94A32A2B013C01C701B6010E94ED29B5
:100C3000A50194010E94A32A9B01AC01C301B2014A
:100C40000E945429688379838A839B838091C80397
:100C50009091C903A091CA03B091CB030196A11D45
:100C6000B11D8093C8039093C903A093CA03B093A6
:100C7000CB03892B8A2B8B2B99F48091CC039091F9
:100C8000CD03A091CE03B091CF030196A11DB11D5C
:100C90008093CC039093CD03A093CE03B093CF0366
:100CA000DF91CF91FF90EF90DF90CF90BF90AF900A
:100CB0009F908F907F906F905F904F9008951092CB
:100CC000DA0312CF8091140290911502A0911602BE
:100CD000B091170225CFC12CD12C8FE7E82E83E4E9
:100CE000F82E4FCFCF92DF92EF92FF92CF93DF9308
:100CF0001F921F92CDB7DEB7C0900002D0900102C4
:100D0000E0900202F0900302A701960160913F0A71
:100D10007091400A8091410A9091420A0E94B8293C
:100D2000882341F0C0923F0AD092400AE092410AE3
:100D3000F092420A66E370E080E090E09DDA9093E2
:100D40003E0A80933D0A43E050E0BE016F5F7F4F53
:100D500082DA69817A8190E080E00E94ED29209119
:100D600018023091190240911A0250911B020E9400
:100D7000A32A6093110A7093120A8093130A909326
:100D8000140AC0900402D0900502E0900602F09090
:100D90000702A70196016091330A7091340A80918D
:100DA000350A9091360A0E94B829882341F0C092F2
:100DB000330AD092340AE092350AF092360A6EE392
:100DC00070E080E090E058DA9093320A8093310A24
:100DD00043E050E06DE17AE03EDA60911D0A7091E7
:100DE0001E0A90E080E00E94ED2920911C023091C3
:100DF0001D0240911E0250911F020E94A32A9B01D6
:100E0000AC012093150A3093160A4093170A5093A9
:100E1000180A609120027091210280912202909123
:100E200023020E94A32A6093190A70931A0A8093DE
:100E30001B0A90931C0AC0900802D0900902E0900F
:100E40000A02F0900B02A70196016091270A7091A7
:100E5000280A8091290A90912A0A0E94B829882399
:100E600041F0C092270AD092280AE092290AF09213
:100E70002A0A6AE370E080E090E0FED99093260AA7
:100E80008093250A43E050E0BE016F5F7F4FE3D9B6
:100E90008091D0039091D103A091D203B091D3035C
:100EA0000196A11DB11D8093D0039093D103A0930F
:100EB000D203B093D303892B8A2B8B2B99F4809187
:100EC000D4039091D503A091D603B091D703019696
:100ED000A11DB11D8093D4039093D503A093D60395
:100EE000B093D7030F900F90DF91CF91FF90EF90C9
:100EF000DF90CF9008958F929F92AF92BF92DF9232
:100F0000EF92FF920F931F93CF93DF93E2E2F3E010
:100F10008EECDF011D928A95E9F78FED93E09783C0
:100F20008683C2EED3E0D0936303C093620304ECE4
:100F300013E0158B048BF0938D03E0938C03F58302
:100F4000E48321E030E0DC012D933C938EE492E0D9
:100F50009387828724EE33E03983288340E050E092
:100F600060E87FEB4093DB035093DC036093DD0389
:100F70007093DE034AE057ED63E27CE3D8014D93C2
:100F80005D936D937C931397CAEAD3E081E590E279
:100F9000A3E3B8E288839983AA83BB8387EA92E3B9
:100FA000A8E3BBED8093AE039093AF03A093B0038F
:100FB000B093B1038AE397E2A2E6BCE38093B20365
:100FC0009093B303A093B403B093B50388EF90E17B
:100FD000A7EEB5E88093B6039093B703A093B80348
:100FE000B093B903A6E1B3E0B383A283ECE0F3E0EE
:100FF0001196FC93EE9380E692E091838083938335
:1010000082839583848397838683918780878AEB05
:1010100093E015969C938E9314971396DC93CE933E
:10102000129717963C932E931697EDE0FAE082E123
:10103000DF011D928A95E9F7CFE1DAE080E3FE0156
:1010400011928A95E9F7DD24D394DCA6812C912CAA
:10105000540183948DA29EA2AFA2B8A6E12CF12CDC
:101060008701A80197016AE070E080E090E0F1D983
:101070009BA78AA7D9A6188EDFA600E012E0F80188
:1010800080819181A281B38188A399A3AAA3BBA3E4
:10109000898E9A8EAB8EBC8E66E370E080E090E025
:1010A0002FD99F8F8E8FDD8E1C86DEA6F80184815E
:1010B0009581A681B7818C8B9D8BAE8BBF8B8D86E6
:1010C0009E86AF86B88A6EE370E080E090E018D923
:1010D0009B8B8A8BD98A1882DDA6F8018085918541
:1010E000A285B38588879987AA87BB8789829A82D8
:1010F000AB82BC826AE370E080E090E001D99F831C
:101100008E83DD82DF91CF911F910F91FF90EF9041
:10111000DF90BF90AF909F908F9008958091430A89
:1011200081112AC081E08093430A8091440A909102
:10113000450AA091460AB091470A0197A105B10559
:10114000D9F48091480A8823B9F06AE070E080E021
:1011500090E03BD990934A0A8093490A40E050E0DE
:10116000BA01FCD86AE070E080E090E02ED990935C
:101170004A0A8093490ABED98091370A81111DC05D
:1011800081E08093370A8091380A9091390AA091C2
:101190003A0AB0913B0A0197A105B10571F480911B
:1011A0003C0A882351F066E370E080E090E064D868
:1011B00090933E0A80933D0AC6D880912B0A8111F4
:1011C0001DC081E080932B0A80912C0A90912D0AFA
:1011D000A0912E0AB0912F0A0197A105B10571F4D3
:1011E0008091300A882351F06EE370E080E090E057
:1011F00043D89093320A8093310AA5D880911F0A70
:1012000081111DC081E080931F0A8091200A909176
:10121000210AA091220AB091230A0197A105B105E4
:1012200071F48091240A882351F06AE370E080E031
:1012300090E022D89093260A8093250A84C80895C6
:101240004F925F926F927F928F929F92AF92BF92D6
:10125000CF92DF92EF92FF920F931F93F8944090FA
:10126000FC035090FD036090FE037090FF03C0905C
:10127000F003D090F103E090F203F090F3034130DB
:10128000510509F0A4C09B01AC0124193509460998
:10129000570929013A010091F8031091F9032091AF
:1012A000FA033091FB0348015901840C951CA61CDC
:1012B000B71C80169106A206B306A0F40091F403B1
:1012C0001091F5032091F6033091F7030F5F1F4F44
:1012D0002F4F3F4F0093F4031093F5032093F60331
:1012E0003093F7038092F8039092F903A092FA03E7
:1012F000B092FB030091F4031091F5032091F603E3
:101300003091F7038092000490920104A0920204AD
:10131000B092030400930404109305042093060480
:10132000309307046093FC037093FD038093FE03E6
:101330009093FF03A0E1B7E2A30192010E949931CB
:101340006C0D7D1D8E1D9F1D6093F0037093F10346
:101350008093F2039093F3030091240210912502ED
:1013600020912602309127020F3F1F4F2F4F3F4FF2
:10137000F1F0009124021091250220912602309173
:1013800027020E3F1F4F2F4F3F4F89F0C09024027E
:10139000D0902502E0902602F090270221E08C14E4
:1013A0009D04AE04BF0408F420E020930C0478945C
:1013B0001F910F91FF90EF90DF90CF90BF90AF9073
:1013C0009F908F907F906F905F904F9008954B010A
:1013D0005C0184189508A608B708A3019201261B92
:1013E000370B480B590B6415750586059705D0F02A
:1013F00082169306A406B50640F420E030E0A90169
:1014000081149104A104B10491F4A0E1B7E20E9417
:101410009931A7019601261B370B480B590BCA01BE
:10142000B901C5CF82169306A406B50670F7A0E1F0
:10143000B7E2A50194010E9499316C0D7D1D8E1DAE
:101440009F1DB5CFFDCECF93DF9300D01F92CDB7B8
:10145000DEB71C821B821A82198210920804109235
:10146000090410920A0410920B04BE016F5F7F4FB3
:10147000CE0103960E94002769817A818B819C812D
:101480000E942020009761F4BE016F5F7F4FCE0164
:1014900003960E940C2769817A818B819C812FD5CC
:1014A0000F900F900F900F90DF91CF910895FF92C2
:1014B0000F931F93CF93DF93082F60E070E0CB0171
:1014C0000E94752BFF24F3940E94091FEC01892BC5
:1014D00089F010E0CE3F8FEFD80769F0002361F16B
:1014E00060E070E0CB010E94752B81E090E0892BD9
:1014F00059F322C011E026D5EC01892B21F0CE3F13
:101500008FEFD80759F711111EC011E0229609F488
:1015100010E00E94B91EEC01892B21F0CE3F8FEF25
:10152000D807E1F6111111C011E0CE3F8FEFD807B7
:1015300009F410E001110BC0CE01DF91CF911F9192
:101540000F91FF90089511E0E4CF11E0F3CF60E038
:1015500070E0CB010E94752B1F25812F90E0C7CF33
:10156000CF93DF9380910C04882321F060E070E03A
:10157000CB014DD636D6D0E0C0E0892B71F06AE0C1
:1015800070E080E090E00E94752B81E090DF29D62A
:101590002196C03D27E0D20781F728D60E9474200B
:1015A000109224041092230410921D0410921E0421
:1015B00010921F04109220041092190410921A0421
:1015C00010921B0410921C04109215041092160421
:1015D0001092170410921804109211041092120421
:1015E000109213041092140410920D0410920E0421
:1015F00010920F04109210044EEF5FEF6FEF7FEF29
:101600004093240250932502609326027093270290
:1016100010920C04E0E0F4E028E0DF011D922A952E
:10162000E9F71092FC031092FD031092FE03109252
:10163000FF031092F8031092F9031092FA0310922C
:10164000FB031092F4031092F5031092F60310922C
:10165000F7031092F0031092F1031092F20310922C
:10166000F303DF91CF91089510923004109231046A
:10167000109232041092330410922F048091380497
:101680009091390490932E0480932D0410922C0491
:1016900010922B041092270410922804109229040F
:1016A00010922A04109235041092340490E080E0E5
:1016B0000895CF92DF92EF92FF920F931F93CF93F3
:1016C0008C01019709F055C02091380430913904FC
:1016D00080912D0490912E0440913804509139044A
:1016E00050932E0440932D042817390781F010924F
:1016F0002C0410922B0410922704109228041092AC
:10170000290410922A041092350410923404809116
:10171000380490913904019761F5809134049091D7
:101720003504892B21F480912802811112C0809107
:101730003404909135040197E1F48091270490914D
:101740002804A0912904B0912A040197A105B105AC
:1017500081F4109227041092280410922904109208
:101760002A041092280282E090E09093350480933E
:1017700034048091380490913904019709F01CC118
:1017800080914E0490914F048017910709F014C185
:1017900080914A0490914B04A0914C04B0914D0467
:1017A000009709F409C12091490421110DC040910D
:1017B0004A0450914B0460914C0470914D04452BA8
:1017C000462B472B09F4F8C020913404309135049E
:1017D0002230310509F0F0C020912B042111ECC01A
:1017E000FC01C080D180E280F38080912F048823A7
:1017F00009F4D3C080913B0490913C04892B09F4F7
:10180000FEC020913B0430913C0481E02230310540
:1018100009F080E020913B0430913C04C1E021308C
:10182000310549F020913B0430913C04C1E0223065
:10183000310509F0C0E0882309F456C02091450421
:10184000309146044091470450914804C701B601C5
:101850000E949F2A87FD14C02091450430914604C0
:1018600040914704509148046091300470913104D4
:1018700080913204909133040E94B82987FD22C0E0
:10188000209145043091460440914704509148040A
:10189000C701B6010E949F2A181634F5209145040D
:1018A00030914604409147045091480460913004BF
:1018B0007091310480913204909133040E94B829D0
:1018C000811112C080913D0490913E04A0913F048B
:1018D000B0914004892B8A2B8B2B19F481E08093E3
:1018E0002C0481E080932B04CC2309F456C0209172
:1018F0004504309146044091470450914804C70183
:10190000B6010E94B82987FF14C020914504309188
:10191000460440914704509148046091300470910E
:10192000310480913204909133040E949F2A87FFF2
:1019300022C02091450430914604409147045091C3
:101940004804C701B6010E94B829811126C0209120
:1019500045043091460440914704509148046091F9
:1019600030047091310480913204909133040E94CC
:101970009F2A181694F480913D0490913E04A09102
:101980003F04B0914004892B8A2B8B2B19F481E002
:1019900080932C0481E080932B0481E090912B04B0
:1019A000911180E080932F04C0923004D0923104D2
:1019B000E0923204F09233040130110509F067C15E
:1019C0008091340490913504892BD9F410923A0413
:1019D00010922B0480912802882379F082E090E015
:1019E0009093350480933404109228022091380497
:1019F0003091390481E0232BE9F080E01BC081E0C5
:101A000009CF1092280280913A04882349F010925D
:101A10002C04109235041092340410923A04EDCF45
:101A20008091380490913904892BE1F080912B0446
:101A300010922B042091340430913504223031056A
:101A400009F45EC088F42115310509F448C021303D
:101A5000310509F4F3C010922C0410922B0410925B
:101A60003A0438C081E0E6CF2330310509F4B1C033
:101A70002430310581F7409127045091280460916A
:101A8000290470912A04411551056105710561F021
:101A9000415051096109710940932704509328046A
:101AA0006093290470932A044091270450912804DC
:101AB0006091290470912A04452B462B472BD9F4B9
:101AC00020913604309137042130310509F046C0A9
:101AD00010922C0410923504109234040CC08091A2
:101AE0002802882341F082E090E0909335048093AF
:101AF0003404109228021092250480912C04CEC048
:101B00008823C9F380913D0490913E04A0913F0445
:101B1000B0914004181619061A061B060CF07DC079
:101B20008091380490913904019709F076C0809132
:101B30003D0490913E04A0913F04B09140048093F5
:101B4000270490932804A0932904B0932A0483E0E7
:101B500090E09093350480933404CDCF40914104BC
:101B6000509142046091430470914404452B462BEC
:101B7000472BA9F010922C048091410490914204CB
:101B8000A0914304B09144048093270490932804C7
:101B9000A0932904B0932A0481E090E0DACF88234F
:101BA00099F08091290290912A02A0912B02B09184
:101BB0002C028093270490932804A0932904B093C7
:101BC0002A0484E090E0C5CF10922C0482E090E0DB
:101BD000C0CF8091270490912804A0912904B0914E
:101BE0002A040097A105B10559F00197A109B1098F
:101BF0008093270490932804A0932904B0932A0487
:101C00008091270490912804A0912904B0912A047E
:101C1000892B8A2B8B2B09F06ECF80912902909112
:101C20002A02A0912B02B0912C02892B8A2B8B2B9C
:101C300009F44ECF81E080932C04B3CF4091270468
:101C4000509128046091290470912A04411551058E
:101C50006105710561F041505109610971094093B5
:101C60002704509328046093290470932A04409118
:101C70002704509128046091290470912A04452B6F
:101C8000462B472B09F037CF8111C7CF9FCF8091CB
:101C90002504882309F431CF80912604CF911F9128
:101CA0000F91FF90EF90DF90CF9008951092300445
:101CB00010923104109232041092330410922F04C7
:101CC000109235041092340410922E0410922D04B8
:101CD00010924F0410924E0410922C0410922B0478
:101CE00010922704109228041092290410922A04BA
:101CF000109226041092250410924A0410924B046C
:101D000010924C0410924D04109249041092450414
:101D100010924604109247041092480488EE93E013
:101D2000A0E0B0E08093290290932A02A0932B02B6
:101D3000B0932C021092410410924204109243047A
:101D40001092440410923D0410923E0410923F04FD
:101D50001092400410923C0410923B0481E0809366
:101D6000280210923A04109239041092380410920A
:101D700037041092360490E080E008958091380492
:101D800090913904892B19F580912802882351F00C
:101D900080913A04811106C081E0809326048093EB
:101DA0002504089520913A043091280281E090E0C2
:101DB000332311F090E080E030E082239323892BDD
:101DC00021F01092260481E0EACF109225040895B4
:101DD00082E090E0FA01918380838FEF9FEF089576
:101DE000CF93DF93EA01009711F00E948E211982B0
:101DF000188290E080E0DF91CF910895DB01009799
:101E000019F48FEF8C9308952EEF2C93FC013F96DD
:101E1000EF30F10508F034C08827EE5EF04F8F4FA9
:101E20000C9491313E0F3C0F3A0F380F360F320FA2
:101E3000340F300F2E0F2C0F290F250F210F270FD6
:101E4000400F80E311968C93089589E2FBCF82E2E4
:101E5000F9CF11961C92089583E2F4CF81E2F2CF7C
:101E600081E1F0CF87E2EECF8AE2ECCF80E1EACFEA
:101E700084E2E8CF88E2E6CF86E2E4CF81E3E2CFF6
:101E800080E2E0CF80915C0490915D04089590938E
:101E90005D0480935C04089580915B0408959091A3
:101EA0005B04892B80935B040895982F9095809113
:101EB0005B04892380935B04089580915A040895FC
:101EC000809158049091590408956115710559F055
:101ED000FB0130E020E070E060E02417350719F0E6
:101EE0006115710511F0CB010895A081B181A8178A
:101EF000B90709F4BF012F5F3F4F3696EECF8091AF
:101F00005E0481111CC060D266D29093510480930C
:101F100050040E9490190E94A21990935504809336
:101F200054040E94211E0E94281E90935304809303
:101F3000520481E080935E0490E080E0089584EF95
:101F40009FEF08958F929F92AF92BF92CF92DF92B0
:101F5000EF92FF920F931F93CF93DF9300D000D0A7
:101F600000D01F92CDB7DEB71A86198618861F8259
:101F70001E821D821C821B821A82198280915E043D
:101F800007EF1FEF882309F49CC08E010D5F1F4FE0
:101F90009E012B5F3F4FAE01495F5F4FBE01675F00
:101FA0007F4F90E080E00E94A51F8C01009721F0F8
:101FB0000596029708F0DBC029853A852115310581
:101FC00009F402C1ED80FE804B815C81B701640F92
:101FD000751F8F8198858617970708F4F5C0E20E64
:101FE000F31ED7019C91903C09F07FC0423051050F
:101FF00008F47BC011968C9140915C0450915D0473
:10200000452B09F49CC0913F08F071C02CE1290FC9
:102010002D3008F48BC02DE2290F203108F489C03F
:10202000903C21F48150823008F483C088E3890F0A
:102030008B3008F481C09EEFC92E9EE0D92EE8EEC9
:10204000FEE06D817E81AE014F5F5F4F89859A858D
:1020500019955C01C114D104A1F189809A80811481
:10206000910479F18B819C818815990508F487C0CA
:1020700010E000E04B815C8170E060E0C7010E94ED
:10208000BB3101151105E9F449815A8169857A85C9
:102090008D819E81680F791FC501F6011995E98030
:1020A000FA800D811E812F81388549855A856FEF11
:1020B0007FEF81E090E00E94401F8C01892B09F0A6
:1020C00056C0C8012A960FB6F894DEBF0FBECDBF2A
:1020D000DF91CF911F910F91FF90EF90DF90CF9004
:1020E000BF90AF909F908F90089580E085CF30E0B3
:1020F00020E0220F331FF901E05BFB4F0190F081DC
:10210000E02D309709F497CF892F90E0199500972B
:1021100009F491CFDC011296ED91FC91139714967E
:10212000CD90DC90309709F08CCF1FC021E030E0DB
:10213000E0CF22E030E0DDCF23E030E0DACFD12C79
:10214000C12CE0EFFEE09F3F09F07BCFE09150040F
:10215000F0915104309721F4C90104EF1FEF0CC036
:102160008FEF90E019950097A9F604EF1FEF89858E
:102170009A85009709F4A5CF0E948E21A2CF0E94D4
:102180006F208C0189859A850E948E2170E060E025
:10219000C4010E94082098878F830E943D1F9E8360
:1021A0008D836F8178856115710559F0C8010E9492
:1021B000ED229A87898706EF1FEF892B09F058CF08
:1021C00059CF08EF1FEF56CF08EF1FEFD0CF209168
:1021D0005E04222319F020E00C94A71987EF9FEFEB
:1021E000089580915C0490915D0408950E942D1ED5
:1021F0000E94871DF5D0E0E5F4E088E0DF011D9244
:102200008A95E9F710925E0490E080E008950C94BE
:10221000E41B21E040E050E0BA010C94A71986E0ED
:1022200090E0FA019183808390E080E0089547E098
:1022300050E063E672E049CEDF92EF92FF920F9397
:102240001F93CF93DF938A01EC01C60FD71FE09055
:102250006204F0906304D9800E945720D8161906B2
:1022600078F082E090E0F801918380838EEF9FEF19
:10227000DF91CF911F910F91FF90EF90DF90089524
:10228000EF2841F482E090E0F8019183808384EFAD
:102290009FEFEECF89818093610490E00196F80171
:1022A0009183808390E080E0E3CFCF93DF93EA01D6
:1022B0000E94951C882321F00E9464200E94961C95
:1022C00082E090E0998388838BEF9FEFDF91CF913D
:1022D0000895CF93DF93EB0186E0FB0111928A957D
:1022E000E9F78FEF8883D8DD8983E7DD8A83E8DD2E
:1022F0009D838C83DF91CF910895CF93DF93EA0183
:102300000E94981C811109C082E090E09983888323
:1023100085EF9FEFDF91CF91089590E080E0B7DDEA
:1023200081E090E09983888390E080E0F3CF0F9381
:102330001F93CF93DF93EA018C01060F171F0E94B2
:10234000981C81110BC082E090E09983888385EF0F
:102350009FEFDF91CF911F910F910895F801818137
:10236000823038F082E090E0998388838EEF9FEF8F
:10237000F0CF81E090E08BDD88E090E09983888366
:1023800090E080E0E6CFCF93DF930097D1F4EB01AC
:10239000FB01329686E0DF011D928A95E9F78FEF07
:1023A000888385E089831A820E9457208B830E944C
:1023B00056209D838C8381E08E838F83DF91CF9124
:1023C0000895DF91CF911ACD87E191E19093600458
:1023D00080935F04089580915F0490916004089554
:1023E0001092600410925F040895809162049091AD
:1023F00063040895411105C06115710581059105BA
:1024000061F060936204709363048093640490931A
:1024100065044093660481E0089580E00895FF928A
:102420000F931F93CF93DF938A01EC01C60FD71F41
:10243000F9800E945720F816190668F082E090E0B3
:10244000F801918380838EEF9FEFDF91CF911F91F1
:102450000F91FF9008956C817D818E819F814B81CA
:10246000C9DF811108C082E090E0F8019183808388
:1024700084EF9FEFEACF89818093610490E0019619
:10248000F8019183808390E080E0DFCFCF93DF93EA
:10249000EA01FC01E60FF71F64817581868197814F
:1024A0004381A8DF811109C082E090E0998388838D
:1024B00084EF9FEFDF91CF91089581E090E09983C1
:1024C000888390E080E0F6CFE2E6F4E0408151813D
:1024D00062817381480F511D611D711D40835183BD
:1024E000628373830895CF93C09161044C2F50E0B1
:1024F000609162047091630401960E94B2318C2F46
:10250000E3DF10926104CF910895009799F48091D0
:102510006204909163042FEFFB012083892B59F013
:102520002091610430E02F5F3F4F2417350719F4E5
:10253000CB01D9CF63CC0895009799F480916204C0
:10254000909163042FEFFB012083892B59F0209198
:10255000610430E02F5F3F4F2417350719F4CB019A
:10256000C2CF4CCC089523E1AC01249FC001259F2C
:10257000900D1124E0916B04F0916C04E80FF91FA9
:10258000238134812250310981E02230310508F065
:1025900080E008950F931F93CF93DF9300916D0414
:1025A00010916E04D0E0C0E080E00C171D0749F4E4
:1025B00091E0811190E0892FDF91CF911F910F91D0
:1025C00008958111F5CFCE01CEDF2196EECFA091F7
:1025D0006B04B0916C04109729F120916D04309137
:1025E0006E0482179307F0F453E1589F9001599FAE
:1025F000300D1124A20FB31FED91FC91119730976C
:1026000089F012968C91681768F48DE0689FE00D50
:10261000F11D112480819181892B21F081E092812B
:10262000491708F080E008959C0143E1429FC001F2
:10263000439F900D1124E0916B04F0916C04E80F1E
:10264000F91F8385823099F481E090E0658176817D
:1026500040912D0250912E026417750711F490E0FD
:1026600080E0892B21F081E02230310508F080E004
:102670000895FC01A081B1818DE0689FA00DB11D7E
:10268000112413964D915C9185859685489F900104
:10269000499F300D589F300D1124C90101966111D9
:1026A00003C0478144FD04960895EF92FF920F9373
:1026B0001F93CF93DF93EA01FC01E60FF71F02811E
:1026C0001381E480F5804F2D6E2DC80180DF8111CC
:1026D0000DC082E090E0998388838EEF9FEFDF91B9
:1026E000CF911F910F91FF90EF900895C8013BDFAC
:1026F000882339F082E090E09983888388EF9FEF08
:10270000EECF1093340200933302E0923502F09240
:10271000360281E090E09983888390E080E0DFCF0B
:10272000CF92DF92EF92FF920F931F93CF93DF939D
:102730007A01EC01C60FD71FC0903302D09034024B
:102740000091350210913602412F602FC6013FDF04
:10275000811110C082E090E0F701918380838AEFBD
:102760009FEFDF91CF911F910F91FF90EF90DF903E
:10277000CF900895C601F7DE882341F082E090E013
:10278000F7019183808388EF9FEFEBCF4C815D81D0
:102790006E817F819A8189818F3F41F082E090E054
:1027A000F701918380838EEF9FEFDBCFE3E1EC9D18
:1027B0009001ED9D300D1124E0916B04F0916C04BB
:1027C000E20FF31F0190F081E02D2DE0029FE00D5C
:1027D000F11D11240190F081E02D27E0129FE00D02
:1027E000F11D1124808391838B81828343835483E1
:1027F000658376831F5F1093360281E090E0F701D6
:102800009183808390E080E0ACCFEF92FF920F93B2
:102810001F93CF93DF937A018C01060F171FC0918E
:102820006B04D0916C04209781F021E030E0F80136
:102830008281938140916D0450916E0484179507B5
:1028400010F030E020E0232B71F482E090E0F701FB
:10285000918380838EEF9FEFDF91CF911F910F9136
:10286000FF90EF90089543E1489F9001499F300DFC
:102870001124C20FD31F77DE882341F082E090E05D
:10288000F7019183808388EF9FEFE6CFF8012481E1
:10289000358120383105C8F687818111D6CF418135
:1028A000842F90E08F7E009741F082E090E0F70166
:1028B0009183808386EF9FEFCFCF4F833E832D831D
:1028C000268128871986223010F421E0288721E00C
:1028D00030E0F70131832083BFCF88E090E0FA0138
:1028E0009183808390E080E00895FB018FEF8083E7
:1028F00081E181838FEF9FEF9383828380E890E073
:1029000095838483168217820895FB018FEF80835D
:1029100091E0918382839383848384E3858381E040
:1029200090E0978386830895BF92CF92DF92EF92D3
:10293000FF920F931F93CF93DF93DA01FC01E60F11
:10294000F71F8181813081F082E090E08D939C932C
:102950008FEF9FEFDF91CF911F910F91FF90EF903D
:10296000DF90CF90BF900895C281D381B4808581DC
:1029700006811781E0906B04F0906C04E114F1047F
:1029800039F482E090E08D939C938CEF9FEFE2CF3F
:1029900020916D0430916E04C217D30738F082E0A5
:1029A00090E08D939C938EEF9FEFD4CFC230D105F2
:1029B00038F082E090E08D939C9386EF9FEFCACF32
:1029C0009B2D9D7FB1F78130A1F7B11005C001307B
:1029D000110531F080E004C081E002301105D0F330
:1029E000882339F36D01CE01BEDD882341F082E0FA
:1029F00090E0F6019183808388EF9FEFABCF83E176
:102A00008C9FF0018D9FF00D1124EE0DFF1DB386FC
:102A100081E0848716870587108A178681E090E019
:102A2000F6019183808390E080E094CF4CE050E009
:102A30006DE872E04ACA8F929F92BF92CF92DF9266
:102A4000EF92FF920F931F93CF93DF93EA01FC0164
:102A5000E60FF71F828193810481B580E0916B04BA
:102A6000F0916C04309791F482E090E09983888330
:102A70008CEF9FEFDF91CF911F910F91FF90EF901F
:102A8000DF90CF90BF909F908F90089520916D041C
:102A900030916E048217930738F082E090E09983BA
:102AA00088838EEF9FEFE6CF23E1289F6001299F67
:102AB000D00C1124EC0DFD1DE080F180E114F10437
:102AC00099F28281081748F78DE0089F8001112450
:102AD000E00EF11EF70180819181892B29F6BB2040
:102AE000E1F2F7E0BF9E40011124C4010E9455218C
:102AF000F70191838083E0916B04F0916C04EC0DFD
:102B0000FD1D0190F081E02DE00FF11F808191818A
:102B1000009739F482E090E0998388838DEF9FEFEE
:102B2000A9CFA40170E060E00E94BB3180916B04EA
:102B300090916C04C80ED91EF60180819181080F16
:102B4000191FF801B28281E090E09983888390E0B8
:102B500080E090CFAF92BF92CF92DF92FF920F931F
:102B60001F93CF93DF93EA01FC01E60FF71F8281E9
:102B70009381F48000916B0410916C040115110590
:102B800081F482E090E0998388838CEF9FEFDF915E
:102B9000CF911F910F91FF90DF90CF90BF90AF909A
:102BA000089520916D0430916E048217930738F0D8
:102BB00082E090E0998388838EEF9FEFE8CF2FEF3C
:102BC0002F0D2C3FA8F723E1289F6001299FD00CEF
:102BD00011240C0D1D1DF80180819181892B89F62E
:102BE000FDE0FF9E50011124C5010E945521F8010E
:102BF00091838083E0916B04F0916C04EC0DFD1DDA
:102C000080819181009739F482E090E099838883F4
:102C10008DEF9FEFBCCFA50170E060E00E94BB315B
:102C2000E0916B04F0916C04EC0DFD1DF28281E0EB
:102C300090E09983888390E080E0A9CFCF92DF92E3
:102C4000EF92FF920F931F93CF93DF93860F971FFF
:102C5000FC010281138180916B0490916C04892B9B
:102C600081F082E090E0FA01918380838CEF9FEF06
:102C7000DF91CF911F910F91FF90EF90DF90CF9058
:102C80000895C801B0E0A0E00197A109B1098F3F04
:102C90009F4FA105B10540F082E090E0FA019183D9
:102CA00080838EEF9FEFE4CF7A0183E1809F600104
:102CB000819FD00C1124C6010E945521EC01009780
:102CC00041F482E090E0F701918380838DEF9FEFE4
:102CD000CFCFA60170E060E00E94BB31D0936C04BE
:102CE000C0936B0410936E0400936D0490E080E039
:102CF0002FEF3FEF41E061E070E08017910741F472
:102D000081E090E0F7019183808390E080E0B0CF94
:102D10003A8B298B1B864C877E876D87188A1F8686
:102D200001966396EACFEF92FF921F93CF93DF93C2
:102D3000EC0110E0F12CE12C6A811617B0F083E071
:102D4000689FB0011124AE014F5E5F4FC7010E9422
:102D5000BA21009721F02FEF3FEF3A8B298BDF91BB
:102D6000CF911F91FF90EF900895612FCE0181DCEC
:102D700061E070E00E940820E816F90608F47C0182
:102D80001F5FDACFF8942091690430916A0481E0E2
:102D90002115310509F080E0232B09F0789408957E
:102DA0002F923F924F925F926F927F928F929F925B
:102DB000AF92BF92CF92DF92EF92FF920F931F9349
:102DC000CF93DF933C01660E771EF30182819381DE
:102DD0004C01B12CA12CC0916B04D0916C042097B4
:102DE00069F021E030E060916D0470916E04861707
:102DF000970710F030E020E0232BD1F482E090E040
:102E0000FA01918380838EEF9FEFDF91CF911F9125
:102E10000F91FF90EF90DF90CF90BF90AF909F9079
:102E20008F907F906F905F904F903F902F9008957C
:102E30008092370290923802A0923902B0923A0200
:102E400063E1689F9001699F300D1124C20FD31F69
:102E5000F3018181833040F082E090E0FA019183B8
:102E6000808386EF9FEFD1CF2A012B813C81232BDA
:102E7000F1F4288139819F8191FF2EC0232B09F421
:102E80006FC0209170049A81422F490F5527551F1A
:102E9000BA0141E050E06138710514F050E040E0C3
:102EA000452B09F45DC02A87920F909370048150DE
:102EB000823008F481C066DF882309F4DAC0F301A8
:102EC0008181813009F48DC008F47BC0823009F41F
:102ED000C8C090E080E0ADC0232B09F441C0209130
:102EE0006F049A81E22FE90FFF27FF1F41E050E0B6
:102EF000ED3FF10514F050E040E0452B89F12A87C1
:102F0000920F90936F04D3CFA081B181A20FB31F12
:102F100011966C91060F111D0196295F3F4F841782
:102F2000950794F38D859E85089F1001099F300CAD
:102F3000189F300C1124C114D104D1F48F8184FF67
:102F400017C00E945620F5E02F0E311C21E082159B
:102F5000930508F420E0A701435F5F4F21110EC0E5
:102F600082E090E0F2019183808387EF9FEF4DCF65
:102F70000E9456202FEF221A320AE8CF88819981C9
:102F8000E80EF91EF70114830383FFEFCF1ADF0A5F
:102F90007A018A818C151D0409F00CF48CCFE8812C
:102FA000F981EE0DFF1D428150E030E020E010E09D
:102FB00000E090E080E0B3CFF12CE12CD12CC12CCB
:102FC000E8CF81E090E09C838B83E4DA882309F4E6
:102FD00080CF81E090E00E94470F80E40E94550F6F
:102FE00078CF89899A89019661F083E090E09C838B
:102FF0008B8382E090E00E94470F80E40E944F0F95
:1030000068CF8D819E8120912D0230912E028217F2
:103010009307D1F46091310270913202AE014F5E9C
:103020005F4F80912F02909130020E94AC22009756
:10303000E1F2789422E030E0F20131832083892BA1
:10304000A9F08DEF9FEFE1CE22E082169104A1045A
:10305000B1045CF6039748F6CE0165DE188A1F8638
:10306000E6CF82E090E09C838B8333CF90E080E0DA
:10307000CCCE82E090E0F2019183808385EF9FEFD8
:10308000C4CE8F929F92AF92BF92CF92DF92EF9277
:10309000FF920F931F93CF93DF93EA018C01060FEA
:1030A000171FF8018181833098F082E090E09983C6
:1030B000888386EF9FEFDF91CF911F910F91FF9053
:1030C000EF90DF90CF90BF90AF909F908F9008953A
:1030D00080916B0490916C04892B61F081E090E009
:1030E00020916D0430916E04232B11F490E080E068
:1030F000892B39F482E090E0998388838EEF9FEFEB
:10310000DACF40DE882309F4E1C0F8018181813003
:1031100009F497C0E8F0823099F420916D04309161
:103120006E04E0916B04F0916C0490E080E041E06B
:1031300050E02817390709F0BFC02CDA811117C0F9
:10314000789481E090E09983888390E080E0B3CF29
:1031500020916D0430916E04E0916B04F0916C0449
:1031600090E080E041E050E02817390741F481E029
:1031700090E00E94470F80E40E94550FE1CF6381E9
:103180007481672B11F05483438301967396ECCFBF
:10319000E0916B04F0916C04E00FF11F2381348106
:1031A00022303105D9F4218932892F3F3F4FB1F4C4
:1031B0002581368140912D0250912E02241735072A
:1031C00061F5AF014F5E5F4F609131027091320245
:1031D00080912F02909130020E94AC22EFEFCE1A24
:1031E000DE0AEE0AFE0A0D5E1F4F40916D045091FB
:1031F0006E0470E060E0C416D506E606F7064CF5EE
:10320000009731F27894892B09F49BCF82E090E00B
:10321000998388838DEF9FEF4ECF42E0C416D1048F
:10322000E104F104DCF623303105C0F6CF017BDD8B
:10323000E0916B04F0916C04E00FF11F108A178687
:10324000CDCF10E000E090E080E0C12CD12C7601E1
:10325000CCCF0097B9F610E000E0812C912C5401FE
:1032600083E0E82EF12C1AC0E0916B04F0916C041D
:10327000E00FF11F83819481029749F4F482E38285
:1032800082E090E00E94470F80E40E944F0FFFEF22
:103290008F1A9F0AAF0ABF0A0D5E1F4F80916D04FF
:1032A00090916E04B0E0A0E088169906AA06BB06CD
:1032B000DCF290E080E0A6CF63817481623071051A
:1032C00011F4548343830196739633CF82E090E0E8
:1032D0009983888385EF9FEFEECE0097B9F48FEF47
:1032E000FB018083209137023091380243E1429FF5
:1032F000C001439F900D1124E0916B04F0916C0488
:10330000E80FF91F8285FB01818308950C94FE0E5E
:1033100088E090E0FA019183808390E080E0089556
:1033200010926A0410926904EBE6F4E086E0DF0193
:103330001D928A95E9F786E195E190936804809360
:1033400067040895809167049091680408952F920E
:103350003F924F925F926F927F928F929F92AF9225
:10336000BF92CF92DF92EF92FF920F931F93CF9372
:10337000DF93CDB7DEB72F970FB6F894DEBF0FBE41
:10338000CDBFF894E0916904F0916A043196F0930E
:103390006A04E0936904789440906B0450906C0444
:1033A0004114510409F40DC2E0916D04F0916E04D2
:1033B000EF2B09F406C22D8749875A876B877C87D4
:1033C00098878F831201B12CA12C10E000E080912E
:1033D0006D0490916E04A816B90618F40115110534
:1033E00029F1F8948091690490916A04019790936F
:1033F0006A04809369047894C8012F960FB6F894F4
:10340000DEBF0FBECDBFDF91CF911F910F91FF9017
:10341000EF90DF90CF90BF90AF909F908F907F9074
:103420006F905F904F903F902F9008957101E41836
:10343000F508D10117968C91179781FD54C013960A
:103440008D919C911497039709F04DC015968D911D
:103450009C91EF81F8858E179F0709F044C0B50154
:1034600090E080E081D48A8320916B0430916C04D9
:103470003D832C833D85332309F44CC04C815D8111
:10348000452B09F49BC180916D0490916E04A816A0
:10349000B90608F093C1C501C7D88823E9F06C814B
:1034A0007D816E0D7F1D7D836C83DB011F968D9169
:1034B0009C91892B89F0D12CC12CF12CE12CAC8171
:1034C000BD8112968C9112978E151F0409F094F409
:1034D00050961C921E921F972A81222321F0B5013B
:1034E00090E080E043D43FEFA31AB30A43E1240EF7
:1034F000311C6DCFAC81BD81ED91FC91EC0DFD1DBA
:10350000858196810BD7BFEFEB1AFB0AEDE0CE0E5B
:10351000D11CD5CFEC81FD81309709F44FC180914A
:103520006D0490916E04A816B90608F047C1EE0D1F
:10353000FF1DFF87EE87C50177D88B83882339F17C
:10354000AE85BF851F968D919C915097019621E085
:103550001D964D915C918417950709F020E02E830C
:103560001982712C10E000E0AE85BF8512968C9117
:10357000781608F45DC0EE85FF85878590890196F1
:10358000658576850E945B31908B8787A5CFB1E0FA
:10359000BE83E6CF992493946BC087D6F6019683B9
:1035A000858383C0D601ED90FC90B7E06B9EE00C64
:1035B000F11C1124F7016381748180818F3F61F1D7
:1035C00021E030E002C0220F331F8A95E2F7C901E3
:1035D000092E000CAA0BBB0BFB01408151816281BB
:1035E000738184239523A623B72321E0892B8A2B7B
:1035F0008B2B09F420E0D4012C93D70111968C91E8
:10360000F60123853485820F932F911D880E991E14
:103610001486138663949CC0418150E0C4010E94CB
:10362000B231EBCF998206EF1FEFC6C01982C4C03A
:10363000F981F111A0CFEDE07E9E70011124AE85DD
:10364000BF85CD90DC90CE0CDF1C17D49D838C837E
:10365000BB81BB2309F49ECF81E0EE85FF852785E2
:103660003089232B09F080E0982E882309F459C073
:10367000672D8E859F850E943913D60118969C93DD
:103680008E93179761E070E0C3D4EE85FF852189A2
:1036900032892F3F320709F480CFBC01C9019DD781
:1036A000D60116969C938E931597D60115968D91FB
:1036B0009C911697009709F4B5CFEC81FD818E0F90
:1036C0009F1F1A969C938E931997AE85BF85ED9197
:1036D000FC911197EE0EFF1EF701218532851486AD
:1036E00013861A968C91870DD9018D93711016C08F
:1036F000EE85FF85878184FF11C049855A856B85DA
:103700007C85F9014183528363837483F701838548
:1037100094850496A80FB91F14861386F701B28703
:10372000A187D60115968D919C911697892B09F446
:1037300043C0EE85FF852581368180912D029091D1
:103740002E022817390779F019968D909C90612CDC
:10375000D60112968C911297681608F423CF1A9608
:103760009C928E921997BE81BB2309F45FCF61E0D2
:1037700070E0F601878190854BD4D6011796ED90C5
:10378000FC90189715964D915C91E1E0F0E0BA81BC
:10379000BB2311F0F0E0E0E00C811D819C01B5013C
:1037A000882799278E1B9F0B6BD38C01892B21F0C7
:1037B000F60185819681B2D57394D6CE0FEF1FEFB7
:1037C0008BCE10E000E00DCE2F923F924F925F9291
:1037D0006F927F928F929F92AF92BF92CF92DF9221
:1037E000EF92FF920F931F93CF93DF9380916B041F
:1037F00090916C0410E000E0892BA9F0C3DA0AEF85
:103800001FEF882381F020906D0430906E04C091EA
:103810006B04D0916C04D12CC12C10E000E02C146E
:103820003D04A9F47894C801DF91CF911F910F91C5
:10383000FF90EF90DF90CF90BF90AF909F908F90D0
:103840007F906F905F904F903F902F900895C601AA
:103850000E941413882309F18B819C810397E9F45A
:103860008F859889892BC9F0B60190E080E07CD2E1
:1038700021E030E0882311F030E020E0442455249A
:10388000421A530AB12CA12C912C812C8A818815C3
:10389000190409F038F4188A1F864FEFC41AD40AA5
:1038A0006396BDCFE881F981EA0DFB1D8581968184
:1038B000892BA1F161E070E087819085A9D33C015B
:1038C000DCD28C01E881F981EA0DFB1D81859285AE
:1038D00025813681200F311FAC01421B530B9A0109
:1038E00047815085421B530B70E060E00E94BB3162
:1038F000E881F981EA0DFB1DE780F084458156815E
:103900009301B601C201BCD28C01892B39F0E88148
:10391000F981EA0DFB1D8581968100D55FEF851A3F
:10392000950A8DE0A80EB11CB1CF2CCA78940895E9
:103930002F923F924F925F926F927F929F92AF929F
:10394000BF92CF92DF92EF92FF920F931F93CF938C
:10395000DF9300D000D0CDB7DEB700916B0410919B
:103960006C04992493940115110509F43EC0A090AC
:103970006D04B0906E0406DA982E8823B1F110928F
:103980006C0410926B0410926E0410926D041092ED
:103990006F04109270048FEF9FEFDC018093370269
:1039A00090933802A0933902B0933A02789480D36E
:1039B0001E830D83C12CD12C7601C501B0E0A0E09F
:1039C00089839A83AB83BC8322242A94322C8981F5
:1039D0009A81AB81BC81C816D906EA06FB06F4F0D1
:1039E000C8019CD480E40E94550F892D26960FB6FD
:1039F000F894DEBF0FBECDBFDF91CF911F910F9125
:103A0000FF90EF90DF90CF90BF90AF909F907F900E
:103A10006F905F904F903F902F900895AD81BE8141
:103A200015968D919C91169720912D0230912E0222
:103A300082179307D1F451968D919C91BCD5ED815D
:103A4000FE8180819181B12CA12C412C512C32011D
:103A5000892B91F5BFEFCB1ADB0AEB0AFB0AED814C
:103A6000FE817396FE83ED83B2CFB2E0CB16D10414
:103A7000E104F10424F7039710F7ED81FE818189B9
:103A800092898F3F980709F011D5AD81BE8152967A
:103A90003C922E925197D3CF8A0D9B1DDC018D91C4
:103AA0009C91009709F03AD4BFEF4B1A5B0A6B0A5E
:103AB0007B0AEDE0AE0EB11CAD81BE818D919C9173
:103AC000119712964C9150E070E060E04416550654
:103AD000660677060CF322D4BDCFCF93DF93EA01BD
:103AE00027DF811109C082E090E09983888385EF08
:103AF0009FEFDF91CF91089581E090E00E94470F02
:103B000081E090E09983888390E080E0F2CF10DF3D
:103B10001092680410926704089542E050E065ED49
:103B200072E00C94650FFF920F931F93CF93DF9376
:103B30008A01EC01C60FD71FF980B9D20897F81691
:103B4000190671F068F082E090E0F80191838083BB
:103B50008EEF9FEFDF91CF911F910F91FF9008950E
:103B60006C817D818E819F814B810E94FA11811130
:103B700008C082E090E0F8019183808384EF9FEF9A
:103B8000E9CFF9800E94F5114F2D50E0BE01685F2A
:103B90007F4F0E94B23189810E94641281E090E0DF
:103BA000F8019183808390E080E0D4CFDF92EF92A0
:103BB000FF920F931F93CF93DF938A01EC01C60FFF
:103BC000D71F0E94F5117C01D98071D2DD2059F0F8
:103BD000029721E030E0D816190619F010F030E015
:103BE00020E0232B79F482E090E0F8019183808338
:103BF0008EEF9FEFDF91CF911F910F91FF90EF908C
:103C0000DF900895EF2841F482E090E0F80191837D
:103C1000808384EF9FEFEECFF9800E94F5114F2D46
:103C200050E0BE016E5F7F4F0E94B23189810E94D9
:103C3000641281E090E0F8019183808390E080E05D
:103C4000D9CF8DE89DE1909372048093710408951B
:103C5000809171049091720408950895FC0111827D
:103C60001082938382830895DB011D921C92DC01F4
:103C70001296ED91FC9113977183608313967C9358
:103C80006E9312970895FC0180819181DB018D93E1
:103C90009C93A081B181109741F08D919C9191836B
:103CA0008083892B11F4F383E2830895FC018081E2
:103CB0009181DB018D939C93892B11F47383628333
:103CC000718360830895FC01118210829383828343
:103CD0000895CF93DF931F921F92CDB7DEB71A825C
:103CE0001982F894BE016F5F7F4F88E794E0CBDFC5
:103CF00089819A81009709F011D389819A81892B52
:103D000089F7BE016F5F7F4F8CE794E0BCDF89814C
:103D10009A81009709F002D389819A81892B89F7CA
:103D200078940F900F90DF91CF910895CF93DF9308
:103D30001F921F92CDB7DEB71A821982F894BE0186
:103D40006F5F7F4F84E794E09EDF89819A810097BF
:103D500009F0E4D289819A81892B89F778940F90B0
:103D60000F90DF91CF91089581E0089590E080E079
:103D70000895EF92FF920F931F93CF93DF931F92BB
:103D80001F92CDB7DEB71A8219828091730407EFB4
:103D90001FEF8823A1F1F894BE016F5F7F4F8CE77E
:103DA00094E071DF789489819A81EE24E394F12C78
:103DB000892B51F4F894BE016F5F7F4F88E794E040
:103DC00062DF7894F12CE12C89819A810EEF1FEF4C
:103DD0000097A9F0FC014281538164E070E044D671
:103DE0008C01892B61F0F89469817A81C701880F71
:103DF000991F880F991F88589B4F58DF7894C801E6
:103E00000F900F90DF91CF911F910F91FF90EF9046
:103E100008950F931F93CF93DF9300D01F92CDB7D8
:103E2000DEB71C821B821A8219828091730407EF0D
:103E30001FEF8823C1F0AE014D5F5F4F64E070E07B
:103E4000CE01019684D68C01892B69F4E981FA812F
:103E50008B819C8193838283F89469817A8184E742
:103E600094E002DF7894C8010F900F900F900F90AC
:103E7000DF91CF911F910F91089589D704960895EE
:103E80008F929F92AF92BF92CF92DF92EF92FF926A
:103E90000F931F93CF93DF931F921F92CDB7DEB77F
:103EA0001A821982BC016F5F7F4F6330710598F0F1
:103EB000AA24AA94BA2CC5010F900F90DF91CF913C
:103EC0001F910F91FF90EF90DF90CF90BF90AF9038
:103ED0009F908F9008954115510551F34801590164
:103EE0008A016C01CADF8815990511F7E114F10404
:103EF000F9F28E0D9F1DA816B906D0F280917304B9
:103F00008823F1F0F894B501645071099701AE016E
:103F10004F5F5F4FC8010496AFD65C01892B71F4E7
:103F200089819A81F80193838283C601880F991F42
:103F3000880F991FB80188589B4F96DE7894BBCFA5
:103F400087EFA82EBB24BA94B6CFAF92BF92CF9280
:103F5000DF92EF92FF920F931F93CF93DF931F9205
:103F60001F92CDB7DEB71A821982892B09F047C09C
:103F70006115710509F443C04115510509F43FC0AD
:103F80002115310509F43BC001151105C1F18091DE
:103F900073048823B9F179016A015B01F894BE01C9
:103FA0006F5F7F4F84E794E06EDE789489819A8119
:103FB000009759F1DC0112966D917C91A80104964D
:103FC00074D68C01E981FA81D501ED93FC9382814D
:103FD00093810496F601918380834FDFD7018D93FF
:103FE0009C93C8010F900F90DF91CF911F910F917B
:103FF000FF90EF90DF90CF90BF90AF9008950FEFBC
:104000001FEFEFCF07EF1FEFECCF0EEF1FEFE9CF62
:10401000CF93DF93EC01672B71F4C2D68C179D0709
:1040200060F0B5D62496C80FD91FB4D68C0F9D1F4B
:10403000DF91CF910895B1D6F1CF90E080E0F8CF35
:104040000F931F93CF93DF932091730421112BC003
:104050008B01EC0188E794E001DE8CE794E0FEDD63
:1040600084E794E0FBDD97D00097C1F499D670E027
:1040700060E0CEDF4BE352E062E070E07BD100977E
:1040800069F480913B0290913C029CD6B801CE012C
:10409000D1D4009719F421E020937304DF91CF91DC
:1040A0001F910F91089584EF9FEFF8CF76C678C6E1
:1040B000CF93DF9378D6EC01892B11F40ADE36DE3C
:1040C000CE01DF91CF910895CF93DF936CD6EC01B1
:1040D000892B09F4FEDDCE01DF91CF910895809107
:1040E0003B0290913C020895CF93DF93809173043B
:1040F000D0E0C0E08823D1F06AD6EC01892BB1F47E
:10410000E8DD14DE80913B0290913C02CFD1B5D224
:10411000EC01892B59F488E794E0D5DD8CE794E035
:10412000D2DD84E794E0CFDD10927304CE01DF91FD
:10413000CF910895EF92FF920F931F93CF93DF9348
:10414000EC017A018B010F5F1F4F0E9DA0010F9DA7
:10415000500D1E9D500D112470E060E00E94BB3197
:1041600090E080E0F0E0E0E02FEFE816F90639F4A7
:10417000DF91CF911F910F91FF90EF9008951A82D8
:1041800019822883309711F0D283C1830196FE01F2
:10419000C00FD11FEACFAF92BF92CF92DF92EF92C2
:1041A000FF920F931F93CF93DF938AE296E07C01F7
:1041B0002CEFE22243E050E06DE372E083E492E012
:1041C000E6D38DE3C82E82E0D82E93E4A92E92E0A8
:1041D000B92EC3E4D7E08E01D6014D915D916D01FA
:1041E000F501619171915F01D8011196FC92EE92F7
:1041F00015965C934E93149713965C934E93129777
:1042000017967C936E9316979B012F5F3F4F249FC9
:10421000C001259F900D349F900D112419969C93F9
:104220008E931897E114F10411F0C70183DFF801B0
:1042300080859185E80EF91E065F1F4FF3E4CF16C7
:10424000F2E0DF0649F6E2E8F4E085EA91E0DF011A
:104250009C011D9221503040E1F710928104109290
:1042600080041F8E1E8E1BA21AA219A218A21DA2C4
:104270001CA21FA21EA22A9637E0C136D30789F7D7
:104280001092400710923F07109242071092410788
:1042900090E080E0DF91CF911F910F91FF90EF9020
:1042A000DF90CF90BF90AF9008950097F1F0F89411
:1042B000A3E4B2E0E3E4F7E030E020E04D915D916B
:1042C00048175907A8F0428153814115510581F0E3
:1042D0008AE0829FF001839FF00D1124ED5BF84F7F
:1042E00080819181009759F4789490E080E008955E
:1042F0002F5F3F4F3A962330310501F7F5CFDC01B0
:1043000011966D917C917183608341505109538363
:104310004283FC012193CF0178940895009749F1DD
:10432000DC018E91863041F4E0914107F091420723
:104330003097F9F0CD0119948630D8F4282F30E069
:10434000F8948FEF8C938AE0829FF001839FF00DA9
:104350001124ED5BF84F8081918112969C938E938E
:104360001197B183A0838281938101969383828385
:1043700078940895CF92DF92EF92FF920F931F935C
:10438000CF93DF939C0185E894E08C7F4115510524
:1043900009F489C02115310509F485C0611571053D
:1043A00009F481C08A01AB01B9016D5F7F4F6C7F59
:1043B0009B012F5F3F4F249F7001259FF00C349F7E
:1043C000F00C1124F894E3E4F7E023E030E0E90195
:1043D000A6A1B7A1C68CD78CCD2809F058C01097DC
:1043E00009F03EC0C0908004D090810422EA31E000
:1043F0002C193D092E153F0530F47894CFEFDFEFEF
:1044000086EF9FEF21C02AE02C9FF0012D9FF00D39
:104410001124ED5BF84F918380835583448353834C
:10442000428377836683F186E086009709F082DE17
:10443000EC0CFD1CF0928104E09280047894CF3F54
:10444000DC07F1F290E080E0F801D183C083DF91D6
:10445000CF911F910F91FF90EF90DF90CF90089533
:10446000AE15BF05A0F02AE02C9FF0012D9FF00DA6
:104470001124ED5BF84F91838083558344835383EC
:104480004283778366830097C9F254DED7CF8A0FC1
:104490009B1F2F5F3F4F3A962630310509F097CF8B
:1044A000CFEFDFEFCBCF8FEF9FEFD1CF9C01039703
:1044B000039708F04EC0F89485E09AE0482F50E04A
:1044C000241735079CF191E08AE0829FF001839FD9
:1044D000F00D1124ED5BF84F1182108215821482C9
:1044E00013821282178216829923E1F08091800450
:1044F00090918104E3E4F7E0268D378D232B49F476
:1045000026A137A12115310521F0821B930B17A29B
:1045100016A23A9627E0E136F20771F790938104EC
:1045200080938004789490E080E00895949FF00157
:10453000959FF00D1124ED5BF84F40815181452B83
:1045400031F440855185452B11F48150B7CF90E06F
:10455000BBCF8FEF9FEF08954115510549F10097AB
:1045600039F16115710521F1F89420913F073091DF
:104570004007232BB9F42091410730914207232BA8
:1045800089F49093400780933F07709342076093AC
:104590004107789426E030E090E080E0FA01318332
:1045A0002083089578942FEF3FEF86EF9FEFF6CFAB
:1045B0008FEF9FEF0895069769F4F89410924007E3
:1045C00010923F071092420710924107789490E0B2
:1045D00080E008958FEF9FEF08956115710519F43C
:1045E000F0E0E0E011C08630910581F4E0913F07F2
:1045F000F09140073097A1F3CB01019619950097F0
:1046000079F3FC0186E08193CF0108959C0123504A
:1046100031092330310520F72AE0289FD001299F56
:10462000B00D1124AD5BB84F2D913C911197232B08
:10463000B9F216962D913C9117972617370780F2FD
:10464000F89412962D913C9113972115310529F07C
:10465000ED91FC911197309711F47894C1CF41817D
:10466000528111965C934E932150310913963C93DD
:104670002E93129781937894C7CFE7E2F6E088E112
:1046800091E0DF019C011D9221503040E1F7E2E80A
:10469000F4E085EA91E0DF019C011D922150304059
:1046A000E1F71092810410928004E3E4F7E08CE3D8
:1046B000DF011D928A95E9F7EFE3F7E084E0DF017F
:1046C0001D928A95E9F790E080E00895CF93DF93FB
:1046D000C0914902D0914A02CF3FDC0759F420D45F
:1046E00090934A028093490297FF09C0D0934A02EF
:1046F000C093490284EF9FEFDF91CF91089590E03E
:1047000080E0FACF8230910528F480937F0790E013
:1047100080E008958FEF9FEF08954F925F926F9220
:104720007F92AF92BF92CF92DF92EF92FF920F9360
:104730001F93CF93DF931F921F92CDB7DEB71A82DC
:104740001982009709F478C06115710509F474C0E5
:104750002091490230914A0207EF1FEF2F3F3F4F50
:1047600009F444C06B015C01412C512C3201F12C45
:10477000E12C10E000E09E012F5F3F4FA6014E1993
:104780005F09B5016E0D7F1D8091490290914A022B
:1047900026D4892B09F04AC089819A81009741F477
:1047A000E114F10429F420917F07222309F441C088
:1047B000E80EF91EEC14FD04C8F480E8481684E8FD
:1047C00058068EE16806710418F560E070E0CB01D0
:1047D0008CD72AE0420E511C611C711C0A3F4FEF1E
:1047E000140721F0043F8FEF1807A1F4C8010F90C0
:1047F0000F90DF91CF911F910F91FF90EF90DF907D
:10480000CF90BF90AF907F906F905F904F90089542
:1048100001EF1FEF81E090E0013F2FEF120711F051
:1048200090E080E0892B09F4A6CFE0CF04EF1FEFE2
:10483000DDCF0AEF1FEFDACF0FEF1FEFD7CF4F9289
:104840005F926F927F92AF92BF92CF92DF92EF9280
:10485000FF920F931F93CF93DF931F921F92CDB7B9
:10486000DEB71A821982009709F478C061157105C4
:1048700009F474C02091490230914A0207EF1FEFFA
:104880002F3F3F4F09F444C06B015C01412C512C78
:104890003201F12CE12C10E000E09E012F5F3F4F30
:1048A000A6014E195F09B5016E0D7F1D8091490269
:1048B00090914A024AD3892B09F04AC089819A8192
:1048C000009741F4E114F10429F420917F07222399
:1048D00009F441C0E80EF91EEC14FD04C8F480E4AC
:1048E000481682E458068FE06806710418F560E007
:1048F00070E0CB01FAD62AE0420E511C611C711CFB
:104900000E3F4FEF140721F0043F8FEF1807A1F47B
:10491000C8010F900F90DF91CF911F910F91FF90E1
:10492000EF90DF90CF90BF90AF907F906F905F90AF
:104930004F90089502EF1FEF81E090E0023F2FEFCC
:10494000120711F090E080E0892B09F4A6CFE0CFA8
:1049500004EF1FEFDDCF0EEF1FEFDACF0FEF1FEFEA
:10496000D7CF8091490290914A028F3F980749F032
:10497000CFD2892B49F48FEF9FEF90934A02809317
:10498000490290E080E0089584EF9FEF0895CF9270
:10499000DF92EF92FF920F931F93CF93DF9321E06B
:1049A0004115510509F020E04150510921112CC059
:1049B000DC01FB01D12CC12C21E022C03FEFC31A46
:1049C000D30A7D010D911D91E701EA80FB80E0167D
:1049D000F106A8F420813181E280F380F182E08247
:1049E00033832283ED90FC9011979D012250310971
:1049F000E901F982E88211961C930E9320E0329629
:104A0000C416D506D8F2D2CFDF91CF911F910F9166
:104A1000FF90EF90DF90CF900895FC01680F791F11
:104A200090E080E0E617F70709F408952191820FDE
:104A3000911DF8CF20918007211113C047DE009708
:104A400091F41092860710928507109284071092B5
:104A50008307109282071092810721E0209380073C
:104A6000089584EF9FEF0895AF92BF92CF92DF92A7
:104A7000EF92FF920F931F93CF93DF93009709F468
:104A800060C04630510508F45CC020918007C7EF34
:104A9000DFEF222309F449C08C01060F171FF8012C
:104AA000C080D180C114D10409F44EC096012A5FA0
:104AB0003F4F4217530708F447C07C018091850798
:104AC0009091860793838283B6016C5F7F4F580174
:104AD000A60EB71EC801A1DFF5019183808364E0B3
:104AE00070E0C8011ADEEC01892BF9F481E090E056
:104AF00009DEB601C801049610DEEC01892B91F4A1
:104B000062E070E0C50109DEEC01892B59F4C701B0
:104B100005DC809185079091860701969093860722
:104B20008093850790E080E0EDDDCE01DF91CF91AD
:104B30001F910F91FF90EF90DF90CF90BF90AF90BB
:104B40000895CFEFDFEFF1CFC9EFDFEFEECF6F9238
:104B50007F928F929F92AF92BF92CF92DF92EF920D
:104B6000FF920F931F93CF93DF9300D01F92CDB787
:104B7000DEB7009709F47AC04115510509F476C0F3
:104B80002091800707EF1FEF222309F44DC03A015F
:104B90007B015C0164E070E0CE01019650DE8C0187
:104BA000892B09F041C009811A810115110509F409
:104BB0005AC0480186E0880E911CB701680D791D26
:104BC00080914B0290914C0208DD6C01009709F432
:104BD00050C0A70170E060E00E94BB3189819A81DA
:104BE000AB81BC81EC0CFD1CF70181939193A193E7
:104BF000B1937F0181E090E085DDB801C7011FDE40
:104C0000892B31F562E070E0C701800F911F17DE3C
:104C10008C01892BE9F490E080E074DDF501D1820C
:104C2000C082F30191828082C8010F900F900F9093
:104C30000F90DF91CF911F910F91FF90EF90DF9038
:104C4000CF90BF90AF909F908F907F906F9008957E
:104C500090E080E057DDF50111821082F3011182AE
:104C60001082C6015BDB09EF1FEFDECF0FEF1FEFF6
:104C7000DBCF06EF1FEFD8CF0097A1F0411551050C
:104C800089F02115310571F0F90136966E177F070D
:104C900048F0DC012D933C93DA01ED93FC9390E016
:104CA00080E008958FEF9FEF0895AF92BF92CF926B
:104CB000DF92EF92FF920F931F93CF93DF930097B2
:104CC00009F45FC04115510509F45BC065307105F9
:104CD00008F457C020918007C7EFDFEF222391F13E
:104CE000DC01CD90DC9011971296ED91FC9196012C
:104CF0002A5F3F4FC9EFDFEF2617370719F5C0913D
:104D00008107D0918207209749F521E030E0309368
:104D10008207209381077A018C01F0938407E09346
:104D200083075601B4E0AB0EB11CB50176DE0A0D67
:104D30001B1DF801208131818217930729F5D701C6
:104D4000CD92DC92CE01DF91CF911F910F91FF9018
:104D5000EF90DF90CF90BF90AF90089520918307A0
:104D6000309184072F5F3F4FCCEFDFEFE217F3075F
:104D700090F2CBEFDFEF2E173F0768F2D0E0C0E0F4
:104D8000CACFCFEFDFEFDECFC3EFDFEFDBCF84E0C3
:104D900090E0089582E090E008958CEF9FEF0895F1
:104DA00080E290E008951092860710928507109295
:104DB000840710928307109282071092810790E077
:104DC00080E0089590934C0280934B020895809167
:104DD0008007882391F0C5DD009789F4109286073B
:104DE0001092850710928407109283071092820711
:104DF0001092810710928007089590E080E0089556
:104E0000009749F06115710531F0FC0111821082A3
:104E1000FB01118210820895F3CF26E030E040E8D4
:104E200055E260E070E090E080E000C081309105E4
:104E300069F01CF4892B39F008958230910549F00E
:104E4000039751F0089589E997E077C786E398E0E2
:104E5000FCCF83ED98E0F9CF80E799E0F6CF1F9281
:104E60000F920FB60F9211240BB60F922F933F9310
:104E70004F935F936F937F938F939F93AF93BF9362
:104E8000EF93FF938FE89DEF90932501809324018A
:104E9000BAD0FF91EF91BF91AF919F918F917F9188
:104EA0006F915F914F913F912F910F900BBE0F909B
:104EB0000FBE0F901F9018958FE89DEF90932501DE
:104EC00080932401A3E7B0E08C918E7F8C93E0E285
:104ED000F1E080818C7F8083E1E2F1E08081877E58
:104EE000808380818460808380818C7F80838C91AB
:104EF00081608C930895E3E7F0E0808190819E7F4C
:104F000090838170089581E0089510928707089535
:104F100068EE73E080E090E0E8D390E080E00895F0
:104F200026E030E040E050E16EE070E090E080E0AC
:104F30007DDF89E997E037D6892B21F089E997E071
:104F40004CD6F7CF90E080E00895CF92DF92EF92B9
:104F5000FF920F931F93CF93DF936B017A01E901C7
:104F60001982188289E997E01ED6892B69F186019A
:104F7000CC24C39482E0D82E80918707811110C081
:104F800089E997E02AD60297B9F7C0928707F80116
:104F9000D1928F0188819981019699838883ECCF82
:104FA000888199818E159F0578F489E997E015D657
:104FB0008F3F9807A9F3F80181938F018881998128
:104FC000019699838883ECCF90E080E0DF91CF91C8
:104FD0001F910F91FF90EF90DF90CF9008950F9366
:104FE0001F93CF93DF93EA01890189E997E00E943B
:104FF0002D31F801D183C08390E080E0DF91CF9123
:105000001F910F910895CF92DF92EF92FF920F932D
:105010001F93CF93DF9300D0CDB7DEB780918B077E
:1050200091E0980F90938B078823A1F021E030E066
:1050300030938F0720938E0780938B070F900F90EC
:105040000F90DF91CF911F910F91FF90EF90DF9024
:10505000CF900895CE0101960E9456057894009154
:10506000610210916202F801E256FF4F6081718186
:1050700082819381B2D120E030E040E85FE463D2E6
:105080006B017C01F801E656FF4F608171818281DE
:105090009381A3D19B01AC01C701B60105D120E0EA
:1050A00030E0A90101D16DD16B017C010E945E0548
:1050B000B701A60181E090E00E94C804F8948091B5
:1050C0008B07815080938B078B81882389F0809197
:1050D0008A0791E0980F90938A07882349F021E08E
:1050E00030E030938F0720938E0780938A07A6CFF6
:1050F00080918A07882309F4A1CF80918C078111C0
:105100009DCF80918D078F5F80938D077894F801F4
:10511000EE54FF4F60817181828193815ED120E0E6
:1051200030E040E85FE40FD26B017C01F801E2550A
:10513000FF4F60817181828193814FD19B01AC01CE
:10514000C701B601B1D020E030E040E251E4FBD12C
:1051500020E030E0A901A8D014D16B017C010E94AD
:105160007206B701A60182E090E00E94C804F8949C
:1051700080918A07815080938A0780918D078150A2
:1051800080938D075BCF0F931F93CF93DF93109284
:10519000500A10924F0ADFD240DEC0916102D091D6
:1051A0006202198218826FEF7FEFCB010E944B05DC
:1051B00070E060E090E080E00E94C803009709F092
:1051C00042C00E947B07F8947894BE0167547F4FD9
:1051D0008A819B810E94CB03892B71F46FEF7FEF53
:1051E000CB010E945E040E944505882329F081E0DE
:1051F000FE01E154FF4F8083F8945EDE0E94480573
:10520000882311F080E00BC00E9445058111FACF80
:1052100081E0FE01E154FF4F90819111F3CF809323
:105220004F0A78940E94420F8C017894C154DF4F4A
:1052300080914F0A81110CC00E948E080E942A059D
:10524000F89490E080E0DF91CF911F910F91089545
:105250000E9428050E9448058823D9F081E08093A8
:10526000500A9091500A81E0911180E080934F0A9A
:105270008091500A81113FDE0130110529F40E940E
:10528000420F892B09F441DE0E94420F8C013BDE64
:10529000CFCF0E9445058111E1CF81E09881911126
:1052A000DECF80E0DCCF5058BB27AA270ED00DC13F
:1052B000FED030F003D120F031F49F3F11F41EF402
:1052C000F3C00EF4E095E7FBE9C0E92F0FD180F3BE
:1052D000BA17620773078407950718F071F49EF5F3
:1052E00027C10EF4E0950B2EBA2FA02D0B01B901AA
:1052F00090010C01CA01A0011124FF27591B99F04C
:10530000593F50F4503E68F11A16F040A22F232F57
:10531000342F4427585FF3CF469537952795A795A7
:10532000F0405395C9F77EF41F16BA0B620B730B4E
:10533000840BBAF09150A1F0FF0FBB1F661F771FBF
:10534000881FC2F70EC0BA0F621F731F841F48F474
:10535000879577956795B795F7959E3F08F0B3CFFA
:105360009395880F08F09927EE0F979587950895E4
:1053700071D008F481E0089504D06894B111D9C0C7
:105380000895BCD088F09F5790F0B92F9927B75156
:10539000A0F0D1F0660F771F881F991F1AF0BA95F9
:1053A000C9F712C0B13081F0C3D0B1E00895C0C0D8
:1053B000672F782F8827B85F39F0B93FCCF38695EF
:1053C00077956795B395D9F73EF49095809570954C
:1053D00061957F4F8F4F9F4F0895E89409C097FBC9
:1053E0003EF490958095709561957F4F8F4F9F4FBC
:1053F0009923A9F0F92F96E9BB279395F695879500
:1054000077956795B795F111F8CFFAF4BB0F11F4C2
:1054100060FF1BC06F5F7F4F8F4F9F4F16C0882369
:1054200011F096E911C0772321F09EE8872F762F9F
:1054300005C0662371F096E8862F70E060E02AF0E0
:105440009A95660F771F881FDAF7880F96958795CC
:1054500097F90895990F0008550FAA0BE0E8FEEFA1
:1054600016161706E807F907C0F012161306E40728
:10547000F50798F0621B730B840B950B39F40A2621
:1054800061F0232B242B252B21F408950A2609F4FF
:10549000A140A6958FEF811D811D089597F99F6703
:1054A00080E870E060E008959FEF80EC08950024AC
:1054B0000A941616170618060906089500240A9479
:1054C00012161306140605060895092E0394000CFF
:1054D00011F4882352F0BB0F40F4BF2B11F460FF8E
:1054E00004C06F5F7F4F8F4F9F4F089557FD9058B7
:1054F000440F551F59F05F3F71F04795880F97FB98
:10550000991F61F09F3F79F0879508951216130651
:105510001406551FF2CF4695F1DF08C01616170680
:105520001806991FF1CF86957105610508940895B5
:10553000E894BB2766277727CB0197F908958ADF80
:1055400008F48FEF08950BD0C0CFB1DF28F0B6DF9D
:1055500018F0952309F0A2CFA7CF1124EACFC6DF18
:10556000A0F3959FD1F3950F50E0551F629FF00176
:10557000729FBB27F00DB11D639FAA27F00DB11DCF
:10558000AA1F649F6627B00DA11D661F829F222758
:10559000B00DA11D621F739FB00DA11D621F839FDF
:1055A000A00D611D221F749F3327A00D611D231FB5
:1055B000849F600D211D822F762F6A2F11249F5703
:1055C00050408AF0E1F088234AF0EE0FFF1FBB1F26
:1055D000661F771F881F91505040A9F79E3F5105C5
:1055E00070F05CCFA6CF5F3FECF3983EDCF386957E
:1055F00077956795B795F795E7959F5FC1F7FE2B70
:10560000880F911D9695879597F908951F920F928F
:105610000FB60F9211242F933F938F939F93AF93C5
:10562000BF938091910790919207A0919307B091B9
:1056300094073091900723E0230F2D3758F50196FA
:10564000A11DB11D2093900780939107909392071D
:10565000A0939307B0939407809195079091960734
:10566000A0919707B09198070196A11DB11D809355
:10567000950790939607A0939707B0939807BF91CB
:10568000AF919F918F913F912F910F900FBE0F90EF
:105690001F90189526E8230F0296A11DB11DD2CFA9
:1056A0003FB7F8948091950790919607A09197073E
:1056B000B091980726B5A89B05C02F3F19F0019619
:1056C000A11DB11D3FBFBA2FA92F982F8827BC015C
:1056D000CD01620F711D811D911D42E0660F771F84
:1056E000881F991F4A95D1F708958F929F92AF9284
:1056F000BF92CF92DF92EF92FF926B017C01D0DFDD
:105700004B015C01C114D104E104F104D9F0D2D5FC
:10571000C7DF681979098A099B09683E73408105CA
:10572000910580F321E0C21AD108E108F10888EE62
:10573000880E83E0981EA11CB11CC114D104E104A1
:10574000F10431F7FF90EF90DF90CF90BF90AF90D2
:105750009F908F900895789484B5826084BD84B5BD
:10576000816084BD85B5826085BD85B5816085BD5C
:10577000EEE6F0E0808181608083E1E8F0E0108275
:10578000808182608083808181608083E0E8F0E0B6
:10579000808181608083E1EBF0E0808184608083A0
:1057A000E0EBF0E0808181608083E1E9F0E08081DE
:1057B00082608083808181608083E0E9F0E0808185
:1057C00081608083E1EAF0E0808182608083808173
:1057D00081608083E0EAF0E0808181608083E1E2A3
:1057E000F1E0808182608083808181608083E0E25B
:1057F000F1E0808181608083EAE7F0E0808184606D
:1058000080838081826080838081816080838081C9
:10581000806880831092C1000895863308F0865313
:1058200020917B00982F9870277F922B90937B007C
:1058300020914D0290E4299F900111248770822BC2
:1058400080937C0080917A00806480937A008091BC
:105850007A0086FDFCCF80917800909179000895C0
:105860001F93CF93DF93182FEB0161E033D1209783
:1058700031F460E0812FDF91CF911F9167C1CF3F5D
:10588000D10511F461E0F6CFE12FF0E0EC51FF4FCC
:10589000E491E150E23108F0B2C0F0E08827ED5A1F
:1058A000F34D8F4F3EC5652C6D2C722C7C2C862CB5
:1058B000FF2C902C982CA02CAA2CB42CBE2CCD2CD8
:1058C000D72CFF2CE12CEB2CF52C84B5806884BD03
:1058D000C7BDDF91CF911F91089584B5806284BDCB
:1058E000C8BDF7CF80918000806880938000D093FE
:1058F0008900C0938800EDCF809180008062809302
:105900008000D0938B00C0938A00E3CF8091800009
:10591000886080938000D0938D00C0938C00D9CF95
:105920008091B00080688093B000C093B300D1CF65
:105930008091B00080628093B000C093B400C9CF62
:1059400080919000806880939000D0939900C093DC
:105950009800BFCF80919000806280939000D09398
:105960009B00C0939A00B5CF80919000886080938F
:105970009000D0939D00C0939C00ABCF8091A0007D
:1059800080688093A0008091A0008F7B8093A0000E
:10599000D093A900C093A8009CCF8091A000806202
:1059A0008093A000D093AB00C093AA0092CF8091C7
:1059B000A00088608093A000D093AD00C093AC009D
:1059C00088CF80912001806880932001D0932901A5
:1059D000C09328017ECF80912001806280932001B6
:1059E000D0932B01C0932A0174CF8091200188604D
:1059F00080932001D0932D01C0932C016ACFC03831
:105A0000D1050CF03FCF35CF8150823108F059C01D
:105A1000E82FF0E08827E15FF24D8F4F82C42F2DF1
:105A2000332D212D272D2B2D612D362D3C2D402D55
:105A3000462D4A2D4E2D542D582D612D5C2D622D55
:105A4000662D809180008F778093800008958091EB
:105A500080008F7DF9CF80918000877FF5CF84B55E
:105A60008F7784BD089584B58F7DFBCF8091B00082
:105A70008F778093B00008958091B0008F7DF9CF2B
:105A8000809190008F77809390000895809190008E
:105A90008F7DF9CF80919000877FF5CF8091A00016
:105AA0008F778093A00008958091A0008F7DF9CF1B
:105AB0008091A000877FF5CF809120018F77809320
:105AC00020010895809120018F7DF9CF80912001E0
:105AD000877FF5CFCF93DF9390E0FC01E65DFE4F2B
