:10000000F8C0000027C1000025C1000023C1000086
:1000100021C100001FC100001DC100001BC1000064
:1000200019C1000017C1000015C1000013C1000074
:1000300011C100000FC100000DC100000BC1000084
:1000400009C1000007C1000005C1000003C1000094
:1000500001C10000FFC00000FDC000000C943E2A5A
:10006000F9C000000C94352E0C946B2EF3C00000E8
:10007000F1C00000EFC00000EDC00000EBC00000C8
:10008000E9C00000E7C00000E5C00000E3C00000D8
:100090000C94C12E0C94F72EDDC00000DBC00000D4
:1000A000D9C00000D7C00000D5C00000D3C00000F8
:1000B000D1C00000CFC00000CDC00000CBC0000008
:1000C000C9C00000C7C000000C9467260C944D2FD7
:1000D0000C94832FBFC000000C94D92F0C940F30C8
:1000E000B9C0000000000A0B02090C0D0E0807033E
:1000F00004010000000000000000000000000000FB
:1001000000000000000000000000000000000000EF
:1001100012111000000000000000000000000000AC
:100120000000000000000000000001021020200874
:100130000810204010204080020102010804020142
:1001400001020408102040808040201008040201B1
:10015000800402018040201008040201080402010A
:100160000102040810204080010204081020408091
:1001700005050505070508080808020202020A0A23
:100180000808040404040101010101010101030341
:10019000030303030303040707070C0C0C0C0C0CEC
:1001A0000C0C0202020206060606060606060B0BE9
:1001B0000B0B0B0B0B0B00002200250028002B0063
:1001C0002E003100340002010000050108010B017E
:1001D00000002100240027002A002D0030003300F9
:1001E00001010000040107010A01942E202FAC2F09
:1001F000383011241FBECFEFD1E2DEBFCDBF00E00B
:100200000CBF12E0A0E0B2E0E8EFF1E600E00BBFC7
:1002100002C007900D92A83EB107D9F729E0A8EED9
:10022000B2E001C01D92A73FB207E1F710E0C9EFAD
:10023000D0E000E006C021970109802FFE010E9456
:10024000C930C53FD10780E00807A9F70E94FB2706
:100250000C94FA30D5CECF93DF93882349F0EB018D
:1002600081500E94452B99838883DF91CF91089517
:10027000FB0111821082F9CF0F931F938B019C0118
:1002800083E036952795179507958A95D1F70F50F6
:100290001D4F462F477021E030E0F90102C0EE0FFC
:1002A000FF1F4A95E2F7AF01F80120812423CB011B
:1002B0000196211102C090E080E01F910F910895F6
:1002C0000F931F938B019C0183E03695279517951B
:1002D00007958A95D1F7677081E090E001C0880F9B
:1002E0006A95EAF7F801EF50FD4F2081452B31F474
:1002F0008095822380831F910F910895822BFACFDE
:10030000CF92DF92EF92FF92CF93DF936B017C014C
:1003100060E086E3C816D104E104F10490F486E3BA
:100320008C0D0E94A22CE6012196AE01C701B601F8
:10033000C7DFCE01DF91CF91FF90EF90DF90CF909C
:1003400008958C2DEECF882341F08150682F70E006
:1003500090E080E050E040E0B3CF0895CF92DF928C
:10036000EF92FF92CF93882351F16A017B01CFEF87
:10037000C80F20E030E0A901CB01B6010E94F028AF
:1003800018168CF0C701B60190580E94F9289B01FD
:10039000AC016C2F70E090E080E0CF91FF90EF9087
:1003A000DF90CF90B2C0C701B6010E94F4288C2F15
:1003B000CF91FF90EF90DF90CF900C94682BCF916E
:1003C000FF90EF90DF90CF9008950F931F938B01D4
:1003D0009C0183E036952795179507958A95D1F767
:1003E00008511D4F462F477021E030E0F90102C04F
:1003F000EE0FFF1F4A95E2F7AF01F8012081242399
:10040000CB010196211102C090E080E01F910F9175
:1004100008950F931F938B019C0183E036952795D8
:10042000179507958A95D1F7677081E090E001C034
:10043000880F6A95EAF7F801E851FD4F2081452BB6
:1004400031F48095822380831F910F910895822B30
:10045000FACF2F923F924F925F926F927F928F923C
:100460009F92AF92BF92CF92DF92EF92FF920F9343
:100470001F93CF93DF93D62EC72E782E692E490176
:100480005A01280161E08D2D0E94A22CCD2DDC2D7A
:100490008E010F5F1F4FA8016D2D7C2D872D962D8E
:1004A000B8DF20E030E0A901C201B7010E94D729DE
:1004B000181664F4C201B7010E94F9282B01C50186
:1004C000B4010E94F928A201CE0123D0C801DF9116
:1004D000CF911F910F91FF90EF90DF90CF90BF9041
:1004E000AF909F908F907F906F905F904F903F90D4
:1004F0002F900895882341F08150682F70E090E09C
:1005000080E050E040E085CF0895862FB9010C943B
:10051000682B9C01FC01EC51FF4FE491E150E2316A
:10052000E0F4F0E08827E856FD4F8F4F0C94C93077
:10053000AA02B102B402CB02E002AD02F50201034D
:1005400005031C03310346035D037203AD028703F9
:100550009E03B30384B5806884BD60E0822F0C9451
:10056000DE2C84B58062F8CF809180008C7F826021
:100570008093800080918100807E8061682B6093F1
:1005800081005093870040938600809180008068AE
:1005900080938000E2CF809180008C7F8260809386
:1005A000800080918100807E8061682B6093810053
:1005B0005093870040938600809180008062E8CF4E
:1005C000809180008C7F8260809380008091810088
:1005D000807E8061682B60938100509387004093F8
:1005E0008600809180008860D3CF8091B0008068C1
:1005F0008093B0008091B100887F682B6093B10038
:10060000ACCF8091B0008062F3CF809190008C7F5E
:1006100082608093900080919100807E8061682B41
:1006200060939100509397004093960080919000C2
:1006300080688093900091CF809190008C7F826041
:100640008093900080919100807E8061682B609300
:1006500091005093970040939600809190008062A3
:10066000E8CF809190008C7F826080939000809191
:100670009100807E8061682B609391005093970079
:1006800040939600809190008860D3CF8091A00025
:100690008C7F82608093A0008091A100807E806129
:1006A000682B6093A1005093A7004093A60080910F
:1006B000A00080688093A00050CF8091A0008C7F24
:1006C00082608093A0008091A100807E8061682B71
:1006D0006093A1005093A7004093A6008091A000D2
:1006E0008062E8CF8091A0008C7F82608093A00020
:1006F0008091A100807E8061682B6093A10050935F
:10070000A7004093A6008091A0008860D3CF80917D
:1007100020018C7F82608093200180912101807E66
:100720008061682B6093210150932701409326013B
:10073000809120018068809320010FCF809120015B
:100740008C7F82608093200180912101807E806176
:10075000682B6093210150932701409326018091DB
:1007600020018062E8CF809120018C7F826080939D
:10077000200180912101807E8061682B609321019E
:100780005093270140932601809120018860D3CFA8
:1007900090E080E008950F931F93009709F48BC0B9
:1007A0006115710509F487C00091180210911902B2
:1007B00020911A0230911B020E3F1F4F2F4F3F4FC7
:1007C00009F06AC04FEF5FEFBA01409318025093EF
:1007D000190260931A0270931B0240911802509103
:1007E000190260911A0270911B02DC011296ED91C0
:1007F000FC9180819181A281B38180930D049093BB
:100800000E04A0930F04B093100484819581A681F7
:10081000B7818093090490930A04A0930B04B093CA
:100820000C0480859185A285B385809305049093FF
:100830000604A0930704B093080484859585A685D3
:10084000B7858093010490930204A0930304B093AE
:1008500004041092FD031092FE031092FF03109205
:1008600000043DD684E99AE09093FB028093FA025B
:100870009093FD028093FC029093FF028093FE020E
:100880001DD5009731F421E030E03093120420931D
:1008900011041F910F9108950091180210911902EF
:1008A00020911A0230911B02DB010D931D932D93B1
:1008B0003C93139792CF8FEF9FEFEBCF8F929F9246
:1008C000AF92BF92CF92DF92EF92FF921F93CF939E
:1008D000DF934B015C011091140482E090E090934F
:1008E00012048093110481149104A104B10441F411
:1008F00080911404811104C080911304C1E081111E
:10090000C0E0C12CD12C760180911404811106C065
:1009100080911304811102C0CC23D9F083E090E0D0
:100920009093120480931104CC2379F1CCE9DFEF8A
:10093000111102C00E94F90DCE01DF91CF911F91DC
:10094000FF90EF90DF90CF90BF90AF909F908F90EF
:1009500008956AE070E080E090E00E94AD2A80E1B6
:10096000C80E87E2D81EE11CF11C8FEF881698068E
:10097000A806B80631F0C1E08C149D04AE04BF0493
:1009800008F0C0E080E0CED4BFCFD0E0C0E0D0CF50
:10099000CF92DF92EF92FF920F931F93CF93DF934B
:1009A0008F3F910511F008F050C020911104309153
:1009B00012042330310539F02091110430911204D2
:1009C0002130310531F424E030E0309312042093DB
:1009D00011046A017B01EC0183309105A0F011E064
:1009E000AE01C701B60169D4AB01BC01CE01112330
:1009F000F9F0DF91CF911F910F91FF90EF90DF9071
:100A0000CF900C9422108C01000F111F06501D4F27
:100A1000D8018D919C91892B11F30E942C10029783
:100A2000F1F6D801ED91FC91CE011995182FD8CF90
:100A30000E94441090E080E0DF91CF911F910F91D0
:100A4000FF90EF90DF90CF9008958FEF9FEFF4CF5E
:100A500080E068C4CF93DF9386E090E09093120427
:100A600080931104B8D4EC01EAEFF2E086E0DF01F4
:100A70001D928A95E9F70E94910D1092120410922E
:100A80001104CE01DF91CF91089580911304089550
:100A90008091FC030895609318027093190280936B
:100AA0001A0290931B0290E080E00895FC0191E00F
:100AB0008091CA03811190E0928308954F925F92D2
:100AC0006F927F928F929F92AF92BF92CF92DF925E
:100AD000EF92FF92CF93DF938091CA038F5F8A30AA
:100AE00008F023C18093CA03C091D203D091D303ED
:100AF000688179818A819B816093C1097093C20961
:100B00008093C3099093C4092091EB093091EC09BB
:100B10004091ED095091EE092093C5093093C60923
:100B20004093C7095093C8090E948B286093C90954
:100B30007093CA098093CB099093CC092091080245
:100B40003091090240910A0250910B02688179812B
:100B50008A819B810E94F02887FFEAC080910C0265
:100B600090910D02A0910E02B0910F028093CD09D9
:100B70009093CE09A093CF09B093D0096AE070E0BA
:100B800080E090E022DC5C019093EA098093E9091F
:100B9000C090CD09D090CE09E090CF09F090D00957
:100BA00020E030E04FE753E4C701B6010E94F0288F
:100BB00018160CF4C6C020E030E0A901C701B60148
:100BC0000E94D72987FF03C0C12CD12C7601B70121
:100BD000A601C501C3DB8091C1099091C209A09112
:100BE000C309B091C4098093EB099093EC09A093D9
:100BF000ED09B093EE09C090AC03D090AD03E09046
:100C0000AE03F090AF038FEFC81AD80AE80AF80ACB
:100C1000C092AC03D092AD03E092AE03F092AF036A
:100C2000C114D104E104F10499F48091B0039091CE
:100C3000B103A091B203B091B3030196A11DB11D00
:100C40008093B0039093B103A093B203B093B30326
:100C50008090B4039090B503A090B603B090B70312
:100C6000C091D203D091D3036091B0037091B103CE
:100C70008091B2039091B3030E942529A5019401AC
:100C80000E94DB2920E030E040E85FE40E94DB299D
:100C90002B013C01C701B6010E942529A501940141
:100CA0000E94DB299B01AC01C301B2010E948C2888
:100CB000688379838A839B838091B8039091B90379
:100CC000A091BA03B091BB030196A11DB11D809301
:100CD000B8039093B903A093BA03B093BB03892BD5
:100CE0008A2B8B2B99F48091BC039091BD03A0912A
:100CF000BE03B091BF030196A11DB11D8093BC033B
:100D00009093BD03A093BE03B093BF03DF91CF9137
:100D1000FF90EF90DF90CF90BF90AF909F908F901B
:100D20007F906F905F904F9008951092CA03DCCE31
:100D30008091100290911102A0911202B0911302C1
:100D400015CFC12CD12C8FE7E82E83E4F82E3FCFAE
:100D5000CF92DF92EF92FF92C0900002D0900102FA
:100D6000E0900202F0900302A70196016091DF0972
:100D70007091E0098091E1099091E2090E94F028C8
:100D8000882341F0C092DF09D092E009E092E109A6
:100D9000F092E20966E370E080E090E06DDA909313
:100DA000DE098093DD0943E050E065ED79E053DA38
:100DB0006091D5097091D60990E080E00E942529C4
:100DC00020911402309115024091160250911702A1
:100DD0000E94DB296093D1097093D2098093D309D3
:100DE0009093D4098091C0039091C103A091C20354
:100DF000B091C3030196A11DB11D8093C0039093D0
:100E0000C103A093C203B093C303892B8A2B8B2BFE
:100E100099F48091C4039091C503A091C603B09149
:100E2000C7030196A11DB11D8093C4039093C50310
:100E3000A093C603B093C703FF90EF90DF90CF90CD
:100E400008958F929F92AF92BF92DF92EF92FF929E
:100E50000F931F93CF93DF93E2E1F3E08EECDF017A
:100E60001D928A95E9F78FEC93E097838683C2ED14
:100E7000D3E0D0935303C093520304EB13E0158BDC
:100E8000048BF0937D03E0937C03F583E48321E0FE
:100E900030E0DC012D933C9382E492E093878287DB
:100EA00024ED33E03983288340E050E060E87FEBB5
:100EB0004093CB035093CC036093CD037093CE0348
:100EC0004AE057ED63E27CE3D8014D935D936D9367
:100ED0007C931397CAE9D3E084E79CE8AAEDBCEAC7
:100EE00088839983AA83BB838BE097E1A4E7B7EA61
:100EF00080939E0390939F03A093A003B093A103BC
:100F000081E495EFA7EDB3EF8093A2039093A30341
:100F1000A093A403B093A5038DED99E2A3E7BBE3EF
:100F20008093A6039093A703A093A803B093A9036B
:100F3000A6E0B3E0B383A283E0E0F3E01196FC9374
:100F4000EE9384E592E091838083938382839583FB
:100F500084838AEA93E015969C938E931497139654
:100F6000DC93CE93129717963C932E931697E1EC51
:100F7000F9E086E1DF011D928A95E9F7C7EDD9E036
:100F80008EE1FE0111928A95E9F7DD24D394DC8E7F
:100F9000812C912C540183948D869E86AF86B88ACD
:100FA000E12CF12C8701A80197016AE070E080E054
:100FB00090E04FDA9B8B8A8BD98A1882DD8E00E015
:100FC00012E0F80180819181A281B381888799879D
:100FD000AA87BB8789829A82AB82BC8266E370E073
:100FE00080E090E08DD99F838E83DD82F80184813B
:100FF0009581A681B7818C8B9D8BAE8BBF8BDF914A
:10100000CF911F910F91FF90EF90DF90BF90AF9025
:101010009F908F9008958091E30981112AC081E00B
:101020008093E3098091E4099091E509A091E60994
:10103000B091E7090197A105B105D9F48091E809BC
:101040008823B9F06AE070E080E090E0BED9909328
:10105000EA098093E90940E050E0BA017FD96AE0EB
:1010600070E080E090E0B1D99093EA098093E909BB
:1010700041DA8091D70981111DC081E08093D709A1
:101080008091D8099091D909A091DA09B091DB0932
:101090000197A105B10571F48091DC09882351F015
:1010A00066E370E080E090E0E7D89093DE098093FB
:1010B000DD0949C908954F925F926F927F928F9296
:1010C0009F92AF92BF92CF92DF92EF92FF920F93D7
:1010D0001F93F8944090EC035090ED036090EE0362
:1010E0007090EF03C090E003D090E103E090E20342
:1010F000F090E3034130510509F0A4C09B01AC011D
:10110000241935094609570929013A010091E803D4
:101110001091E9032091EA033091EB034801590152
:10112000840C951CA61CB71C80169106A206B3065B
:10113000A0F40091E4031091E5032091E6033091BF
:10114000E7030F5F1F4F2F4F3F4F0093E4031093B0
:10115000E5032093E6033093E7038092E80390923F
:10116000E903A092EA03B092EB030091E40310912B
:10117000E5032091E6033091E7038092F00390921B
:10118000F103A092F203B092F3030093F4031093DF
:10119000F5032093F6033093F7036093EC03709309
:1011A000ED038093EE039093EF03A0E1B7E2A30178
:1011B00092010E94D1306C0D7D1D8E1D9F1D60938C
:1011C000E0037093E1038093E2039093E3030091C3
:1011D00018021091190220911A0230911B020F3F40
:1011E0001F4F2F4F3F4FF1F000911802109119023D
:1011F00020911A0230911B020E3F1F4F2F4F3F4F7D
:1012000089F0C0901802D0901902E0901A02F09074
:101210001B0221E08C149D04AE04BF0408F420E0FE
:101220002093FC0378941F910F91FF90EF90DF9033
:10123000CF90BF90AF909F908F907F906F905F9076
:101240004F9008954B015C0184189508A608B708D3
:10125000A3019201261B370B480B590B641575052A
:1012600086059705D0F082169306A406B50640F4CD
:1012700020E030E0A90181149104A104B10491F4AB
:10128000A0E1B7E20E94D130A7019601261B370BDF
:10129000480B590BCA01B901C5CF82169306A406A3
:1012A000B50670F7A0E1B7E2A50194010E94D13024
:1012B0006C0D7D1D8E1D9F1DB5CFFDCECF93DF9391
:1012C00000D01F92CDB7DEB71C821B821A82198212
:1012D0001092F8031092F9031092FA031092FB0394
:1012E000BE016F5F7F4FCE0103960E943826698151
:1012F0007A818B819C810E945B1F009761F4BE0103
:101300006F5F7F4FCE0103960E94442669817A81E8
:101310008B819C812FD50F900F900F900F90DF91B4
:10132000CF910895FF920F931F93CF93DF93082FD0
:1013300060E070E0CB010E94AD2AFF24F3940E948C
:10134000441EEC01892B89F010E0CE3F8FEFD807C7
:1013500069F0002361F160E070E0CB010E94AD2AEA
:1013600081E090E0892B59F322C011E026D5EC01F1
:10137000892B21F0CE3F8FEFD80759F711111EC0EE
:1013800011E0229609F410E00E94F41DEC01892B73
:1013900021F0CE3F8FEFD807E1F6111111C011E017
:1013A000CE3F8FEFD80709F410E001110BC0CE013A
:1013B000DF91CF911F910F91FF90089511E0E4CF3D
:1013C00011E0F3CF60E070E0CB010E94AD2A1F2551
:1013D000812F90E0C7CFCF93DF938091FC038823C8
:1013E00021F060E070E0CB014DD636D6D0E0C0E011
:1013F000892B71F06AE070E080E090E00E94AD2AF5
:1014000081E090DF29D62196C03D27E0D20781F701
:1014100028D60E94AF1F1092140410921304109249
:101420000D0410920E0410920F04109210041092EA
:10143000090410920A0410920B0410920C041092EA
:1014400005041092060410920704109208041092EA
:1014500001041092020410920304109204041092EA
:10146000FD031092FE031092FF03109200044EEF52
:101470005FEF6FEF7FEF4093180250931902609374
:101480001A0270931B021092FC03E0EFF3E028E0D5
:10149000DF011D922A95E9F71092EC031092ED03FB
:1014A0001092EE031092EF031092E8031092E903FA
:1014B0001092EA031092EB031092E4031092E503FA
:1014C0001092E6031092E7031092E0031092E103FA
:1014D0001092E2031092E303DF91CF9108951092EE
:1014E00020041092210410922204109223041092DE
:1014F0001F04809128049091290490931E048093E6
:101500001D0410921C0410921B04109217041092D8
:1015100018041092190410921A04109225041092C3
:10152000240490E080E00895CF92DF92EF92FF9242
:101530000F931F93CF938C01019709F055C0209111
:1015400028043091290480911D0490911E0440913B
:1015500028045091290450931E0440931D04281719
:10156000390781F010921C0410921B04109217048A
:10157000109218041092190410921A041092250463
:10158000109224048091280490912904019761F518
:101590008091240490912504892B21F480911C02D0
:1015A000811112C080912404909125040197E1F4E7
:1015B0008091170490911804A0911904B0911A0415
:1015C0000197A105B10581F4109217041092180437
:1015D0001092190410921A0410921C0282E090E0FA
:1015E00090932504809324048091280490912904E9
:1015F000019709F01CC180913E0490913F0480172F
:10160000910709F014C180913A0490913B04A09194
:101610003C04B0913D04009709F409C120913904BC
:1016200021110DC040913A0450913B0460913C045B
:1016300070913D04452B462B472B09F4F8C02091AF
:101640002404309125042230310509F0F0C02091A6
:101650001B042111ECC0FC01C080D180E280F3802A
:1016600080911F04882309F4D3C080912B049091AA
:101670002C04892B09F4FEC020912B0430912C04FA
:1016800081E02230310509F080E020912B04309177
:101690002C04C1E02130310549F020912B04309118
:1016A0002C04C1E02230310509F0C0E0882309F4A0
:1016B00056C0209135043091360440913704509142
:1016C0003804C701B6010E94D72987FD14C02091B4
:1016D00035043091360440913704509138046091BC
:1016E00020047091210480912204909123040E948F
:1016F000F02887FD22C020913504309136044091B6
:10170000370450913804C701B6010E94D729181632
:1017100034F52091350430913604409137045091CE
:1017200038046091200470912104809122049091EA
:1017300023040E94F028811112C080912D04909101
:101740002E04A0912F04B0913004892B8A2B8B2B6F
:1017500019F481E080931C0481E080931B04CC2366
:1017600009F456C020913504309136044091370475
:1017700050913804C701B6010E94F02887FF14C0B9
:10178000209135043091360440913704509138044B
:10179000609120047091210480912204909123048F
:1017A0000E94D72987FF22C020913504309136044A
:1017B0004091370450913804C701B6010E94F028C7
:1017C000811126C0209135043091360440913704B0
:1017D000509138046091200470912104809122047A
:1017E000909123040E94D729181694F480912D0417
:1017F00090912E04A0912F04B0913004892B8A2B54
:101800008B2B19F481E080931C0481E080931B04EE
:1018100081E090911B04911180E080931F04C0929D
:101820002004D0922104E0922204F092230401309B
:10183000110509F067C18091240490912504892B3A
:10184000D9F410922A0410921B0480911C02882360
:1018500079F082E090E09093250480932404109224
:101860001C02209128043091290481E0232BE9F007
:1018700080E01BC081E009CF10921C0280912A04F5
:10188000882349F010921C0410922504109224041D
:1018900010922A04EDCF8091280490912904892B7D
:1018A000E1F080911B0410921B04209124043091DC
:1018B00025042230310509F45EC088F42115310574
:1018C00009F448C02130310509F4F3C010921C041A
:1018D00010921B0410922A0438C081E0E6CF233016
:1018E000310509F4B1C02430310581F74091170466
:1018F000509118046091190470911A044115510512
:101900006105710561F04150510961097109409308
:101910001704509318046093190470931A044091AB
:101920001704509118046091190470911A04452B02
:10193000462B472BD9F420912604309127042130DF
:10194000310509F046C010921C0410922504109233
:1019500024040CC080911C02882341F082E090E0B6
:10196000909325048093240410921C021092150475
:1019700080911C04CEC08823C9F380912D049091DE
:101980002E04A0912F04B0913004181619061A06DF
:101990001B060CF07DC080912804909129040197CA
:1019A00009F076C080912D0490912E04A0912F040F
:1019B000B09130048093170490931804A0931904F5
:1019C000B0931A0483E090E090932504809324045C
:1019D000CDCF409131045091320460913304709125
:1019E0003404452B462B472BA9F010921C04809100
:1019F000310490913204A0913304B0913404809367
:101A0000170490931804A0931904B0931A0481E06A
:101A100090E0DACF882399F080911D0290911E0208
:101A2000A0911F02B0912002809317049093180494
:101A3000A0931904B0931A0484E090E0C5CF1092EB
:101A40001C0482E090E0C0CF8091170490911804AC
:101A5000A0911904B0911A040097A105B10559F09D
:101A60000197A109B1098093170490931804A093DA
:101A70001904B0931A048091170490911804A0914E
:101A80001904B0911A04892B8A2B8B2B09F06ECF85
:101A900080911D0290911E02A0911F02B091200220
:101AA000892B8A2B8B2B09F44ECF81E080931C0469
:101AB000B3CF4091170450911804609119047091AC
:101AC0001A04411551056105710561F04150510934
:101AD0006109710940931704509318046093190425
:101AE00070931A04409117045091180460911904DE
:101AF00070911A04452B462B472B09F037CF8111E3
:101B0000C7CF9FCF80911504882309F431CF8091EE
:101B10001604CF911F910F91FF90EF90DF90CF901F
:101B20000895109220041092210410922204109221
:101B3000230410921F041092250410922404109282
:101B40001E0410921D0410923F0410923E04109245
:101B50001C0410921B041092170410921804109287
:101B6000190410921A04109216041092150410927F
:101B70003A0410923B0410923C0410923D041092DF
:101B800039041092350410923604109237041092E2
:101B9000380488EE93E0A0E0B0E080931D029093BB
:101BA0001E02A0931F02B0932002109231041092E3
:101BB0003204109233041092340410922D041092C7
:101BC0002E0410922F041092300410922C041092C4
:101BD0002B0481E080931C0210922A0410922904A5
:101BE00010922804109227041092260490E080E0BE
:101BF00008958091280490912904892B19F58091EA
:101C00001C02882351F080912A04811106C081E0D2
:101C10008093160480931504089520912A0430912E
:101C20001C0281E090E0332311F090E080E030E08E
:101C300082239323892B21F01092160481E0EACFAE
:101C400010921504089582E090E0FA019183808358
:101C50008FEF9FEF0895CF93DF93EA01009711F084
:101C60000E94C9201982188290E080E0DF91CF9114
:101C70000895DB01009719F48FEF8C9308952EEFF0
:101C80002C93FC013F96EF30F10508F034C0882713
:101C9000E35BF14F8F4F0C94C930790E770E750EC0
:101CA000730E710E6D0E6F0E6B0E690E670E640E65
:101CB000600E5C0E620E7B0E80E311968C9308958D
:101CC00089E2FBCF82E2F9CF11961C92089583E25C
:101CD000F4CF81E2F2CF81E1F0CF87E2EECF8AE26A
:101CE000ECCF80E1EACF84E2E8CF88E2E6CF86E27B
:101CF000E4CF81E3E2CF80E2E0CF80914C04909189
:101D00004D04089590934D0480934C040895809160
:101D10004B04089590914B04892B80934B040895B4
:101D2000982F909580914B04892380934B040895BC
:101D300080914A040895809148049091490408953F
:101D40006115710559F0FB0130E020E070E060E0C2
:101D50002417350719F06115710511F0CB010895AD
:101D6000A081B181A817B90709F4BF012F5F3F4FC8
:101D70003696EECF80914E0481111CC060D266D29F
:101D800090934104809340040E94CB180E94DD1878
:101D900090934504809344040E945C1D0E94631D3F
:101DA000909343048093420481E080934E0490E03A
:101DB00080E0089584EF9FEF08958F929F92AF92F5
:101DC000BF92CF92DF92EF92FF920F931F93CF9328
:101DD000DF9300D000D000D01F92CDB7DEB71A86B7
:101DE000198618861F821E821D821C821B821A82FF
:101DF000198280914E0407EF1FEF882309F49CC0DD
:101E00008E010D5F1F4F9E012B5F3F4FAE01495F5B
:101E10005F4FBE01675F7F4F90E080E00E94E01E51
:101E20008C01009721F00596029708F0DBC0298508
:101E30003A852115310509F402C1ED80FE804B8100
:101E40005C81B701640F751F8F819885861797078E
:101E500008F4F5C0E20EF31ED7019C91903C09F006
:101E60007FC04230510508F47BC011968C9140919F
:101E70004C0450914D04452B09F49CC0913F08F04F
:101E800071C02CE1290F2D3008F48BC02DE2290FF1
:101E9000203108F489C0903C21F48150823008F44C
:101EA00083C088E3890F8B3008F481C099E3C92E81
:101EB0009EE0D92EE3E2FEE06D817E81AE014F5FB0
:101EC0005F4F89859A8519955C01C114D104A1F1F0
:101ED00089809A808114910479F18B819C81881585
:101EE000990508F487C010E000E04B815C8170E048
:101EF00060E0C7010E94F33001151105E9F4498142
:101F00005A8169857A858D819E81680F791FC50107
:101F1000F6011995E980FA800D811E812F8138859F
:101F200049855A856FEF7FEF81E090E00E947B1E2C
:101F30008C01892B09F056C0C8012A960FB6F89477
:101F4000DEBF0FBECDBFDF91CF911F910F91FF90EC
:101F5000EF90DF90CF90BF90AF909F908F900895BB
:101F600080E085CF30E020E0220F331FF901E05CF4
:101F7000FB4F0190F081E02D309709F497CF892F26
:101F800090E01995009709F491CFDC011296ED913C
:101F9000FC9113971496CD90DC90309709F08CCF7C
:101FA0001FC021E030E0E0CF22E030E0DDCF23E0D1
:101FB00030E0DACFD12CC12CEBE2FEE09F3F09F0FC
:101FC0007BCFE0914004F0914104309721F4C901A6
:101FD00004EF1FEF0CC08FEF90E019950097A9F662
:101FE00004EF1FEF89859A85009709F4A5CF0E9419
:101FF000C920A2CF0E94AA1F8C0189859A850E94C0
:10200000C92070E060E0C4010E94431F98878F835D
:102010000E94781E9E838D836F817885611571057E
:1020200059F0C8010E9428229A87898706EF1FEF7E
:10203000892B09F058CF59CF08EF1FEF56CF08EF83
:102040001FEFD0CF20914E04222319F020E00C94F2
:10205000E21887EF9FEF089580914C0490914D0412
:1020600008950E94681D0E94C21CF5D0E0E4F4E0CF
:1020700088E0DF011D928A95E9F710924E0490E006
:1020800080E008950C941F1B21E040E050E0BA016D
:102090000C94E21886E090E0FA019183808390E04E
:1020A00080E0089547E050E067E572E049CEDF92B6
:1020B000EF92FF920F931F93CF93DF938A01EC016E
:1020C000C60FD71FE0905204F0905304D9800E94AD
:1020D000921FD816190678F082E090E0F8019183FB
:1020E00080838EEF9FEFDF91CF911F910F91FF9033
:1020F000EF90DF900895EF2841F482E090E0F8013E
:102100009183808384EF9FEFEECF89818093510488
:1021100090E00196F8019183808390E080E0E3CF26
:10212000CF93DF93EA010E94D01B882321F00E9405
:102130009F1F0E94D11B82E090E0998388838BEFE0
:102140009FEFDF91CF910895CF93DF93EB0186E06E
:10215000FB0111928A95E9F78FEF8883D8DD898397
:10216000E7DD8A83E8DD9D838C83DF91CF9108953D
:10217000CF93DF93EA010E94D31B811109C082E053
:1021800090E09983888385EF9FEFDF91CF91089549
:1021900090E080E0B7DD81E090E09983888390E073
:1021A00080E0F3CF0F931F93CF93DF93EA018C016D
:1021B000060F171F0E94D31B81110BC082E090E015
:1021C0009983888385EF9FEFDF91CF911F910F91C6
:1021D0000895F8018181823038F082E090E099839F
:1021E00088838EEF9FEFF0CF81E090E08BDD88E079
:1021F00090E09983888390E080E0E6CFCF93DF93EF
:102200000097D1F4EB01FB01329686E0DF011D92CD
:102210008A95E9F78FEF888385E089831A820E9487
:10222000921F8B830E94911F9D838C8381E08E83FC
:102230008F83DF91CF910895DF91CF911ACD82E501
:1022400090E19093500480934F04089580914F043F
:102250009091500408951092500410924F040895E4
:1022600080915204909153040895411105C0611565
:1022700071058105910561F06093520470935304D8
:1022800080935404909355044093560481E008953C
:1022900080E00895FF920F931F93CF93DF938A01FD
:1022A000EC01C60FD71FF9800E94921FF81619067D
:1022B00068F082E090E0F801918380838EEF9FEFD9
:1022C000DF91CF911F910F91FF9008956C817D81D7
:1022D0008E819F814B81C9DF811108C082E090E02F
:1022E000F8019183808384EF9FEFEACF8981809307
:1022F000510490E00196F8019183808390E080E0A2
:10230000DFCFCF93DF93EA01FC01E60FF71F648173
:102310007581868197814381A8DF811109C082E0A0
:1023200090E09983888384EF9FEFDF91CF910895A8
:1023300081E090E09983888390E080E0F6CFE2E549
:10234000F4E04081518162817381480F511D611D0C
:10235000711D40835183628373830895CF93C0912D
:1023600051044C2F50E06091520470915304019637
:102370000E94EA308C2FE3DF10925104CF91089530
:10238000009799F480915204909153042FEFFB0130
:102390002083892B59F02091510430E02F5F3F4F6B
:1023A0002417350719F4CB01D9CF63CC08950097D2
:1023B00099F480915204909153042FEFFB012083F4
:1023C000892B59F02091510430E02F5F3F4F2417A3
:1023D000350719F4CB01C2CF4CCC089523E1AC01F1
:1023E000249FC001259F900D1124E0915B04F09182
:1023F0005C04E80FF91F238134812250310981E008
:102400002230310508F080E008950F931F93CF9399
:10241000DF9300915D0410915E04D0E0C0E080E0A5
:102420000C171D0749F491E0811190E0892FDF918D
:10243000CF911F910F9108958111F5CFCE01CEDF7D
:102440002196EECFA0915B04B0915C04109729F126
:1024500020915D0430915E0482179307F0F453E1FC
:10246000589F9001599F300D1124A20FB31FED9179
:10247000FC911197309789F012968C91681768F447
:102480008DE0689FE00DF11D112480819181892BE1
:1024900021F081E09281491708F080E008959C01C5
:1024A00043E1429FC001439F900D1124E0915B04E2
:1024B000F0915C04E80FF91F8385823099F481E084
:1024C00090E065817681409121025091220264174B
:1024D000750711F490E080E0892B21F081E0223033
:1024E000310508F080E00895FC01A081B1818DE004
:1024F000689FA00DB11D112413964D915C918585A7
:102500009685489F9001499F300D589F300D1124AA
:10251000C9010196611103C0478144FD04960895E5
:10252000EF92FF920F931F93CF93DF93EA01FC0189
:10253000E60FF71F02811381E480F5804F2D6E2D89
:10254000C80180DF81110DC082E090E0998388830B
:102550008EEF9FEFDF91CF911F910F91FF90EF9042
:102560000895C8013BDF882339F082E090E0998329
:10257000888388EF9FEFEECF109328020093270205
:10258000E0922902F0922A0281E090E09983888308
:1025900090E080E0DFCFCF92DF92EF92FF920F9337
:1025A0001F93CF93DF937A01EC01C60FD71FC09022
:1025B0002702D09028020091290210912A02412F6F
:1025C000602FC6013FDF811110C082E090E0F7016B
:1025D000918380838AEF9FEFDF91CF911F910F91BD
:1025E000FF90EF90DF90CF900895C601F7DE88232B
:1025F00041F082E090E0F7019183808388EF9FEFC4
:10260000EBCF4C815D816E817F819A8189818F3F83
:1026100041F082E090E0F701918380838EEF9FEF9D
:10262000DBCFE3E1EC9D9001ED9D300D1124E091B5
:102630005B04F0915C04E20FF31F0190F081E02D48
:102640002DE0029FE00DF11D11240190F081E02D9D
:1026500027E0129FE00DF11D1124808391838B816F
:10266000828343835483658376831F5F10932A029A
:1026700081E090E0F7019183808390E080E0ACCF2F
:10268000EF92FF920F931F93CF93DF937A018C0108
:10269000060F171FC0915B04D0915C04209781F056
:1026A00021E030E0F8018281938140915D045091F6
:1026B0005E048417950710F030E020E0232B71F4BE
:1026C00082E090E0F701918380838EEF9FEFDF91AE
:1026D000CF911F910F91FF90EF90089543E1489F94
:1026E0009001499F300D1124C20FD31F77DE88233C
:1026F00041F082E090E0F7019183808388EF9FEFC3
:10270000E6CFF8012481358120383105C8F687816C
:102710008111D6CF4181842F90E08F7E009741F0C8
:1027200082E090E0F7019183808386EF9FEFCFCF27
:102730004F833E832D83268128871986223010F40B
:1027400021E0288721E030E0F70131832083BFCFEB
:1027500088E090E0FA019183808390E080E0089522
:10276000FB018FEF808381E181838FEF9FEF938364
:10277000828380E890E0958384831682178208958F
:10278000FB018FEF808391E0918382839383848325
:1027900084E3858381E090E0978386830895BF92E8
:1027A000CF92DF92EF92FF920F931F93CF93DF931D
:1027B000DA01FC01E60FF71F8181813081F082E0B0
:1027C00090E08D939C938FEF9FEFDF91CF911F91BE
:1027D0000F91FF90EF90DF90CF90BF900895C2814E
:1027E000D381B480858106811781E0905B04F090ED
:1027F0005C04E114F10439F482E090E08D939C9341
:102800008CEF9FEFE2CF20915D0430915E04C21700
:10281000D30738F082E090E08D939C938EEF9FEF8A
:10282000D4CFC230D10538F082E090E08D939C93F4
:1028300086EF9FEFCACF9B2D9D7FB1F78130A1F727
:10284000B11005C00130110531F080E004C081E015
:1028500002301105D0F3882339F36D01CE01BEDDBE
:10286000882341F082E090E0F6019183808388EF35
:102870009FEFABCF83E18C9FF0018D9FF00D112472
:10288000EE0DFF1DB38681E0848716870587108AC9
:10289000178681E090E0F6019183808390E080E0EC
:1028A00094CF4CE050E061E872E04ACA8F929F9268
:1028B000BF92CF92DF92EF92FF920F931F93CF932D
:1028C000DF93EA01FC01E60FF71F82819381048107
:1028D000B580E0915B04F0915C04309791F482E064
:1028E00090E0998388838CEF9FEFDF91CF911F91C8
:1028F0000F91FF90EF90DF90CF90BF909F908F90BF
:10290000089520915D0430915E048217930738F09A
:1029100082E090E0998388838EEF9FEFE6CF23E1FA
:10292000289F6001299FD00C1124EC0DFD1DE08033
:10293000F180E114F10499F28281081748F78DE0E3
:10294000089F80011124E00EF11EF7018081918122
:10295000892B29F6BB20E1F2F7E0BF9E400111244C
:10296000C4010E949020F70191838083E0915B0471
:10297000F0915C04EC0DFD1D0190F081E02DE00F65
:10298000F11F80819181009739F482E090E0998372
:1029900088838DEF9FEFA9CFA40170E060E00E94D3
:1029A000F33080915B0490915C04C80ED91EF6014F
:1029B00080819181080F191FF801B28281E090E0B7
:1029C0009983888390E080E090CFAF92BF92CF92BE
:1029D000DF92FF920F931F93CF93DF93EA01FC01E5
:1029E000E60FF71F82819381F48000915B041091C0
:1029F0005C040115110581F482E090E099838883DD
:102A00008CEF9FEFDF91CF911F910F91FF90DF909F
:102A1000CF90BF90AF90089520915D0430915E04F7
:102A20008217930738F082E090E0998388838EEFD5
:102A30009FEFE8CF2FEF2F0D2C3FA8F723E1289F22
:102A40006001299FD00C11240C0D1D1DF8018081FF
:102A50009181892B89F6FDE0FF9E50011124C5016B
:102A60000E949020F80191838083E0915B04F091B3
:102A70005C04EC0DFD1D80819181009739F482E0AA
:102A800090E0998388838DEF9FEFBCCFA50170E024
:102A900060E00E94F330E0915B04F0915C04EC0D87
:102AA000FD1DF28281E090E09983888390E080E0D0
:102AB000A9CFCF92DF92EF92FF920F931F93CF9304
:102AC000DF93860F971FFC010281138180915B04C5
:102AD00090915C04892B81F082E090E0FA0191836F
:102AE00080838CEF9FEFDF91CF911F910F91FF902B
:102AF000EF90DF90CF900895C801B0E0A0E001977B
:102B0000A109B1098F3F9F4FA105B10540F082E0B7
:102B100090E0FA01918380838EEF9FEFE4CF7A01FA
:102B200083E1809F6001819FD00C1124C6010E9427
:102B30009020EC01009741F482E090E0F70191834E
:102B400080838DEF9FEFCFCFA60170E060E00E9401
:102B5000F330D0935C04C0935B0410935E04009345
:102B60005D0490E080E02FEF3FEF41E061E070E036
:102B70008017910741F481E090E0F7019183808311
:102B800090E080E0B0CF3A8B298B1B864C877E8704
:102B90006D87188A1F8601966396EACFEF92FF929F
:102BA0001F93CF93DF93EC0110E0F12CE12C6A81AD
:102BB0001617B0F083E0689FB0011124AE014F5E9C
:102BC0005F4FC7010E94F520009721F02FEF3FEFE4
:102BD0003A8B298BDF91CF911F91FF90EF90089551
:102BE000612FCE0181DC61E070E00E94431FE81696
:102BF000F90608F47C011F5FDACFF894209159049C
:102C000030915A0481E02115310509F080E0232B31
:102C100009F0789408952F923F924F925F926F92AD
:102C20007F928F929F92AF92BF92CF92DF92EF925C
:102C3000FF920F931F93CF93DF933C01660E771E95
:102C4000F301828193814C01B12CA12CC0915B04D2
:102C5000D0915C04209769F021E030E060915D0440
:102C600070915E048617970710F030E020E0232B68
:102C7000D1F482E090E0FA01918380838EEF9FEFA0
:102C8000DF91CF911F910F91FF90EF90DF90CF9048
:102C9000BF90AF909F908F907F906F905F904F907C
:102CA0003F902F90089580922B0290922C02A09238
:102CB0002D02B0922E0263E1689F9001699F300D52
:102CC0001124C20FD31FF3018181833040F082E0D1
:102CD00090E0FA019183808386EF9FEFD1CF2A01A4
:102CE0002B813C81232BF1F4288139819F8191FF35
:102CF0002EC0232B09F46FC0209160049A81422FCB
:102D0000490F5527551FBA0141E050E06138710560
:102D100014F050E040E0452B09F45DC02A87920F83
:102D2000909360048150823008F481C066DF88236C
:102D300009F4DAC0F3018181813009F48DC008F40F
:102D40007BC0823009F4C8C090E080E0ADC0232B86
:102D500009F441C020915F049A81E22FE90FFF2717
:102D6000FF1F41E050E0ED3FF10514F050E040E07E
:102D7000452B89F12A87920F90935F04D3CFA081CE
:102D8000B181A20FB31F11966C91060F111D019610
:102D9000295F3F4F8417950794F38D859E85089F83
:102DA0001001099F300C189F300C1124C114D1045C
:102DB000D1F48F8184FF17C00E94911FF5E02F0E80
:102DC000311C21E08215930508F420E0A701435F40
:102DD0005F4F21110EC082E090E0F2019183808369
:102DE00087EF9FEF4DCF0E94911F2FEF221A320ADB
:102DF000E8CF88819981E80EF91EF70114830383D7
:102E0000FFEFCF1ADF0A7A018A818C151D0409F0C1
:102E10000CF48CCFE881F981EE0DFF1D428150E06A
:102E200030E020E010E000E090E080E0B3CFF12C53
:102E3000E12CD12CC12CE8CF81E090E09C838B83E6
:102E4000E4DA882309F480CF81E090E00E94820ECA
:102E500080E40E94900E78CF89899A89019661F06A
:102E600083E090E09C838B8382E090E00E94820E5E
:102E700080E40E948A0E68CF8D819E81209121027C
:102E80003091220282179307D1F46091250270914C
:102E90002602AE014F5E5F4F809123029091240283
:102EA0000E94E7210097E1F2789422E030E0F201FD
:102EB00031832083892BA9F08DEF9FEFE1CE22E0B3
:102EC00082169104A104B1045CF6039748F6CE0182
:102ED00065DE188A1F86E6CF82E090E09C838B83B4
:102EE00033CF90E080E0CCCE82E090E0F20191839D
:102EF000808385EF9FEFC4CE8F929F92AF92BF9257
:102F0000CF92DF92EF92FF920F931F93CF93DF93B5
:102F1000EA018C01060F171FF8018181833098F0B8
:102F200082E090E09983888386EF9FEFDF91CF91D5
:102F30001F910F91FF90EF90DF90CF90BF90AF90D7
:102F40009F908F90089580915B0490915C04892BF1
:102F500061F081E090E020915D0430915E04232BCC
:102F600011F490E080E0892B39F482E090E09983BD
:102F700088838EEF9FEFDACF40DE882309F4E1C02B
:102F8000F8018181813009F497C0E8F0823099F42A
:102F900020915D0430915E04E0915B04F0915C044B
:102FA00090E080E041E050E02817390709F0BFC009
:102FB0002CDA811117C0789481E090E0998388839E
:102FC00090E080E0B3CF20915D0430915E04E09109
:102FD0005B04F0915C0490E080E041E050E0281751
:102FE000390741F481E090E00E94820E80E40E9463
:102FF000900EE1CF63817481672B11F0548343837A
:1030000001967396ECCFE0915B04F0915C04E00FC5
:10301000F11F2381348122303105D9F4218932898D
:103020002F3F3F4FB1F425813681409121025091CD
:1030300022022417350761F5AF014F5E5F4F6091A3
:1030400025027091260280912302909124020E9411
:10305000E721EFEFCE1ADE0AEE0AFE0A0D5E1F4FE1
:1030600040915D0450915E0470E060E0C416D506A6
:10307000E606F7064CF5009731F27894892B09F4AF
:103080009BCF82E090E0998388838DEF9FEF4ECFB6
:1030900042E0C416D104E104F104DCF6233031052A
:1030A000C0F6CF017BDDE0915B04F0915C04E00FA2
:1030B000F11F108A1786CDCF10E000E090E080E08D
:1030C000C12CD12C7601CCCF0097B9F610E000E0EE
:1030D000812C912C540183E0E82EF12C1AC0E09150
:1030E0005B04F0915C04E00FF11F838194810297EF
:1030F00049F4F482E38282E090E00E94820E80E450
:103100000E948A0EFFEF8F1A9F0AAF0ABF0A0D5E58
:103110001F4F80915D0490915E04B0E0A0E088169E
:103120009906AA06BB06DCF290E080E0A6CF638198
:1031300074816230710511F4548343830196739650
:1031400033CF82E090E09983888385EF9FEFEECEC6
:103150000097B9F48FEFFB01808320912B0230910F
:103160002C0243E1429FC001439F900D1124E09146
:103170005B04F0915C04E80FF91F8285FB018183F9
:1031800008950C94390E88E090E0FA0191838083D1
:1031900090E080E0089510925A0410925904EBE5F3
:1031A000F4E086E0DF011D928A95E9F781E594E17C
:1031B00090935804809357040895809157049091F8
:1031C000580408952F923F924F925F926F927F9290
:1031D0008F929F92AF92BF92CF92DF92EF92FF9227
:1031E0000F931F93CF93DF93CDB7DEB72F970FB613
:1031F000F894DEBF0FBECDBFF894E0915904F09172
:103200005A043196F0935A04E0935904789440900C
:103210005B0450905C044114510409F40DC2E09128
:103220005D04F0915E04EF2B09F406C22D874987F7
:103230005A876B877C8798878F831201B12CA12CCA
:1032400010E000E080915D0490915E04A816B9063C
:1032500018F40115110529F1F89480915904909101
:103260005A04019790935A04809359047894C801A2
:103270002F960FB6F894DEBF0FBECDBFDF91CF9172
:103280001F910F91FF90EF90DF90CF90BF90AF9084
:103290009F908F907F906F905F904F903F902F9076
:1032A00008957101E418F508D10117968C911797CC
:1032B00081FD54C013968D919C911497039709F04A
:1032C0004DC015968D919C91EF81F8858E179F07C3
:1032D00009F044C0B50190E080E081D48A83209158
:1032E0005B0430915C043D832C833D85332309F4DA
:1032F0004CC04C815D81452B09F49BC180915D04DC
:1033000090915E04A816B90608F093C1C501C7D80C
:103310008823E9F06C817D816E0D7F1D7D836C8338
:10332000DB011F968D919C91892B89F0D12CC12CAA
:10333000F12CE12CAC81BD8112968C9112978E15E7
:103340001F0409F094F450961C921E921F972A8134
:10335000222321F0B50190E080E043D43FEFA31A8F
:10336000B30A43E1240E311C6DCFAC81BD81ED91D8
:10337000FC91EC0DFD1D858196810BD7BFEFEB1AFB
:10338000FB0AEDE0CE0ED11CD5CFEC81FD8130974C
:1033900009F44FC180915D0490915E04A816B906AE
:1033A00008F047C1EE0DFF1DFF87EE87C50177D8F6
:1033B0008B83882339F1AE85BF851F968D919C91B3
:1033C0005097019621E01D964D915C9184179507C9
:1033D00009F020E02E831982712C10E000E0AE8508
:1033E000BF8512968C91781608F45DC0EE85FF8536
:1033F000878590890196658576850E949330908BAC
:103400008787A5CFB1E0BE83E6CF992493946BC0A4
:1034100087D6F6019683858383C0D601ED90FC9014
:10342000B7E06B9EE00CF11C1124F70163817481FD
:1034300080818F3F61F121E030E002C0220F331F15
:103440008A95E2F7C901092E000CAA0BBB0BFB0100
:10345000408151816281738184239523A623B72300
:1034600021E0892B8A2B8B2B09F420E0D4012C93AB
:10347000D70111968C91F60123853485820F932F05
:10348000911D880E991E1486138663949CC04181F9
:1034900050E0C4010E94EA30EBCF998206EF1FEFA3
:1034A000C6C01982C4C0F981F111A0CFEDE07E9EA3
:1034B00070011124AE85BF85CD90DC90CE0CDF1C51
:1034C00017D49D838C83BB81BB2309F49ECF81E0FD
:1034D000EE85FF8527853089232B09F080E0982E23
:1034E000882309F459C0672D8E859F850E94741228
:1034F000D60118969C938E93179761E070E0C3D421
:10350000EE85FF85218932892F3F320709F480CF6C
:10351000BC01C9019DD7D60116969C938E93159731
:10352000D60115968D919C911697009709F4B5CF09
:10353000EC81FD818E0F9F1F1A969C938E93199795
:10354000AE85BF85ED91FC911197EE0EFF1EF70140
:1035500021853285148613861A968C91870DD901A0
:103560008D93711016C0EE85FF85878184FF11C091
:1035700049855A856B857C85F90141835283638334
:103580007483F701838594850496A80FB91F148668
:103590001386F701B287A187D60115968D919C916C
:1035A0001697892B09F443C0EE85FF852581368166
:1035B00080912102909122022817390779F01996FB
:1035C0008D909C90612CD60112968C911297681662
:1035D00008F423CF1A969C928E921997BE81BB2332
:1035E00009F45FCF61E070E0F601878190854BD4EC
:1035F000D6011796ED90FC90189715964D915C9119
:10360000E1E0F0E0BA81BB2311F0F0E0E0E00C81F2
:103610001D819C01B501882799278E1B9F0B6BD3B9
:103620008C01892B21F0F60185819681B2D57394A6
:10363000D6CE0FEF1FEF8BCE10E000E00DCE2F9215
:103640003F924F925F926F927F928F929F92AF9232
:10365000BF92CF92DF92EF92FF920F931F93CF937F
:10366000DF9380915B0490915C0410E000E0892B73
:10367000A9F0C3DA0AEF1FEF882381F020905D04E0
:1036800030905E04C0915B04D0915C04D12CC12CBD
:1036900010E000E02C143D04A9F47894C801DF91F7
:1036A000CF911F910F91FF90EF90DF90CF90BF903F
:1036B000AF909F908F907F906F905F904F903F90D2
:1036C0002F900895C6010E944F12882309F18B8123
:1036D0009C810397E9F48F859889892BC9F0B601FD
:1036E00090E080E07CD221E030E0882311F030E0EF
:1036F00020E044245524421A530AB12CA12C912CC9
:10370000812C8A818815190409F038F4188A1F86DB
:103710004FEFC41AD40A6396BDCFE881F981EA0D50
:10372000FB1D85819681892BA1F161E070E0878185
:103730009085A9D33C01DCD28C01E881F981EA0DA6
:10374000FB1D8185928525813681200F311FAC01BB
:10375000421B530B9A0147815085421B530B70E06B
:1037600060E00E94F330E881F981EA0DFB1DE780FB
:10377000F084458156819301B601C201BCD28C010F
:10378000892B39F0E881F981EA0DFB1D858196814D
:1037900000D55FEF851A950A8DE0A80EB11CB1CF58
:1037A0002CCA789408952F923F924F925F926F9215
:1037B0007F929F92AF92BF92CF92DF92EF92FF9251
:1037C0000F931F93CF93DF9300D000D0CDB7DEB718
:1037D00000915B0410915C049924939401151105E8
:1037E00009F43EC0A0905D04B0905E0406DA982E05
:1037F0008823B1F110925C0410925B0410925E0475
:1038000010925D0410925F04109260048FEF9FEF9E
:10381000DC0180932B0290932C02A0932D02B09395
:103820002E02789480D31E830D83C12CD12C760177
:10383000C501B0E0A0E089839A83AB83BC832224D6
:103840002A94322C89819A81AB81BC81C816D90611
:10385000EA06FB06F4F0C8019CD480E40E94900EB6
:10386000892D26960FB6F894DEBF0FBECDBFDF912F
:10387000CF911F910F91FF90EF90DF90CF90BF906D
:10388000AF909F907F906F905F904F903F902F9060
:103890000895AD81BE8115968D919C9116972091CA
:1038A00021023091220282179307D1F451968D9113
:1038B0009C91BCD5ED81FE8180819181B12CA12CA0
:1038C000412C512C3201892B91F5BFEFCB1ADB0A29
:1038D000EB0AFB0AED81FE817396FE83ED83B2CF86
:1038E000B2E0CB16D104E104F10424F7039710F7FA
:1038F000ED81FE81818992898F3F980709F011D56A
:10390000AD81BE8152963C922E925197D3CF8A0DB3
:103910009B1DDC018D919C91009709F03AD4BFEF7B
:103920004B1A5B0A6B0A7B0AEDE0AE0EB11CAD814F
:10393000BE818D919C91119712964C9150E070E050
:1039400060E044165506660677060CF322D4BDCF18
:10395000CF93DF93EA0127DF811109C082E090E075
:103960009983888385EF9FEFDF91CF91089581E060
:1039700090E00E94820E81E090E09983888390E03D
:1039800080E0F2CF10DF109258041092570408958F
:1039900042E050E069EC72E00C94A00EFF920F93AD
:1039A0001F93CF93DF938A01EC01C60FD71FF980D5
:1039B000B9D20897F816190671F068F082E090E025
:1039C000F801918380838EEF9FEFDF91CF911F915C
:1039D0000F91FF9008956C817D818E819F814B8135
:1039E0000E943511811108C082E090E0F8019183B6
:1039F000808384EF9FEFE9CFF9800E9430114F2D33
:103A000050E0BE01685F7F4F0E94EA3089810E94CA
:103A10009F1181E090E0F8019183808390E080E045
:103A2000D4CFDF92EF92FF920F931F93CF93DF9348
:103A30008A01EC01C60FD71F0E9430117C01D9808A
:103A400071D2DD2059F0029721E030E0D816190636
:103A500019F010F030E020E0232B79F482E090E0C0
:103A6000F801918380838EEF9FEFDF91CF911F91BB
:103A70000F91FF90EF90DF900895EF2841F482E0DE
:103A800090E0F8019183808384EF9FEFEECFF9807F
:103A90000E9430114F2D50E0BE016E5F7F4F0E949B
:103AA000EA3089810E949F1181E090E0F8019183C2
:103AB000808390E080E0D9CF88EC9CE19093620411
:103AC0008093610408958091610490916204089547
:103AD0000895FC0111821082938382830895DB0193
:103AE0001D921C92DC011296ED91FC91139771834B
:103AF000608313967C936E9312970895FC018081E6
:103B00009181DB018D939C93A081B181109741F04D
:103B10008D919C9191838083892B11F4F383E283AF
:103B20000895FC0180819181DB018D939C93892B09
:103B300011F473836283718360830895FC011182A1
:103B40001082938382830895CF93DF931F921F92F5
:103B5000CDB7DEB71A821982F894BE016F5F7F4F2E
:103B600088E694E0CBDF89819A81009709F011D330
:103B700089819A81892B89F7BE016F5F7F4F8CE61F
:103B800094E0BCDF89819A81009709F002D3898192
:103B90009A81892B89F778940F900F90DF91CF91BC
:103BA0000895CF93DF931F921F92CDB7DEB71A828D
:103BB0001982F894BE016F5F7F4F84E694E09EDF28
:103BC00089819A81009709F0E4D289819A81892BB1
:103BD00089F778940F900F90DF91CF91089581E04D
:103BE000089590E080E00895EF92FF920F931F9365
:103BF000CF93DF931F921F92CDB7DEB71A8219823F
:103C00008091630407EF1FEF8823A1F1F894BE01B0
:103C10006F5F7F4F8CE694E071DF789489819A81A1
:103C2000EE24E394F12C892B51F4F894BE016F5FDC
:103C30007F4F88E694E062DF7894F12CE12C898153
:103C40009A810EEF1FEF0097A9F0FC01428153818A
:103C500064E070E041D68C01892B61F0F8946981B1
:103C60007A81C701880F991F880F991F88599B4F28
:103C700058DF7894C8010F900F90DF91CF911F917A
:103C80000F91FF90EF9008950F931F93CF93DF93C1
:103C900000D01F92CDB7DEB71C821B821A82198218
:103CA0008091630407EF1FEF8823C1F0AE014D5FE1
:103CB0005F4F64E070E0CE01019681D68C01892BC4
:103CC00069F4E981FA818B819C8193838283F894E2
:103CD00069817A8184E694E002DF7894C8010F90CC
:103CE0000F900F900F90DF91CF911F910F9108953A
:103CF00086D7049608958F929F92AF92BF92CF92EB
:103D0000DF92EF92FF920F931F93CF93DF931F9257
:103D10001F92CDB7DEB71A821982BC016F5F7F4F49
:103D20006330710598F0AA24AA94BA2CC5010F90AB
:103D30000F90DF91CF911F910F91FF90EF90DF9047
:103D4000CF90BF90AF909F908F90089541155105EF
:103D500051F3480159018A016C01CADF88159905A0
:103D600011F7E114F104F9F28E0D9F1DA816B906A2
:103D7000D0F2809163048823F1F0F894B501645087
:103D800071099701AE014F5F5F4FC8010496ACD631
:103D90005C01892B71F489819A81F8019383828374
:103DA000C601880F991F880F991FB80188599B4F2A
:103DB00096DE7894BBCF87EFA82EBB24BA94B6CFFB
:103DC000AF92BF92CF92DF92EF92FF920F931F9329
:103DD000CF93DF931F921F92CDB7DEB71A8219825D
:103DE000892B09F047C06115710509F443C04115DD
:103DF000510509F43FC02115310509F43BC00115F7
:103E00001105C1F1809163048823B9F179016A0138
:103E10005B01F894BE016F5F7F4F84E694E06EDE35
:103E2000789489819A81009759F1DC0112966D91FD
:103E30007C91A801049671D68C01E981FA81D501A3
:103E4000ED93FC93828193810496F60191838083A4
:103E50004FDFD7018D939C93C8010F900F90DF9196
:103E6000CF911F910F91FF90EF90DF90CF90BF9077
:103E7000AF9008950FEF1FEFEFCF07EF1FEFECCFDD
:103E80000EEF1FEFE9CFCF93DF93EC01672B71F4B7
:103E9000BFD68C179D0760F0B2D62496C80FD91FE5
:103EA000B1D68C0F9D1FDF91CF910895AED6F1CF83
:103EB00090E080E0F8CF0F931F93CF93DF93209192
:103EC000630421112BC08B01EC0188E694E001DE34
:103ED0008CE694E0FEDD84E694E0FBDD97D000976D
:103EE000C1F496D670E060E0CEDF4FE252E062E0CF
:103EF00070E07BD1009769F480912F02909130029D
:103F000099D6B801CE01CED4009719F421E02093C0
:103F10006304DF91CF911F910F91089584EF9FEF7C
:103F2000F8CF73C675C6CF93DF9375D6EC01892B96
:103F300011F40ADE36DECE01DF91CF910895CF93E2
:103F4000DF9369D6EC01892B09F4FEDDCE01DF9108
:103F5000CF91089580912F02909130020895CF93D0
:103F6000DF9380916304D0E0C0E08823D1F067D66E
:103F7000EC01892BB1F4E8DD14DE80912F029091E1
:103F80003002CFD1B5D2EC01892B59F488E694E008
:103F9000D5DD8CE694E0D2DD84E694E0CFDD1092AE
:103FA0006304CE01DF91CF910895EF92FF920F93BA
:103FB0001F93CF93DF93EC017A018B010F5F1F4FAB
:103FC0000E9DA0010F9D500D1E9D500D112470E0FF
:103FD00060E00E94F33090E080E0F0E0E0E02FEF5E
:103FE000E816F90639F4DF91CF911F910F91FF90F8
:103FF000EF9008951A8219822883309711F0D283A6
:10400000C1830196FE01C00FD11FEACFAF92BF92CC
:10401000CF92DF92EF92FF920F931F93CF93DF9394
:104020008EE096E07C012CEFE22243E050E061E379
:1040300072E087E392E0E3D381E3C82E82E0D82EDA
:1040400097E3A92E92E0B92EC7EFD6E08E01D601F4
:104050004D915D916D01F501619171915F01D80103
:104060001196FC92EE9215965C934E9314971396CC
:104070005C934E93129717967C936E9316979B01C1
:104080002F5F3F4F249FC001259F900D349F900DBF
:10409000112419969C938E931897E114F10411F052
:1040A000C70183DFF80180859185E80EF91E065F60
:1040B0001F4FF7E3CF16F2E0DF0649F6E2E7F4E040
:1040C00089E991E0DF019C011D9221503040E1F728
:1040D00010927104109270041F8E1E8E1BA21AA2E1
:1040E00019A218A21DA21CA21FA21EA22A9637E086
:1040F000C531D30789F71092F4061092F306109297
:10410000F6061092F50690E080E0DF91CF911F91C6
:104110000F91FF90EF90DF90CF90BF90AF900895F8
:104120000097F1F0F894A7E3B2E0E7EFF6E030E0B3
:1041300020E04D915D9148175907A8F042815381C5
:104140004115510581F08AE0829FF001839FF00DB7
:104150001124E950F94F80819181009759F47894A6
:1041600090E080E008952F5F3F4F3A96233031056D
:1041700001F7F5CFDC0111966D917C91718360831D
:104180004150510953834283FC012193CF0178941C
:104190000895009749F1DC018E91863041F4E09159
:1041A000F506F091F6063097F9F0CD0119948630B6
:1041B000D8F4282F30E0F8948FEF8C938AE0829F18
:1041C000F001839FF00D1124E950F94F8081918116
:1041D00012969C938E931197B183A08382819381D1
:1041E00001969383828378940895CF92DF92EF9221
:1041F000FF920F931F93CF93DF939C0185E794E089
:104200008C7F4115510509F489C02115310509F448
:1042100085C06115710509F481C08A01AB01B9013E
:104220006D5F7F4F6C7F9B012F5F3F4F249F70011D
:10423000259FF00C349FF00C1124F894E7EFF6E082
:1042400023E030E0E901A6A1B7A1C68CD78CCD2828
:1042500009F058C0109709F03EC0C0907004D0908B
:10426000710426E931E02C193D092E153F0530F483
:104270007894CFEFDFEF86EF9FEF21C02AE02C9FED
:10428000F0012D9FF00D1124E950F94F91838083A7
:10429000558344835383428377836683F186E08624
:1042A000009709F082DEEC0CFD1CF0927104E092A4
:1042B00070047894CF3FDC07F1F290E080E0F801E1
:1042C000D183C083DF91CF911F910F91FF90EF9029
:1042D000DF90CF900895AE15BF05A0F02AE02C9F87
:1042E000F0012D9FF00D1124E950F94F9183808347
:1042F0005583448353834283778366830097C9F24F
:1043000054DED7CF8A0F9B1F2F5F3F4F3A96263040
:10431000310509F097CFCFEFDFEFCBCF8FEF9FEFD6
:10432000D1CF9C010397039708F04EC0F89485E025
:104330009AE0482F50E0241735079CF191E08AE07D
:10434000829FF001839FF00D1124E950F94F1182F3
:104350001082158214821382128217821682992388
:10436000E1F08091700490917104E7EFF6E0268D02
:10437000378D232B49F426A137A12115310521F0D2
:10438000821B930B17A216A23A9627E0E531F2079B
:1043900071F79093710480937004789490E080E0BA
:1043A0000895949FF001959FF00D1124E950F94F65
:1043B00040815181452B31F440855185452B11F4C5
:1043C0008150B7CF90E0BBCF8FEF9FEF089541159D
:1043D000510549F1009739F16115710521F1F89402
:1043E0002091F3063091F406232BB9F42091F506C1
:1043F0003091F606232B89F49093F4068093F3060C
:104400007093F6066093F506789426E030E090E02D
:1044100080E0FA0131832083089578942FEF3FEFF5
:1044200086EF9FEFF6CF8FEF9FEF0895069769F421
:10443000F8941092F4061092F3061092F606109279
:10444000F506789490E080E008958FEF9FEF08954F
:104450006115710519F4F0E0E0E011C086309105B6
:1044600081F4E091F306F091F4063097A1F3CB01CB
:1044700001961995009779F3FC0186E08193CF01AD
:1044800008959C01235031092330310520F72AE09B
:10449000289FD001299FB00D1124A950B94F2D910B
:1044A0003C911197232BB9F216962D913C911797B9
:1044B0002617370780F2F89412962D913C911397A6
:1044C0002115310529F0ED91FC911197309711F4E8
:1044D0007894C1CF4181528111965C934E932150C3
:1044E000310913963C932E93129781937894C7CFFA
:1044F000EBE0F6E088EEDF011D928A95E9F7E2E74E
:10450000F4E089E991E0DF019C011D9221503040E7
:10451000E1F71092710410927004E7EFF6E08CE37B
:10452000DF011D928A95E9F7E3EFF6E084E0DF0111
:104530001D928A95E9F790E080E00895CF93DF938C
:10454000C0913D02D0913E02CF3FDC0759F420D408
:1045500090933E0280933D0297FF09C0D0933E02A4
:10456000C0933D0284EF9FEFDF91CF91089590E0DB
:1045700080E0FACF8230910528F48093330790E0F1
:1045800080E008958FEF9FEF08954F925F926F92B2
:104590007F92AF92BF92CF92DF92EF92FF920F93F2
:1045A0001F93CF93DF931F921F92CDB7DEB71A826E
:1045B0001982009709F478C06115710509F474C077
:1045C00020913D0230913E0207EF1FEF2F3F3F4FFA
:1045D00009F444C06B015C01412C512C3201F12CD7
:1045E000E12C10E000E09E012F5F3F4FA6014E1925
:1045F0005F09B5016E0D7F1D80913D0290913E02D5
:1046000026D4892B09F04AC089819A81009741F408
:10461000E114F10429F420913307222309F441C065
:10462000E80EF91EEC14FD04C8F480E8481684E88E
:1046300058068EE16806710418F560E070E0CB0161
:104640008CD72AE0420E511C611C711C0A3F4FEFAF
:10465000140721F0043F8FEF1807A1F4C8010F9051
:104660000F90DF91CF911F910F91FF90EF90DF900E
:10467000CF90BF90AF907F906F905F904F900895D4
:1046800001EF1FEF81E090E0013F2FEF120711F0E3
:1046900090E080E0892B09F4A6CFE0CF04EF1FEF74
:1046A000DDCF0AEF1FEFDACF0FEF1FEFD7CF4F921B
:1046B0005F926F927F92AF92BF92CF92DF92EF9212
:1046C000FF920F931F93CF93DF931F921F92CDB74B
:1046D000DEB71A821982009709F478C06115710556
:1046E00009F474C020913D0230913E0207EF1FEFA4
:1046F0002F3F3F4F09F444C06B015C01412C512C0A
:104700003201F12CE12C10E000E09E012F5F3F4FC1
:10471000A6014E195F09B5016E0D7F1D80913D0206
:1047200090913E024AD3892B09F04AC089819A812F
:10473000009741F4E114F10429F420913307222376
:1047400009F441C0E80EF91EEC14FD04C8F480E43D
:10475000481682E458068FE06806710418F560E098
:1047600070E0CB01FAD62AE0420E511C611C711C8C
:104770000E3F4FEF140721F0043F8FEF1807A1F40D
:10478000C8010F900F90DF91CF911F910F91FF9073
:10479000EF90DF90CF90BF90AF907F906F905F9041
:1047A0004F90089502EF1FEF81E090E0023F2FEF5E
:1047B000120711F090E080E0892B09F4A6CFE0CF3A
:1047C00004EF1FEFDDCF0EEF1FEFDACF0FEF1FEF7C
:1047D000D7CF80913D0290913E028F3F980749F0DC
:1047E000CFD2892B49F48FEF9FEF90933E028093B5
:1047F0003D0290E080E0089584EF9FEF0895CF920E
:10480000DF92EF92FF920F931F93CF93DF9321E0FC
:104810004115510509F020E04150510921112CC0EA
:10482000DC01FB01D12CC12C21E022C03FEFC31AD7
:10483000D30A7D010D911D91E701EA80FB80E0160E
:10484000F106A8F420813181E280F380F182E082D8
:1048500033832283ED90FC9011979D012250310902
:10486000E901F982E88211961C930E9320E03296BA
:10487000C416D506D8F2D2CFDF91CF911F910F91F8
:10488000FF90EF90DF90CF900895FC01680F791FA3
:1048900090E080E0E617F70709F408952191820F70
:1048A000911DF8CF20913407211113C047DE0097E6
:1048B00091F410923A07109239071092380710922B
:1048C0003707109236071092350721E020933407FE
:1048D000089584EF9FEF0895AF92BF92CF92DF9239
:1048E000EF92FF920F931F93CF93DF93009709F4FA
:1048F00060C04630510508F45CC020913407C7EF12
:10490000DFEF222309F449C08C01060F171FF801BD
:10491000C080D180C114D10409F44EC096012A5F31
:104920003F4F4217530708F447C07C018091390775
:1049300090913A0793838283B6016C5F7F4F580151
:10494000A60EB71EC801A1DFF5019183808364E044
:1049500070E0C8011ADEEC01892BF9F481E090E0E7
:1049600009DEB601C801049610DEEC01892B91F432
:1049700062E070E0C50109DEEC01892B59F4C70142
:1049800008DC8091390790913A07019690933A0795
:104990008093390790E080E0EDDDCE01DF91CF918B
:1049A0001F910F91FF90EF90DF90CF90BF90AF904D
:1049B0000895CFEFDFEFF1CFC9EFDFEFEECF6F92CA
:1049C0007F928F929F92AF92BF92CF92DF92EF929F
:1049D000FF920F931F93CF93DF9300D01F92CDB719
:1049E000DEB7009709F47AC04115510509F476C085
:1049F0002091340707EF1FEF222309F44DC03A013D
:104A00007B015C0164E070E0CE01019650DE8C0118
:104A1000892B09F041C009811A810115110509F49A
:104A20005AC0480186E0880E911CB701680D791DB7
:104A300080913F02909140020BDD6C01009709F4D8
:104A400050C0A70170E060E00E94F33089819A8134
:104A5000AB81BC81EC0CFD1CF70181939193A19378
:104A6000B1937F0181E090E085DDB801C7011FDED1
:104A7000892B31F562E070E0C701800F911F17DECE
:104A80008C01892BE9F490E080E074DDF501D1829E
:104A9000C082F30191828082C8010F900F900F9025
:104AA0000F90DF91CF911F910F91FF90EF90DF90CA
:104AB000CF90BF90AF909F908F907F906F90089510
:104AC00090E080E057DDF50111821082F301118240
:104AD0001082C6015EDB09EF1FEFDECF0FEF1FEF85
:104AE000DBCF06EF1FEFD8CF0097A1F0411551059E
:104AF00089F02115310571F0F90136966E177F079F
:104B000048F0DC012D933C93DA01ED93FC9390E0A7
:104B100080E008958FEF9FEF0895AF92BF92CF92FC
:104B2000DF92EF92FF920F931F93CF93DF93009743
:104B300009F45FC04115510509F45BC0653071058A
:104B400008F457C020913407C7EFDFEF222391F11B
:104B5000DC01CD90DC9011971296ED91FC919601BD
:104B60002A5F3F4FC9EFDFEF2617370719F5C091CE
:104B70003507D0913607209749F521E030E0309392
:104B80003607209335077A018C01F0933807E093BC
:104B900037075601B4E0AB0EB11CB50176DE0A0D45
:104BA0001B1DF801208131818217930729F5D70158
:104BB000CD92DC92CE01DF91CF911F910F91FF90AA
:104BC000EF90DF90CF90BF90AF900895209137077E
:104BD000309138072F5F3F4FCCEFDFEFE217F3073D
:104BE00090F2CBEFDFEF2E173F0768F2D0E0C0E086
:104BF000CACFCFEFDFEFDECFC3EFDFEFDBCF84E055
:104C000090E0089582E090E008958CEF9FEF089582
:104C100080E290E0089510923A07109239071092BE
:104C2000380710923707109236071092350790E038
:104C300080E008959093400280933F020895809110
:104C40003407882391F0C5DD009789F410923A0764
:104C500010923907109238071092370710923607D2
:104C60001092350710923407089590E080E008957F
:104C7000009749F06115710531F0FC011182108235
:104C8000FB01118210820895F3CF26E030E040E866
:104C900055E260E070E090E080E000C08130910576
:104CA00069F01CF4892B39F008958230910549F0A0
:104CB000039751F008958DE497E077C78AEE97E067
:104CC000FCCF87E898E0F9CF84E299E0F6CF1F9215
:104CD0000F920FB60F9211240BB60F922F933F93A2
:104CE0004F935F936F937F938F939F93AF93BF93F4
:104CF000EF93FF938FE89DEF90932501809324011C
:104D0000BAD0FF91EF91BF91AF919F918F917F9119
:104D10006F915F914F913F912F910F900BBE0F902C
:104D20000FBE0F901F9018958FE89DEF909325016F
:104D300080932401A3E7B0E08C918E7F8C93E0E216
:104D4000F1E080818C7F8083E1E2F1E08081877EE9
:104D5000808380818460808380818C7F80838C913C
:104D600081608C930895E3E7F0E0808190819E7FDD
:104D700090838170089581E0089510923B07089513
:104D800068EE73E080E090E0E8D390E080E0089582
:104D900026E030E040E050E16EE070E090E080E03E
:104DA0007DDF8DE497E037D6892B21F08DE497E005
:104DB0004CD6F7CF90E080E00895CF92DF92EF924B
:104DC000FF920F931F93CF93DF936B017A01E90159
:104DD000198218828DE497E01ED6892B69F186012D
:104DE000CC24C39482E0D82E80913B07811110C05F
:104DF0008DE497E02AD60297B9F7C0923B07F801F5
:104E0000D1928F0188819981019699838883ECCF13
:104E1000888199818E159F0578F48DE497E015D6E9
:104E20008F3F9807A9F3F80181938F0188819981B9
:104E3000019699838883ECCF90E080E0DF91CF9159
:104E40001F910F91FF90EF90DF90CF9008950F93F7
:104E50001F93CF93DF93EA0189018DE497E00E94CD
:104E60006530F801D183C08390E080E0DF91CF917D
:104E70001F910F910895CF92DF92EF92FF920F93BF
:104E80001F93CF93DF9300D0CDB7DEB780913F075C
:104E900091E0980F90933F078823A1F021E030E044
:104EA000309343072093420780933F070F900F9062
:104EB0000F90DF91CF911F910F91FF90EF90DF90B6
:104EC000CF900895CE0101960E94560578940091E6
:104ED000550210915602F801E256FF4F6081718130
:104EE00082819381B2D120E030E040E85FE463D278
:104EF0006B017C01F801E656FF4F60817181828170
:104F00009381A3D19B01AC01C701B60105D120E07B
:104F100030E0A90101D16DD16B017C010E945E05D9
:104F2000B701A60181E090E00E94C804F894809146
:104F30003F07815080933F078B81882389F08091C0
:104F40003E0791E0980F90933E07882349F021E0B7
:104F500030E0309343072093420780933E07A6CF6B
:104F600080913E07882309F4A1CF809140078111E9
:104F70009DCF809141078F5F809341077894F8011E
:104F8000EE54FF4F60817181828193815ED120E078
:104F900030E040E85FE40FD26B017C01F801E2559C
:104FA000FF4F60817181828193814FD19B01AC0160
:104FB000C701B601B1D020E030E040E251E4FBD1BE
:104FC00020E030E0A901A8D014D16B017C010E943F
:104FD000A806B701A60182E090E00E94C804F894F8
:104FE00080913E07815080933E0780914107815018
:104FF000809341075BCF0F931F93CF93DF93109262
:10500000F6091092F509DFD240DEC0915502D09129
:105010005602198218826FEF7FEFCB010E944B0579
:1050200070E060E090E080E00E94C803009709F023
:1050300042C00E942107F8947894BE0167547F4FC4
:105040008A819B810E94CB03892B71F46FEF7FEFE4
:10505000CB010E945E040E944505882329F081E06F
:10506000FE01E154FF4F8083F8945EDE0E94480504
:10507000882311F080E00BC00E9445058111FACF12
:1050800081E0FE01E154FF4F90819111F3CF8093B5
:10509000F50978940E947D0E8C017894C154DF4FFD
:1050A0008091F50981110CC00E940B080E942A050D
:1050B000F89490E080E0DF91CF911F910F910895D7
:1050C0000E9428050E9448058823D9F081E080933A
:1050D000F6099091F60981E0911180E08093F5093D
:1050E0008091F60981113FDE0130110529F40E94FB
:1050F0007D0E892B09F441DE0E947D0E8C013BDE82
:10510000CFCF0E9445058111E1CF81E098819111B7
:10511000DECF80E0DCCF5058BB27AA270ED00DC1D0
:10512000FED030F003D120F031F49F3F11F41EF493
:10513000F3C00EF4E095E7FBE9C0E92F0FD180F34F
:10514000BA17620773078407950718F071F49EF584
:1051500027C10EF4E0950B2EBA2FA02D0B01B9013B
:1051600090010C01CA01A0011124FF27591B99F0DD
:10517000593F50F4503E68F11A16F040A22F232FE9
:10518000342F4427585FF3CF469537952795A79539
:10519000F0405395C9F77EF41F16BA0B620B730BE0
:1051A000840BBAF09150A1F0FF0FBB1F661F771F51
:1051B000881FC2F70EC0BA0F621F731F841F48F406
:1051C000879577956795B795F7959E3F08F0B3CF8C
:1051D0009395880F08F09927EE0F97958795089576
:1051E00071D008F481E0089504D06894B111D9C059
:1051F0000895BCD088F09F5790F0B92F9927B751E8
:10520000A0F0D1F0660F771F881F991F1AF0BA958A
:10521000C9F712C0B13081F0C3D0B1E00895C0C069
:10522000672F782F8827B85F39F0B93FCCF3869580
:1052300077956795B395D9F73EF4909580957095DD
:1052400061957F4F8F4F9F4F0895E89409C097FB5A
:105250003EF490958095709561957F4F8F4F9F4F4D
:105260009923A9F0F92F96E9BB279395F695879591
:1052700077956795B795F111F8CFFAF4BB0F11F454
:1052800060FF1BC06F5F7F4F8F4F9F4F16C08823FB
:1052900011F096E911C0772321F09EE8872F762F31
:1052A00005C0662371F096E8862F70E060E02AF072
:1052B0009A95660F771F881FDAF7880F969587955E
:1052C00097F90895990F0008550FAA0BE0E8FEEF33
:1052D00016161706E807F907C0F012161306E407BA
:1052E000F50798F0621B730B840B950B39F40A26B3
:1052F00061F0232B242B252B21F408950A2609F491
:10530000A140A6958FEF811D811D089597F99F6794
:1053100080E870E060E008959FEF80EC089500243D
:105320000A941616170618060906089500240A940A
:1053300012161306140605060895092E0394000C90
:1053400011F4882352F0BB0F40F4BF2B11F460FF1F
:1053500004C06F5F7F4F8F4F9F4F089557FD905848
:10536000440F551F59F05F3F71F04795880F97FB29
:10537000991F61F09F3F79F08795089512161306E3
:105380001406551FF2CF4695F1DF08C01616170612
:105390001806991FF1CF8695710561050894089547
:1053A000E894BB2766277727CB0197F908958ADF12
:1053B00008F48FEF08950BD0C0CFB1DF28F0B6DF2F
:1053C00018F0952309F0A2CFA7CF1124EACFC6DFAA
:1053D000A0F3959FD1F3950F50E0551F629FF00108
:1053E000729FBB27F00DB11D639FAA27F00DB11D61
:1053F000AA1F649F6627B00DA11D661F829F2227EA
:10540000B00DA11D621F739FB00DA11D621F839F70
:10541000A00D611D221F749F3327A00D611D231F46
:10542000849F600D211D822F762F6A2F11249F5794
:1054300050408AF0E1F088234AF0EE0FFF1FBB1FB7
:10544000661F771F881F91505040A9F79E3F510556
:1054500070F05CCFA6CF5F3FECF3983EDCF386950F
:1054600077956795B795F795E7959F5FC1F7FE2B01
:10547000880F911D9695879597F908951F920F9221
:105480000FB60F9211242F933F938F939F93AF9357
:10549000BF938091450790914607A0914707B0912F
:1054A00048073091440723E0230F2D3758F5019624
:1054B000A11DB11D20934407809345079093460793
:1054C000A0934707B09348078091490790914A07F6
:1054D000A0914B07B0914C070196A11DB11D80937F
:1054E000490790934A07A0934B07B0934C07BF918D
:1054F000AF919F918F913F912F910F900FBE0F9081
:105500001F90189526E8230F0296A11DB11DD2CF3A
:105510003FB7F8948091490790914A07A0914B07B3
:10552000B0914C0726B5A89B05C02F3F19F00196F6
:10553000A11DB11D3FBFBA2FA92F982F8827BC01ED
:10554000CD01620F711D811D911D42E0660F771F15
:10555000881F991F4A95D1F708958F929F92AF9215
:10556000BF92CF92DF92EF92FF926B017C01D0DF6E
:105570004B015C01C114D104E104F104D9F0D2D58E
:10558000C7DF681979098A099B09683E734081055C
:10559000910580F321E0C21AD108E108F10888EEF4
:1055A000880E83E0981EA11CB11CC114D104E10433
:1055B000F10431F7FF90EF90DF90CF90BF90AF9064
:1055C0009F908F900895789484B5826084BD84B54F
:1055D000816084BD85B5826085BD85B5816085BDEE
:1055E000EEE6F0E0808181608083E1E8F0E0108207
:1055F000808182608083808181608083E0E8F0E048
:10560000808181608083E1EBF0E080818460808331
:10561000E0EBF0E0808181608083E1E9F0E080816F
:1056200082608083808181608083E0E9F0E0808116
:1056300081608083E1EAF0E0808182608083808104
:1056400081608083E0EAF0E0808181608083E1E234
:10565000F1E0808182608083808181608083E0E2EC
:10566000F1E0808181608083EAE7F0E080818460FE
:10567000808380818260808380818160808380815B
:10568000806880831092C1000895863308F08653A5
:1056900020917B00982F9870277F922B90937B000E
:1056A0002091410290E4299F900111248770822B60
:1056B00080937C0080917A00806480937A0080914E
:1056C0007A0086FDFCCF8091780090917900089552
:1056D0001F93CF93DF93182FEB0161E033D1209715
:1056E00031F460E0812FDF91CF911F9167C1CF3FEF
:1056F000D10511F461E0F6CFE12FF0E0EC51FF4F5E
:10570000E491E150E23108F0B2C0F0E08827E557BB
:10571000F44D8F4F3EC59D2BA52BAA2BB42BBE2B32
:10572000372CC82BD02BD82BE22BEC2BF62B052CAF
:105730000F2C372C192C232C2D2C84B5806884BD7C
:10574000C7BDDF91CF911F91089584B5806284BD5C
:10575000C8BDF7CF80918000806880938000D0938F
:105760008900C0938800EDCF809180008062809393
:105770008000D0938B00C0938A00E3CF809180009B
:10578000886080938000D0938D00C0938C00D9CF27
:105790008091B00080688093B000C093B300D1CFF7
:1057A0008091B00080628093B000C093B400C9CFF4
:1057B00080919000806880939000D0939900C0936E
:1057C0009800BFCF80919000806280939000D0932A
:1057D0009B00C0939A00B5CF809190008860809321
:1057E0009000D0939D00C0939C00ABCF8091A0000F
:1057F00080688093A0008091A0008F7B8093A000A0
:10580000D093A900C093A8009CCF8091A000806293
:105810008093A000D093AB00C093AA0092CF809158
:10582000A00088608093A000D093AD00C093AC002E
:1058300088CF80912001806880932001D093290136
:10584000C09328017ECF8091200180628093200147
:10585000D0932B01C0932A0174CF809120018860DE
:1058600080932001D0932D01C0932C016ACFC038C2
:10587000D1050CF03FCF35CF8150823108F059C0AF
:10588000E82FF0E08827E95BF34D8F4F82C4672C47
:105890006B2C592C5F2C632C992C6E2C742C782C2F
:1058A0007E2C822C862C8C2C902C992C942C9A2C2F
:1058B0009E2C809180008F77809380000895809146
:1058C00080008F7DF9CF80918000877FF5CF84B5F0
:1058D0008F7784BD089584B58F7DFBCF8091B00014
:1058E0008F778093B00008958091B0008F7DF9CFBD
:1058F000809190008F778093900008958091900020
:105900008F7DF9CF80919000877FF5CF8091A000A7
:105910008F778093A00008958091A0008F7DF9CFAC
:105920008091A000877FF5CF809120018F778093B1
:1059300020010895809120018F7DF9CF8091200171
:10594000877FF5CFCF93DF9390E0FC01E65DFE4FBC
:10595000249180599E4FFC0184918823C9F090E0E6
:10596000880F991FFC01E053FE4FA591B491FC01F3
:10597000EA54FE4FC591D49161110DC09FB7F894C0
:105980008C91209582238C938881282328839FBF24
:10599000DF91CF910895623051F49FB7F8943C9114
:1059A000822F809583238C93E8812E2BEFCF8FB7A6
:1059B000F894EC912E2B2C938FBFEACF1F93CF93AB
:1059C000DF93282F30E0F901EC51FF4F8491F9016A
:1059D000E65DFE4FD491F901E059FE4FC491CC230E
:1059E000A1F0162F811148DFEC2FF0E0EE0FFF1F22
:1059F000EA54FE4FA591B4918FB7F894EC91111130
:105A000008C0D095DE23DC938FBFDF91CF911F912B
:105A10000895DE2BF8CFFC01918D228D892F90E027
:105A2000805C9F4F821B91098F7399270895FC0119
:105A3000918D828D981731F0828DE80FF11D858D43
:105A400090E008958FEF9FEF0895FC01918D828D76
:105A5000981761F0A28DAE0FBF2FB11D5D968C918E
:105A6000928D9F5F9F73928F90E008958FEF9FEFCD
:105A70000895FC01538D448D252F30E0842F90E054
:105A8000821B930B541710F0CF9608950197089539
:105A9000FC01A48DA80FB92FB11DA35ABF4F2C91A3
:105AA000848D90E001968F739927848FA689B7899A
:105AB0002C93A089B1898C91837080648C93938D91
:105AC000848D981306C00288F389E02D80818F7D34
:105AD00080830895CF93DF93EC01888D8823B1F004
