:10000000F8C0000027C1000025C1000023C1000086
:1000100021C100001FC100001DC100001BC1000064
:1000200019C1000017C1000015C1000013C1000074
:1000300011C100000FC100000DC100000BC1000084
:1000400009C1000007C1000005C1000003C1000094
:1000500001C10000FFC00000FDC000000C94A42CF2
:10006000F9C000000C949B300C94D130F3C0000018
:10007000F1C00000EFC00000EDC00000EBC00000C8
:10008000E9C00000E7C00000E5C00000E3C00000D8
:100090000C9427310C945D31DDC00000DBC0000002
:1000A000D9C00000D7C00000D5C00000D3C00000F8
:1000B000D1C00000CFC00000CDC00000CBC0000008
:1000C000C9C00000C7C000000C9474290C94B3315F
:1000D0000C94E931BFC000000C943F320C9475328F
:1000E000B9C0000000000A0B02090C0D0E0807033E
:1000F00004010000000000000000000000000000FB
:1001000000000000000000000000000000000000EF
:1001100012111000000000000000000000000000AC
:100120000000000000000000000001021020200874
:100130000810204010204080020102010804020142
:1001400001020408102040808040201008040201B1
:10015000800402018040201008040201080402010A
:100160000102040810204080010204081020408091
:1001700005050505070508080808020202020A0A23
:100180000808040404040101010101010101030341
:10019000030303030303040707070C0C0C0C0C0CEC
:1001A0000C0C0202020206060606060606060B0BE9
:1001B0000B0B0B0B0B0B00002200250028002B0063
:1001C0002E003100340002010000050108010B017E
:1001D00000002100240027002A002D0030003300F9
:1001E00001010000040107010A01FA3086311232D0
:1001F0009E3211241FBECFEFD1E2DEBFCDBF00E0A3
:100200000CBF12E0A0E0B2E0E2EEF6E600E00BBFC9
:1002100002C007900D92AC3FB107D9F729E0ACEFCF
:10022000B2E001C01D92AC37B207E1F710E0C9EFB0
:10023000D0E000E006C021970109802FFE010E9456
:100240003E33C53FD10780E00807A9F70E94612A25
:100250000C946F33D5CECF93DF93882349F0EB0115
:1002600081500E94AB2D99838883DF91CF910895AF
:10027000FB0111821082F9CF0F931F938B019C0118
:1002800083E036952795179507958A95D1F70B5FEB
:100290001C4F462F477021E030E0F90102C0EE0FFD
:1002A000FF1F4A95E2F7AF01F80120812423CB011B
:1002B0000196211102C090E080E01F910F910895F6
:1002C0000F931F938B019C0183E03695279517951B
:1002D00007958A95D1F7677081E090E001C0880F9B
:1002E0006A95EAF7F801EB5FFC4F2081452B31F46A
:1002F0008095822380831F910F910895822BFACFDE
:10030000CF92DF92EF92FF92CF93DF936B017C014C
:1003100060E086E3C816D104E104F10490F486E3BA
:100320008C0D0E94082FE6012196AE01C701B6018F
:10033000C7DFCE01DF91CF91FF90EF90DF90CF909C
:1003400008958C2DEECF882341F08150682F70E006
:1003500090E080E050E040E0B3CF0895CF92DF928C
:10036000EF92FF92CF93882351F16A017B01CFEF87
:10037000C80F20E030E0A901CB01B6010E94562B46
:1003800018168CF0C701B60190580E945F2B9B0194
:10039000AC016C2F70E090E080E0CF91FF90EF9087
:1003A000DF90CF90B2C0C701B6010E945A2B8C2FAC
:1003B000CF91FF90EF90DF90CF900C94CE2DCF9106
:1003C000FF90EF90DF90CF9008950F931F938B01D4
:1003D0009C0183E036952795179507958A95D1F767
:1003E00004501D4F462F477021E030E0F90102C054
:1003F000EE0FFF1F4A95E2F7AF01F8012081242399
:10040000CB010196211102C090E080E01F910F9175
:1004100008950F931F938B019C0183E036952795D8
:10042000179507958A95D1F7677081E090E001C034
:10043000880F6A95EAF7F801E450FD4F2081452BBB
:1004400031F48095822380831F910F910895822B30
:10045000FACF2F923F924F925F926F927F928F923C
:100460009F92AF92BF92CF92DF92EF92FF920F9343
:100470001F93CF93DF93D62EC72E782E692E490176
:100480005A01280161E08D2D0E94082FCD2DDC2D11
:100490008E010F5F1F4FA8016D2D7C2D872D962D8E
:1004A000B8DF20E030E0A901C201B7010E943D2C75
:1004B000181664F4C201B7010E945F2B2B01C5011D
:1004C000B4010E945F2BA201CE0123D0C801DF91AD
:1004D000CF911F910F91FF90EF90DF90CF90BF9041
:1004E000AF909F908F907F906F905F904F903F90D4
:1004F0002F900895882341F08150682F70E090E09C
:1005000080E050E040E085CF0895862FB9010C943B
:10051000CE2D9C01FC01EC51FF4FE491E150E23102
:10052000E0F4F0E08827E856FD4F8F4F0C943E33FF
:10053000AA02B102B402CB02E002AD02F50201034D
:1005400005031C03310346035D037203AD028703F9
:100550009E03B30384B5806884BD60E0822F0C9451
:10056000442F84B58062F8CF809180008C7F8260B8
:100570008093800080918100807E8061682B6093F1
:1005800081005093870040938600809180008068AE
:1005900080938000E2CF809180008C7F8260809386
:1005A000800080918100807E8061682B6093810053
:1005B0005093870040938600809180008062E8CF4E
:1005C000809180008C7F8260809380008091810088
:1005D000807E8061682B60938100509387004093F8
:1005E0008600809180008860D3CF8091B0008068C1
:1005F0008093B0008091B100887F682B6093B10038
:10060000ACCF8091B0008062F3CF809190008C7F5E
:1006100082608093900080919100807E8061682B41
:1006200060939100509397004093960080919000C2
:1006300080688093900091CF809190008C7F826041
:100640008093900080919100807E8061682B609300
:1006500091005093970040939600809190008062A3
:10066000E8CF809190008C7F826080939000809191
:100670009100807E8061682B609391005093970079
:1006800040939600809190008860D3CF8091A00025
:100690008C7F82608093A0008091A100807E806129
:1006A000682B6093A1005093A7004093A60080910F
:1006B000A00080688093A00050CF8091A0008C7F24
:1006C00082608093A0008091A100807E8061682B71
:1006D0006093A1005093A7004093A6008091A000D2
:1006E0008062E8CF8091A0008C7F82608093A00020
:1006F0008091A100807E8061682B6093A10050935F
:10070000A7004093A6008091A0008860D3CF80917D
:1007100020018C7F82608093200180912101807E66
:100720008061682B6093210150932701409326013B
:10073000809120018068809320010FCF809120015B
:100740008C7F82608093200180912101807E806176
:10075000682B6093210150932701409326018091DB
:1007600020018062E8CF809120018C7F826080939D
:10077000200180912101807E8061682B609321019E
:100780005093270140932601809120018860D3CFA8
:1007900090E080E008950F931F93009709F489C0BB
:1007A0006115710509F485C000913A0210913B0270
:1007B00020913C0230913D020E3F1F4F2F4F3F4F83
:1007C00009F068C04FEF5FEFBA0140933A025093CF
:1007D0003B0260933C0270933D0240913A0250917B
:1007E0003B0260913C0270913D02DC011296ED915A
:1007F000FC9180819181A281B38180933F04909389
:100800004004A0934104B093420484819581A68161
:10081000B78180933B0490933C04A0933D04B09334
:100820003E0480859185A285B3858093370490939B
:100830003804A0933904B0933A0484859585A6853D
:10084000B7858093330490933404A0933504B09318
:10085000360410922F04109230041092310410923A
:1008600032040E945B0D80E89DE090930F0380931B
:100870000E0390931103809310030E944A0C00977B
:1008800031F421E030E030934404209343041F917D
:100890000F91089500913A0210913B0220913C0281
:1008A00030913D02DB010D931D932D933C931397E3
:1008B00094CF8FEF9FEFEBCF8F929F92AF92BF922B
:1008C000CF92DF92EF92FF921F93CF93DF934B0172
:1008D0005C011091460482E090E090934404809380
:1008E000430481149104A104B10441F480914604AD
:1008F000811104C080914504C1E08111C0E0C12C88
:10090000D12C760180914604811106C08091450466
:10091000811102C0CC23D9F083E090E0909344048D
:1009200080934304CC2379F1CCE9DFEF111102C0AD
:100930000E94E510CE01DF91CF911F91FF90EF90C3
:10094000DF90CF90BF90AF909F908F9008956AE016
:1009500070E080E090E00E94132D80E1C80E87E2F5
:10096000D81EE11CF11C8FEF88169806A806B80661
:1009700031F0C1E08C149D04AE04BF0408F0C0E067
:1009800080E0BCD7BFCFD0E0C0E0D0CFCF92DF9225
:10099000EF92FF920F931F93CF93DF938F3F9105B9
:1009A00011F008F050C020914304309144042330EA
:1009B000310539F020914304309144042130310550
:1009C00031F424E030E030934404209343046A017E
:1009D0007B01EC0182309105A0F011E0AE01C7016E
:1009E000B60157D7AB01BC01CE011123F9F0DF915D
:1009F000CF911F910F91FF90EF90DF90CF900C94CB
:100A00000E138C01000F111F025F1C4FD8018D9136
:100A10009C91892B11F30E9418130297F1F6D801CB
:100A2000ED91FC91CE011995182FD8CF0E9430136B
:100A300090E080E0DF91CF911F910F91FF90EF90B8
:100A4000DF90CF9008958FEF9FEFF4CF80E056C7EF
:100A5000CF93DF9386E090E0909344048093430427
:100A6000A6D7EC01EEE0F3E084E0DF011D928A9569
:100A7000E9F70E947D101092440410924304CE01C5
:100A8000DF91CF91089580914504089580912E04BF
:100A9000089560933A0270933B0280933C029093D6
:100AA0003D0290E080E00895CF93DF93C091B203C0
:100AB000D091B3032091760930917709409178095C
:100AC00050917909609118027091190280911A026F
:100AD00090911B020E94412C20916E0930916F0968
:100AE00040917009509171090E94F22A68837983BC
:100AF0008A839B83DF91CF9108952F923F924F92EB
:100B00005F926F927F928F929F92AF92BF92CF929D
:100B1000DF92EF92FF920F931F93CF93DF93CDB7A6
:100B2000DEB762970FB6F894DEBF0FBECDBF8091DF
:100B30000504909106048130910509F0C9C08091A7
:100B4000E9039091EA03A091EB03B091EC0380904C
:100B5000F1039090F203A090F303B090F403C090DF
:100B6000ED03D090EE03E090EF03F090F0038F3FA1
:100B70002FEF9207A207B20709F087C0C701B6019D
:100B80006F5F7F4F8F4F9F4F0E948B2BA50194016A
:100B90000E94412C20E030E040E85FE40E94412CBC
:100BA0006093340370933503809336039093370337
:100BB000C0900002D0900102E0900202F090030287
:100BC000A7019601609151097091520980915309D2
:100BD000909154090E94562B811104C166E370E084
:100BE00080E090E049DB9093500980934F0943E007
:100BF00050E0BE016F5F7F4F2EDB209138023091B5
:100C00003902A981BA810E944633609372097093B8
:100C1000730980937409909375090E948B2B20E0CF
:100C200030E040E057E30E94412C209104023091D3
:100C3000050240910602509107020E94F12A6B01C1
:100C40007C01AC019B0160910802709109028091C6
:100C50000A0290910B020E94562B18160CF0CBC082
:100C6000A701960160910C0270910D0280910E0215
:100C700090910F020E943D2C87FF05C081E090916A
:100C80005D099111B9C080E0B7C0BC01CD016F5FB3
:100C90007F4F8F4F9F4F0E948B2BA50194010E9485
:100CA000412C2B013C01C701B6010E948B2BA501F1
:100CB00094010E94412C20E030E040E85FE40E9473
:100CC000412C9B01AC01C301B2010E94F22A68CF02
:100CD000892B99F4E0916403F09165030190F08110
:100CE000E02D80819181A281B381E0910804F0918F
:100CF000090480839183A283B38320917609309184
:100D00007709409178095091790960911C0270919E
:100D10001D0280911E0290911F020E94412C20E032
:100D200030E0A9010E94F22A609366097093670976
:100D30008093680990936909A0910504B091060415
:100D4000BC87AB8720912002309121024091220282
:100D5000509123020E94F22A60936A0970936B09F2
:100D600080936C0990936D09E0912A03F0912B0315
:100D7000208131812130310529F02091A5032223E2
:100D800009F48FC02091240230912502409126025F
:100D9000509127020E94F12A6B017C01AC019B015A
:100DA000609128027091290280912A0290912B0271
:100DB0000E94562B18160CF071C0A7019601609185
:100DC0002C0270912D0280912E0290912F020E9490
:100DD0003D2C87FF05C081E090915E0991115FC0B5
:100DE00080E05DC0C0925109D0925209E09253094F
:100DF000F0925409F3CE81E080935D098823D1F10C
:100E00008091100290911102A0911202B0911302F0
:100E10008093620990936309A0936409B093650974
:100E20006AE070E080E090E0D0DA8C0190935C0999
:100E300080935B09C0906209D0906309E0906409D7
:100E4000F090650920E030E04FE753E4C701B601B8
:100E50000E94562B1816BCF020E030E0A901C70113
:100E6000B6010E943D2C87FD15C0B701A601C8013F
:100E700075DA43CF8091140290911502A091160269
:100E8000B0911702C5CFC12CD12C8FE7E82E83E497
:100E9000F82EEBCFC12CD12C7601E7CF81E08093E7
:100EA0005E0980915E09882309F442C28091300274
:100EB00090913102A0913202B091330280936E0979
:100EC00090936F09A0937009B0937109EB85FC852D
:100ED000319709F014C26091ED037091EE03809197
:100EE000EF039091F0030E948B2B20E030E040E86C
:100EF0005FE40E94412C6B017C016091E9037091D9
:100F0000EA038091EB039091EC030E948B2B9B01F1
:100F1000AC01C701B6010E94F22A20E030E0A9012D
:100F20000E94F22A0E945F2BAB01BC0190E080E09E
:100F30002DDD8091050490910604019709F0DFC131
:100F40006091F9037091FA038091FB039091FC0387
:100F50000E948B2B20E030E040E85FE40E94412CAF
:100F60006B017C016091F5037091F6038091F703AA
:100F70009091F8030E948B2B9B01AC01C701B60135
:100F80000E94F22A20E030E0A9010E94F22A0E9489
:100F90005F2BAB01BC0181E090E0F8DC809105049F
:100FA00090910604019709F0AAC1E0916403F091C1
:100FB00065030190F081E02D408051806280738054
:100FC0008091340390913503A0913603B09137039B
:100FD0008F87988BA98BBA8BE0913803F0913903F6
:100FE000C080D180E280F380E0916803F0916903D2
:100FF00000811181E0912C03F0912D03A081B1813A
:10100000B887AF8322803380248135813A8729874E
:10101000868197819E878D87E0912A03F0912B032B
:101020001182108284E0F80101900D928A95E1F717
:10103000E0916203F09163033182208235DD20E08C
:1010400030E040E05FE3C701B6010E94412C4B0154
:101050005C01D1012D913D914D915C910E94412CFB
:10106000EF81F88520813181428153810E94F22AEB
:10107000D8016D937D938D939C931397E0916403B6
:10108000F0916503208131813C832B83A50194017C
:10109000C301B2010E94F22AAB81BC816D937D93A2
:1010A0008D939C931397E0916203F09163032985DC
:1010B0003A853183208321DDF7DC20E030E040E415
:1010C0005FE3C701B6010E94412C4B015C0120E0A7
:1010D00030E0A901C701B6010E94412CD1012D9138
:1010E0003D914D915C910E94412C6B837C838D835B
:1010F0009E83E985FA852081318142815381C50132
:10110000B4010E94412C9B01AC016B817C818D81DB
:101110009E810E94F22AAF81B8852D913D914D911B
:101120005C910E94F22AF801608371838283938329
:10113000E0916403F0916503208131813C832B832E
:10114000A5019401C301B2010E94F22AAB81BC81C6
:101150006D937D938D939C931397E0916203F0912F
:1011600063032D853E8531832083C7DC9DDC29E325
:101170003EE843E65EE3C701B6010E94412CD1017F
:101180002D913D914D915C910E94412C4B015C0150
:101190002BEA3AEA4AEA5EE3C701B6010E94412C13
:1011A000E985FA8520813181428153810E94412C59
:1011B0009B01AC01C501B4010E94F22A4B015C0104
:1011C00029E33EE843EE5EE3C701B6010E94412CED
:1011D000AD85BE852D913D914D915C910E94412C34
:1011E0009B01AC01C501B4010E94F22AEF81F88590
:1011F00020813181428153810E94F22AD8016D936E
:101200007D938D939C931397E0916403F091650314
:101210000190F081E02D8F859889A989BA89808312
:101220009183A283B383E0912A03F0912B03AB85D2
:10123000BC85B183A0838091E9039091EA03A091DA
:10124000EB03B091EC030196A11DB11D8093E9035E
:101250009093EA03A093EB03B093EC03892B8A2BC2
:101260008B2B99F48091ED039091EE03A091EF0305
:10127000B091F0030196A11DB11D8093ED039093F1
:10128000EE03A093EF03B093F003809134039091A9
:101290003503A0913603B0913703E0910804F09133
:1012A000090480839183A283B3838091F503909195
:1012B000F603A091F703B091F8030196A11DB11DAB
:1012C0008093F5039093F603A093F703B093F8038C
:1012D000892B8A2B8B2B99F48091F9039091FA0337
:1012E000A091FB03B091FC030196A11DB11D809359
:1012F000F9039093FA03A093FB03B093FC03629667
:101300000FB6F894DEBF0FBECDBFDF91CF911F9116
:101310000F91FF90EF90DF90CF90BF90AF909F9094
:101320008F907F906F905F904F903F902F90089597
:101330008091340290913502A0913602B09137022B
:10134000BDCD8F929F92AF92BF92CF92DF92EF92DC
:10135000FF920F931F93CF93DF93E4E2F3E08EEEBF
:10136000DF011D928A95E9F725E034E03783268373
:1013700088E094E0909365038093640301EF13E0A9
:10138000158B048B42EB53E057AF46AFCCEAD3E06A
:10139000D0936903C093680341EE53E05093670311
:1013A0004093660343EE53E050936B0340936A030C
:1013B0004EEA53E050936D0340936C0340EB53E0CF
:1013C00050936F0340936E0364EB73E07093AB0331
:1013D0006093AA03F0938F03E0938E03F583E48375
:1013E00041E050E0D9014D935C9349EC53E029EB87
:1013F00033E0DA012D933C932DEB33E03093CC03B3
:101400002093CB0321EC33E03093CE032093CD0324
:1014100025EC33E03093D0032093CF0326E739E067
:1014200039832883A1E6CA2EA9E0DA2EEB01D982FE
:10143000C8825187408744E652E0538742874AE09A
:1014400054E0DC014D935C93812C912CB0E8AB2EE1
:10145000BFEBBB2E8092010490920204A092030481
:10146000B0920404CDEC8C2ECCEC9C2ECCE4AC2EB3
:10147000CEE3BC2EE80188829982AA82BB8261ED0C
:1014800073E08CEF9DEFADE1B8E5EB0188839983C4
:10149000AA83BB8381E393E7A9EFB4E68093D503E6
:1014A0009093D603A093D703B093D80382EB99E629
:1014B000A7E0BBEA8093D9039093DA03A093DB0300
:1014C000B093DC0385EB92EFA2ECB5EA8093DD03E9
:1014D0009093DE03A093DF03B093E003A8E1B3E0B1
:1014E000B383A283E2E1F3E01196FC93EE9389E6E5
:1014F00092E091838083938382839583848387EEB4
:1015000093E015969C938E93149713967C936E9309
:10151000129717965C934E931697E2E6F9E084E1F2
:10152000DF011D928A95E9F784E0E90119928A9515
:10153000E9F7F6011082C9E4D9E088E1DE011D92E5
:101540008A95E9F7DD24D394DF8A80910002909197
:101550000102A0910202B091030288879987AA87AD
:10156000BB87812C912C5401839489829A82AB820F
:10157000BC8266E370E080E090E00E9480019F837F
:101580008E83DD821C86DE8A8D869E86AF86B88A33
:10159000E12CF12C8701A80197016AE070E080E05E
:1015A00090E00E9429029B8B8A8BD98AE09276096F
:1015B000F09277090093780910937909DF91CF9120
:1015C0001F910F91FF90EF90DF90CF90BF90AF9061
:1015D0009F908F9008958091490981111FC081E0EB
:1015E0008093490980914A0990914B09A0914C0937
:1015F000B0914D090197A105B10581F480914E0983
:10160000882361F066E370E080E090E00E943C0196
:101610009093500980934F090E94A301809155092E
:1016200081112EC081E080935509809156099091D7
:101630005709A0915809B09159090197A105B10521
:10164000F9F480915A098823D9F06AE070E080E0CB
:1016500090E00E94E50190935C0980935B0940E073
:1016600050E0BA010E94AE016AE070E080E090E0D4
:101670000E94E50190935C0980935B090C947A02C7
:1016800008954F925F926F927F928F929F92AF9246
:10169000BF92CF92DF92EF92FF920F931F93F89435
:1016A00040901E0450901F0460902004709021040C
:1016B000C0901204D0901304E0901404F09015042C
:1016C0004130510509F0A6C09B01AC012419350930
:1016D0004609570929013A0100911A0410911B0487
:1016E00020911C0430911D0448015901840C951C63
:1016F000A61CB71C80169106A206B306A0F40091A2
:1017000016041091170420911804309119040F5FEA
:101710001F4F2F4F3F4F0093160410931704209331
:1017200018043093190480921A0490921B04A0921A
:101730001C04B0921D04009116041091170420910E
:101740001804309119048092220490922304A092EC
:101750002404B092250400932604109327042093B8
:1017600028043093290460931E0470931F0480930F
:10177000200490932104A301920160E47DE083E0C2
:1017800090E00E94F9326C0D7D1D8E1D9F1D6093AF
:101790001204709313048093140490931504009121
:1017A0003A0210913B0220913C0230913D020F3FE2
:1017B0001F4F2F4F3F4FF1F000913A0210913B0223
:1017C00020913C0230913D020E3F1F4F2F4F3F4F63
:1017D00089F0C0903A02D0903B02E0903C02F09039
:1017E0003D0221E08C149D04AE04BF0408F420E007
:1017F00020932E0478941F910F91FF90EF90DF902B
:10180000CF90BF90AF909F908F907F906F905F90A0
:101810004F9008954B015C0184189508A608B708FD
:10182000A3019201261B370B480B590B6415750554
:1018300086059705E0F082169306A406B50640F4E7
:1018400020E030E0A90181149104A104B104A1F4C5
:1018500060E47DE083E090E00E94F932A701960108
:10186000261B370B480B590BCA01B901C3CF82168F
:101870009306A406B50660F7A501940160E47DE037
:1018800083E090E00E94F9326C0D7D1D8E1D9F1D3E
:10189000B1CFF7CECF93DF9300D01F92CDB7DEB795
:1018A0001C821B821A82198210922A0410922B0425
:1018B00010922C0410922D04BE016F5F7F4FCE0159
:1018C00003960E94452969817A818B819C810E94BF
:1018D0003522009761F4BE016F5F7F4FCE01039602
:1018E0000E94512969817A818B819C812FD50F902B
:1018F0000F900F900F90DF91CF910895FF920F936B
:101900001F93CF93DF93082F60E070E0CB010E941C
:10191000132DFF24F3940E941E21EC01892B89F0E2
:1019200010E0CE3F8FEFD80769F0002361F160E04F
:1019300070E0CB010E94132D81E090E0892B59F3D8
:1019400022C011E026D5EC01892B21F0CE3F8FEF8C
:10195000D80759F711111EC011E0229609F410E0C2
:101960000E94CE20EC01892B21F0CE3F8FEFD807CB
:10197000E1F6111111C011E0CE3F8FEFD80709F445
:1019800010E001110BC0CE01DF91CF911F910F919B
:10199000FF90089511E0E4CF11E0F3CF60E070E034
:1019A000CB010E94132D1F25812F90E0C7CFCF932D
:1019B000DF9380912E04882321F060E070E0CB015A
:1019C0004DD636D6D0E0C0E0892B71F06AE070E0E9
:1019D00080E090E00E94132D81E090DF29D62196CF
:1019E000C03D27E0D20781F728D60E9489221092B5
:1019F00046041092450410923F0410924004109245
:101A000041041092420410923B0410923C04109244
:101A10003D0410923E041092370410923804109244
:101A2000390410923A041092330410923404109244
:101A300035041092360410922F0410923004109244
:101A40003104109232044EEF5FEF6FEF7FEF40935F
:101A50003A0250933B0260933C0270933D02109215
:101A60002E04E2E2F4E028E0DF011D922A95E9F776
:101A700010921E0410921F04109220041092210450
:101A800010921A0410921B0410921C0410921D0450
:101A90001092160410921704109218041092190450
:101AA0001092120410921304109214041092150450
:101AB000DF91CF9108951092520410925304109226
:101AC0005404109255041092510480915A0490913C
:101AD0005B049093500480934F0410924E04109234
:101AE0004D041092490410924A0410924B04109233
:101AF0004C04109257041092560490E080E0089530
:101B0000CF92DF92EF92FF920F931F93CF938C01AE
:101B1000019709F055C020915A0430915B048091DF
:101B20004F049091500440915A0450915B0450939B
:101B3000500440934F042817390781F010924E0447
:101B400010924D041092490410924A0410924B04D2
:101B500010924C04109257041092560480915A042B
:101B600090915B04019761F5809156049091570420
:101B7000892B21F480913E02811112C0809156047C
:101B8000909157040197E1F48091490490914A049F
:101B9000A0914B04B0914C040197A105B10581F4CB
:101BA0001092490410924A0410924B0410924C0473
:101BB00010923E0282E090E0909357048093560486
:101BC00080915A0490915B04019709F01CC18091A7
:101BD0007004909171048017910709F014C18091ED
:101BE0006C0490916D04A0916E04B0916F04009705
:101BF00009F409C120916B0421110DC040916C04BE
:101C000050916D0460916E0470916F04452B462BCA
:101C1000472B09F4F8C02091560430915704223024
:101C2000310509F0F0C020914D042111ECC0FC01F8
:101C3000C080D180E280F38080915104882309F430
:101C4000D3C080915D0490915E04892B09F4FEC09D
:101C500020915D0430915E0481E02230310509F06D
:101C600080E020915D0430915E04C1E021303105B7
:101C700049F020915D0430915E04C1E022303105CD
:101C800009F0C0E0882309F456C020916704309120
:101C900068044091690450916A04C701B6010E942A
:101CA0003D2C87FD14C02091670430916804409159
:101CB000690450916A0460915204709153048091B8
:101CC0005404909155040E94562B87FD22C0209108
:101CD0006704309168044091690450916A04C70117
:101CE000B6010E943D2C181634F5209167043091FE
:101CF00068044091690450916A04609152047091A3
:101D0000530480915404909155040E94562B8111E4
:101D100012C080915F0490916004A0916104B09121
:101D20006204892B8A2B8B2B19F481E080934E045B
:101D300081E080934D04CC2309F456C020916704C0
:101D4000309168044091690450916A04C701B6015A
:101D50000E94562B87FF14C02091670430916804BD
:101D60004091690450916A04609152047091530447
:101D700080915404909155040E943D2C87FF22C00D
:101D800020916704309168044091690450916A047D
:101D9000C701B6010E94562B811126C0209167040D
:101DA000309168044091690450916A046091520432
:101DB0007091530480915404909155040E943D2CDD
:101DC000181694F480915F0490916004A0916104CE
:101DD000B0916204892B8A2B8B2B19F481E08093BC
:101DE0004E0481E080934D0481E090914D04911167
:101DF00080E080935104C0925204D0925304E09248
:101E00005404F09255040130110509F067C1809126
:101E1000560490915704892BD9F410925C041092C7
:101E20004D0480913E02882379F082E090E0909307
:101E300057048093560410923E0220915A04309128
:101E40005B0481E0232BE9F080E01BC081E009CF37
:101E500010923E0280915C04882349F010924E0457
:101E6000109257041092560410925C04EDCF8091AA
:101E70005A0490915B04892BE1F080914D041092FB
:101E80004D0420915604309157042230310509F455
:101E90005EC088F42115310509F448C021303105B0
:101EA00009F4F3C010924E0410924D0410925C0499
:101EB00038C081E0E6CF2330310509F4B1C02430C9
:101EC000310581F74091490450914A0460914B04D7
:101ED00070914C04411551056105710561F0415047
:101EE0005109610971094093490450934A04609370
:101EF0004B0470934C044091490450914A04609102
:101F00004B0470914C04452B462B472BD9F4209160
:101F10005804309159042130310509F046C010921F
:101F20004E0410925704109256040CC080913E0249
:101F3000882341F082E090E0909357048093560408
:101F400010923E021092470480914E04CEC0882326
:101F5000C9F380915F0490916004A0916104B091F5
:101F60006204181619061A061B060CF07DC0809133
:101F70005A0490915B04019709F076C080915F0448
:101F800090916004A0916104B0916204809349042F
:101F900090934A04A0934B04B0934C0483E090E0E8
:101FA0009093570480935604CDCF40916304509191
:101FB00064046091650470916604452B462B472BA1
:101FC000A9F010924E048091630490916404A09152
:101FD0006504B09166048093490490934A04A093E9
:101FE0004B04B0934C0481E090E0DACF882399F061
:101FF00080913F0290914002A0914102B091420233
:102000008093490490934A04A0934B04B0934C04EA
:1020100084E090E0C5CF10924E0482E090E0C0CF03
:102020008091490490914A04A0914B04B0914C04D2
:102030000097A105B10559F00197A109B109809355
:10204000490490934A04A0934B04B0934C048091AC
:10205000490490914A04A0914B04B0914C04892BFF
:102060008A2B8B2B09F06ECF80913F02909140021A
:10207000A0914102B0914202892B8A2B8B2B09F44B
:102080004ECF81E080934E04B3CF409149045091EC
:102090004A0460914B0470914C044115510561054F
:1020A000710561F04150510961097109409349047A
:1020B00050934A0460934B0470934C04409149043C
:1020C00050914A0460914B0470914C04452B462B6F
:1020D000472B09F037CF8111C7CF9FCF809147049D
:1020E000882309F431CF80914804CF911F910F913B
:1020F000FF90EF90DF90CF900895109252041092CD
:1021000053041092540410925504109251041092EA
:102110005704109256041092500410924F041092DB
:1021200071041092700410924E0410924D0410929B
:10213000490410924A0410924B0410924C041092DD
:1021400048041092470410926C0410926D0410928F
:102150006E0410926F0410926B0410926704109238
:1021600068041092690410926A0488EE93E0A0E07B
:10217000B0E080933F0290934002A0934102B0935D
:10218000420210926304109264041092650410924B
:10219000660410925F041092600410926104109221
:1021A000620410925E0410925D0481E080933E020E
:1021B00010925C0410925B0410925A04109259041D
:1021C0001092580490E080E0089580915A04909114
:1021D0005B04892B19F580913E02882351F0809190
:1021E0005C04811106C081E0809348048093470419
:1021F000089520915C0430913E0281E090E0332309
:1022000011F090E080E030E082239323892B21F0CD
:102210001092480481E0EACF10924704089582E0CA
:1022200090E0FA01918380838FEF9FEF0895CF9321
:10223000DF93EA01009711F00E94A9231982188206
:1022400090E080E0DF91CF910895DB01009719F4D1
:102250008FEF8C9308952EEF2C93FC013F96EF3077
:10226000F10508F034C08827E75CFE4E8F4F0C94D0
:102270003E336511631161115F115D1159115B11DD
:1022800057115511531150114C1148114E1167112E
:1022900080E311968C93089589E2FBCF82E2F9CF17
:1022A00011961C92089583E2F4CF81E2F2CF81E18E
:1022B000F0CF87E2EECF8AE2ECCF80E1EACF84E292
:1022C000E8CF88E2E6CF86E2E4CF81E3E2CF80E2A6
:1022D000E0CF80917E0490917F04089590937F04D5
:1022E00080937E04089580917D04089590917D04EB
:1022F000892B80937D040895982F909580917D047B
:10230000892380937D04089580917C0408958091B1
:102310007A0490917B0408956115710559F0FB01D1
:1023200030E020E070E060E02417350719F0611517
:10233000710511F0CB010895A081B181A817B907EB
:1023400009F4BF012F5F3F4F3696EECF8091800496
:1023500081111CC060D266D2909373048093720482
:102360000E94A71B0E94B91B909377048093760468
:102370000E9436200E943D2090937504809374043F
:1023800081E08093800490E080E0089584EF9FEFE7
:1023900008958F929F92AF92BF92CF92DF92EF9269
:1023A000FF920F931F93CF93DF9300D000D000D004
:1023B0001F92CDB7DEB71A86198618861F821E8235
:1023C0001D821C821B821A8219828091800407EF71
:1023D0001FEF882309F49CC08E010D5F1F4F9E01E3
:1023E0002B5F3F4FAE01495F5F4FBE01675F7F4F7D
:1023F00090E080E00E94BA218C01009721F00596C0
:10240000029708F0DBC029853A852115310509F4CA
:1024100002C1ED80FE804B815C81B701640F751FA6
:102420008F8198858617970708F4F5C0E20EF31E92
:10243000D7019C91903C09F07FC04230510508F4CF
:102440007BC011968C9140917E0450917F04452B66
:1024500009F49CC0913F08F071C02CE1290F2D3088
:1024600008F48BC02DE2290F203108F489C0903C7C
:1024700021F48150823008F483C088E3890F8B30C7
:1024800008F481C095E2C92E91E1D92EEFE0F1E187
:102490006D817E81AE014F5F5F4F89859A85199569
:1024A0005C01C114D104A1F189809A808114910446
:1024B00079F18B819C818815990508F487C010E01B
:1024C00000E04B815C8170E060E0C7010E946833EE
:1024D00001151105E9F449815A8169857A858D8153
:1024E0009E81680F791FC501F6011995E980FA8070
:1024F0000D811E812F81388549855A856FEF7FEFC9
:1025000081E090E00E9455218C01892B09F056C092
:10251000C8012A960FB6F894DEBF0FBECDBFDF917B
:10252000CF911F910F91FF90EF90DF90CF90BF90D0
:10253000AF909F908F90089580E085CF30E020E0AD
:10254000220F331FF901EE58FB4F0190F081E02D6F
:10255000309709F497CF892F90E01995009709F4E7
:1025600091CFDC011296ED91FC9113971496CD90CA
:10257000DC90309709F08CCF1FC021E030E0E0CF35
:1025800022E030E0DDCF23E030E0DACFD12CC12CE7
:10259000E7E1F1E19F3F09F07BCFE0917204F09118
:1025A0007304309721F4C90104EF1FEF0CC08FEFC3
:1025B00090E019950097A9F604EF1FEF89859A8599
:1025C000009709F4A5CF0E94A923A2CF0E948422DC
:1025D0008C0189859A850E94A92370E060E0C4017E
:1025E0000E941D2298878F830E9452219E838D8393
:1025F0006F8178856115710559F0C8010E943525F4
:102600009A87898706EF1FEF892B09F058CF59CF9A
:1026100008EF1FEF56CF08EF1FEFD0CF20918004B7
:10262000222319F020E00C94BE1B87EF9FEF089542
:1026300080917E0490917F0408950E9442200E9420
:102640009C1FF5D0E2E7F4E088E0DF011D928A9557
:10265000E9F71092800490E080E008950C94FA1D50
:1026600021E040E050E0BA010C94BE1B86E090E00F
:10267000FA019183808390E080E0089547E050E084
:102680006CE672E049CEDF92EF92FF920F931F93B8
:10269000CF93DF938A01EC01C60FD71FE09084042B
:1026A000F0908504D9800E946C22D816190678F023
:1026B00082E090E0F801918380838EEF9FEFDF91BD
:1026C000CF911F910F91FF90EF90DF900895EF2829
:1026D00041F482E090E0F8019183808384EF9FEFE2
:1026E000EECF89818093830490E00196F801918375
:1026F000808390E080E0E3CFCF93DF93EA010E94F4
:10270000AB1E882321F00E9479220E94AC1E82E039
:1027100090E0998388838BEF9FEFDF91CF910895AD
:10272000CF93DF93EB0186E0FB0111928A95E9F7E5
:102730008FEF8883D8DD8983E7DD8A83E8DD9D8399
:102740008C83DF91CF910895CF93DF93EA010E94AC
:10275000AE1E811109C082E090E09983888385EFE5
:102760009FEFDF91CF91089590E080E0B7DD81E0A9
:1027700090E09983888390E080E0F3CF0F931F93DC
:10278000CF93DF93EA018C01060F171F0E94AE1E44
:1027900081110BC082E090E09983888385EF9FEFE1
:1027A000DF91CF911F910F910895F80181818230BF
:1027B00038F082E090E0998388838EEF9FEFF0CF2E
:1027C00081E090E08BDD88E090E09983888390E061
:1027D00080E0E6CFCF93DF930097D1F4EB01FB01CC
:1027E000329686E0DF011D928A95E9F78FEF8883A4
:1027F00085E089831A820E946C228B830E946B225F
:102800009D838C8381E08E838F83DF91CF910895A8
:10281000DF91CF911ACD8EE393E190938204809360
:10282000810408958091810490918204089510920A
:10283000820410928104089580918404909185040B
:102840000895411105C0611571058105910561F07B
:102850006093840470938504809386049093870426
:102860004093880481E0089580E00895FF920F93DB
:102870001F93CF93DF938A01EC01C60FD71FF98016
:102880000E946C22F816190668F082E090E0F801C8
:10289000918380838EEF9FEFDF91CF911F910F91F6
:1028A000FF9008956C817D818E819F814B81C9DF6E
:1028B000811108C082E090E0F8019183808384EF69
:1028C0009FEFEACF89818093830490E00196F8011D
:1028D0009183808390E080E0DFCFCF93DF93EA01A4
:1028E000FC01E60FF71F6481758186819781438122
:1028F000A8DF811109C082E090E09983888384EF8A
:102900009FEFDF91CF91089581E090E099838883D4
:1029100090E080E0F6CFE4E8F4E04081518162810C
:102920007381480F511D611D711D40835183628366
:1029300073830895CF93C09183044C2F50E060912E
:1029400084047091850401960E945F338C2FE3DF2D
:1029500010928304CF910895009799F48091840494
:10296000909185042FEFFB012083892B59F0209152
:10297000830430E02F5F3F4F2417350719F4CB0154
:10298000D9CF63CC0895009799F4809184049091F5
:1029900085042FEFFB012083892B59F020918304BC
:1029A00030E02F5F3F4F2417350719F4CB01C2CF1A
:1029B0004CCC089523E1AC01249FC001259F900DCC
:1029C0001124E0918D04F0918E04E80FF91F23810A
:1029D00034812250310981E02230310508F080E055
:1029E00008950F931F93CF93DF9300918F0410915D
:1029F0009004D0E0C0E080E00C171D0749F491E09E
:102A0000811190E0892FDF91CF911F910F9108954F
:102A10008111F5CFCE01CEDF2196EECFA0918D04AE
:102A2000B0918E04109729F120918F043091900479
:102A300082179307F0F453E1589F9001599F300D8E
:102A40001124A20FB31FED91FC911197309789F0DB
:102A500012968C91681768F48DE0689FE00DF11D67
:102A6000112480819181892B21F081E09281491785
:102A700008F080E008959C0143E1429FC001439F1C
:102A8000900D1124E0918D04F0918E04E80FF91F50
:102A90008385823091F481E090E065817681409178
:102AA0004302509144026417750711F490E080E0EE
:102AB000892B19F081E0232B09F080E00895FC01B7
:102AC000A081B1818DE0689FA00DB11D11241396E6
:102AD0004D915C9185859685489F9001499F300D69
:102AE000589F300D1124C9010196611103C047811F
:102AF00044FD04960895EF92FF920F931F93CF9396
:102B0000DF93EA01FC01E60FF71F02811381E480E5
:102B1000F5804F2D6E2DC80181DF81110DC082E03F
:102B200090E0998388838EEF9FEFDF91CF911F9183
:102B30000F91FF90EF900895C8013CDF882339F092
:102B400082E090E09983888388EF9FEFEECF109327
:102B50004A0200934902E0924B02F0924C0281E05B
:102B600090E09983888390E080E0DFCFCF92DF927E
:102B7000EF92FF920F931F93CF93DF937A01EC01B3
:102B8000C60FD71FC0904902D0904A0200914B0255
:102B900010914C02412F602FC60140DF811110C0FF
:102BA00082E090E0F701918380838AEF9FEFDF91CD
:102BB000CF911F910F91FF90EF90DF90CF900895EC
:102BC000C601F8DE882341F082E090E0F7019183AE
:102BD000808388EF9FEFEBCF4C815D816E817F8199
:102BE0009A8189818F3F41F082E090E0F7019183E3
:102BF00080838EEF9FEFDBCFE3E1EC9D9001ED9DB5
:102C0000300D1124E0918D04F0918E04E20FF31F3A
:102C10000190F081E02D2DE0029FE00DF11D1124C7
:102C20000190F081E02D27E0129FE00DF11D1124AD
:102C3000808391838B8182834383548365837683EE
:102C40001F5F10934C0281E090E0F7019183808335
:102C500090E080E0ACCFEF92FF920F931F93CF9361
:102C6000DF937A018C01060F171FC0918D04D0915C
:102C70008E04209781F021E030E0F8018281938179
:102C800040918F04509190048417950710F030E024
:102C900020E0232B71F482E090E0F70191838083A0
:102CA0008EEF9FEFDF91CF911F910F91FF90EF90EB
:102CB000089543E1489F9001499F300D1124C20FB0
:102CC000D31F78DE882341F082E090E0F701918302
:102CD000808388EF9FEFE6CFF8012481358120388B
:102CE0003105C8F687818111D6CF4181842F90E0CC
:102CF0008F7E009741F082E090E0F701918380831E
:102D000086EF9FEFCFCF4F833E832D832681288789
:102D10001986223010F421E0288721E030E0F70105
:102D200031832083BFCF88E090E0FA0191838083D4
:102D300090E080E00895FB018FEF808381E1818343
:102D40008FEF9FEF9383828380E890E09583848365
:102D5000168217820895FB018FEF808391E09183A3
:102D600082839383848384E3858381E090E09783E7
:102D700086830895DF92EF92FF920F931F93CF9374
:102D8000DF93EA01FC01E60FF71F8181813071F0CA
:102D900082E090E0998388838FEF9FEFDF91CF915E
:102DA0001F910F91FF90EF90DF90089582819381A2
:102DB000D4802581E680F78000918D0410918E04E7
:102DC0000115110539F482E090E0998388838CEF36
:102DD0009FEFE4CF40918F045091900484179507A2
:102DE00038F082E090E0998388838EEF9FEFD6CF12
:102DF000892B39F082E090E09983888386EF9FEFFA
:102E0000CDCF8D2D8D7FB1F72130A1F781E0D1108D
:102E100006C091E0E916F10431F080E004C0E2E080
:102E2000EE16F104D0F3882329F390E080E0C2DDB0
:102E3000882339F082E090E09983888388EF9FEFC0
:102E4000ADCFF801D38681E08487F686E586108AC7
:102E5000178681E090E09983888390E080E09ECFA0
:102E60004CE050E066E972E057CA8F929F92BF92A1
:102E7000CF92DF92EF92FF920F931F93CF93DF9346
:102E8000EA01FC01E60FF71F828193810481B5807E
:102E9000E0918D04F0918E04309791F482E090E0FF
:102EA000998388838CEF9FEFDF91CF911F910F91D2
:102EB000FF90EF90DF90CF90BF909F908F900895FC
:102EC00020918F04309190048217930738F082E0AC
:102ED00090E0998388838EEF9FEFE6CF23E1289FD0
:102EE0006001299FD00C1124EC0DFD1DE080F180C4
:102EF000E114F10499F28281081748F78DE0089FE8
:102F000080011124E00EF11EF70180819181892B4F
:102F100029F6BB20E1F2F7E0BF9E40011124C40175
:102F20000E947023F70191838083E0918D04F091DA
:102F30008E04EC0DFD1D0190F081E02DE00FF11FDE
:102F400080819181009739F482E090E099838883B1
:102F50008DEF9FEFA9CFA40170E060E00E9468337D
:102F600080918D0490918E04C80ED91EF601808147
:102F70009181080F191FF801B28281E090E09983D6
:102F8000888390E080E090CFAF92BF92CF92DF92A3
:102F9000FF920F931F93CF93DF93EA01FC01E60F9B
:102FA000F71F82819381F48000918D0410918E042B
:102FB0000115110581F482E090E0998388838CEFFC
:102FC0009FEFDF91CF911F910F91FF90DF90CF90F6
:102FD000BF90AF90089520918F0430919004821794
:102FE000930738F082E090E0998388838EEF9FEF1B
:102FF000E8CF2FEF2F0D2C3FA8F723E1289F60018A
:10300000299FD00C11240C0D1D1DF8018081918188
:10301000892B89F6FDE0FF9E50011124C5010E9415
:103020007023F80191838083E0918D04F0918E04E8
:10303000EC0DFD1D80819181009739F482E090E0D4
:10304000998388838DEF9FEFBCCFA50170E060E08E
:103050000E946833E0918D04F0918E04EC0DFD1D0B
:10306000F28281E090E09983888390E080E0A9CFAC
:10307000CF92DF92EF92FF920F931F93CF93DF9344
:10308000860F971FFC010281138180918D0490911E
:103090008E04892B81F082E090E0FA019183808395
:1030A0008CEF9FEFDF91CF911F910F91FF90EF90E9
:1030B000DF90CF900895C801B0E0A0E00197A1098A
:1030C000B1098F3F9F4FA105B10540F082E090E02C
:1030D000FA01918380838EEF9FEFE4CF7A0183E141
:1030E000809F6001819FD00C1124C6010E94702333
:1030F000EC01009741F482E090E0F7019183808336
:103100008DEF9FEFCFCFA60170E060E00E946833A3
:10311000D0938E04C0938D041093900400938F0479
:1031200090E080E02FEF3FEF41E061E070E080173A
:10313000910741F481E090E0F7019183808390E072
:1031400080E0B0CF3A8B298B1B864C877E876D87BA
:10315000188A1F8601966396EACFEF92FF921F931B
:10316000CF93DF93EC0110E0F12CE12C6A8116176C
:10317000B0F083E0689FB0011124AE014F5E5F4F55
:10318000C7010E94D523009721F02FEF3FEF3A8B24
:10319000298BDF91CF911F91FF90EF900895612FC0
:1031A000CE018DDC61E070E00E941D22E816F90678
:1031B00008F47C011F5FDACFF89420918B043091E2
:1031C0008C0481E02115310509F080E0232B09F002
:1031D000789408952F923F924F925F926F927F92D0
:1031E0008F929F92AF92BF92CF92DF92EF92FF9217
:1031F0000F931F93CF93DF933C01660E771EF3016D
:10320000828193814C01B12CA12CC0918D04D0916D
:103210008E04209769F021E030E060918F04709176
:1032200090048617970710F030E020E0232BD1F4AC
:1032300082E090E0FA01918380838EEF9FEFDF912F
:10324000CF911F910F91FF90EF90DF90CF90BF90A3
:10325000AF909F908F907F906F905F904F903F9036
:103260002F90089580924D0290924E02A0924F02AC
:10327000B092500263E1689F9001699F300D112464
:10328000C20FD31FF3018181833040F082E090E0D0
:10329000FA019183808386EF9FEFD1CF2A012B81A2
:1032A0003C81232BF1F4288139819F8191FF2EC02D
:1032B000232B09F46FC0209192049A81422F490F69
:1032C0005527551FBA0141E050E06138710514F0EF
:1032D00050E040E0452B09F45DC02A87920F90939F
:1032E00092048150823008F481C066DF882309F49B
:1032F000D8C0F3018181813009F48DC008F47BC00E
:10330000823009F4C6C090E080E0ADC0232B09F400
:1033100041C0209191049A81E22FE90FFF27FF1FFE
:1033200041E050E0ED3FF10514F050E040E0452B66
:1033300089F12A87920F90939104D3CFA081B18114
:10334000A20FB31F11966C91060F111D0196295FF4
:103350003F4F8417950794F38D859E85089F100134
:10336000099F300C189F300C1124C114D104D1F4E2
:103370008F8184FF17C00E946B22F5E02F0E311C55
:1033800021E08215930508F420E0A701435F5F4F19
:1033900021110EC082E090E0F2019183808387EFDB
:1033A0009FEF4DCF0E946B222FEF221A320AE8CFF7
:1033B00088819981E80EF91EF70114830383FFEFDA
:1033C000CF1ADF0A7A018A818C151D0409F00CF4EA
:1033D0008CCFE881F981EE0DFF1D428150E030E095
:1033E00020E010E000E090E080E0B3CFF12CE12C91
:1033F000D12CC12CE8CF81E090E09C838B83F1DA63
:10340000882309F480CF81E090E00E946E1180E46F
:103410000E947C1178CF89899A89019661F083E0B6
:1034200090E09C838B8382E090E00E946E1180E4A8
:103430000E94761168CF8D819E8120914302309148
:10344000440282179307D1F46091470270914802B9
:10345000AE014F5E5F4F80914502909146020E94FF
:10346000F4240097E1F2789422E030E0F201318315
:103470002083892B99F08DEF9FEFE1CE89288A2850
:103480008B2869F6029758F6CE0167DE188A1F86E8
:10349000E8CF82E090E09C838B8335CF90E080E0A2
:1034A000CECE82E090E0F2019183808385EF9FEFA2
:1034B000C6CE8F929F92AF92BF92CF92DF92EF9241
:1034C000FF920F931F93CF93DF93EA018C01060FB6
:1034D000171FF8018181833098F082E090E0998392
:1034E000888386EF9FEFDF91CF911F910F91FF901F
:1034F000EF90DF90CF90BF90AF909F908F90089506
:1035000080918D0490918E04892B61F081E090E090
:1035100020918F0430919004232B11F490E080E0EF
:10352000892B39F482E090E0998388838EEF9FEFB6
:10353000DACF42DE882309F4E0C0F80181818130CE
:1035400009F496C0E8F0823099F420918F0430910C
:103550009004E0918D04F0918E0490E080E041E0D1
:1035600050E02817390709F0BEC03BDA811117C0B7
:10357000789481E090E09983888390E080E0B3CFF5
:1035800020918F0430919004E0918D04F0918E048D
:1035900090E080E041E050E02817390741F481E0F5
:1035A00090E00E946E1180E40E947C11E1CF638163
:1035B0007481672B11F05483438301967396ECCF8B
:1035C000E0918D04F0918E04E00FF11F238134818E
:1035D00022303105D9F4218932892F3F3F4FB1F490
:1035E00025813681409143025091440224173507CA
:1035F00061F5AF014F5E5F4F6091470270914802E5
:1036000080914502909146020E94F424EFEFCE1A79
:10361000DE0AEE0AFE0A0D5E1F4F40918F045091A4
:10362000900470E060E0C416D506E606F70644F59F
:10363000009731F27894892B09F49BCF82E090E0D7
:10364000998388838DEF9FEF4ECFC114D104E1049D
:10365000F104E1F622303105C8F6CF017EDDE091BC
:103660008D04F0918E04E00FF11F108A1786CECFE3
:1036700010E000E090E080E0C12CD12C7601CDCFAD
:103680000097C1F610E000E0812C912C540183E0FA
:10369000E82EF12C1AC0E0918D04F0918E04E00F19
:1036A000F11F83819481029749F4F482E38282E0DE
:1036B00090E00E946E1180E40E947611FFEF8F1A55
:1036C0009F0AAF0ABF0A0D5E1F4F80918F04909131
:1036D0009004B0E0A0E088169906AA06BB06DCF2CA
:1036E00090E080E0A7CF638174816230710511F4AE
:1036F000548343830196739634CF82E090E099839C
:10370000888385EF9FEFEFCE0097B9F48FEFFB0131
:10371000808320914D0230914E0243E1429FC001CF
:10372000439F900D1124E0918D04F0918E04E80FD9
:10373000F91F8285FB01818308950C94251188E08F
:1037400090E0FA019183808390E080E008951092E8
:103750008C0410928B04EDE8F4E086E0DF011D920A
:103760008A95E9F780E397E190938A04809389042E
:1037700008958091890490918A0408952F923F9230
:103780004F925F926F927F928F929F92AF92BF9271
:10379000CF92DF92EF92FF920F931F93CF93DF931D
:1037A000CDB7DEB72F970FB6F894DEBF0FBECDBFF3
:1037B000F894E0918B04F0918C043196F0938C0492
:1037C000E0938B04789440908D0450908E044114C3
:1037D000510409F40CC2E0918F04F0919004EF2B96
:1037E00009F405C22D8749875A876B877C8798879C
:1037F0008F831201B12CA12C10E000E080918F0486
:1038000090919004A816B90618F40115110529F134
:10381000F89480918B0490918C04019790938C0480
:1038200080938B047894C8012F960FB6F894DEBF6E
:103830000FBECDBFDF91CF911F910F91FF90EF9001
:10384000DF90CF90BF90AF909F908F907F906F90C0
:103850005F904F903F902F9008957101E418F50804
:10386000D10117968C91179781FD54C013968D91B5
:103870009C911497039709F04DC015968D919C91DA
:10388000EF81F8858E179F0709F044C0B50190E0DD
:1038900080E07FD48A8320918D0430918E043D8313
:1038A0002C833D85332309F44CC04C815D81452B2D
:1038B00009F49AC180918F0490919004A816B906DA
:1038C00008F092C1C501D7D88823E9F06C817D81C9
:1038D0006E0D7F1D7D836C83DB011F968D919C9106
:1038E000892B89F0D12CC12CF12CE12CAC81BD812C
:1038F00012968C9112978E151F0409F094F450962D
:103900001C921E921F972A81222321F0B50190E07C
:1039100080E041D43FEFA31AB30A43E1240E311CE7
:103920006DCFAC81BD81ED91FC91EC0DFD1D8581CC
:1039300096810FD7BFEFEB1AFB0AEDE0CE0ED11C3C
:10394000D5CFEC81FD81309709F44EC180918F0471
:1039500090919004A816B90608F046C1EE0DFF1D1F
:10396000FF87EE87C50187D88B83882339F1AE8521
:10397000BF851F968D919C915097019621E01D96D1
:103980004D915C918417950709F020E02E831982F0
:10399000712C10E000E0AE85BF8512968C917816F0
:1039A00008F45DC0EE85FF85878590890196658561
:1039B00076850E940833908B8787A5CFB1E0BE83C0
:1039C000E6CF992493946BC08BD6F60196838583BA
:1039D00082C0D601ED90FC90B7E06B9EE00CF11C2C
:1039E0001124F7016381748180818F3F61F121E0AF
:1039F00030E002C0220F331F8A95E2F7C901092E79
:103A0000000CAA0BBB0BFB014081518162817381C9
:103A100084239523A623B72321E0892B8A2B8B2B84
:103A200009F420E0D4012C93D70111968C91F60172
:103A300023853485820F932F911D880E991E14863D
:103A4000138663949BC0418150E0C4010E945F33A0
:103A5000EBCF998206EF1FEFC5C01982C3C0F98171
:103A6000F111A0CFEDE07E9E70011124AE85BF85DF
:103A7000CD90DC90CE0CDF1C15D49D838C83BB8154
:103A8000BB2309F49ECF81E0EE85FF852785308931
:103A9000232B09F080E0982E882309F458C0672D65
:103AA0008E859F850CD8D60118969C938E93179778
:103AB00061E070E0C2D4EE85FF85218932892F3F15
:103AC000320709F481CFBC01C901CFD7D6011696C0
:103AD0009C938E931597D60115968D919C91169770
:103AE000009709F4B6CFEC81FD818E0F9F1F1A96C7
:103AF0009C938E931997AE85BF85ED91FC9111979C
:103B0000EE0EFF1EF70121853285148613861A9664
:103B10008C91870DD9018D93711016C0EE85FF85AC
:103B2000878184FF11C049855A856B857C85F901A1
:103B30004183528363837483F7018385948504965C
:103B4000A80FB91F14861386F701B287A187D60183
:103B500015968D919C911697892B09F443C0EE859B
:103B6000FF85258136818091430290914402281778
:103B7000390779F019968D909C90612CD601129698
:103B80008C911297681608F424CF1A969C928E9204
:103B90001997BE81BB2309F460CF61E070E0F601A4
:103BA000878190854AD4D6011796ED90FC9018979E
:103BB00015964D915C91E1E0F0E0BA81BB2311F0E4
:103BC000F0E0E0E00C811D819C01B5018827992778
:103BD0008E1B9F0B6AD38C01892B21F0F601858106
:103BE0009681B7D57394D7CE0FEF1FEF8CCE10E030
:103BF00000E00ECE2F923F924F925F926F927F9293
:103C00008F929F92AF92BF92CF92DF92EF92FF92EC
:103C10000F931F93CF93DF9380918D0490918E0427
:103C200010E000E0892BA9F0C7DA0AEF1FEF882324
:103C300081F020908F0430909004C0918D04D09139
:103C40008E04D12CC12C10E000E02C143D04A9F40A
:103C50007894C801DF91CF911F910F91FF90EF9061
:103C6000DF90CF90BF90AF909F908F907F906F909C
:103C70005F904F903F902F900895C6010E943B1592
:103C8000882309F18B819C810397E9F48F859889BA
:103C9000892BC9F0B60190E080E07BD221E030E0D2
:103CA000882311F030E020E044245524421A530ABE
:103CB000B12CA12C912C812C8A818815190409F032
:103CC00038F4188A1F864FEFC41AD40A6396BDCF02
:103CD000E881F981EA0DFB1D85819681892BA1F18F
:103CE00061E070E087819085A8D33C01DBD28C0134
:103CF000E881F981EA0DFB1D818592852581368158
:103D0000200F311FAC01421B530B9A014781508594
:103D1000421B530B70E060E00E946833E881F98138
:103D2000EA0DFB1DE780F084458156819301B601C1
:103D3000C201BBD28C01892B39F0E881F981EA0DEF
:103D4000FB1D8581968105D55FEF851A950A8DE06B
:103D5000A80EB11CB1CF30CA789408952F923F922B
:103D60004F925F926F927F929F92AF92BF92CF924B
:103D7000DF92EF92FF920F931F93CF93DF9300D0C8
:103D800000D0CDB7DEB700918D0410918E04992438
:103D900093940115110509F43EC0A0908F04B090D2
:103DA00090040ADA982E8823B1F110928E041092B2
:103DB0008D041092900410928F041092910410922E
:103DC00092048FEF9FEFDC0180934D0290934E029F
:103DD000A0934F02B093500278947FD31E830D833B
:103DE000C12CD12C7601C501B0E0A0E089839A8373
:103DF000AB83BC8322242A94322C89819A81AB81A3
:103E0000BC81C816D906EA06FB06F4F0C801A1D4A5
:103E100080E40E947C11892D26960FB6F894DEBFAF
:103E20000FBECDBFDF91CF911F910F91FF90EF900B
:103E3000DF90CF90BF90AF909F907F906F905F90FA
:103E40004F903F902F900895AD81BE8115968D9132
:103E50009C91169720914302309144028217930758
:103E6000D1F451968D919C91EED5ED81FE818081AA
:103E70009181B12CA12C412C512C3201892B89F537
:103E8000BFEFCB1ADB0AEB0AFB0AED81FE817396CA
:103E9000FE83ED83B2CFC114D104E104F10429F70C
:103EA000029718F7ED81FE81818992898F3F9807EB
:103EB00009F029D5AD81BE8152963C922E92519740
:103EC000D4CF8A0D9B1DDC018D919C91009709F048
:103ED00040D4BFEF4B1A5B0A6B0A7B0AEDE0AE0ED3
:103EE000B11CAD81BE818D919C91119712964C9120
:103EF00050E070E060E044165506660677060CF365
:103F000028D4BECFCF93DF93EA0128DF811109C007
:103F100082E090E09983888385EF9FEFDF91CF91D6
:103F2000089581E090E00E946E1181E090E0998315
:103F3000888390E080E0F2CF11DF10928A04109223
:103F40008904089542E050E06EED72E00C948C110B
:103F5000FF920F931F93CF93DF938A01EC01C60F5B
:103F6000D71FF980B9D20897F816190671F068F0D2
:103F700082E090E0F801918380838EEF9FEFDF91E4
:103F8000CF911F910F91FF9008956C817D818E815B
:103F90009F814B810E942114811108C082E090E032
:103FA000F8019183808384EF9FEFE9CFF9800E942D
:103FB0001C144F2D50E0BE01685F7F4F0E945F339D
:103FC00089810E948B1481E090E0F80191838083C5
:103FD00090E080E0D4CFDF92EF92FF920F931F9397
:103FE000CF93DF938A01EC01C60FD71F0E941C14E8
:103FF0007C01D98071D2DD2059F0029721E030E0B8
:10400000D816190619F010F030E020E0232B79F4CF
:1040100082E090E0F801918380838EEF9FEFDF9143
:10402000CF911F910F91FF90EF90DF900895EF28AF
:1040300041F482E090E0F8019183808384EF9FEF68
:10404000EECFF9800E941C144F2D50E0BE016E5F30
:104050007F4F0E945F3389810E948B1481E090E042
:10406000F8019183808390E080E0D9CF82EA9FE1DC
:104070009093940480939304089580919304909175
:10408000940408950895FC01118210829383828321
:104090000895DB011D921C92DC011296ED91FC91BA
:1040A00013977183608313967C936E931297089590
:1040B000FC0180819181DB018D939C93A081B18172
:1040C000109741F08D919C9191838083892B11F4FD
:1040D000F383E2830895FC0180819181DB018D935C
:1040E0009C93892B11F47383628371836083089599
:1040F000FC0111821082938382830895CF93DF9312
:104100001F921F92CDB7DEB71A821982F894BE01B2
:104110006F5F7F4F8AE994E0CBDF89819A810097B6
:1041200009F017D389819A81892B89F7BE016F5FC6
:104130007F4F8EE994E0BCDF89819A81009709F076
:1041400008D389819A81892B89F778940F900F90F1
:10415000DF91CF910895CF93DF931F921F92CDB738
:10416000DEB71A821982F894BE016F5F7F4F86E92D
:1041700094E09EDF89819A81009709F0EAD28981D3
:104180009A81892B89F778940F900F90DF91CF91C6
:10419000089581E0089590E080E00895EF92FF9205
:1041A0000F931F93CF93DF931F921F92CDB7DEB76C
:1041B0001A8219828091950407EF1FEF8823A1F1DD
:1041C000F894BE016F5F7F4F8EE994E071DF7894C1
:1041D00089819A81EE24E394F12C892B51F4F8948F
:1041E000BE016F5F7F4F8AE994E062DF7894F12C23
:1041F000E12C89819A810EEF1FEF0097A9F0FC0155
:104200004281538164E070E074D68C01892B61F0A7
:10421000F89469817A81C701880F991F880F991FC7
:1042200086569B4F58DF7894C8010F900F90DF910E
:10423000CF911F910F91FF90EF9008950F931F93CF
:10424000CF93DF9300D01F92CDB7DEB71C821B82C5
:104250001A8219828091950407EF1FEF8823C1F01D
:10426000AE014D5F5F4F64E070E0CE010196B4D6C1
:104270008C01892B69F4E981FA818B819C8193837C
:104280008283F89469817A8186E994E002DF7894E8
:10429000C8010F900F900F900F90DF91CF911F9159
:1042A0000F910895B9D7049608958F929F92AF9277
:1042B000BF92CF92DF92EF92FF920F931F93CF9313
:1042C000DF931F921F92CDB7DEB71A821982BC010D
:1042D0006F5F7F4F6330710598F0AA24AA94BA2CBF
:1042E000C5010F900F90DF91CF911F910F91FF901B
:1042F000EF90DF90CF90BF90AF909F908F900895F8
:104300004115510551F3480159018A016C01CADF79
:104310008815990511F7E114F104F9F28E0D9F1D2E
:10432000A816B906D0F2809195048823F1F0F8948C
:10433000B501645071099701AE014F5F5F4FC8012D
:104340000496DFD65C01892B71F489819A81F8018A
:1043500093838283C601880F991F880F991FB80124
:1043600086569B4F96DE7894BBCF87EFA82EBB2452
:10437000BA94B6CFAF92BF92CF92DF92EF92FF92F4
:104380000F931F93CF93DF931F921F92CDB7DEB78A
:104390001A821982892B09F047C06115710509F449
:1043A00043C04115510509F43FC02115310509F4F9
:1043B0003BC001151105C1F1809195048823B9F125
:1043C00079016A015B01F894BE016F5F7F4F86E956
:1043D00094E06EDE789489819A81009759F1DC012E
:1043E00012966D917C91A8010496A4D68C01E98166
:1043F000FA81D501ED93FC93828193810496F601B5
:10440000918380834FDFD7018D939C93C8010F90D8
:104410000F90DF91CF911F910F91FF90EF90DF9060
:10442000CF90BF90AF9008950FEF1FEFEFCF07EF42
:104430001FEFECCF0EEF1FEFE9CFCF93DF93EC012F
:10444000672B71F4F2D68C179D0760F0E5D62496A1
:10445000C80FD91FE4D68C0F9D1FDF91CF9108950F
:10446000E1D6F1CF90E080E0F8CF0F931F93CF9388
:10447000DF932091950421112BC08B01EC018AE977
:1044800094E001DE8EE994E0FEDD86E994E0FBDD58
:1044900097D00097C1F4C9D670E060E0CEDF41E567
:1044A00052E062E070E081D1009769F4809151029E
:1044B00090915202CCD6B801CE0101D5009719F4E3
:1044C00021E020939504DF91CF911F910F910895E2
:1044D00084EF9FEFF8CFA6C6A8C6CF93DF93A8D6E8
:1044E000EC01892B11F40ADE36DECE01DF91CF918B
:1044F0000895CF93DF939CD6EC01892B09F4FEDD60
:10450000CE01DF91CF910895809151029091520296
:104510000895CF93DF9380919504D0E0C0E0882385
:10452000D1F09AD6EC01892BB1F4E8DD14DE80914C
:10453000510290915202E7D1E8D2EC01892B59F453
:104540008AE994E0D5DD8EE994E0D2DD86E994E055
:10455000CFDD10929504CE01DF91CF910895EF92B7
:10456000FF920F931F93CF93DF93EC017A018B019E
:104570000F5F1F4F0E9DA0010F9D500D1E9D500DF2
:10458000112470E060E00E94683390E080E0F0E089
:10459000E0E02FEFE816F90639F4DF91CF911F9193
:1045A0000F91FF90EF9008951A8219822883309717
:1045B00011F0D283C1830196FE01C00FD11FEACF53
:1045C000CF92DF92EF92FF920F931F93CF93DF93DF
:1045D00007E016E00C7F43E050E063E572E089E518
:1045E00092E01AD483E5E82E82E0F82E99E5C92EF0
:1045F00092E0D92ECEE8D6E0D7014D915D917D01B4
:10460000F601619171916F01198308835D834C8379
:104610005B834A837F836E839B012F5F3F4F249F81
:10462000C001259F900D349F900D11249987888794
:104630000115110511F0C80192DF88859985080FD1
:10464000191F2A96F9E5EF16F2E0FF06A9F6E4EA4B
:10465000F4E080E691E0DF019C011D9221503040A2
:10466000E1F71092A3041092A2041092AD061092EA
:10467000AC061092B1061092B0061092AF061092DE
:10468000AE061092B3061092B2061092B5061092C2
:10469000B4061092B7061092B6061092BB0610929E
:1046A000BA061092B9061092B8061092BD06109282
:1046B000BC061092BF061092BE0610928B06109296
:1046C0008A0610928D0610928C0690E080E0DF91B1
:1046D000CF911F910F91FF90EF90DF90CF900895B1
:1046E0000097F1F0F894A9E5B2E0EEE8F6E030E0EA
:1046F00020E04D915D9148175907A8F04281538100
:104700004115510581F08AE0829FF001839FF00DF1
:104710001124E257F94F80819181009759F47894E0
:1047200090E080E008952F5F3F4F3A9623303105A7
:1047300001F7F5CFDC0111966D917C917183608357
:104740004150510953834283FC012193CF01789456
:104750000895009749F1DC018E91853041F4E09194
:104760008C06F0918D063097F9F0CD0119948530C3
:10477000D8F4282F30E0F8948FEF8C938AE0829F52
:10478000F001839FF00D1124E257F94F8081918150
:1047900012969C938E931197B183A083828193810B
:1047A00001969383828378940895CF92DF92EF925B
:1047B000FF920F931F93CF93DF939C0187EA94E0BE
:1047C0008C7F4115510509F49BC02115310509F471
:1047D00097C06115710509F493C07A01AB01B90165
:1047E0006D5F7F4F6C7F9B012F5F3F4F249F800148
:1047F000259F100D349F100D1124F8942091AC06C4
:104800003091AD06232B59F42091B4063091B506B2
:104810002115310569F12017310708F058C02091A2
:10482000B6063091B706232B91F42091B40630914F
:10483000B506820F931F2091BE063091BF06211549
:10484000310509F441C02017310708F056C07894AB
:10485000CFEFDFEF86EF9FEFF701D183C083DF91CA
:10486000CF911F910F91FF90EF90DF90CF9008951F
:10487000C3E0D0E0C090A204D090A3042DE531E0C5
:104880002C193D092017310710F32AE02C9FF00165
:104890002D9FF00D1124E257F94F918380835583AA
:1048A000448353834283778366831187008700970D
:1048B00009F055DE0C0D1D1D1093A3040093A204F6
:1048C000789490E080E0C8CFC4E0D0E0D3CFC3E0DC
:1048D000D0E02AE02C9FF0012D9FF00D1124E2572B
:1048E000F94F918380835583448353834283778335
:1048F0006683009729F333DEE3CFC4E0D0E0E9CF4D
:104900008FEF9FEFACCF9C010397029708F069C02F
:10491000F89484E09AE0482F50E0241735070CF40F
:104920004DC091E08AE0829FF001839FF00D112439
:10493000E257F94F1182108215821482138212827B
:10494000178216829923B1F18091AC069091AD0641
:10495000892BA9F42091B4063091B50621153105B3
:1049600071F08091A2049091A304821B930B909309
:10497000A3048093A2041092B5061092B40680910D
:10498000B6069091B706892BA9F42091BE06309106
:10499000BF062115310571F08091A2049091A30406
:1049A000821B930B9093A3048093A2041092BF06E2
:1049B0001092BE06789490E080E00895949FF001F4
:1049C000959FF00D1124E257F94F40815181452BFD
:1049D00031F440855185452B11F481509CCF90E0F6
:1049E000A1CF8FEF9FEF08954115510549F1009731
:1049F00039F16115710521F1F89420918A06309101
:104A00008B06232BB9F420918C0630918D06232B35
:104A100089F490938B0680938A0670938D06609339
:104A20008C06789425E030E090E080E0FA01318354
:104A30002083089578942FEF3FEF86EF9FEFF6CF16
:104A40008FEF9FEF0895059769F4F89410928B0605
:104A500010928A0610928D0610928C06789490E03F
:104A600080E008958FEF9FEF08956115710519F4A7
:104A7000F0E0E0E011C08530910581F4E0918A0614
:104A8000F0918B063097A1F3CB0101961995009711
:104A900079F3FC0185E08193CF0108959C012350B7
:104AA00031092230310520F72AE0289FD001299FC3
:104AB000B00D1124A257B94F2D913C911197232B82
:104AC000B9F216962D913C9117972617370780F269
:104AD000F89412962D913C9113972115310529F0E8
:104AE000ED91FC911197309711F47894C1CF4181E9
:104AF000528111965C934E932150310913963C9349
:104B00002E93129781937894C7CFE4E0F6E086E87D
:104B1000DF011D928A95E9F7E4EAF4E080E691E08E
:104B2000DF019C011D9221503040E1F71092A30457
:104B30001092A204EEE8F6E082E3DF011D928A956E
:104B4000E9F7EAE8F6E084E0DF011D928A95E9F7EB
:104B500090E080E00895CF93DF93C0915F02D09101
:104B60006002CF3FDC0759F420D490936002809319
:104B70005F0297FF09C0D0936002C0935F0284EF89
:104B80009FEFDF91CF91089590E080E0FACF8230DF
:104B9000910528F48093C00690E080E008958FEF9F
:104BA0009FEF08954F925F926F927F92AF92BF9264
:104BB000CF92DF92EF92FF920F931F93CF93DF93E9
:104BC0001F921F92CDB7DEB71A821982009709F49F
:104BD00078C06115710509F474C020915F023091AD
:104BE000600207EF1FEF2F3F3F4F09F444C06B01F6
:104BF0005C01412C512C3201F12CE12C10E000E041
:104C00009E012F5F3F4FA6014E195F09B5016E0D42
:104C10007F1D80915F029091600226D4892B09F05C
:104C20004AC089819A81009741F4E114F10429F482
:104C30002091C006222309F441C0E80EF91EEC14AD
:104C4000FD04C8F480E8481684E858068EE168063A
:104C5000710418F560E070E0CB01E5D62AE0420E61
:104C6000511C611C711C0A3F4FEF140721F0043FD7
:104C70008FEF1807A1F4C8010F900F90DF91CF912B
:104C80001F910F91FF90EF90DF90CF90BF90AF906A
:104C90007F906F905F904F90089501EF1FEF81E03C
:104CA00090E0013F2FEF120711F090E080E0892B98
:104CB00009F4A6CFE0CF04EF1FEFDDCF0AEF1FEF1F
:104CC000DACF0FEF1FEFD7CF4F925F926F927F92A5
:104CD000AF92BF92CF92DF92EF92FF920F931F930A
:104CE000CF93DF931F921F92CDB7DEB71A8219823E
:104CF000009709F478C06115710509F474C020911A
:104D00005F023091600207EF1FEF2F3F3F4F09F422
:104D100044C06B015C01412C512C3201F12CE12C7F
:104D200010E000E09E012F5F3F4FA6014E195F0982
:104D3000B5016E0D7F1D80915F02909160024AD394
:104D4000892B09F04AC089819A81009741F4E114C6
:104D5000F10429F42091C006222309F441C0E80E91
:104D6000F91EEC14FD04C8F480E4481682E45806E9
:104D70008FE06806710418F560E070E0CB0153D64F
:104D80002AE0420E511C611C711C0E3F4FEF1407AC
:104D900021F0043F8FEF1807A1F4C8010F900F9086
:104DA000DF91CF911F910F91FF90EF90DF90CF9007
:104DB000BF90AF907F906F905F904F90089502EFFB
:104DC0001FEF81E090E0023F2FEF120711F090E01B
:104DD00080E0892B09F4A6CFE0CF04EF1FEFDDCFF1
:104DE0000EEF1FEFDACF0FEF1FEFD7CF80915F02EB
:104DF000909160028F3F980749F0CFD2892B49F4F8
:104E00008FEF9FEF9093600280935F0290E080E0CD
:104E1000089584EF9FEF0895CF92DF92EF92FF9273
:104E20000F931F93CF93DF9321E04115510509F0B4
:104E300020E04150510921112CC0DC01FB01D12C93
:104E4000C12C21E022C03FEFC31AD30A7D010D918E
:104E50001D91E701EA80FB80E016F106A8F42081AD
:104E60003181E280F380F182E08233832283ED900E
:104E7000FC9011979D0122503109E901F982E882E5
:104E800011961C930E9320E03296C416D506D8F2E4
:104E9000D2CFDF91CF911F910F91FF90EF90DF90D4
:104EA000CF900895FC01680F791F90E080E0E6172D
:104EB000F70709F408952191820F911DF8CF2091F1
:104EC000C106211113C047DE009791F41092C70666
:104ED0001092C6061092C5061092C4061092C30620
:104EE0001092C20621E02093C106089584EF9FEF3F
:104EF0000895AF92BF92CF92DF92EF92FF920F93FD
:104F00001F93CF93DF93009709F460C0463051059B
:104F100008F45CC02091C106C7EFDFEF222309F43B
:104F200049C08C01060F171FF801C080D180C11441
:104F3000D10409F44EC096012A5F3F4F4217530730
:104F400008F447C07C018091C6069091C706938300
:104F50008283B6016C5F7F4F5801A60EB71EC80151
:104F6000A1DFF5019183808364E070E0C8011ADE5F
:104F7000EC01892BF9F481E090E009DEB601C8016B
:104F8000049610DEEC01892B91F462E070E0C5011B
:104F900009DEEC01892B59F4C701DBDB8091C606E1
:104FA0009091C70601969093C7068093C60690E03D
:104FB00080E0EDDDCE01DF91CF911F910F91FF9049
:104FC000EF90DF90CF90BF90AF900895CFEFDFEFDD
:104FD000F1CFC9EFDFEFEECF6F927F928F929F926A
:104FE000AF92BF92CF92DF92EF92FF920F931F93F7
:104FF000CF93DF9300D01F92CDB7DEB7009709F4AF
:105000007AC04115510509F476C02091C10607EF19
:105010001FEF222309F44DC03A017B015C0164E0DB
:1050200070E0CE01019650DE8C01892B09F041C061
:1050300009811A810115110509F45AC0480186E059
:10504000880E911CB701680D791D809161029091C5
:1050500062020BDD6C01009709F450C0A70170E0FB
:1050600060E00E94683389819A81AB81BC81EC0C3D
:10507000FD1CF70181939193A193B1937F0181E08E
:1050800090E085DDB801C7011FDE892B31F562E0B4
:1050900070E0C701800F911F17DE8C01892BE9F4A6
:1050A00090E080E074DDF501D182C082F30191824D
:1050B0008082C8010F900F900F900F90DF91CF91D9
:1050C0001F910F91FF90EF90DF90CF90BF90AF9026
:1050D0009F908F907F906F90089590E080E057DDD3
:1050E000F50111821082F30111821082C60131DBB9
:1050F00009EF1FEFDECF0FEF1FEFDBCF06EF1FEF44
:10510000D8CF0097A1F04115510589F0211531053F
:1051100071F0F90136966E177F0748F0DC012D9388
:105120003C93DA01ED93FC9390E080E008958FEFDB
:105130009FEF0895AF92BF92CF92DF92EF92FF92CE
:105140000F931F93CF93DF93009709F45FC041152E
:10515000510509F45BC06530710508F457C0209112
:10516000C106C7EFDFEF222391F1DC01CD90DC9087
:1051700011971296ED91FC9196012A5F3F4FC9EF6E
:10518000DFEF2617370719F5C091C206D091C30685
:10519000209749F521E030E03093C3062093C20602
:1051A0007A018C01F093C506E093C4065601B4E081
:1051B000AB0EB11CB50176DE0A0D1B1DF801208176
:1051C00031818217930729F5D701CD92DC92CE0168
:1051D000DF91CF911F910F91FF90EF90DF90CF90D3
:1051E000BF90AF9008952091C4063091C5062F5FFF
:1051F0003F4FCCEFDFEFE217F30790F2CBEFDFEF9B
:105200002E173F0768F2D0E0C0E0CACFCFEFDFEF44
:10521000DECFC3EFDFEFDBCF84E090E0089582E0E4
:1052200090E008958CEF9FEF089580E290E008955C
:105230001092C7061092C6061092C5061092C406B8
:105240001092C3061092C20690E080E008959093F9
:1052500062028093610208958091C106882391F0D3
:10526000C5DD009789F41092C7061092C606109209
:10527000C5061092C4061092C3061092C206109280
:10528000C106089590E080E00895009749F0611507
:10529000710531F0FC0111821082FB011182108234
:1052A0000895F3CF26E030E040E855E260E070E09A
:1052B00090E080E000C08130910569F01CF4892BFA
:1052C00039F008958230910549F0039751F008951F
:1052D00085ED96E0D0C682E797E0FCCF8FE098E0BE
:1052E000F9CF8CEA98E0F6CF1F920F920FB60F928B
:1052F00011240BB60F922F933F934F935F936F93AD
:105300007F938F939F93AF93BF93EF93FF938BEC18
:1053100093EF9093250180932401BAD0FF91EF91F0
:10532000BF91AF919F918F917F916F915F914F91BD
:105330003F912F910F900BBE0F900FBE0F901F90BB
:1053400018958BEC93EF9093250180932401A3E7AC
:10535000B0E08C918E7F8C93E0E2F1E080818C7FD5
:105360008083E1E2F1E08081877E808380818560B7
:10537000808380818D7F80838C9181608C93089560
:10538000E3E7F0E0808190819E7F908381700895B3
:1053900081E008951092C806089568EE73E080E0F9
:1053A00090E041D390E080E0089526E030E040E0D6
:1053B00050E16EE070E090E080E07DDF85ED96E00A
:1053C00090D5892B21F085ED96E0A5D5F7CF90E01B
:1053D00080E00895CF92DF92EF92FF920F931F9398
:1053E000CF93DF936B017A01E9011982188285ED71
:1053F00096E077D5892B69F18601CC24C39482E0AD
:10540000D82E8091C806811110C085ED96E083D515
:105410000297B9F7C092C806F801D1928F0188812E
:105420009981019699838883ECCF888199818E1523
:105430009F0578F485ED96E06ED58F3F9807A9F328
:10544000F80181938F0188819981019699838883DE
:10545000ECCF90E080E0DF91CF911F910F91FF9012
:10546000EF90DF90CF9008950F931F93CF93DF932A
:10547000EA01890185ED96E00E94CB32F801D183E3
:10548000C08390E080E0DF91CF911F910F9108954C
:105490008091C90691E0980F9093C906882349F03E
:1054A00021E030E03093CB062093CA068093C906F2
:1054B000089578940E947D05F8948091C9068150E2
:1054C000F5CF0F931F93CF93DF9310927B09109228
:1054D0007A09DFD2E7DEC0916A02D0916B021982AD
:1054E00018826FEF7FEFCB010E94490570E060E00A
:1054F00090E080E00E94C803009709F042C00E943B
:10550000A109F8947894BE0163527F4F8A819B81F0
:105510000E94CB03892B71F46FEF7FEFCB010E94C8
:105520005C040E944305882329F081E0FE01ED51CF
:10553000FF4F8083F89405DF0E944605882311F011
:1055400080E00BC00E9443058111FACF81E0FE018B
:10555000ED51FF4F90819111F3CF80937A097894A8
:105560000E9469118C017894CD51DF4F80917A09A6
:1055700081110CC00E94EB0A0E942805F89490E06B
:1055800080E0DF91CF911F910F9108950E94260531
:105590000E9446058823D9F081E080937B09909191
:1055A0007B0981E0911180E080937A0980917B09E9
:1055B0008111E6DE0130110529F40E946911892B61
:1055C00009F4E8DE0E9469118C01E2DECFCF0E946F
:1055D00043058111E1CF81E098819111DECF80E018
:1055E000DCCF5058BB27AA270ED00DC1FED030F01B
:1055F00003D120F031F49F3F11F41EF4F3C00EF4F8
:10560000E095E7FBE9C0E92F0FD180F3BA176207F5
:1056100073078407950718F071F49EF527C10EF4FF
:10562000E0950B2EBA2FA02D0B01B90190010C01B2
:10563000CA01A0011124FF27591B99F0593F50F4CA
:10564000503E68F11A16F040A22F232F342F442722
:10565000585FF3CF469537952795A795F04053951A
:10566000C9F77EF41F16BA0B620B730B840BBAF0EA
:105670009150A1F0FF0FBB1F661F771F881FC2F755
:105680000EC0BA0F621F731F841F48F48795779569
:105690006795B795F7959E3F08F0B3CF9395880F20
:1056A00008F09927EE0F97958795089571D008F423
:1056B00081E0089504D06894B111D9C00895BCD098
:1056C00088F09F5790F0B92F9927B751A0F0D1F0EB
:1056D000660F771F881F991F1AF0BA95C9F712C075
:1056E000B13081F0C3D0B1E00895C0C0672F782FEA
:1056F0008827B85F39F0B93FCCF3869577956795E1
:10570000B395D9F73EF490958095709561957F4F4C
:105710008F4F9F4F0895E89409C097FB3EF49095F2
:105720008095709561957F4F8F4F9F4F9923A9F07A
:10573000F92F96E9BB279395F69587957795679509
:10574000B795F111F8CFFAF4BB0F11F460FF1BC04D
:105750006F5F7F4F8F4F9F4F16C0882311F096E9E0
:1057600011C0772321F09EE8872F762F05C066238E
:1057700071F096E8862F70E060E02AF09A95660F47
:10578000771F881FDAF7880F9695879597F9089500
:10579000990F0008550FAA0BE0E8FEEF1616170642
:1057A000E807F907C0F012161306E407F50798F0AA
:1057B000621B730B840B950B39F40A2661F0232BC3
:1057C000242B252B21F408950A2609F4A140A6953F
:1057D0008FEF811D811D089597F99F6780E870E024
:1057E00060E008959FEF80EC089500240A94161657
:1057F000170618060906089500240A9412161306BF
:10580000140605060895092E0394000C11F488234C
:1058100052F0BB0F40F4BF2B11F460FF04C06F5F68
:105820007F4F8F4F9F4F089557FD9058440F551F3E
:1058300059F05F3F71F04795880F97FB991F61F012
:105840009F3F79F087950895121613061406551F89
:10585000F2CF4695F1DF08C0161617061806991FF5
:10586000F1CF86957105610508940895E894BB27EA
:1058700066277727CB0197F908958ADF08F48FEF21
:1058800008950BD0C0CFB1DF28F0B6DF18F0952314
:1058900009F0A2CFA7CF1124EACFC6DFA0F3959FCE
:1058A000D1F3950F50E0551F629FF001729FBB2707
:1058B000F00DB11D639FAA27F00DB11DAA1F649FB3
:1058C0006627B00DA11D661F829F2227B00DA11D66
:1058D000621F739FB00DA11D621F839FA00D611DEC
:1058E000221F749F3327A00D611D231F849F600D0D
:1058F000211D822F762F6A2F11249F5750408AF046
:10590000E1F088234AF0EE0FFF1FBB1F661F771FD1
:10591000881F91505040A9F79E3F510570F05CCF11
:10592000A6CF5F3FECF3983EDCF3869577956795BD
:10593000B795F795E7959F5FC1F7FE2B880F911DEF
:105940009695879597F908951F920F920FB60F922B
:1059500011242F933F938F939F93AF93BF93809185
:10596000CD069091CE06A091CF06B091D006309191
:10597000CC0623E0230F2D3758F50196A11DB11D4C
:105980002093CC068093CD069093CE06A093CF06AD
:10599000B093D0068091D1069091D206A091D30603
:1059A000B091D4060196A11DB11D8093D1069093AC
:1059B000D206A093D306B093D406BF91AF919F9126
:1059C0008F913F912F910F900FBE0F901F901895C0
:1059D00026E8230F0296A11DB11DD2CF3FB7F89440
:1059E0008091D1069091D206A091D306B091D406B1
:1059F00026B5A89B05C02F3F19F00196A11DB11D2A
:105A00003FBFBA2FA92F982F8827BC01CD01620F65
:105A1000711D811D911D42E0660F771F881F991F20
:105A20004A95D1F708958F929F92AF92BF92CF92ED
:105A3000DF92EF92FF926B017C01D0DF4B015C01A2
:105A4000C114D104E104F104D9F0D2D5C7DF68193B
:105A500079098A099B09683E73408105910580F3A5
:105A600021E0C21AD108E108F10888EE880E83E02F
:105A7000981EA11CB11CC114D104E104F10431F73A
:105A8000FF90EF90DF90CF90BF90AF909F908F905E
:105A90000895789484B5826084BD84B5816084BDA6
:105AA00085B5826085BD85B5816085BDEEE6F0E097
:105AB000808181608083E1E8F0E0108280818260F3
:105AC0008083808181608083E0E8F0E08081816074
:105AD0008083E1EBF0E0808184608083E0EBF0E0A4
