:10000000F8C0000027C1000025C1000023C1000086
:1000100021C100001FC100001DC100001BC1000064
:1000200019C1000017C1000015C1000013C1000074
:1000300011C100000FC100000DC100000BC1000084
:1000400009C1000007C1000005C1000003C1000094
:1000500001C10000FFC00000FDC000000C94C12DD4
:10006000F9C000000C94B8310C94EE31F3C00000DC
:10007000F1C00000EFC00000EDC00000EBC00000C8
:10008000E9C00000E7C00000E5C00000E3C00000D8
:100090000C9444320C947A32DDC00000DBC00000C6
:1000A000D9C00000D7C00000D5C00000D3C00000F8
:1000B000D1C00000CFC00000CDC00000CBC0000008
:1000C000C9C00000C7C000000C94912A0C94D03223
:1000D0000C940633BFC000000C945C330C94923334
:1000E000B9C0000000000A0B02090C0D0E0807033E
:1000F00004010000000000000000000000000000FB
:1001000000000000000000000000000000000000EF
:1001100012111000000000000000000000000000AC
:100120000000000000000000000001021020200874
:100130000810204010204080020102010804020142
:1001400001020408102040808040201008040201B1
:10015000800402018040201008040201080402010A
:100160000102040810204080010204081020408091
:1001700005050505070508080808020202020A0A23
:100180000808040404040101010101010101030341
:10019000030303030303040707070C0C0C0C0C0CEC
:1001A0000C0C0202020206060606060606060B0BE9
:1001B0000B0B0B0B0B0B00002200250028002B0063
:1001C0002E003100340002010000050108010B017E
:1001D00000002100240027002A002D0030003300F9
:1001E00001010000040107010A011732A3322F3375
:1001F000BB3311241FBECFEFD1E2DEBFCDBF00E085
:100200000CBF13E0A0E0B2E0ECE1F9E600E00BBFC8
:1002100002C007900D92A030B107D9F729E0A0E005
:10022000B3E001C01D92AA37B207E1F710E0C9EFB1
:10023000D0E000E006C021970109802FFE010E9456
:100240005B34C53FD10780E00807A9F70E947E2BE9
:100250000C948C34D5CECF93DF93882349F0EB01F7
:1002600081500E94C82E99838883DF91CF91089591
:10027000FB0111821082F9CF0F931F938B019C0118
:1002800083E036952795179507958A95D1F7075FEF
:100290001C4F462F477021E030E0F90102C0EE0FFD
:1002A000FF1F4A95E2F7AF01F80120812423CB011B
:1002B0000196211102C090E080E01F910F910895F6
:1002C0000F931F938B019C0183E03695279517951B
:1002D00007958A95D1F7677081E090E001C0880F9B
:1002E0006A95EAF7F801E75FFC4F2081452B31F46E
:1002F0008095822380831F910F910895822BFACFDE
:10030000CF92DF92EF92FF92CF93DF936B017C014C
:1003100060E086E3C816D104E104F10490F486E3BA
:100320008C0D0E942530E6012196AE01C701B60171
:10033000C7DFCE01DF91CF91FF90EF90DF90CF909C
:1003400008958C2DEECF882341F08150682F70E006
:1003500090E080E050E040E0B3CF0895CF92DF928C
:10036000EF92FF92CF93882351F16A017B01CFEF87
:10037000C80F20E030E0A901CB01B6010E94732C28
:1003800018168CF0C701B60190580E947C2C9B0176
:10039000AC016C2F70E090E080E0CF91FF90EF9087
:1003A000DF90CF90B2C0C701B6010E94772C8C2F8E
:1003B000CF91FF90EF90DF90CF900C94EB2ECF91E8
:1003C000FF90EF90DF90CF9008950F931F938B01D4
:1003D0009C0183E036952795179507958A95D1F767
:1003E00000501D4F462F477021E030E0F90102C058
:1003F000EE0FFF1F4A95E2F7AF01F8012081242399
:10040000CB010196211102C090E080E01F910F9175
:1004100008950F931F938B019C0183E036952795D8
:10042000179507958A95D1F7677081E090E001C034
:10043000880F6A95EAF7F801E050FD4F2081452BBF
:1004400031F48095822380831F910F910895822B30
:10045000FACF2F923F924F925F926F927F928F923C
:100460009F92AF92BF92CF92DF92EF92FF920F9343
:100470001F93CF93DF93D62EC72E782E692E490176
:100480005A01280161E08D2D0E942530CD2DDC2DF3
:100490008E010F5F1F4FA8016D2D7C2D872D962D8E
:1004A000B8DF20E030E0A901C201B7010E945A2D57
:1004B000181664F4C201B7010E947C2C2B01C501FF
:1004C000B4010E947C2CA201CE0123D0C801DF918F
:1004D000CF911F910F91FF90EF90DF90CF90BF9041
:1004E000AF909F908F907F906F905F904F903F90D4
:1004F0002F900895882341F08150682F70E090E09C
:1005000080E050E040E085CF0895862FB9010C943B
:10051000EB2E9C01FC01EC51FF4FE491E150E231E4
:10052000E0F4F0E08827E856FD4F8F4F0C945B34E1
:10053000AA02B102B402CB02E002AD02F50201034D
:1005400005031C03310346035D037203AD028703F9
:100550009E03B30384B5806884BD60E0822F0C9451
:10056000613084B58062F8CF809180008C7F82609A
:100570008093800080918100807E8061682B6093F1
:1005800081005093870040938600809180008068AE
:1005900080938000E2CF809180008C7F8260809386
:1005A000800080918100807E8061682B6093810053
:1005B0005093870040938600809180008062E8CF4E
:1005C000809180008C7F8260809380008091810088
:1005D000807E8061682B60938100509387004093F8
:1005E0008600809180008860D3CF8091B0008068C1
:1005F0008093B0008091B100887F682B6093B10038
:10060000ACCF8091B0008062F3CF809190008C7F5E
:1006100082608093900080919100807E8061682B41
:1006200060939100509397004093960080919000C2
:1006300080688093900091CF809190008C7F826041
:100640008093900080919100807E8061682B609300
:1006500091005093970040939600809190008062A3
:10066000E8CF809190008C7F826080939000809191
:100670009100807E8061682B609391005093970079
:1006800040939600809190008860D3CF8091A00025
:100690008C7F82608093A0008091A100807E806129
:1006A000682B6093A1005093A7004093A60080910F
:1006B000A00080688093A00050CF8091A0008C7F24
:1006C00082608093A0008091A100807E8061682B71
:1006D0006093A1005093A7004093A6008091A000D2
:1006E0008062E8CF8091A0008C7F82608093A00020
:1006F0008091A100807E8061682B6093A10050935F
:10070000A7004093A6008091A0008860D3CF80917D
:1007100020018C7F82608093200180912101807E66
:100720008061682B6093210150932701409326013B
:10073000809120018068809320010FCF809120015B
:100740008C7F82608093200180912101807E806176
:10075000682B6093210150932701409326018091DB
:1007600020018062E8CF809120018C7F826080939D
:10077000200180912101807E8061682B609321019E
:100780005093270140932601809120018860D3CFA8
:1007900090E080E008950F931F93009709F489C0BB
:1007A0006115710509F485C000913E0210913F0268
:1007B00020914002309141020E3F1F4F2F4F3F4F7B
:1007C00009F068C04FEF5FEFBA0140933E025093CB
:1007D0003F02609340027093410240913E0250916B
:1007E0003F026091400270914102DC011296ED914E
:1007F000FC9180819181A281B38180935304909375
:100800005404A0935504B093560484819581A68125
:10081000B78180934F0490935004A0935104B093F8
:10082000520480859185A285B38580934B04909373
:100830004C04A0934D04B0934E0484859585A68501
:10084000B7858093470490934804A0934904B093DC
:100850004A041092430410924404109245041092EA
:1008600046040E94780E8DE99EE0909313038093D6
:10087000120390931503809314030E94670D009751
:1008800031F421E030E030935804209357041F9155
:100890000F91089500913E0210913F022091400275
:1008A00030914102DB010D931D932D933C931397DF
:1008B00094CF8FEF9FEFEBCF8F929F92AF92BF922B
:1008C000CF92DF92EF92FF921F93CF93DF934B0172
:1008D0005C0110915A0482E090E090935804809358
:1008E000570481149104A104B10441F480915A0485
:1008F000811104C080915904C1E08111C0E0C12C74
:10090000D12C760180915A04811106C0809159043E
:10091000811102C0CC23D9F083E090E09093580479
:1009200080935704CC2381F1CCE9DFEF111102C091
:100930000E940212CE01DF91CF911F91FF90EF90A4
:10094000DF90CF90BF90AF909F908F9008956AE016
:1009500070E080E090E00E94302E80E1C80E87E2D7
:10096000D81EE11CF11C8FEF88169806A806B80661
:1009700031F0C1E08C149D04AE04BF0408F0C0E067
:1009800080E00E949B0DBECFD0E0C0E0CFCFCF92E1
:10099000DF92EF92FF920F931F93CF93DF938F3FDE
:1009A000910511F008F051C020915704309158047E
:1009B0002330310539F0209157043091580421300B
:1009C000310531F424E030E030935804209357048B
:1009D0006A017B01EC0182309105A8F011E0AE01C3
:1009E000C701B6010E94660DAB01BC01CE01112307
:1009F000F9F0DF91CF911F910F91FF90EF90DF9071
:100A0000CF900C942B148C01000F111F0E5E1C4F05
:100A1000D8018D919C91892B09F30E94351402977E
:100A2000E9F6D801ED91FC91CE011995182FD7CF99
:100A30000E944D1490E080E0DF91CF911F910F91C3
:100A4000FF90EF90DF90CF9008958FEF9FEFF4CF5E
:100A500080E00C949B0DCF93DF9386E090E0909321
:100A60005804809357040E94F40DEC01E2E1F3E096
:100A700084E0DF011D928A95E9F70E949A11109295
:100A8000580410925704CE01DF91CF9108958091C0
:100A90005904089580914204089560933E02709332
:100AA0003F02809340029093410290E080E00895DD
:100AB000E091B603F091B703A3E4B9E01C964D9121
:100AC0005D916D917C911F97408351836283738305
:100AD00018968D919D910D90BC91A02D8483958346
:100AE000A683B78308952F923F924F925F926F92A1
:100AF0007F928F929F92AF92BF92CF92DF92EF92AE
:100B0000FF920F931F93CF93DF93CDB7DEB7A097DC
:100B10000FB6F894DEBF0FBECDBF8091190490913F
:100B20001A0400911C0410911D048130910509F0F4
:100B300071C48091FD039091FE03A091FF03B091D9
:100B400000048090050490900604A0900704B090E3
:100B50000804C0900104D0900204E0900304F090D7
:100B600004048F3F2FEF9207A207B20709F02FC4AA
:100B7000C701B6016F5F7F4F8F4F9F4F0E94A82C18
:100B8000A50194010E945E2D20E030E040E85FE482
:100B90000E945E2D609338037093390380933A036B
:100BA00090933B03D801CD90DD90ED90FC90409068
:100BB0002002509021026090220270902302A7012F
:100BC0009601C301B2010E945A2D18160CF036C4CA
:100BD00080902C0290902D02A0902E02B0902F02B7
:100BE000A3019201C701B6010E940E2CA501940138
:100BF0000E945E2D2091100230911102409112024C
:100C0000509113020E940F2C4B015C01809243090A
:100C100090924409A0924509B09246092091280279
:100C20003091290240912A0250912B020E945A2DA4
:100C300087FD0DC48091280290912902A0912A027B
:100C4000B0912B028093430990934409A0934509E6
:100C5000B09346098090240290902502A09026022D
:100C6000B0902702A5019401609133097091340975
:100C700080913509909136090E94732C882341F0A8
:100C80008092330990923409A0923509B0923609C6
:100C900066E370E080E090E0EFDA909332098093B1
:100CA000310943E050E0BE016F5F7F4FD4DA2091FD
:100CB0003C0230913D02A981BA810E9463344B010C
:100CC0005C018092530990925409A0925509B09208
:100CD0005609A7019601609130027091310280910E
:100CE0003202909133020E945A2D18160CF0B5C3AF
:100CF000C0903402D0903502E0903602F090370276
:100D0000C501B4010E94A82C20E030E040E057E388
:100D10000E945E2D9B01AC016091430970914409D2
:100D200080914509909146090E940E2CA7019601D9
:100D30000E945E2D6B017C01C0924709D092480948
:100D4000E0924909F0924A09209100023091010293
:100D500040910202509103020E945E2D20915C0995
:100D600030915D0940915E0950915F090E940E2CFF
:100D700020911402309115024091160250911702F1
:100D80000E945E2D4B015C0180924B0990924C09B0
:100D9000A0924D09B0924E0920911802309119028B
:100DA00040911A0250911B02C701B6010E945E2DAC
:100DB000209158093091590940915A0950915B0985
:100DC0000E940F2CA50194010E940F2C6B017C0145
:100DD00020E030E040E853E40E94732C87FF49C3D1
:100DE00020E030E0A901C701B6010E945A2D87FD1D
:100DF0003DC3C701B6010E947C2C609357096AE08D
:100E000070E080E090E0E1DA8C0190933E098093FD
:100E10003D096091570970E090E080E00E94A82CA5
:100E2000AB01BC01C8019ADA0091190410911A04AF
:100E300020914709309148094091490950914A0948
:100E40006091040270910502809106029091070260
:100E50000E945E2D60934F09709350098093510951
:100E6000909352090130110509F098C26091010474
:100E70007091020480910304909104040E94A82CB4
:100E800020E030E040E85FE40E945E2D6B017C01D1
:100E90006091FD037091FE038091FF039091000427
:100EA0000E94A82C9B01AC01C701B6010E940F2C27
:100EB00020E030E0A9010E940F2C0E947C2CAB01A5
:100EC000BC0190E080E063DD8091190490911A04E8
:100ED000019709F063C260910D0470910E04809136
:100EE0000F04909110040E94A82C20E030E040E80C
:100EF0005FE40E945E2D6B017C016091090470919A
:100F00000A0480910B0490910C040E94A82C9B0170
:100F1000AC01C701B6010E940F2C20E030E0A9010E
:100F20000E940F2C0E947C2CAB01BC0181E090E060
:100F30002EDD8091190490911A04019709F02EC2B8
:100F4000E0916803F09169030190F081E02D8081C8
:100F50009181A281B3818F839887A987BA87809175
:100F6000380390913903A0913A03B0913B038D8BE4
:100F70009E8BAF8BB88FE0913C03F0913D03C08016
:100F8000D180E280F380E0916C03F0916D030081E9
:100F90001181E0913003F091310320803180A281F2
:100FA000B381BC83AB83848195819E838D8396813D
:100FB0009B87A781AF87E0912E03F0912F031182C9
:100FC000108288E0F801D10101900D928A95E1F735
:100FD000E0916603F09167038B819C81918380830C
:100FE00067DD20E030E040E05FE3C701B6010E942A
:100FF0005E2D2B013C01AB81BC812D913D914D912A
:101000005C910E945E2DF1012081318142815381EA
:101010000E940F2CD8016D937D938D939C93139711
:10102000EB81FC812481358146815781C301B20166
:101030000E945E2DD10114962D913D914D915C91B0
:1010400017970E940F2CF80164837583868397831A
:10105000E0916803F0916903A080B180A30192013F
:101060006F81788589859A850E940F2CD5016D93B3
:101070007D938D939C931397E0916603F0916703A2
:101080008D819E81918380832EDD12DD20E030E012
:10109000A901C701B6010E945E2D4B015C0120E051
:1010A00030E040E45FE3C701B6010E945E2D2B01F2
:1010B0003C01AD81BE812D913D914D915C910E948D
:1010C0005E2D698B7A8B8B8B9C8BEB81FC812081D5
:1010D000318142815381C501B4010E945E2D9B0183
:1010E000AC0169897A898B899C890E940F2CD10176
:1010F0002D913D914D915C910E940F2CF8016083E0
:10110000718382839383AB81BC8114962D913D9131
:101110004D915C911797C501B4010E945E2D4B0162
:101120005C01ED81FE812481358146815781C301B7
:10113000B2010E945E2D9B01AC01C501B4010E9469
:101140000F2CD10114962D913D914D915C911797E3
:101150000E940F2CF8016483758386839783E09146
:101160006803F0916903A080B180A30192016F81AF
:10117000788589859A850E940F2CD5016D937D9382
:101180008D939C931397E0916603F0916703BB8561
:10119000B0832F852183A7DC8BDC29E33EE843E67F
:1011A0005EE3C701B6010E945E2D698B7A8B8B8B43
:1011B0009C8B2BEA3AEA4AEA5EE3C701B6010E9439
:1011C0005E2D698F7A8F8B8F9C8F29E33EE843EEEB
:1011D0005EE3C701B6010E945E2D6D8F7E8F8F8FFB
:1011E00098A38B858F839F859887D1011896B88B9C
:1011F000AF87F10181919191A191B1911F018B87ED
:101200009C87AD87BE87AB81BC816D917D918D91AF
:101210009D91BC83AB83ED81FE81419051906190A3
:101220007190FE83ED83AF81B885CD90DD90ED9018
:10123000FD90B887AF8329893A894B895C890E94E0
:101240005E2D4B015C01298D3A8D4B8D5C8DC30168
:10125000B2010E945E2D9B01AC01C501B4010E9448
:101260000F2C4B015C012D8D3E8D4F8D58A1C70178
:10127000B6010E945E2D9B01AC01C501B4010E9424
:101280000F2C2B853C854D855E850E940F2CF80127
:1012900061937193819391938F018F8598898215C2
:1012A000930509F0A6CFE0916803F09169030190DE
:1012B000F081E02D8D899E89AF89B88D80839183DF
:1012C000A283B383E0912E03F0912F0381E090E09D
:1012D000918380838091FD039091FE03A091FF0391
:1012E000B09100040196A11DB11D8093FD03909360
:1012F000FE03A093FF03B0930004892B8A2B8B2B52
:1013000099F48091010490910204A0910304B0919A
:1013100004040196A11DB11D809301049093020461
:10132000A0930304B093040480913803909139038F
:10133000A0913A03B0913B03E0911C04F0911D048D
:1013400080839183A283B3838091090490910A04DE
:10135000A0910B04B0910C040196A11DB11D8093C6
:10136000090490930A04A0930B04B0930C04892BF6
:101370008A2B8B2B99F480910D0490910E04A091EF
:101380000F04B09110040196A11DB11D80930D04AE
:1013900090930E04A0930F04B0931004A0960FB680
:1013A000F894DEBF0FBECDBFDF91CF911F910F919B
:1013B000FF90EF90DF90CF90BF90AF909F908F9075
:1013C0007F906F905F904F903F902F900895BC0159
:1013D000CD016F5F7F4F8F4F9F4F0E94A82CA501BB
:1013E00094010E945E2D2B013C01C701B6010E94B1
:1013F000A82CA50194010E945E2D20E030E040E879
:101400005FE40E945E2D9B01AC01C301B2010E940A
:101410000F2CC0CB892B09F0C5CBE0916803F0916C
:1014200069030190F081E02D80819181A281B381D7
:10143000F80180839183A283B383B4CB80901C0294
:1014400090901D02A0901E02B0901F02C9CBC50152
:10145000B40133D28111EECBFDCBC0903802D090D5
:101460003902E0903A02F0903B024ACC10925709C0
:10147000C6CC8FEF80935709C2CC4F925F926F9288
:101480007F928F929F92BF92CF92DF92EF92FF92C4
:101490000F931F93CF93DF9384E090E0BDD1E8E2F8
:1014A000F3E08EEFDF011D928A95E9F729E134E040
:1014B000378326838CE194E09093690380936803DB
:1014C00005E014E0158B048B46EB53E057AF46AFB5
:1014D000C0EBD3E0D0936D03C0936C0345EF53E0B2
:1014E00050936B0340936A0347EF53E050936F03AD
:1014F00040936E0342EB53E05093710340937003AB
:1015000044EB53E0509373034093720348EB53E072
:101510005093AF034093AE03F0939303E093920391
:10152000F583E48361E070E0D9016D937C932DED48
:1015300033E06DEB73E0D9016D937C9365EC73E060
:101540007093E0036093DF036DEC73E07093E2034C
:101550006093E10365ED73E07093E4036093E3034C
:1015600068E5C62E69E0D62ED982C88271E4872E3E
:1015700079E0972EEA01998288823187208728E6D0
:1015800032E0338722872EE134E0DC012D933C9357
:1015900040E050E060E87FEB409315045093160460
:1015A00060931704709318044DEC5CEC6CE47EE3DC
:1015B000E801488359836A837B8345EE53E087ECD7
:1015C0009EEBA3E6B5E9EA0188839983AA83BB83EE
:1015D0008DEE96E0A3ECB1E58093E9039093EA03E6
:1015E000A093EB03B093EC0383E390E2A3EEBBE59F
:1015F0008093ED039093EE03A093EF03B093F00379
:1016000087E59FEEABE1B3E18093F1039093F203A2
:10161000A093F303B093F403ACE1B3E0B383A283EC
:10162000E6E1F3E01196FC93EE938DE692E0918370
:10163000808393838283958384838BEF93E01596D5
:101640009C938E93149713965C934E9312971796D0
:101650003C932E931697E3E4F9E085E1DF011D92B8
:101660008A95E9F788E0E60119928A95E9F7F4018D
:1016700011821082CBE2D9E086E1DE011D928A95CB
:10168000E9F7BB24B394BD8AE0E08E2EE2E09E2E03
:10169000F40184A195A1A6A1B7A188879987AA87FB
:1016A000BB87412C512C3201439449825A826B8270
:1016B0007C8266E370E080E090E00E9480019F837E
:1016C0008E83BD821C86BC8A4D865E866F86788A34
:1016D000E12CF12C8701A80197016AE070E080E01D
:1016E00090E00E9429029B8B8A8BB98AE4018C8549
:1016F0009D85AE85BF85F60180839183A283B383E8
:1017000088859985AA85BB8584839583A683B783BD
:10171000DF91CF911F910F91FF90EF90DF90CF90CD
:10172000BF909F908F907F906F905F904F900895A3
:1017300080912B0981111FC081E080932B0980913A
:101740002C0990912D09A0912E09B0912F09019794
:10175000A105B10581F480913009882361F066E329
:1017600070E080E090E00E943C0190933209809309
:1017700031090E94A3018091370981112EC081E0B7
:10178000809337098091380990913909A0913A09DD
:10179000B0913B090197A105B105F9F480913C098D
:1017A0008823D9F06AE070E080E090E00E94E501D3
:1017B00090933E0980933D0940E050E0BA010E94B9
:1017C000AE016AE070E080E090E00E94E501909355
:1017D0003E0980933D090C947A02089560E070E020
:1017E00080E89FE7089560E070E080E89FE7089553
:1017F00060E070E080E89FEF089560E070E080E8CE
:101800009FEF089560E070E080EC9FEF089560E046
:1018100070E080EC9FEF0895F5DF60936C097093A2
:101820006D0980936E0990936F09F1DF60936009F1
:10183000709361098093620990936309CFDF60938D
:1018400068097093690980936A0990936B09CBDFEB
:1018500060936409709365098093660990936709A2
:10186000C7DF609370097093710980937209909338
:101870007309C3DF609374097093750980937609C7
:101880009093770908950F931F938B019C01002774
:10189000112720783F770115110520483F4749F46B
:1018A000AB01BC016F77772781E0452B462B472B97
:1018B00009F480E01F910F910895E5CF4F925F9258
:1018C0006F927F928F929F92AF92BF92CF92DF9250
:1018D000EF92FF920F931F93F89440903204509030
:1018E00033046090340470903504C0902604D09086
:1018F0002704E0902804F09029044130510509F0B4
:10190000A6C09B01AC0124193509460957092901D4
:101910003A0100912E0410912F042091300430914F
:10192000310448015901840C951CA61CB71C801673
:101930009106A206B306A0F400912A0410912B048C
:1019400020912C0430912D040F5F1F4F2F4F3F4FDC
:1019500000932A0410932B0420932C0430932D041D
:1019600080922E0490922F04A0923004B092310401
:1019700000912A0410912B0420912C0430912D0405
:101980008092360490923704A0923804B0923904C1
:1019900000933A0410933B0420933C0430933D049D
:1019A000609332047093330480933404909335042D
:1019B000A301920160E47DE083E090E00E94163490
:1019C0006C0D7D1D8E1D9F1D609326047093270452
:1019D000809328049093290400913E0210913F02C5
:1019E00020914002309141020F3F1F4F2F4F3F4F38
:1019F000F1F000913E0210913F022091400230919F
:101A000041020E3F1F4F2F4F3F4F89F0C0903E02C3
:101A1000D0903F02E0904002F090410221E08C140F
:101A20009D04AE04BF0408F420E02093420478949F
:101A30001F910F91FF90EF90DF90CF90BF90AF90EC
:101A40009F908F907F906F905F904F9008954B0183
:101A50005C0184189508A608B708A3019201261B0B
:101A6000370B480B590B6415750586059705E0F093
:101A700082169306A406B50640F420E030E0A901E2
:101A800081149104A104B104A1F460E47DE083E039
:101A900090E00E941634A7019601261B370B480BD5
:101AA000590BCA01B901C3CF82169306A406B50625
:101AB00060F7A501940160E47DE083E090E00E947E
:101AC00016346C0D7D1D8E1D9F1DB1CFF7CECF93AB
:101AD000DF9300D01F92CDB7DEB71C821B821A8223
:101AE000198210923E0410923F041092400410920A
:101AF0004104BE016F5F7F4FCE0103960E94622AB0
:101B000069817A818B819C810E945223009761F4C4
:101B1000BE016F5F7F4FCE0103960E946E2A6981DE
:101B20007A818B819C812FD50F900F900F900F9011
:101B3000DF91CF910895FF920F931F93CF93DF937F
:101B4000082F60E070E0CB010E94302EFF24F39458
:101B50000E943B22EC01892B89F010E0CE3F8FEFF1
:101B6000D80769F0002361F160E070E0CB010E94CA
:101B7000302E81E090E0892B59F322C011E026D568
:101B8000EC01892B21F0CE3F8FEFD80759F71111C7
:101B90001EC011E0229609F410E00E94EB21EC0136
:101BA000892B21F0CE3F8FEFD807E1F6111111C03C
:101BB00011E0CE3F8FEFD80709F410E001110BC000
:101BC000CE01DF91CF911F910F91FF90089511E009
:101BD000E4CF11E0F3CF60E070E0CB010E94302E43
:101BE0001F25812F90E0C7CFCF93DF9380914204D0
:101BF000882321F060E070E0CB014DD636D6D0E0EE
:101C0000C0E0892B71F06AE070E080E090E00E9413
:101C1000302E81E090DF29D62196C03D27E0D20703
:101C200081F728D60E94A62310925A0410925904D4
:101C300010925304109254041092550410925604BA
:101C400010924F04109250041092510410925204BA
:101C500010924B0410924C0410924D0410924E04BA
:101C600010924704109248041092490410924A04BA
:101C700010924304109244041092450410924604BA
:101C80004EEF5FEF6FEF7FEF40933E0250933F02C6
:101C9000609340027093410210924204E6E3F4E044
:101CA00028E0DF011D922A95E9F710923204109284
:101CB0003304109234041092350410922E041092C2
:101CC0002F04109230041092310410922A041092C2
:101CD0002B0410922C0410922D04109226041092C2
:101CE00027041092280410922904DF91CF910895BF
:101CF00010926604109267041092680410926904AE
:101D00001092650480916E0490916F049093640426
:101D100080936304109262041092610410925D0437
:101D200010925E0410925F041092600410926B0493
:101D300010926A0490E080E00895CF92DF92EF92D3
:101D4000FF920F931F93CF938C01019709F055C019
:101D500020916E0430916F0480916304909164042B
:101D600040916E0450916F04509364044093630457
:101D70002817390781F010926204109261041092C2
:101D80005D0410925E0410925F0410926004109241
:101D90006B0410926A0480916E0490916F04019715
:101DA00061F580916A0490916B04892B21F48091F4
:101DB0004202811112C080916A0490916B040197D4
:101DC000E1F480915D0490915E04A0915F04B09174
:101DD00060040197A105B10581F410925D04109291
:101DE0005E0410925F04109260041092420282E03E
:101DF00090E090936B0480936A0480916E049091BC
:101E00006F04019709F01CC18091840490918504AE
:101E10008017910709F014C180918004909181048A
:101E2000A0918204B0918304009709F409C1209124
:101E30007F0421110DC04091800450918104609174
:101E4000820470918304452B462B472B09F4F8C07C
:101E500020916A0430916B042230310509F0F0C002
:101E6000209161042111ECC0FC01C080D180E2808E
:101E7000F38080916504882309F4D3C080917104B4
:101E800090917204892B09F4FEC020917104309165
:101E9000720481E02230310509F080E02091710464
:101EA00030917204C1E02130310549F02091710474
:101EB00030917204C1E02230310509F0C0E088237E
:101EC00009F456C020917B0430917C0440917D043C
:101ED00050917E04C701B6010E945A2D87FD14C09F
:101EE00020917B0430917C0440917D0450917E04CC
:101EF0006091660470916704809168049091690410
:101F00000E94732C87FD22C020917B0430917C04B9
:101F100040917D0450917E04C701B6010E945A2D64
:101F2000181634F520917B0430917C0440917D0497
:101F300050917E04609166047091670480916804FA
:101F4000909169040E94732C811112C080917304D6
:101F500090917404A0917504B0917604892B8A2B1A
:101F60008B2B19F481E08093620481E080936104FB
:101F7000CC2309F456C020917B0430917C0440911D
:101F80007D0450917E04C701B6010E94732C87FF27
:101F900014C020917B0430917C0440917D045091C9
:101FA0007E0460916604709167048091680490914A
:101FB00069040E945A2D87FF22C020917B04309132
:101FC0007C0440917D0450917E04C701B6010E94BB
:101FD000732C811126C020917B0430917C044091A8
:101FE0007D0450917E046091660470916704809135
:101FF0006804909169040E945A2D181694F48091F7
:10200000730490917404A0917504B0917604892BA7
:102010008A2B8B2B19F481E08093620481E08093FA
:10202000610481E090916104911180E080936504E6
:10203000C0926604D0926704E0926804F09269044A
:102040000130110509F067C180916A0490916B0419
:10205000892BD9F41092700410926104809142028D
:10206000882379F082E090E090936B0480936A0477
:102070001092420220916E0430916F0481E0232B74
:10208000E9F080E01BC081E009CF1092420280910C
:102090007004882349F01092620410926B0410922D
:1020A0006A0410927004EDCF80916E0490916F04D9
:1020B000892BE1F0809161041092610420916A04FF
:1020C00030916B042230310509F45EC088F421158B
:1020D000310509F448C02130310509F4F3C01092EC
:1020E0006204109261041092700438C081E0E6CF5F
:1020F0002330310509F4B1C02430310581F7409116
:102100005D0450915E0460915F047091600441151C
:1021100051056105710561F041505109610971096D
:1021200040935D0450935E0460935F047093600479
:1021300040915D0450915E0460915F047091600471
:10214000452B462B472BD9F420916C0430916D041C
:102150002130310509F046C01092620410926B04E0
:1021600010926A040CC080914202882341F082E000
:1021700090E090936B0480936A0410924202109254
:102180005B0480916204CEC08823C9F380917304FC
:1021900090917404A0917504B091760418161906F4
:1021A0001A061B060CF07DC080916E0490916F049E
:1021B000019709F076C08091730490917404A09106
:1021C0007504B091760480935D0490935E04A093AF
:1021D0005F04B093600483E090E090936B0480937D
:1021E0006A04CDCF409177045091780460917904CE
:1021F00070917A04452B462B472BA9F0109262046C
:102200008091770490917804A0917904B0917A0438
:1022100080935D0490935E04A0935F04B093600488
:1022200081E090E0DACF882399F080914302909189
:102230004402A0914502B091460280935D049093C0
:102240005E04A0935F04B093600484E090E0C5CF87
:102250001092620482E090E0C0CF80915D04909182
:102260005E04A0915F04B09160040097A105B105E0
:1022700059F00197A109B10980935D0490935E0420
:10228000A0935F04B093600480915D0490915E041C
:10229000A0915F04B0916004892B8A2B8B2B09F0ED
:1022A0006ECF8091430290914402A0914502B0917B
:1022B0004602892B8A2B8B2B09F44ECF81E0809329
:1022C0006204B3CF40915D0450915E0460915F045D
:1022D00070916004411551056105710561F041502F
:1022E00051096109710940935D0450935E04609344
:1022F0005F047093600440915D0450915E046091AE
:102300005F0470916004452B462B472B09F037CFB3
:102310008111C7CF9FCF80915B04882309F431CF0F
:1023200080915C04CF911F910F91FF90EF90DF900F
:10233000CF9008951092660410926704109268047A
:10234000109269041092650410926B0410926A0452
:102350001092640410926304109285041092840415
:10236000109262041092610410925D0410925E0457
:1023700010925F041092600410925C0410925B044F
:1023800010928004109281041092820410928304AF
:1023900010927F0410927B0410927C0410927D04B2
:1023A00010927E0488EE93E0A0E0B0E080934302B8
:1023B00090934402A0934502B09346021092770492
:1023C000109278041092790410927A041092730497
:1023D0001092740410927504109276041092720494
:1023E0001092710481E08093420210927004109266
:1023F0006F0410926E0410926D0410926C0490E0C1
:1024000080E0089580916E0490916F04892B19F5F6
:1024100080914202882351F080917004811106C09E
:1024200081E080935C0480935B04089520917004A4
:102430003091420281E090E0332311F090E080E09F
:1024400030E082239323892B21F010925C0481E0F9
:10245000EACF10925B04089582E090E0FA01918344
:1024600080838FEF9FEF0895CF93DF93EA0100976A
:1024700011F00E94C6241982188290E080E0DF915A
:10248000CF910895DB01009719F48FEF8C93089595
:102490002EEF2C93FC013F96EF30F10508F034C08D
:1024A0008827EA5AFD4E8F4F0C945B3482128012BB
:1024B0007E127C127A1276127812741272127012D4
:1024C0006D12691265126B12841280E311968C935F
:1024D000089589E2FBCF82E2F9CF11961C9208950C
:1024E00083E2F4CF81E2F2CF81E1F0CF87E2EECF59
:1024F0008AE2ECCF80E1EACF84E2E8CF88E2E6CF5F
:1025000086E2E4CF81E3E2CF80E2E0CF80919204E3
:102510009091930408959093930480939204089566
:1025200080919104089590919104892B8093910456
:102530000895982F90958091910489238093910418
:10254000089580919004089580918E0490918F0455
:1025500008956115710559F0FB0130E020E070E04D
:1025600060E02417350719F06115710511F0CB01F2
:102570000895A081B181A817B90709F4BF012F5FA1
:102580003F4F3696EECF8091940481111CC060D2EB
:1025900066D290938704809386040E94C41C0E9494
:1025A000D61C90938B0480938A040E9453210E942E
:1025B0005A21909389048093880481E08093940445
:1025C00090E080E0089584EF9FEF08958F929F92AE
:1025D000AF92BF92CF92DF92EF92FF920F931F9331
:1025E000CF93DF9300D000D000D01F92CDB7DEB7DD
:1025F0001A86198618861F821E821D821C821B82E3
:102600001A8219828091940407EF1FEF882309F43E
:102610009CC08E010D5F1F4F9E012B5F3F4FAE018F
:10262000495F5F4FBE01675F7F4F90E080E00E948F
:10263000D7228C01009721F00596029708F0DBC0A5
:1026400029853A852115310509F402C1ED80FE8006
:102650004B815C81B701640F751F8F819885861748
:10266000970708F4F5C0E20EF31ED7019C91903C49
:1026700009F07FC04230510508F47BC011968C915F
:102680004091920450919304452B09F49CC0913FD2
:1026900008F071C02CE1290F2D3008F48BC02DE219
:1026A000290F203108F489C0903C21F481508230F8
:1026B00008F483C088E3890F8B3008F481C092E46A
:1026C000C92E92E1D92EECE2F2E16D817E81AE015C
:1026D0004F5F5F4F89859A8519955C01C114D104BC
:1026E000A1F189809A808114910479F18B819C8178
:1026F0008815990508F487C010E000E04B815C81E3
:1027000070E060E0C7010E94853401151105E9F40D
:1027100049815A8169857A858D819E81680F791FEB
:10272000C501F6011995E980FA800D811E812F817E
:10273000388549855A856FEF7FEF81E090E00E94F0
:1027400072228C01892B09F056C0C8012A960FB657
:10275000F894DEBF0FBECDBFDF91CF911F910F91D7
:10276000FF90EF90DF90CF90BF90AF909F908F90B1
:10277000089580E085CF30E020E0220F331FF9017B
:10278000EA57FB4F0190F081E02D309709F497CF85
:10279000892F90E01995009709F491CFDC011296EA
:1027A000ED91FC9113971496CD90DC90309709F041
:1027B0008CCF1FC021E030E0E0CF22E030E0DDCF61
:1027C00023E030E0DACFD12CC12CE4E3F2E19F3FEB
:1027D00009F07BCFE0918604F0918704309721F4D3
:1027E000C90104EF1FEF0CC08FEF90E0199500971F
:1027F000A9F604EF1FEF89859A85009709F4A5CF04
:102800000E94C624A2CF0E94A1238C0189859A85AB
:102810000E94C62470E060E0C4010E943A239887B9
:102820008F830E946F229E838D836F8178856115CF
:10283000710559F0C8010E9452269A87898706EFD0
:102840001FEF892B09F058CF59CF08EF1FEF56CF54
:1028500008EF1FEFD0CF20919404222319F020E03D
:102860000C94DB1C87EF9FEF089580919204909168
:10287000930408950E945F210E94B920F5D0E6E8F4
:10288000F4E088E0DF011D928A95E9F71092940444
:1028900090E080E008950C94171F21E040E050E0A4
:1028A000BA010C94DB1C86E090E0FA0191838083EE
:1028B00090E080E0089547E050E060E772E049CEA4
:1028C000DF92EF92FF920F931F93CF93DF938A01D2
:1028D000EC01C60FD71FE0909804F0909904D980BE
:1028E0000E948923D816190678F082E090E0F8015A
:1028F000918380838EEF9FEFDF91CF911F910F9196
:10290000FF90EF90DF900895EF2841F482E090E08F
:10291000F8019183808384EF9FEFEECF89818093CC
:10292000970490E00196F8019183808390E080E025
:10293000E3CFCF93DF93EA010E94C81F882321F0E1
:102940000E9496230E94C91F82E090E099838883A9
:102950008BEF9FEFDF91CF910895CF93DF93EB0142
:1029600086E0FB0111928A95E9F78FEF8883D8DD25
:102970008983E7DD8A83E8DD9D838C83DF91CF91B6
:102980000895CF93DF93EA010E94CB1F811109C004
:1029900082E090E09983888385EF9FEFDF91CF916C
:1029A000089590E080E0B7DD81E090E0998388832E
:1029B00090E080E0F3CF0F931F93CF93DF93EA0172
:1029C0008C01060F171F0E94CB1F81110BC082E0E4
:1029D00090E09983888385EF9FEFDF91CF911F91DE
:1029E0000F910895F8018181823038F082E090E003
:1029F000998388838EEF9FEFF0CF81E090E08BDDAD
:102A000088E090E09983888390E080E0E6CFCF93E0
:102A1000DF930097D1F4EB01FB01329686E0DF01F2
:102A20001D928A95E9F78FEF888385E089831A8262
:102A30000E9489238B830E9488239D838C8381E05D
:102A40008E838F83DF91CF910895DF91CF911ACD3F
:102A50008BE594E19093960480939504089580917A
:102A600095049091960408951092960410929504FE
:102A7000089580919804909199040895411105C09A
:102A8000611571058105910561F06093980470935B
:102A9000990480939A0490939B0440939C0481E052
:102AA000089580E00895FF920F931F93CF93DF93D3
:102AB0008A01EC01C60FD71FF9800E948923F816FE
:102AC000190668F082E090E0F801918380838EEF30
:102AD0009FEFDF91CF911F910F91FF9008956C812F
:102AE0007D818E819F814B81C9DF811108C082E089
:102AF00090E0F8019183808384EF9FEFEACF898192
:102B00008093970490E00196F8019183808390E090
:102B100080E0DFCFCF93DF93EA01FC01E60FF71FE0
:102B200064817581868197814381A8DF811109C005
:102B300082E090E09983888384EF9FEFDF91CF91CB
:102B4000089581E090E09983888390E080E0F6CF5B
:102B5000E8E9F4E04081518162817381480F511DA1
:102B6000611D711D40835183628373830895CF93E8
:102B7000C09197044C2F50E0609198047091990493
:102B800001960E947C348C2FE3DF10929704CF9142
:102B90000895009799F480919804909199042FEFEB
:102BA000FB012083892B59F02091970430E02F5F9F
:102BB0003F4F2417350719F4CB01D9CF63CC0895C3
:102BC000009799F480919804909199042FEFFB015C
:102BD0002083892B59F02091970430E02F5F3F4FDD
:102BE0002417350719F4CB01C2CF4CCC089523E14B
:102BF000AC01249FC001259F900D1124E091A104F8
:102C0000F091A204E80FF91F238134812250310989
:102C100081E02230310508F080E008950F931F9382
:102C2000CF93DF930091A3041091A404D0E0C0E0FF
:102C300080E00C171D0749F491E0811190E0892F85
:102C4000DF91CF911F910F9108958111F5CFCE01A2
:102C5000CEDF2196EECFA091A104B091A2041097EF
:102C600029F12091A3043091A40482179307F0F472
:102C700053E1589F9001599F300D1124A20FB31FAB
:102C8000ED91FC911197309789F012968C9168170D
:102C900068F48DE0689FE00DF11D11248081918121
:102CA000892B21F081E09281491708F080E0089596
:102CB0009C0143E1429FC001439F900D1124E0918C
:102CC000A104F091A204E80FF91F8385823091F4EA
:102CD00081E090E065817681409147025091480201
:102CE0006417750711F490E080E0892B19F081E0FA
:102CF000232B09F080E00895FC01A081B1818DE0D3
:102D0000689FA00DB11D112413964D915C9185858E
:102D10009685489F9001499F300D589F300D112492
:102D2000C9010196611103C0478144FD04960895CD
:102D3000EF92FF920F931F93CF93DF93EA01FC0171
:102D4000E60FF71F02811381E480F5804F2D6E2D71
:102D5000C80181DF81110DC082E090E099838883F2
:102D60008EEF9FEFDF91CF911F910F91FF90EF902A
:102D70000895C8013CDF882339F082E090E0998310
:102D8000888388EF9FEFEECF10934E0200934D02A1
:102D9000E0924F02F092500281E090E099838883A4
:102DA00090E080E0DFCFCF92DF92EF92FF920F931F
:102DB0001F93CF93DF937A01EC01C60FD71FC0900A
:102DC0004D02D0904E0200914F0210915002412FBF
:102DD000602FC60140DF811110C082E090E0F70152
:102DE000918380838AEF9FEFDF91CF911F910F91A5
:102DF000FF90EF90DF90CF900895C601F8DE882312
:102E000041F082E090E0F7019183808388EF9FEFAB
:102E1000EBCF4C815D816E817F819A8189818F3F6B
:102E200041F082E090E0F701918380838EEF9FEF85
:102E3000DBCFE3E1EC9D9001ED9D300D1124E0919D
:102E4000A104F091A204E20FF31F0190F081E02DA4
:102E50002DE0029FE00DF11D11240190F081E02D85
:102E600027E0129FE00DF11D1124808391838B8157
:102E7000828343835483658376831F5F109350025C
:102E800081E090E0F7019183808390E080E0ACCF17
:102E9000EF92FF920F931F93CF93DF937A018C01F0
:102EA000060F171FC091A104D091A204209781F0B2
:102EB00021E030E0F801828193814091A304509198
:102EC000A4048417950710F030E020E0232B71F460
:102ED00082E090E0F701918380838EEF9FEFDF9196
:102EE000CF911F910F91FF90EF90089543E1489F7C
:102EF0009001499F300D1124C20FD31F78DE882323
:102F000041F082E090E0F7019183808388EF9FEFAA
:102F1000E6CFF8012481358120383105C8F6878154
:102F20008111D6CF4181842F90E08F7E009741F0B0
:102F300082E090E0F7019183808386EF9FEFCFCF0F
:102F40004F833E832D83268128871986223010F4F3
:102F500021E0288721E030E0F70131832083BFCFD3
:102F600088E090E0FA019183808390E080E008950A
:102F7000FB018FEF808381E181838FEF9FEF93834C
:102F8000828380E890E09583848316821782089577
:102F9000FB018FEF808391E091838283938384830D
:102FA00084E3858381E090E0978386830895DF92B0
:102FB000EF92FF920F931F93CF93DF93EA01FC01EF
:102FC000E60FF71F8181813071F082E090E09983F4
:102FD00088838FEF9FEFDF91CF911F910F91FF902B
:102FE000EF90DF90089582819381D4802581E680DF
:102FF000F7800091A1041091A2040115110539F484
:1030000082E090E0998388838CEF9FEFE4CF40913A
:10301000A3045091A4048417950738F082E090E04F
:10302000998388838EEF9FEFD6CF892B39F082E08A
:1030300090E09983888386EF9FEFCDCF8D2D8D7F94
:10304000B1F72130A1F781E0D11006C091E0E91677
:10305000F10431F080E004C0E2E0EE16F104D0F3B8
:10306000882329F390E080E0C2DD882339F082E0F4
:1030700090E09983888388EF9FEFADCFF801D386E6
:1030800081E08487F686E586108A178681E090E0E5
:103090009983888390E080E09ECF4CE050E06AE91D
:1030A00072E057CA8F929F92BF92CF92DF92EF92B7
:1030B000FF920F931F93CF93DF93EA01FC01E60F7A
:1030C000F71F828193810481B580E091A104F09182
:1030D000A204309791F482E090E0998388838CEF8A
:1030E0009FEFDF91CF911F910F91FF90EF90DF90B5
:1030F000CF90BF909F908F9008952091A30430911E
:10310000A4048217930738F082E090E099838883C3
:103110008EEF9FEFE6CF23E1289F6001299FD00C1F
:103120001124EC0DFD1DE080F180E114F10499F211
:103130008281081748F78DE0089F80011124E00E76
:10314000F11EF70180819181892B29F6BB20E1F2E4
:10315000F7E0BF9E40011124C4010E948D24F701B5
:1031600091838083E091A104F091A204EC0DFD1DF8
:103170000190F081E02DE00FF11F80819181009797
:1031800039F482E090E0998388838DEF9FEFA9CF97
:10319000A40170E060E00E9485348091A1049091C8
:1031A000A204C80ED91EF60180819181080F191F53
:1031B000F801B28281E090E09983888390E080E01A
:1031C00090CFAF92BF92CF92DF92FF920F931F9357
:1031D000CF93DF93EA01FC01E60FF71F8281938111
:1031E000F4800091A1041091A2040115110581F44D
:1031F00082E090E0998388838CEF9FEFDF91CF91FD
:103200001F910F91FF90DF90CF90BF90AF900895E6
:103210002091A3043091A4048217930738F082E030
:1032200090E0998388838EEF9FEFE8CF2FEF2F0DEB
:103230002C3FA8F723E1289F6001299FD00C11247F
:103240000C0D1D1DF80180819181892B89F6FDE00F
:10325000FF9E50011124C5010E948D24F801918325
:103260008083E091A104F091A204EC0DFD1D80810A
:103270009181009739F482E090E0998388838DEF03
:103280009FEFBCCFA50170E060E00E948534E09123
:10329000A104F091A204EC0DFD1DF28281E090E00A
:1032A0009983888390E080E0A9CFCF92DF92EF925C
:1032B000FF920F931F93CF93DF93860F971FFC010D
:1032C000028113818091A1049091A204892B81F045
:1032D00082E090E0FA01918380838CEF9FEFDF9191
:1032E000CF911F910F91FF90EF90DF90CF900895B5
:1032F000C801B0E0A0E00197A109B1098F3F9F4F3D
:10330000A105B10540F082E090E0FA01918380834D
:103310008EEF9FEFE4CF7A0183E1809F6001819F70
:10332000D00C1124C6010E948D24EC01009741F4B9
:1033300082E090E0F701918380838DEF9FEFCFCF04
:10334000A60170E060E00E948534D093A204C0938F
:10335000A1041093A4040093A30490E080E02FEF55
:103360003FEF41E061E070E08017910741F481E0B8
:1033700090E0F7019183808390E080E0B0CF3A8BBA
:10338000298B1B864C877E876D87188A1F8601963E
:103390006396EACFEF92FF921F93CF93DF93EC01F6
:1033A00010E0F12CE12C6A811617B0F083E0689FE1
:1033B000B0011124AE014F5E5F4FC7010E94F2249D
:1033C000009721F02FEF3FEF3A8B298BDF91CF91C0
:1033D0001F91FF90EF900895612FCE018DDC61E089
:1033E00070E00E943A23E816F90608F47C011F5F9A
:1033F000DACFF89420919F043091A00481E0211548
:10340000310509F080E0232B09F0789408952F927C
:103410003F924F925F926F927F928F929F92AF9264
:10342000BF92CF92DF92EF92FF920F931F93CF93B1
:10343000DF933C01660E771EF301828193814C017C
:10344000B12CA12CC091A104D091A204209769F0C5
:1034500021E030E06091A3047091A40486179707DF
:1034600010F030E020E0232BD1F482E090E0FA016C
:10347000918380838EEF9FEFDF91CF911F910F910A
:10348000FF90EF90DF90CF90BF90AF909F908F9084
:103490007F906F905F904F903F902F900895809213
:1034A000510290925202A0925302B092540263E1F0
:1034B000689F9001699F300D1124C20FD31FF30143
:1034C0008181833040F082E090E0FA019183808333
:1034D00086EF9FEFD1CF2A012B813C81232BF1F482
:1034E000288139819F8191FF2EC0232B09F46FC061
:1034F0002091A6049A81422F490F5527551FBA01E2
:1035000041E050E06138710514F050E040E0452B97
:1035100009F45DC02A87920F9093A60481508230EF
:1035200008F481C066DF882309F4D8C0F3018181E3
:10353000813009F48DC008F47BC0823009F4C6C024
:1035400090E080E0ADC0232B09F441C02091A50498
:103550009A81E22FE90FFF27FF1F41E050E0ED3F86
:10356000F10514F050E040E0452B89F12A87920FD5
:103570009093A504D3CFA081B181A20FB31F119660
:103580006C91060F111D0196295F3F4F8417950717
:1035900094F38D859E85089F1001099F300C189F1C
:1035A000300C1124C114D104D1F48F8184FF17C0D1
:1035B0000E948823F5E02F0E311C21E0821593052F
:1035C00008F420E0A701435F5F4F21110EC082E0A5
:1035D00090E0F2019183808387EF9FEF4DCF0E94AF
:1035E00088232FEF221A320AE8CF88819981E80ECA
:1035F000F91EF70114830383FFEFCF1ADF0A7A0164
:103600008A818C151D0409F00CF48CCFE881F981B6
:10361000EE0DFF1D428150E030E020E010E000E0C0
:1036200090E080E0B3CFF12CE12CD12CC12CE8CF7D
:1036300081E090E09C838B83F1DA882309F480CFCA
:1036400081E090E00E948B1280E40E94991278CF72
:1036500089899A89019661F083E090E09C838B834D
:1036600082E090E00E948B1280E40E94931268CF67
:103670008D819E81209147023091480282179307E5
:10368000D1F460914B0270914C02AE014F5E5F4FDE
:103690008091490290914A020E9411260097E1F21E
:1036A000789422E030E0F20131832083892B99F075
:1036B0008DEF9FEFE1CE89288A288B2869F6029743
:1036C00058F6CE0167DE188A1F86E8CF82E090E0C8
:1036D0009C838B8335CF90E080E0CECE82E090E07B
:1036E000F2019183808385EF9FEFC6CE8F929F92E8
:1036F000AF92BF92CF92DF92EF92FF920F931F9300
:10370000CF93DF93EA018C01060F171FF801818127
:10371000833098F082E090E09983888386EF9FEF72
:10372000DF91CF911F910F91FF90EF90DF90CF909D
:10373000BF90AF909F908F9008958091A104909139
:10374000A204892B61F081E090E02091A3043091E4
:10375000A404232B11F490E080E0892B39F482E05B
:1037600090E0998388838EEF9FEFDACF42DE882343
:1037700009F4E0C0F8018181813009F496C0E8F0D5
:10378000823099F42091A3043091A404E091A10423
:10379000F091A20490E080E041E050E02817390762
:1037A00009F0BEC03BDA811117C0789481E090E047
:1037B0009983888390E080E0B3CF2091A304309177
:1037C000A404E091A104F091A20490E080E041E023
:1037D00050E02817390741F481E090E00E948B12F5
:1037E00080E40E949912E1CF63817481672B11F00C
:1037F0005483438301967396ECCFE091A104F0913A
:10380000A204E00FF11F2381348122303105D9F465
:10381000218932892F3F3F4FB1F425813681409174
:103820004702509148022417350761F5AF014F5EFA
:103830005F4F60914B0270914C02809149029091D0
:103840004A020E941126EFEFCE1ADE0AEE0AFE0AA5
:103850000D5E1F4F4091A3045091A40470E060E0FE
:10386000C416D506E606F70644F5009731F27894BB
:10387000892B09F49BCF82E090E0998388838DEFB8
:103880009FEF4ECFC114D104E104F104E1F62230E0
:103890003105C8F6CF017EDDE091A104F091A204CC
:1038A000E00FF11F108A1786CECF10E000E090E005
:1038B00080E0C12CD12C7601CDCF0097C1F610E06D
:1038C00000E0812C912C540183E0E82EF12C1AC0E9
:1038D000E091A104F091A204E00FF11F8381948193
:1038E000029749F4F482E38282E090E00E948B1216
:1038F00080E40E949312FFEF8F1A9F0AAF0ABF0A5B
:103900000D5E1F4F8091A3049091A404B0E0A0E04D
:1039100088169906AA06BB06DCF290E080E0A7CFE5
:10392000638174816230710511F45483438301967D
:10393000739634CF82E090E09983888385EF9FEF80
:10394000EFCE0097B9F48FEFFB01808320915102F5
:103950003091520243E1429FC001439F900D1124D8
:10396000E091A104F091A204E80FF91F8285FB0108
:10397000818308950C94421288E090E0FA019183CB
:10398000808390E080E008951092A00410929F043C
:10399000E1EAF4E086E0DF011D928A95E9F78DE423
:1039A00098E190939E0480939D04089580919D04D6
:1039B00090919E0408952F923F924F925F926F9242
:1039C0007F928F929F92AF92BF92CF92DF92EF92AF
:1039D000FF920F931F93CF93DF93CDB7DEB72F974F
:1039E0000FB6F894DEBF0FBECDBFF894E0919F04F0
:1039F000F091A0043196F093A004E0939F04789492
:103A00004090A1045090A2044114510409F40CC246
:103A1000E091A304F091A404EF2B09F405C22D87D3
:103A200049875A876B877C8798878F831201B12CCF
:103A3000A12C10E000E08091A3049091A404A816AA
:103A4000B90618F40115110529F1F89480919F0425
:103A50009091A00401979093A00480939F04789480
:103A6000C8012F960FB6F894DEBF0FBECDBFDF9111
:103A7000CF911F910F91FF90EF90DF90CF90BF906B
:103A8000AF909F908F907F906F905F904F903F90FE
:103A90002F9008957101E418F508D10117968C91C3
:103AA000179781FD54C013968D919C91149703979D
:103AB00009F04DC015968D919C91EF81F8858E1778
:103AC0009F0709F044C0B50190E080E07FD48A836D
:103AD0002091A1043091A2043D832C833D853323A2
:103AE00009F44CC04C815D81452B09F49AC1809149
:103AF000A3049091A404A816B90608F092C1C501C8
:103B0000D7D88823E9F06C817D816E0D7F1D7D8380
:103B10006C83DB011F968D919C91892B89F0D12CB0
:103B2000C12CF12CE12CAC81BD8112968C911297A5
:103B30008E151F0409F094F450961C921E921F9744
:103B40002A81222321F0B50190E080E041D43FEFAB
:103B5000A31AB30A43E1240E311C6DCFAC81BD81A1
:103B6000ED91FC91EC0DFD1D858196810FD7BFEF86
:103B7000EB1AFB0AEDE0CE0ED11CD5CFEC81FD8116
:103B8000309709F44EC18091A3049091A404A81623
:103B9000B90608F046C1EE0DFF1DFF87EE87C5018F
:103BA00087D88B83882339F1AE85BF851F968D9189
:103BB0009C915097019621E01D964D915C91841740
:103BC000950709F020E02E831982712C10E000E0A7
:103BD000AE85BF8512968C91781608F45DC0EE858F
:103BE000FF85878590890196658576850E942534B5
:103BF000908B8787A5CFB1E0BE83E6CF99249394BD
:103C00006BC08BD6F6019683858382C0D601ED907A
:103C1000FC90B7E06B9EE00CF11C1124F70163816E
:103C2000748180818F3F61F121E030E002C0220F7A
:103C3000331F8A95E2F7C901092E000CAA0BBB0BB2
:103C4000FB01408151816281738184239523A623E6
:103C5000B72321E0892B8A2B8B2B09F420E0D40198
:103C60002C93D70111968C91F60123853485820F10
:103C7000932F911D880E991E1486138663949BC002
:103C8000418150E0C4010E947C34EBCF998206EF61
:103C90001FEFC5C01982C3C0F981F111A0CFEDE0BB
:103CA0007E9E70011124AE85BF85CD90DC90CE0C38
:103CB000DF1C15D49D838C83BB81BB2309F49ECF6D
:103CC00081E0EE85FF8527853089232B09F080E090
:103CD000982E882309F458C0672D8E859F850CD8AF
:103CE000D60118969C938E93179761E070E0C2D42A
:103CF000EE85FF85218932892F3F320709F481CF74
:103D0000BC01C901CFD7D60116969C938E93159707
:103D1000D60115968D919C911697009709F4B6CF10
:103D2000EC81FD818E0F9F1F1A969C938E9319979D
:103D3000AE85BF85ED91FC911197EE0EFF1EF70148
:103D400021853285148613861A968C91870DD901A8
:103D50008D93711016C0EE85FF85878184FF11C099
:103D600049855A856B857C85F9014183528363833C
:103D70007483F701838594850496A80FB91F148670
:103D80001386F701B287A187D60115968D919C9174
:103D90001697892B09F443C0EE85FF85258136816E
:103DA00080914702909148022817390779F01996B7
:103DB0008D909C90612CD60112968C91129768166A
:103DC00008F424CF1A969C928E921997BE81BB2339
:103DD00009F460CF61E070E0F601878190854AD4F4
:103DE000D6011796ED90FC90189715964D915C9121
:103DF000E1E0F0E0BA81BB2311F0F0E0E0E00C81FB
:103E00001D819C01B501882799278E1B9F0B6AD3C2
:103E10008C01892B21F0F60185819681B7D57394A9
:103E2000D7CE0FEF1FEF8CCE10E000E00ECE2F921A
:103E30003F924F925F926F927F928F929F92AF923A
:103E4000BF92CF92DF92EF92FF920F931F93CF9387
:103E5000DF938091A1049091A20410E000E0892BEF
:103E6000A9F0C7DA0AEF1FEF882381F02090A3049E
:103E70003090A404C091A104D091A204D12CC12CF3
:103E800010E000E02C143D04A9F47894C801DF91FF
:103E9000CF911F910F91FF90EF90DF90CF90BF9047
:103EA000AF909F908F907F906F905F904F903F90DA
:103EB0002F900895C6010E945816882309F18B811E
:103EC0009C810397E9F48F859889892BC9F0B60105
:103ED00090E080E07BD221E030E0882311F030E0F8
:103EE00020E044245524421A530AB12CA12C912CD1
:103EF000812C8A818815190409F038F4188A1F86E4
:103F00004FEFC41AD40A6396BDCFE881F981EA0D58
:103F1000FB1D85819681892BA1F161E070E087818D
:103F20009085A8D33C01DBD28C01E881F981EA0DB0
:103F3000FB1D8185928525813681200F311FAC01C3
:103F4000421B530B9A0147815085421B530B70E073
:103F500060E00E948534E881F981EA0DFB1DE7806D
:103F6000F084458156819301B601C201BBD28C0118
:103F7000892B39F0E881F981EA0DFB1D8581968155
:103F800005D55FEF851A950A8DE0A80EB11CB1CF5B
:103F900030CA789408952F923F924F925F926F9219
:103FA0007F929F92AF92BF92CF92DF92EF92FF9259
:103FB0000F931F93CF93DF9300D000D0CDB7DEB720
:103FC0000091A1041091A204992493940115110564
:103FD00009F43EC0A090A304B090A4040ADA982E7D
:103FE0008823B1F11092A2041092A1041092A404AB
:103FF0001092A3041092A5041092A6048FEF9FEFD5
:10400000DC018093510290935202A0935302B0932B
:10401000540278947FD31E830D83C12CD12C76015A
:10402000C501B0E0A0E089839A83AB83BC832224DE
:104030002A94322C89819A81AB81BC81C816D90619
:10404000EA06FB06F4F0C801A1D480E40E949912AC
:10405000892D26960FB6F894DEBF0FBECDBFDF9137
:10406000CF911F910F91FF90EF90DF90CF90BF9075
:10407000AF909F907F906F905F904F903F902F9068
:104080000895AD81BE8115968D919C9116972091D2
:1040900047023091480282179307D1F451968D91CF
:1040A0009C91EED5ED81FE8180819181B12CA12C76
:1040B000412C512C3201892B89F5BFEFCB1ADB0A39
:1040C000EB0AFB0AED81FE817396FE83ED83B2CF8E
:1040D000C114D104E104F10429F7029718F7ED8126
:1040E000FE81818992898F3F980709F029D5AD819A
:1040F000BE8152963C922E925197D4CF8A0D9B1D31
:10410000DC018D919C91009709F040D4BFEF4B1AD0
:104110005B0A6B0A7B0AEDE0AE0EB11CAD81BE817D
:104120008D919C91119712964C9150E070E060E057
:1041300044165506660677060CF328D4BECFCF93F7
:10414000DF93EA0128DF811109C082E090E09983C2
:10415000888385EF9FEFDF91CF91089581E090E014
:104160000E948B1281E090E09983888390E080E048
:10417000F2CF11DF10929E0410929D04089542E048
:1041800050E062EE72E00C94A912FF920F931F931D
:10419000CF93DF938A01EC01C60FD71FF980B9D204
:1041A0000897F816190671F068F082E090E0F801BF
:1041B000918380838EEF9FEFDF91CF911F910F91BD
:1041C000FF9008956C817D818E819F814B810E943B
:1041D0003E15811108C082E090E0F8019183808350
:1041E00084EF9FEFE9CFF9800E9439154F2D50E001
:1041F000BE01685F7F4F0E947C3489810E94A815B0
:1042000081E090E0F8019183808390E080E0D4CF5A
:10421000DF92EF92FF920F931F93CF93DF938A0168
:10422000EC01C60FD71F0E9439157C01D98071D2CD
:10423000DD2059F0029721E030E0D816190619F078
:1042400010F030E020E0232B79F482E090E0F801D8
:10425000918380838EEF9FEFDF91CF911F910F911C
:10426000FF90EF90DF900895EF2841F482E090E016
:10427000F8019183808384EF9FEFEECFF9800E9455
:1042800039154F2D50E0BE016E5F7F4F0E947C3488
:1042900089810E94A81581E090E0F80191838083D4
:1042A00090E080E0D9CF8FEB90E29093A8048093C8
:1042B000A70408958091A7049091A80408950895F3
:1042C000FC0111821082938382830895DB011D9289
:1042D0001C92DC011296ED91FC911397718360831F
:1042E00013967C936E9312970895FC0180819181BF
:1042F000DB018D939C93A081B181109741F08D914A
:104300009C9191838083892B11F4F383E283089538
:10431000FC0180819181DB018D939C93892B11F4A9
:1043200073836283718360830895FC01118210821C
:10433000938382830895CF93DF931F921F92CDB70B
:10434000DEB71A821982F894BE016F5F7F4F8EEA42
:1043500094E0CBDF89819A81009709F017D3898196
:104360009A81892B89F7BE016F5F7F4F82EB94E0C2
:10437000BCDF89819A81009709F008D389819A81ED
:10438000892B89F778940F900F90DF91CF91089542
:10439000CF93DF931F921F92CDB7DEB71A82198297
:1043A000F894BE016F5F7F4F8AEA94E09EDF8981B7
:1043B0009A81009709F0EAD289819A81892B89F73D
:1043C00078940F900F90DF91CF91089581E0089538
:1043D00090E080E00895EF92FF920F931F93CF93A8
:1043E000DF931F921F92CDB7DEB71A821982809198
:1043F000A90407EF1FEF8823A1F1F894BE016F5FB6
:104400007F4F82EB94E071DF789489819A81EE246A
:10441000E394F12C892B51F4F894BE016F5F7F4F28
:104420008EEA94E062DF7894F12CE12C89819A8104
:104430000EEF1FEF0097A9F0FC014281538164E069
:1044400070E074D68C01892B61F0F89469817A81CF
:10445000C701880F991F880F991F82559B4F58DFFE
:104460007894C8010F900F90DF91CF911F910F9119
:10447000FF90EF9008950F931F93CF93DF9300D099
:104480001F92CDB7DEB71C821B821A8219828091DF
:10449000A90407EF1FEF8823C1F0AE014D5F5F4F06
:1044A00064E070E0CE010196B4D68C01892B69F4EA
:1044B000E981FA818B819C8193838283F89469815D
:1044C0007A818AEA94E002DF7894C8010F900F9015
:1044D0000F900F90DF91CF911F910F910895B9D751
:1044E000049608958F929F92AF92BF92CF92DF92DF
:1044F000EF92FF920F931F93CF93DF931F921F9220
:10450000CDB7DEB71A821982BC016F5F7F4F63306F
:10451000710598F0AA24AA94BA2CC5010F900F90A7
:10452000DF91CF911F910F91FF90EF90DF90CF908F
:10453000BF90AF909F908F9008954115510551F312
:10454000480159018A016C01CADF8815990511F7E4
:10455000E114F104F9F28E0D9F1DA816B906D0F2F0
:104560008091A9048823F1F0F894B5016450710991
:104570009701AE014F5F5F4FC8010496DFD65C0123
:10458000892B71F489819A81F80193838283C60112
:10459000880F991F880F991FB80182559B4F96DE8F
:1045A0007894BBCF87EFA82EBB24BA94B6CFAF9236
:1045B000BF92CF92DF92EF92FF920F931F93CF9310
:1045C000DF931F921F92CDB7DEB71A821982892B13
:1045D00009F047C06115710509F443C04115510543
:1045E00009F43FC02115310509F43BC0011511053F
:1045F000C1F18091A9048823B9F179016A015B01B5
:10460000F894BE016F5F7F4F8AEA94E06EDE789483
:1046100089819A81009759F1DC0112966D917C9104
:10462000A8010496A4D68C01E981FA81D501ED9305
:10463000FC93828193810496F601918380834FDFFE
:10464000D7018D939C93C8010F900F90DF91CF916C
:104650001F910F91FF90EF90DF90CF90BF90AF90A0
:1046600008950FEF1FEFEFCF07EF1FEFECCF0EEF27
:104670001FEFE9CFCF93DF93EC01672B71F4F2D6F4
:104680008C179D0760F0E5D62496C80FD91FE4D695
:104690008C0F9D1FDF91CF910895E1D6F1CF90E06F
:1046A00080E0F8CF0F931F93CF93DF932091A9045D
:1046B00021112BC08B01EC018EEA94E001DE82EB2C
:1046C00094E0FEDD8AEA94E0FBDD97D00097C1F428
:1046D000C9D670E060E0CEDF45E552E062E070E010
:1046E00081D1009769F48091550290915602CCD601
:1046F000B801CE0101D5009719F421E02093A90457
:10470000DF91CF911F910F91089584EF9FEFF8CF24
:10471000A6C6A8C6CF93DF93A8D6EC01892B11F4C7
:104720000ADE36DECE01DF91CF910895CF93DF937D
:104730009CD6EC01892B09F4FEDDCE01DF91CF91EF
:10474000089580915502909156020895CF93DF937A
:104750008091A904D0E0C0E08823D1F09AD6EC0182
:10476000892BB1F4E8DD14DE809155029091560258
:10477000E7D1E8D2EC01892B59F48EEA94E0D5DD3B
:1047800082EB94E0D2DD8AEA94E0CFDD1092A904B6
:10479000CE01DF91CF910895EF92FF920F931F9377
:1047A000CF93DF93EC017A018B010F5F1F4F0E9DBA
:1047B000A0010F9D500D1E9D500D112470E060E072
:1047C0000E94853490E080E0F0E0E0E02FEFE81612
:1047D000F90639F4DF91CF911F910F91FF90EF907F
:1047E00008951A8219822883309711F0D283C183E9
:1047F0000196FE01C00FD11FEACFCF92DF92EF9258
:10480000FF920F931F93CF93DF9301EF15E00C7F7F
:1048100043E050E067E572E08DE592E01AD487E569
:10482000E82E82E0F82E9DE5C92E92E0D92EC0E751
:10483000D6E0D7014D915D917D01F60161917191B5
:104840006F01198308835D834C835B834A837F8375
:104850006E839B012F5F3F4F249FC001259F900DCA
:10486000349F900D1124998788870115110511F047
:10487000C80192DF88859985080F191F2A96FDE5E2
:10488000EF16F2E0FF06A9F6E8EBF4E086E391E02C
:10489000DF019C011D9221503040E1F71092B704D6
:1048A0001092B60410928F0610928E061092930604
:1048B0001092920610929106109290061092950610
:1048C00010929406109297061092960610929906EE
:1048D0001092980610929D0610929C0610929B06CC
:1048E00010929A0610929F0610929E061092A106B0
:1048F0001092A00610926D0610926C0610926F0630
:1049000010926E0690E080E0DF91CF911F910F91A1
:10491000FF90EF90DF90CF9008950097F1F0F8941A
:10492000ADE5B2E0E0E7F6E030E020E04D915D91EA
:1049300048175907A8F0428153814115510581F06C
:104940008AE0829FF001839FF00D1124E059F94F16
:1049500080819181009759F4789490E080E00895E7
:104960002F5F3F4F3A962330310501F7F5CFDC0139
:1049700011966D917C9171836083415051095383ED
:104980004283FC012193CF0178940895009749F167
:10499000DC018E91853041F4E0916E06F0916F0656
:1049A0003097F9F0CD0119948530D8F4282F30E0F4
:1049B000F8948FEF8C938AE0829FF001839FF00D33
:1049C0001124E059F94F8081918112969C938E9326
:1049D0001197B183A083828193810196938382830F
:1049E00078940895CF92DF92EF92FF920F931F93E6
:1049F000CF93DF939C018BEB94E08C7F41155105A5
:104A000009F49BC02115310509F497C061157105A2
:104A100009F493C07A01AB01B9016D5F7F4F6C7FE0
:104A20009B012F5F3F4F249F8001259F100D349FD6
:104A3000100D1124F89420918E0630918F06232BAF
:104A400059F420919606309197062115310569F1A8
:104A50002017310708F058C0209198063091990628
:104A6000232B91F42091960630919706820F931F85
:104A70002091A0063091A1062115310509F441C00D
:104A80002017310708F056C07894CFEFDFEF86EF9C
:104A90009FEFF701D183C083DF91CF911F910F91D9
:104AA000FF90EF90DF90CF900895C3E0D0E0C090EA
:104AB000B604D090B70423E331E02C193D09201748
:104AC000310710F32AE02C9FF0012D9FF00D1124E7
:104AD000E059F94F91838083558344835383428304
:104AE0007783668311870087009709F055DE0C0DE8
:104AF0001D1D1093B7040093B604789490E080E0F5
:104B0000C8CFC4E0D0E0D3CFC3E0D0E02AE02C9FF0
:104B1000F0012D9FF00D1124E059F94F918380830E
:104B2000558344835383428377836683009729F3B5
:104B300033DEE3CFC4E0D0E0E9CF8FEF9FEFACCF1F
:104B40009C010397029708F069C0F89484E09AE00A
:104B5000482F50E0241735070CF44DC091E08AE04F
:104B6000829FF001839FF00D1124E059F94F1182CB
:104B70001082158214821382128217821682992360
:104B8000B1F180918E0690918F06892BA9F4209126
:104B90009606309197062115310571F08091B60483
:104BA0009091B704821B930B9093B7048093B60443
:104BB0001092970610929606809198069091990609
:104BC000892BA9F42091A0063091A1062115310569
:104BD00071F08091B6049091B704821B930B90936F
:104BE000B7048093B6041092A1061092A0067894A0
:104BF00090E080E00895949FF001959FF00D1124BE
:104C0000E059F94F40815181452B31F44085518560
:104C1000452B11F481509CCF90E0A1CF8FEF9FEFF7
:104C200008954115510549F1009739F16115710554
:104C300021F1F89420916C0630916D06232BB9F484
:104C400020916E0630916F06232B89F490936D06A8
:104C500080936C0670936F0660936E06789425E0DF
:104C600030E090E080E0FA01318320830895789469
:104C70002FEF3FEF86EF9FEFF6CF8FEF9FEF089577
:104C8000059769F4F89410926D0610926C061092D4
:104C90006F0610926E06789490E080E008958FEF92
:104CA0009FEF08956115710519F4F0E0E0E011C07F
:104CB0008530910581F4E0916C06F0916D06309796
:104CC000A1F3CB0101961995009779F3FC0185E0DA
:104CD0008193CF0108959C01235031092230310581
:104CE00020F72AE0289FD001299FB00D1124A05958
:104CF000B94F2D913C911197232BB9F216962D9116
:104D00003C9117972617370780F2F89412962D9149
:104D10003C9113972115310529F0ED91FC911197E4
:104D2000309711F47894C1CF4181528111965C93F0
:104D30004E932150310913963C932E9312978193F1
:104D40007894C7CFEEEEF5E08EE7DF011D928A95ED
:104D5000E9F7E8EBF4E086E391E0DF019C011D92C6
:104D600021503040E1F71092B7041092B604E0E70A
:104D7000F6E082E3DF011D928A95E9F7ECE6F6E0C2
:104D800084E0DF011D928A95E9F790E080E00895C4
:104D9000CF93DF93C0916302D0916402CF3FDC07D1
:104DA00059F420D4909364028093630297FF09C062
:104DB000D0936402C093630284EF9FEFDF91CF91A1
:104DC000089590E080E0FACF8230910528F4809336
:104DD000A20690E080E008958FEF9FEF08954F9234
:104DE0005F926F927F92AF92BF92CF92DF92EF92DB
:104DF000FF920F931F93CF93DF931F921F92CDB714
:104E0000DEB71A821982009709F478C0611571051E
:104E100009F474C0209163023091640207EF1FEF20
:104E20002F3F3F4F09F444C06B015C01412C512CD2
:104E30003201F12CE12C10E000E09E012F5F3F4F8A
:104E4000A6014E195F09B5016E0D7F1D80916302A9
:104E50009091640226D4892B09F04AC089819A81F5
:104E6000009741F4E114F10429F42091A2062223D1
:104E700009F441C0E80EF91EEC14FD04C8F480E802
:104E8000481684E858068EE16806710418F560E05B
:104E900070E0CB01E5D62AE0420E511C611C711C6A
:104EA0000A3F4FEF140721F0043F8FEF1807A1F4DA
:104EB000C8010F900F90DF91CF911F910F91FF903C
:104EC000EF90DF90CF90BF90AF907F906F905F900A
:104ED0004F90089501EF1FEF81E090E0013F2FEF29
:104EE000120711F090E080E0892B09F4A6CFE0CF03
:104EF00004EF1FEFDDCF0AEF1FEFDACF0FEF1FEF49
:104F0000D7CF4F925F926F927F92AF92BF92CF9224
:104F1000DF92EF92FF920F931F93CF93DF931F9235
:104F20001F92CDB7DEB71A821982009709F478C0B4
:104F30006115710509F474C0209163023091640217
:104F400007EF1FEF2F3F3F4F09F444C06B015C0197
:104F5000412C512C3201F12CE12C10E000E09E019B
:104F60002F5F3F4FA6014E195F09B5016E0D7F1DE2
:104F700080916302909164024AD3892B09F04AC060
:104F800089819A81009741F4E114F10429F4209178
:104F9000A206222309F441C0E80EF91EEC14FD0418
:104FA000C8F480E4481682E458068FE0680671046D
:104FB00018F560E070E0CB0153D62AE0420E511C98
:104FC000611C711C0E3F4FEF140721F0043F8FEF5F
:104FD0001807A1F4C8010F900F90DF91CF911F9196
:104FE0000F91FF90EF90DF90CF90BF90AF907F90A8
:104FF0006F905F904F90089502EF1FEF81E090E077
:10500000023F2FEF120711F090E080E0892B09F4A6
:10501000A6CFE0CF04EF1FEFDDCF0EEF1FEFDACF0B
:105020000FEF1FEFD7CF80916302909164028F3F03
:10503000980749F0CFD2892B49F48FEF9FEF9093D7
:1050400064028093630290E080E0089584EF9FEF14
:105050000895CF92DF92EF92FF920F931F93CF9319
:10506000DF9321E04115510509F020E0415051093D
:1050700021112CC0DC01FB01D12CC12C21E022C06C
:105080003FEFC31AD30A7D010D911D91E701EA801C
:10509000FB80E016F106A8F420813181E280F380E4
:1050A000F182E08233832283ED90FC9011979D0181
:1050B00022503109E901F982E88211961C930E937E
:1050C00020E03296C416D506D8F2D2CFDF91CF9128
:1050D0001F910F91FF90EF90DF90CF900895FC010A
:1050E000680F791F90E080E0E617F70709F408954C
:1050F0002191820F911DF8CF2091A306211113C099
:1051000047DE009791F41092A9061092A80610921B
:10511000A7061092A6061092A5061092A40621E0FA
:105120002093A306089584EF9FEF0895AF92BF9256
:10513000CF92DF92EF92FF920F931F93CF93DF9363
:10514000009709F460C04630510508F45CC0209116
:10515000A306C7EFDFEF222309F449C08C01060F35
:10516000171FF801C080D180C114D10409F44EC0CA
:1051700096012A5F3F4F4217530708F447C07C014E
:105180008091A8069091A90693838283B6016C5FF3
:105190007F4F5801A60EB71EC801A1DFF50191830C
:1051A000808364E070E0C8011ADEEC01892BF9F419
:1051B00081E090E009DEB601C801049610DEEC0142
:1051C000892B91F462E070E0C50109DEEC01892BC6
:1051D00059F4C701DBDB8091A8069091A9060196DE
:1051E0009093A9068093A80690E080E0EDDDCE01C3
:1051F000DF91CF911F910F91FF90EF90DF90CF90B3
:10520000BF90AF900895CFEFDFEFF1CFC9EFDFEFA1
:10521000EECF6F927F928F929F92AF92BF92CF927A
:10522000DF92EF92FF920F931F93CF93DF9300D003
:105230001F92CDB7DEB7009709F47AC0411551052A
:1052400009F476C02091A30607EF1FEF222309F48B
:105250004DC03A017B015C0164E070E0CE01019633
:1052600050DE8C01892B09F041C009811A8101159A
:10527000110509F45AC0480186E0880E911CB70157
:10528000680D791D80916502909166020BDD6C01BD
:10529000009709F450C0A70170E060E00E948534D7
:1052A00089819A81AB81BC81EC0CFD1CF701819353
:1052B0009193A193B1937F0181E090E085DDB801E6
:1052C000C7011FDE892B31F562E070E0C701800F56
:1052D000911F17DE8C01892BE9F490E080E074DDEA
:1052E000F501D182C082F30191828082C8010F90C2
:1052F0000F900F900F90DF91CF911F910F91FF9022
:10530000EF90DF90CF90BF90AF909F908F907F9065
:105310006F90089590E080E057DDF50111821082D2
:10532000F30111821082C60131DB09EF1FEFDECFDE
:105330000FEF1FEFDBCF06EF1FEFD8CF0097A1F0E5
:105340004115510589F02115310571F0F9013696A5
:105350006E177F0748F0DC012D933C93DA01ED9343
:10536000FC9390E080E008958FEF9FEF0895AF9257
:10537000BF92CF92DF92EF92FF920F931F93CF9342
:10538000DF93009709F45FC04115510509F45BC034
:105390006530710508F457C02091A306C7EFDFEF11
:1053A000222391F1DC01CD90DC9011971296ED91C2
:1053B000FC9196012A5F3F4FC9EFDFEF26173707B1
:1053C00019F5C091A406D091A506209749F521E0D2
:1053D00030E03093A5062093A4067A018C01F09367
:1053E000A706E093A6065601B4E0AB0EB11CB501CA
:1053F00076DE0A0D1B1DF80120813181821793078B
:1054000029F5D701CD92DC92CE01DF91CF911F918A
:105410000F91FF90EF90DF90CF90BF90AF900895E5
:105420002091A6063091A7062F5F3F4FCCEFDFEF0C
:10543000E217F30790F2CBEFDFEF2E173F0768F28A
:10544000D0E0C0E0CACFCFEFDFEFDECFC3EFDFEFBA
:10545000DBCF84E090E0089582E090E008958CEF47
:105460009FEF089580E290E008951092A9061092AF
:10547000A8061092A7061092A6061092A5061092F2
:10548000A40690E080E00895909366028093650200
:1054900008958091A306882391F0C5DD009789F4D3
:1054A0001092A9061092A8061092A7061092A606BE
:1054B0001092A5061092A4061092A306089590E0FB
:1054C00080E00895009749F06115710531F0FC0105
:1054D00011821082FB01118210820895F3CF26E021
:1054E00030E040E855E260E070E090E080E000C02D
:1054F0008130910569F01CF4892B39F008958230D0
:10550000910549F0039751F0089587EB96E0D0C6D6
:1055100084E597E0FCCF81EF97E0F9CF8EE898E043
:10552000F6CF1F920F920FB60F9211240BB60F9267
:105530002F933F934F935F936F937F938F939F939B
:10554000AF93BF93EF93FF938BEC93EF9093250171
:1055500080932401BAD0FF91EF91BF91AF919F91B9
:105560008F917F916F915F914F913F912F910F900C
:105570000BBE0F900FBE0F901F9018958BEC93EF02
:105580009093250180932401A3E7B0E08C918E7F56
:105590008C93E0E2F1E080818C7F8083E1E2F1E0B6
:1055A0008081877E808380818560808380818D7FFC
:1055B00080838C9181608C930895E3E7F0E0808193
:1055C00090819E7F90838170089581E0089510926C
:1055D000AA06089568EE73E080E090E041D390E081
:1055E00080E0089526E030E040E050E16EE070E0B9
:1055F00090E080E07DDF87EB96E090D5892B21F06D
:1056000087EB96E0A5D5F7CF90E080E00895CF92A4
:10561000DF92EF92FF920F931F93CF93DF936B0173
:105620007A01E9011982188287EB96E077D5892BF8
:1056300069F18601CC24C39482E0D82E8091AA0619
:10564000811110C087EB96E083D50297B9F7C0921D
:10565000AA06F801D1928F018881998101969983D8
:105660008883ECCF888199818E159F0578F487EB2C
:1056700096E06ED58F3F9807A9F3F80181938F01CB
:1056800088819981019699838883ECCF90E080E0AE
:10569000DF91CF911F910F91FF90EF90DF90CF900E
:1056A00008950F931F93CF93DF93EA01890187EB4E
:1056B00096E00E94E833F801D183C08390E080E057
:1056C000DF91CF911F910F9108958091AB0691E0EA
:1056D000980F9093AB06882349F021E030E0309397
:1056E000AD062093AC068093AB06089578940E9493
:1056F0007305F8948091AB068150F5CF0F931F93FB
:10570000CF93DF931092790910927809DFD2E7DE08
:10571000C0916E02D0916F02198218826FEF7FEFF5
:10572000CB010E944D0570E060E090E080E00E94B7
:10573000C803009709F042C00E943D0AF89478948B
:10574000BE0163517F4F8A819B810E94CB03892BCD
:1057500071F46FEF7FEFCB010E945C040E9447055C
:10576000882329F081E0FE01ED50FF4F8083F894FB
:1057700005DF0E944A05882311F080E00BC00E94DB
:1057800047058111FACF81E0FE01ED50FF4F908176
:105790009111F3CF8093780978940E9486128C013E
:1057A0007894CD50DF4F8091780981110CC00E9410
:1057B000980B0E942B05F89490E080E0DF91CF9148
:1057C0001F910F9108950E9428050E944A05882381
:1057D000D9F081E0809379099091790981E0911164
:1057E00080E080937809809179098111E6DE0130AB
:1057F000110529F40E948612892B09F4E8DE0E9423
:1058000086128C01E2DECFCF0E9447058111E1CFE5
:1058100081E098819111DECF80E0DCCF5058BB272A
:10582000AA270ED00DC1FED030F003D120F031F404
:105830009F3F11F41EF4F3C00EF4E095E7FBE9C0BE
:10584000E92F0FD180F3BA17620773078407950712
:1058500018F071F49EF527C10EF4E0950B2EBA2FC7
:10586000A02D0B01B90190010C01CA01A001112466
:10587000FF27591B99F0593F50F4503E68F11A1612
:10588000F040A22F232F342F4427585FF3CF4695A3
:1058900037952795A795F0405395C9F77EF41F16C5
:1058A000BA0B620B730B840BBAF09150A1F0FF0F8F
:1058B000BB1F661F771F881FC2F70EC0BA0F621F7B
:1058C000731F841F48F4879577956795B795F7956B
:1058D0009E3F08F0B3CF9395880F08F09927EE0FFD
:1058E00097958795089571D008F481E0089504D0C4
:1058F0006894B111D9C00895BCD088F09F5790F03A
:10590000B92F9927B751A0F0D1F0660F771F881FE4
:10591000991F1AF0BA95C9F712C0B13081F0C3D0FF
:10592000B1E00895C0C0672F782F8827B85F39F09D
:10593000B93FCCF3869577956795B395D9F73EF443
:1059400090958095709561957F4F8F4F9F4F0895EB
:10595000E89409C097FB3EF4909580957095619509
:105960007F4F8F4F9F4F9923A9F0F92F96E9BB27BF
:105970009395F695879577956795B795F111F8CF3B
:10598000FAF4BB0F11F460FF1BC06F5F7F4F8F4FA6
:105990009F4F16C0882311F096E911C0772321F09C
:1059A0009EE8872F762F05C0662371F096E8862F34
:1059B00070E060E02AF09A95660F771F881FDAF78B
:1059C000880F9695879597F90895990F0008550FB8
:1059D000AA0BE0E8FEEF16161706E807F907C0F075
:1059E00012161306E407F50798F0621B730B840B7D
:1059F000950B39F40A2661F0232B242B252B21F457
:105A000008950A2609F4A140A6958FEF811D811DF6
:105A1000089597F99F6780E870E060E008959FEF30
:105A200080EC089500240A94161617061806090635
:105A3000089500240A941216130614060506089504
:105A4000092E0394000C11F4882352F0BB0F40F48C
:105A5000BF2B11F460FF04C06F5F7F4F8F4F9F4FCC
:105A6000089557FD9058440F551F59F05F3F71F04E
:105A70004795880F97FB991F61F09F3F79F08795B5
:105A80000895121613061406551FF2CF4695F1DF3E
:105A900008C0161617061806991FF1CF86957105CE
:105AA000610508940895E894BB2766277727CB0102
:105AB00097F908958ADF08F48FEF08950BD0C0CFCF
:105AC000B1DF28F0B6DF18F0952309F0A2CFA7CFF9
:105AD0001124EACFC6DFA0F3959FD1F3950F50E0D4
